:1000000043EF01F0FFFFFFFF04C0CBF003C0CAF0D5
:1000100002C0C9F001C0C8F000C0C7F0E9CF84F049
:10002000EACF85F0E1CF86F0E2CF87F09EA01BD02B
:100030009E90152A162A172A030E165C08E3A00EB6
:10004000186E860E196E010E1A6E000E1B6E040ECF
:10005000175C08E3E00E1C6E930E1D6E040E1E6E00
:10006000000E1F6E04009EA466D09E9416C020F061
:10007000166ABFCF21F0000E226E21C001F0006A87
:1000800000C021F001C022F0BE500024216E000EFD
:100090000120226E2050000A09E12350215C186ED5
:1000A00024502258196E000E1A6E1B6E2050010A41
:1000B00011E12350FF08186E24C019F0FF0E1956E5
:1000C000000E1A6E1B6E2150182622501922000EA7
:1000D0001A221B222050020A2AE12350FF08186E20
:1000E00024C019F0FF0E1956000E1A6E1B6EFF0E7B
:1000F0001824006EFF0E1920016E000E1A20026EE9
:10010000000E1B20036E00C018F001C019F002C0E1
:100110001AF003C01BF021500024186E2250012059
:10012000196E000E02201A6E000E03201B6E21C0F5
:1001300023F022C024F0A1A093D0A19017C020F0FA
:10014000176ABCCF21F0000E226E21C001F0006AB8
:1001500000C021F001C022F0BB500024216E000E2F
:100160000120226E2050000A09E12550215C1C6EFE
:10017000265022581D6E000E1E6E1F6E2050010A62
:1001800011E12550FF081C6E26C01DF0FF0E1D5604
:10019000000E1E6E1F6E21501C2622501D22000EC6
:1001A0001E221F222050020A2AE12550FF081C6E41
:1001B00026C01DF0FF0E1D56000E1E6E1F6EFF0E98
:1001C0001C24006EFF0E1D20016E000E1E20026E0C
:1001D000000E1F20036E00C01CF001C01DF002C005
:1001E0001EF003C01FF0215000241C6E225001207D
:1001F0001D6E000E02201E6E000E03201F6E20508A
:10020000030A2AE12550FF081C6E26C01DF0FF0ED0
:100210001D56000E1E6E1F6EFE0E1C24006EFF0E7D
:100220001D20016E010E1E20026E000E1F20036EA7
:1002300000C01CF001C01DF002C01EF003C01FF082
:10024000215000241C6E225001201D6E000E022041
:100250001E6E000E03201F6E21C025F022C026F066
:1002600084C0E9FF85C0EAFF86C0E1FF87C0E2FFE6
:10027000CBC004F0CAC003F0C9C002F0C8C001F08E
:10028000C7C000F0110093EC35F000016D6B6E6B90
:100290006F6B706B1D0ED26E0D0E0C6EFF0E0B6E23
:1002A000FF0E0A6E0C2E01D007D00B2E01D003D00A
:1002B0000A2EFED7FAD7F6D7BF0E0B6EFF0E0A6EC8
:1002C0000B2E01D003D00A2EFED7FAD72B0E0A6EC2
:1002D0000A2EFED70000000000009C8E0E0EC16E9C
:1002E000BA0EC06EFF0E926EFF0E936E1F0E946ECE
:1002F000966A976A8490849284845E6A5F6A606B6F
:10030000F26A9D6AA06A9E6AA16ABD6ABA6A170EFD
:10031000B76E050EBD6E050EBA6E310ECD6E830E34
:100320008C6F0F0E8D6F020E8E6F030E8F6F040E8B
:10033000906F050E916F830E926F0F0E936F070EE5
:10034000946F010E956F060E966F5FEC2DF00C0EFC
:100350000001C26F4FEC34F0FA0EC86E31EC38F089
:10036000D08E9F86A194C00EF26E9D6AA06AD19035
:10037000010E0001716F010E726F0001A1EF12F00A
:10038000730E8C6F000E8D6F020E8E6F720E8F6F5C
:10039000000E906F3DEC37F0010E00018C6F020EE5
:1003A0008D6F730E8E6F000E8F6F50EC36F0730EE4
:1003B0008C6F000E8D6F120E8E6F720E8F6F000E8F
:1003C000906F3DEC37F0020E00018C6F020E8D6FC6
:1003D000730E8E6F000E8F6F50EC36F08482060E17
:1003E0000C6EFF0E0B6EFF0E0A6E0C2E01D007D0A6
:1003F0000B2E01D003D00A2EFED7FAD7F6D71A0E4D
:100400000B6EFF0E0A6E0B2E01D003D00A2EFED704
:10041000FAD7420E0A6E0A2EFED78492010EC26FE0
:100420004FEC34F0020E0001716F346AC5EF12F028
:10043000730E8C6F000E8D6F2E0E8E6F720E8F6F7F
:10044000000E906F3DEC37F0010E00018C6F040E32
:100450008D6F730E8E6F000E8F6F50EC36F0730E33
:100460008C6F000E8D6FF40E8E6F710E8F6F000EFD
:10047000906F3DEC37F0020E00018C6F010E8D6F16
:10048000730E8E6F000E8F6F50EC36F090EF0AF007
:100490000001730E8C6F000E8D6F9E0E8E6F720EAC
:1004A0008F6F000E906F3DEC37F0020E00018C6FE5
:1004B000060E8D6F730E8E6F000E8F6F50EC36F040
:1004C0000C0E4E6E000E4F6E506E516E1C0E6D6F08
:1004D000070E6E6F000E6F6F706F1C0E426E070E70
:1004E000436E000E446E456E000E5A6E000E5B6E3B
:1004F000000E5C6E800E5D6E000E616F000E626F0E
:10050000400E636F800E646F000E566E000E576EC5
:10051000170E586E860E596E76EF0CF00001730EB2
:100520008C6F000E8D6FA80E8E6F720E8F6F000E87
:10053000906F3DEC37F0020E00018C6F060E8D6F50
:10054000730E8E6F000E8F6F50EC36F00C0E4E6EE9
:10055000000E4F6E506E516E110E6D6F070E6E6F66
:10056000000E6F6F706F110E426E070E436E000E1D
:10057000446E456E000E5A6E000E5B6E000E5C6E91
:10058000800E5D6E000E616F000E626F400E636F35
:10059000800E646F000E566E000E576E160E586E6B
:1005A000860E596E76EF0CF00001730E8C6F000E04
:1005B0008D6FB20E8E6F720E8F6F000E906F3DECCE
:1005C00037F0020E00018C6F060E8D6F730E8E6F6A
:1005D000000E8F6F50EC36F00C0E4E6E000E4F6E0C
:1005E000506E516E110E6D6F070E6E6F000E6F6FB5
:1005F000706F110E426E070E436E000E446E456E14
:10060000000E5A6E000E5B6E000E5C6E800E5D6E0C
:10061000000E616F000E626F400E636F800E646F9C
:10062000000E566E000E576E160E586E860E596EE0
:1006300076EF0CF00001730E8C6F000E8D6FBC0E08
:100640008E6F720E8F6F000E906F3DEC37F0020EC2
:1006500000018C6F060E8D6F730E8E6F000E8F6F04
:1006600050EC36F00C0E4E6E000E4F6E506E516E0A
:10067000110E6D6F070E6E6F000E6F6F706F110EA3
:10068000426E070E436E000E446E456E000E5A6EAB
:10069000000E5B6E000E5C6E800E5D6E000E616F74
:1006A000000E626F400E636F800E646F000E566E18
:1006B000000E576E160E586E860E596E76EF0CF0C1
:1006C0000001730E8C6F000E8D6FC60E8E6F720E52
:1006D0008F6F000E906F3DEC37F0020E00018C6FB3
:1006E000060E8D6F730E8E6F000E8F6F50EC36F00E
:1006F0000C0E4E6E000E4F6E506E516E1C0E6D6FD6
:10070000070E6E6F000E6F6F706F1C0E426E070E3D
:10071000436E000E446E456E000E5A6E000E5B6E08
:10072000000E5C6E800E5D6E000E616F000E626FDB
:10073000400E636F800E646F000E566E000E576E93
:10074000170E586E860E596E76EF0CF00001730E80
:100750008C6F000E8D6FD00E8E6F720E8F6F000E2D
:10076000906F3DEC37F0020E00018C6F060E8D6F1E
:10077000730E8E6F000E8F6F50EC36F00C0E4E6EB7
:10078000000E4F6E506E516E1C0E6D6F070E6E6F29
:10079000000E6F6F706F1C0E426E070E436E000EE0
:1007A000446E456E000E5A6E000E5B6E000E5C6E5F
:1007B000800E5D6E000E616F000E626F400E636F03
:1007C000800E646F000E566E000E576E170E586E38
:1007D000860E596E76EF0CF00001730E8C6F000ED2
:1007E0008D6FDA0E8E6F720E8F6F000E906F3DEC74
:1007F00037F0020E00018C6F060E8D6F730E8E6F38
:10080000000E8F6F50EC36F00C0E4E6E000E4F6ED9
:10081000506E516E1C0E6D6F070E6E6F000E6F6F77
:10082000706F1C0E426E070E436E000E446E456ED6
:10083000000E5A6E000E5B6E000E5C6E800E5D6EDA
:10084000000E616F000E626F400E636F800E646F6A
:10085000000E566E000E576E170E586E860E596EAD
:1008600076EF0CF00001730E8C6F000E8D6FE40EAE
:100870008E6F720E8F6F000E906F3DEC37F0020E90
:1008800000018C6F060E8D6F730E8E6F000E8F6FD2
:1008900050EC36F00C0E4E6E000E4F6E506E516ED8
:1008A0001C0E6D6F070E6E6F000E6F6F706F1C0E5B
:1008B000426E070E436E000E446E456E000E5A6E79
:1008C000000E5B6E000E5C6E800E5D6E000E616F42
:1008D000000E626F400E636F800E646F000E566EE6
:1008E000000E576E170E586E860E596E76EF0CF08E
:1008F0000001730E8C6F000E8D6FEE0E8E6F720EF8
:100900008F6F000E906F3DEC37F0020E00018C6F80
:10091000060E8D6F730E8E6F000E8F6F50EC36F0DB
:100920000C0E4E6E000E4F6E506E516E1C0E6D6FA3
:10093000070E6E6F000E6F6F706F1C0E426E070E0B
:10094000436E000E446E456E000E5A6E000E5B6ED6
:10095000000E5C6E800E5D6E000E616F000E626FA9
:10096000400E636F800E646F000E566E000E576E61
:10097000170E586E860E596E76EF0CF00001730E4E
:100980008C6F000E8D6FF80E8E6F720E8F6F000ED3
:10099000906F3DEC37F0020E00018C6F060E8D6FEC
:1009A000730E8E6F000E8F6F50EC36F00C0E4E6E85
:1009B000000E4F6E506E516E1C0E6D6F070E6E6FF7
:1009C000000E6F6F706F1C0E426E070E436E000EAE
:1009D000446E456E000E5A6E000E5B6E000E5C6E2D
:1009E000800E5D6E000E616F000E626F400E636FD1
:1009F000800E646F000E566E000E576E170E586E06
:100A0000860E596E76EF0CF00001730E8C6F000E9F
:100A10008D6F020E8E6F730E8F6F000E906F3DEC18
:100A200037F0020E00018C6F060E8D6F730E8E6F05
:100A3000000E8F6F50EC36F00C0E4E6E000E4F6EA7
:100A4000506E516E110E6D6F070E6E6F000E6F6F50
:100A5000706F110E426E070E436E000E446E456EAF
:100A6000000E5A6E000E5B6E000E5C6E800E5D6EA8
:100A7000000E616F000E626F400E636F800E646F38
:100A8000000E566E000E576E160E586E860E596E7C
:100A900076EF0CF00001730E8C6F000E8D6F0C0E54
:100AA0008E6F730E8F6F000E906F3DEC37F0020E5D
:100AB00000018C6F060E8D6F730E8E6F000E8F6FA0
:100AC00050EC36F00C0E4E6E000E4F6E506E516EA6
:100AD000110E6D6F070E6E6F000E6F6F706F110E3F
:100AE000426E070E436E000E446E456E000E5A6E47
:100AF000000E5B6E000E5C6E800E5D6E000E616F10
:100B0000000E626F400E636F800E646F000E566EB3
:100B1000000E576E160E586E860E596E76EF0CF05C
:100B20000001730E8C6F000E8D6F160E8E6F730E9C
:100B30008F6F000E906F3DEC37F0020E00018C6F4E
:100B4000060E8D6F730E8E6F000E8F6F50EC36F0A9
:100B50000C0E4E6E000E4F6E506E516E4D0E6D6F40
:100B6000050E6E6F000E6F6F706F4D0E426E050EAC
:100B7000436E000E446E456E000E5A6E000E5B6EA4
:100B8000000E5C6E800E5D6E000E616F000E626F77
:100B9000000E636F810E646F000E566E000E576E6E
:100BA000620E586E850E596E76EF0CF00001730ED2
:100BB0008C6F000E8D6F200E8E6F730E8F6F000E78
:100BC000906F3DEC37F0020E00018C6F060E8D6FBA
:100BD000730E8E6F000E8F6F50EC36F00D0E4E6E52
:100BE000000E4F6E506E516EC70E6D6F050E6E6F1C
:100BF000000E6F6F706FC70E426E050E436E000ED3
:100C0000446E456E000E5A6E000E5B6E000E5C6EFA
:100C1000800E5D6E000E616F000E626F000E636FDE
:100C2000810E646F000E566E000E576E620E586E87
:100C3000850E596E76EF0CF00001730E8C6F000E6E
:100C40008D6F2A0E8E6F730E8F6F000E906F3DECBE
:100C500037F0020E00018C6F060E8D6F730E8E6FD3
:100C6000000E8F6F50EC36F00C0E4E6E000E4F6E75
:100C7000506E516E4D0E6D6F050E6E6F000E6F6FE4
:100C8000706F4D0E426E050E436E000E446E456E43
:100C9000000E5A6E000E5B6E000E5C6E800E5D6E76
:100CA000000E616F000E626F000E636F810E646F45
:100CB000000E566E000E576E620E586E850E596EFF
:100CC00076EF0CF00001730E8C6F000E8D6F340EFA
:100CD0008E6F730E8F6F000E906F3DEC37F0020E2B
:100CE00000018C6F060E8D6F730E8E6F000E8F6F6E
:100CF00050EC36F00F0E4E6E000E4F6E506E516E71
:100D0000710E6D6F040E6E6F000E6F6F706F710E4F
:100D1000426E040E436E000E446E456E000E5A6E17
:100D2000000E5B6E000E5C6E800E5D6E000E616FDD
:100D3000000E626F400E636F810E646F000E566E80
:100D4000000E576E160E586E850E596E76EF0CF02B
:100D50000001730E8C6F000E8D6F3E0E8E6F730E42
:100D60008F6F000E906F3DEC37F0020E00018C6F1C
:100D7000060E8D6F730E8E6F000E8F6F50EC36F077
:100D80000C0E4E6E000E4F6E506E516E890E6D6FD2
:100D9000030E6E6F000E6F6F706F890E426E030E42
:100DA000436E000E446E456E000E5A6E000E5B6E72
:100DB000000E5C6E800E5D6E000E616F000E626F45
:100DC000400E636F810E646F000E566E000E576EFC
:100DD000160E586E850E596E76EF0CF00001730EEC
:100DE0008C6F000E8D6F480E8E6F730E8F6F000E1E
:100DF000906F3DEC37F0020E00018C6F060E8D6F88
:100E0000730E8E6F000E8F6F50EC36F00C0E4E6E20
:100E1000000E4F6E506E516E890E6D6F030E6E6F29
:100E2000000E6F6F706F890E426E030E436E000EE0
:100E3000446E456E000E5A6E000E5B6E000E5C6EC8
:100E4000800E5D6E000E616F000E626F400E636F6C
:100E5000810E646F000E566E000E576E160E586EA1
:100E6000850E596E76EF0CF00001730E8C6F000E3C
:100E70008D6F520E8E6F730E8F6F000E906F3DEC64
:100E800037F0020E00018C6F060E8D6F730E8E6FA1
:100E9000000E8F6F50EC36F00F0E4E6E000E4F6E40
:100EA000506E516E710E6D6F040E6E6F000E6F6F8F
:100EB000706F710E426E040E436E000E446E456EEE
:100EC000000E5A6E000E5B6E000E5C6E800E5D6E44
:100ED000000E616F000E626F400E636F810E646FD3
:100EE000000E566E000E576E160E586E850E596E19
:100EF00076EF0CF00001730E8C6F000E8D6F5C0EA0
:100F00008E6F730E8F6F000E906F3DEC37F0020EF8
:100F100000018C6F060E8D6F730E8E6F000E8F6F3B
:100F200050EC36F00F0E4E6E000E4F6E506E516E3E
:100F3000710E6D6F040E6E6F000E6F6F706F710E1D
:100F4000426E040E436E000E446E456E000E5A6EE5
:100F5000000E5B6E000E5C6E800E5D6E000E616FAB
:100F6000000E626F400E636F810E646F000E566E4E
:100F7000000E576E160E586E850E596E76EF0CF0F9
:100F80000001730E8C6F000E8D6F660E8E6F730EE8
:100F90008F6F000E906F3DEC37F0020E00018C6FEA
:100FA000060E8D6F730E8E6F000E8F6F50EC36F045
:100FB0000F0E4E6E000E4F6E506E516E710E6D6FB5
:100FC000040E6E6F000E6F6F706F710E426E040E26
:100FD000436E000E446E456E000E5A6E000E5B6E40
:100FE000000E5C6E800E5D6E000E616F000E626F13
:100FF000400E636F810E646F000E566E000E576ECA
:10100000160E586E850E596E76EF0CF00001730EB9
:101010008C6F000E8D6F700E8E6F730E8F6F000EC3
:10102000906F3DEC37F0020E00018C6F060E8D6F55
:10103000730E8E6F000E8F6F50EC36F00F0E4E6EEB
:10104000000E4F6E506E516E710E6D6F040E6E6F0E
:10105000000E6F6F706F710E426E040E436E000EC5
:10106000446E456E000E5A6E000E5B6E000E5C6E96
:10107000800E5D6E000E616F000E626F400E636F3A
:10108000810E646F000E566E000E576E160E586E6F
:10109000850E596E76EF0CF00001730E8C6F000E0A
:1010A0008D6F7A0E8E6F730E8F6F000E906F3DEC0A
:1010B00037F0020E00018C6F060E8D6F730E8E6F6F
:1010C000000E8F6F50EC36F0080E4E6E000E4F6E15
:1010D000506E516E090E6D6F020E6E6F000E6F6FC7
:1010E000706F090E426E020E436E000E446E456E26
:1010F000000E5A6E000E5B6E000E5C6E800E5D6E12
:10110000000E616F000E626F400E636F810E646FA0
:10111000000E566E000E576E020E586E850E596EFA
:1011200076EF0CF00001730E8C6F000E8D6F840E45
:101130008E6F730E8F6F000E906F3DEC37F0020EC6
:1011400000018C6F060E8D6F730E8E6F000E8F6F09
:1011500050EC36F00D0E4E6E000E4F6E506E516E0E
:10116000B60E6D6F020E6E6F000E6F6F706FB60E63
:10117000426E020E436E000E446E456E000E5A6EB5
:10118000000E5B6E000E5C6E800E5D6E000E616F79
:10119000000E626F000E636F820E646F000E566E5B
:1011A000000E576E540E586E840E596E76EF0CF08A
:1011B0000001730E8C6F000E8D6F8E0E8E6F730E8E
:1011C0008F6F000E906F3DEC37F0020E00018C6FB8
:1011D000060E8D6F730E8E6F000E8F6F50EC36F013
:1011E0000D0E4E6E000E4F6E506E516E910E6D6F65
:1011F000020E6E6F000E6F6F706F910E426E020ED8
:10120000436E000E446E456E000E5A6E000E5B6E0D
:10121000000E5C6E800E5D6E000E616F000E626FE0
:10122000100E636F820E646F000E566E000E576EC6
:10123000480E586E840E596E76EF0CF00001730E56
:101240008C6F000E8D6F980E8E6F730E8F6F000E69
:10125000906F3DEC37F0020E00018C6F060E8D6F23
:10126000730E8E6F000E8F6F50EC36F00D0E4E6EBB
:10127000000E4F6E506E516E580E6D6F060E6E6FF3
:10128000000E6F6F706F580E426E060E436E000EAA
:10129000446E456E000E5A6E000E5B6E000E5C6E64
:1012A0007F0E5D6E000E616F000E626F400E636F09
:1012B000810E646F000E566E000E576E780E586EDB
:1012C000850E596E13D30001730E8C6F000E8D6F57
:1012D000A20E8E6F730E8F6F000E906F3DEC37F085
:1012E000020E00018C6F060E8D6F730E8E6F000E56
:1012F0008F6F50EC36F00D0E4E6E000E4F6E506E2E
:10130000516E910E6D6F020E6E6F000E6F6F706FEB
:10131000910E426E020E436E000E446E456E000E3C
:101320005A6E000E5B6E000E5C6E800E5D6E000EDF
:10133000616F000E626F100E636F820E646F000E9D
:10134000566E000E576E480E586E840E596ECED2F1
:101350000001730E8C6F000E8D6FAC0E8E6F730ECE
:101360008F6F000E906F3DEC37F0020E00018C6F16
:10137000060E8D6F730E8E6F000E8F6F50EC36F071
:101380000D0E4E6E000E4F6E506E516E910E6D6FC3
:10139000020E6E6F000E6F6F706F910E426E020E36
:1013A000436E000E446E456E000E5A6E000E5B6E6C
:1013B000000E5C6E800E5D6E000E616F000E626F3F
:1013C000100E636F820E646F000E566E000E576E25
:1013D000480E586E840E596E89D20001730E8C6FC0
:1013E000000E8D6FB60E8E6F730E8F6F000E906FA6
:1013F0003DEC37F0020E00018C6F060E8D6F730E00
:101400008E6F000E8F6F50EC36F00F0E4E6E000E8A
:101410004F6E506E516E710E6D6F040E6E6F000E3A
:101420006F6F706F710E426E040E436E000E446E4D
:10143000456E000E5A6E000E5B6E000E5C6E800EE6
:101440005D6E000E616F000E626F400E636F810E65
:10145000646F000E566E000E576E160E586E850E97
:10146000596E44D20001730E8C6F000E8D6FC00E4A
:101470008E6F730E8F6F000E906F3DEC37F0020E83
:1014800000018C6F060E8D6F730E8E6F000E8F6FC6
:1014900050EC36F00D0E4E6E000E4F6E506E516ECB
:1014A000C70E6D6F050E6E6F000E6F6F706FC70EFB
:1014B000426E050E436E000E446E456E000E5A6E6F
:1014C000000E5B6E000E5C6E800E5D6E000E616F36
:1014D000000E626F000E636F810E646F000E566E19
:1014E000000E576E620E586E850E596EFFD10001C8
:1014F000730E8C6F000E8D6FCA0E8E6F730E8F6F12
:10150000000E906F3DEC37F0020E00018C6F060E5E
:101510008D6F730E8E6F000E8F6F50EC36F0E6D12C
:10152000000E006E551808E10050541805E10050F7
:10153000531802E15250010A0001D8B448EF02F0FA
:10154000000E006E551808E10050541805E10050D7
:10155000531802E15250020A0001D8B48EEF02F093
:10156000000E006E551808E10050541805E10050B7
:10157000531802E15250030A0001D8B4D4EF02F02C
:10158000000E006E551808E10050541805E1005097
:10159000531802E15250040A0001D8B41AEF03F0C4
:1015A000000E006E551808E10050541805E1005077
:1015B000531802E15250050A0001D8B460EF03F05D
:1015C000000E006E551808E10050541805E1005057
:1015D000531802E15250060A0001D8B4A6EF03F0F6
:1015E000000E006E551808E10050541805E1005037
:1015F000531802E15250070A0001D8B4ECEF03F08F
:10160000000E006E551808E10050541805E1005016
:10161000531802E15250080A0001D8B432EF04F026
:10162000000E006E551808E10050541805E10050F6
:10163000531802E15250090A0001D8B478EF04F0BF
:10164000000E006E551808E10050541805E10050D6
:10165000531802E152500A0A0001D8B4BEEF04F058
:10166000000E006E551808E10050541805E10050B6
:10167000531802E152500B0A0001D8B404EF05F0F0
:10168000000E006E551808E10050541805E1005096
:10169000531802E152500C0A0001D8B44AEF05F089
:1016A000000E006E551808E10050541805E1005076
:1016B000531802E152500D0A0001D8B490EF05F022
:1016C000000E006E551808E10050541805E1005056
:1016D000531802E152500E0A0001D8B4D6EF05F0BB
:1016E000000E006E551808E10050541805E1005036
:1016F000531802E152500F0A0001D8B41CEF06F053
:10170000000E006E551808E10050541805E1005015
:10171000531802E15250100A0001D8B462EF06F0EB
:10172000000E006E551808E10050541805E10050F5
:10173000531802E15250110A0001D8B4A8EF06F084
:10174000000E006E551808E10050541805E10050D5
:10175000531802E15250120A0001D8B4EEEF06F01D
:10176000000E006E551808E10050541805E10050B5
:10177000531802E15250130A0001D8B434EF07F0B5
:10178000000E006E551808E10050541805E1005095
:10179000531802E15250140A0001D8B47AEF07F04E
:1017A000000E006E551808E10050541805E1005075
:1017B000531802E15250150A0001D8B4C0EF07F0E7
:1017C000000E006E551808E10050541805E1005055
:1017D000531802E15250160A0001D8B417D4000E73
:1017E000006E551808E10050541805E100505318D8
:1017F00002E15250170A0001D8B44ED4000E006E18
:10180000551808E10050541805E10050531802E142
:101810005250180A0001D8B485D4000E006E551835
:1018200008E10050541805E10050531802E15250ED
:10183000190A0001D8B4BCD4000E006E551808E196
:101840000050541805E10050531802E152501A0A92
:101850000001D8B4F3D4000E006E551808E1005012
:10186000541805E10050531802E152501B0A0001C0
:10187000D8B429D5000E006E551808E10050541850
:1018800005E10050531802E152501C0A0001D8B47F
:101890005FD5000E006E551808E10050541805E1A0
:1018A0000050531802E152501D0A0001D8B495D5DA
:1018B000000E006E551808E10050541805E1005064
:1018C000531802E152501E0A0001D8B4CBD5000EC5
:1018D000006E551808E10050541805E100505318E7
:1018E00002E152501F0A0001D8B401D687EC2FF054
:1018F00000018351030A09E1010E5226000E532212
:1019000054225522346A020E716F5550000808E1C6
:101910005450000805E15350000802E152501F08DE
:10192000000106E2010E526E000E536E546E556EAB
:1019300000018351040A11E1010E006E000E016ED8
:10194000026E036E0050525E0150535A0250545AB8
:101950000350555A346A020E716F000E555C08E14F
:10196000000E545C05E1000E535C02E1010E525C76
:10197000000106E21F0E526E000E536E546E556E3D
:1019800000018351050AD8A4C6D0000E006E551878
:1019900008E10050541805E10050531802E152507C
:1019A0001F0A5DE1010EC26F4FEC34F0730E0001AF
:1019B0008C6F000E8D6F500E8E6F720E8F6F000E3B
:1019C000906F3DEC37F0010E00018C6F050E8D6FAE
:1019D000730E8E6F000E8F6F50EC36F0730E8C6F9F
:1019E000000E8D6F5A0E8E6F720E8F6F000E906FFD
:1019F0003DEC37F0020E00018C6F060E8D6F730EFA
:101A00008E6F000E8F6F50EC36F01A0E0C6EFF0EBC
:101A10000B6EFF0E0A6E0C2E01D007D00B2E01D0DC
:101A200003D00A2EFED7FAD7F6D77F0E0B6EFF0E25
:101A30000A6E0B2E01D003D00A2EFED7FAD7580E0D
:101A40000A6E0A2EFED700000000010EC26F4FEC96
:101A500034F0050E0001716F346AC5EF12F0000119
:101A6000010EC26F4FEC34F0730E00018C6F000E4C
:101A70008D6F500E8E6F720E8F6F000E906F3DEC5B
:101A800037F0010E00018C6F050E8D6F730E8E6F97
:101A9000000E8F6F50EC36F0730E8C6F000E8D6F52
:101AA0005A0E8E6F720E8F6F000E906F3DEC37F0F6
:101AB000020E00018C6F060E8D6F730E8E6F000E7E
:101AC0008F6F50EC36F01A0E0C6EFF0E0B6EFF0E81
:101AD0000A6E0C2E01D007D00B2E01D003D00A2E97
:101AE000FED7FAD7F6D77F0E0B6EFF0E0A6E0B2EBF
:101AF00001D003D00A2EFED7FAD7580E0A6E0A2E4E
:101B0000FED700000000010EC26F4FEC34F0030E50
:101B10000001716F346AC5EF12F0730E8C6F000E06
:101B20008D6F3A0E8E6F720E8F6F000E906F3DECC0
:101B300037F0010E00018C6F0E0E8D6F730E8E6FDD
:101B4000000E8F6F50EC36F0730E8C6F000E8D6FA1
:101B50004C0E8E6F720E8F6F000E906F3DEC37F053
:101B6000020E00018C6F0E0E8D6F730E8E6F000EC5
:101B70008F6F50EC36F08351030A57E165C000F0D7
:101B800066C001F067C002F068C003F0CD0E046EBD
:101B9000CC0E056E4C0E066E7B0E076EF0EC26F03A
:101BA00000C065F001C066F002C067F003C068F0D5
:101BB000346A42506D2743506E2344506F23455082
:101BC0007023010E3A26000E3B223C223D22730E6A
:101BD0008C6F000E8D6F620E8E6F720E8F6F000E07
:101BE000906F3DEC37F0010E00018C6F010E8D6F90
:101BF000730E8E6F000E8F6F50EC36F0730E8C6F7D
:101C0000000E8D6F620E8E6F720E8F6F000E906FD2
:101C10003DEC37F0020E00018C6F010E8D6F730EDC
:101C20008E6F000E8F6F50EC36F08351040A5FE127
:101C3000CD0E046ECC0E056E4C0E066E7B0E076E3E
:101C400065C000F066C001F067C002F068C003F034
:101C50005CEC38F000C065F001C066F002C067F0CF
:101C600003C068F0346A42506D5F43506E5B44506D
:101C70006F5B4550705B010E006E000E016E026ED0
:101C8000036E00503A5E01503B5A02503C5A0350DA
:101C90003D5A730E8C6F000E8D6F620E8E6F720E3A
:101CA0008F6F000E906F3DEC37F0010E00018C6FCE
:101CB000010E8D6F730E8E6F000E8F6F50EC36F02D
:101CC000730E8C6F000E8D6F620E8E6F720E8F6FA3
:101CD000000E906F3DEC37F0020E00018C6F010E8C
:101CE0008D6F730E8E6F000E8F6F50EC36F0CD0E31
:101CF000046ECC0E056E4C0E066E7B0E076E65C034
:101D000000F066C001F067C002F068C003F0C6ECE6
:101D100034F0010ED8B0000E006E005208E0656B82
:101D2000666B676B686B6D6B6E6B6F6B706B0001D6
:101D30006DC08CF06EC08DF06FC08EF070C08FF0F3
:101D4000730E906F000E916F6DEC30F0010E00017C
:101D50008C6F010E8D6F730E8E6F000E8F6F50ECB7
:101D600036F0736B730E8C6F000E8D6FD20E8E6F0C
:101D7000730E8F6F000E906F65C091F066C092F089
:101D800067C093F068C094F068EC37F0020E8C6F77
:101D9000010E8D6F730E8E6F000E8F6F50EC36F04C
:101DA000730E8C6F000E8D6F6E0E8E6F720E8F6FB6
:101DB000000E906F3DEC37F0020E00018C6F050EA7
:101DC0008D6F730E8E6F000E8F6F50EC36F0736B4D
:101DD0008351050A07E1040E716F346A010EC26F68
:101DE0004FEC34F000018351010A08E1010EC26F8B
:101DF0004FEC34F0020E0001716F346A8351020A15
:101E000008E1010EC26F4FEC34F0020E0001716F59
:101E1000346AC5EF12F0730E8C6F000E8D6F4C0E8E
:101E20008E6F720E8F6F000E906F3DEC37F0010ECB
:101E300000018C6F0E0E8D6F730E8E6F000E8F6F04
:101E400050EC36F0730E8C6F000E8D6F3A0E8E6F65
:101E5000720E8F6F000E906F3DEC37F0020E000196
:101E60008C6F0E0E8D6F730E8E6F000E8F6F50EC99
:101E700036F08351050A08E1010EC26F4FEC34F0D1
:101E8000020E0001716F346A4150705D08E14050EC
:101E90006F5D05E13F506E5D02E13E506D5DD8A083
:101EA00013D187EC2FF000C083F00050050A29E120
:101EB0000001836B820E0B6EFF0E0A6E0B2E01D09B
:101EC00003D00A2EFED7FAD7870E0A6E0A2EFED747
:101ED000000000018351050A14E087EC2FF000C0D8
:101EE00083F0410E0B6EFF0E0A6E0B2E01D003D055
:101EF0000A2EFED7FAD7C30E0A6E0A2EFED70000AE
:101F0000E8D700018351060AD8B4DED0010E3E2680
:101F1000000E3F224022412285903B0E0B6EFF0EA9
:101F20000A6E0B2E01D003D00A2EFED7FAD7480E28
:101F30000A6E0A2EFED7000000008580070E0B6E89
:101F4000FF0E0A6E0B2E01D003D00A2EFED7FAD751
:101F5000780E0A6E0A2EFED7000000004EC004F074
:101F60004FC005F050C006F051C007F03EC000F071
:101F70003FC001F040C002F041C003F095EC2AF0F0
:101F8000A6EC37F05AC004F05BC005F05CC006F068
:101F90005DC007F0BBEC33F061C004F062C005F037
:101FA00063C006F064C007F0BBEC33F0000E046EB3
:101FB000400E056E1C0E066E8C0E076EDAEC31F0CC
:101FC00000C088F001C089F002C08AF003C08BF025
:101FD0003AC000F03BC001F03CC002F03DC003F04D
:101FE000A6EC37F00A0E046ED70E056E230E066EB1
:101FF000780E076EBBEC33F088C004F089C005F0A2
:102000008AC006F08BC007F0F0EC26F000C069F043
:1020100001C06AF002C06BF003C06CF0730E8C6FED
:10202000000E8D6FD60E8E6F730E8F6F000E906F39
:1020300000C091F001C092F002C093F003C094F090
:1020400068EC37F0010E8C6F010E8D6F730E8E6F82
:10205000000E8F6F50EC36F0736B730E8C6F000EAA
:102060008D6FDA0E8E6F730E8F6F000E906F3EC005
:1020700091F03FC092F040C093F041C094F068EC02
:1020800037F0020E8C6F010E8D6F730E8E6F000E87
:102090008F6F50EC36F0736B730E8C6F000E8D6F7C
:1020A0006E0E8E6F720E8F6F000E906F3DEC37F0DC
:1020B000010E00018C6F080E8D6F730E8E6F000E77
:1020C0008F6F50EC36F0E0D600014D50000808E16B
:1020D0004C50000805E14B50000802E14A5002084C
:1020E000000145E3010E4A26000E4B224C224D22F0
:1020F0008482060E0C6EFF0E0B6EFF0E0A6E0C2E07
:1021000001D007D00B2E01D003D00A2EFED7FAD76C
:10211000F6D71A0E0B6EFF0E0A6E0B2E01D003D0EF
:102120000A2EFED7FAD7420E0A6E0A2EFED78492E6
:10213000060E0C6EFF0E0B6EFF0E0A6E0C2E01D0FB
:1021400007D00B2E01D003D00A2EFED7FAD7F6D730
:102150001A0E0B6EFF0E0A6E0B2E01D003D00A2E44
:10216000FED7FAD7420E0A6E0A2EFED7ADD700016F
:102170006D6B6E6B6F6B706B010E3E6E000E3F6E83
:10218000406E416E4E6A4F6A506A516A010E526E3D
:10219000000E536E546E556ECD0E656FCC0E666F8D
:1021A0004C0E676F7B0E686F85808492EED1730E44
:1021B0008C6F000E8D6F3A0E8E6F720E8F6F000E49
:1021C000906F3DEC37F0010E00018C6F010E8D6FAA
:1021D000730E8E6F000E8F6F50EC36F087EC2FF081
:1021E00000018351030A07E10A0E6D27000E6E23DA
:1021F0006F237023346A8351040A0FE10A0E006EC4
:10220000000E016E026E036E00506D5F01506E5B3A
:1022100002506F5B0350705B346A730E8C6F000E5C
:102220008D6FDE0E8E6F730E8F6F000E906F6DC010
:1022300091F06EC092F06FC093F070C094F068ECB3
:1022400037F0020E8C6F010E8D6F730E8E6F000EC5
:102250008F6F50EC36F0736B8351050A0FE16DC040
:1022600042F06EC043F06FC044F070C045F0060EFF
:10227000716F346A010EC26F4FEC34F086D1730E69
:1022800000018C6F000E8D6F740E8E6F720E8F6F4B
:10229000000E906F3DEC37F0010E00018C6F010EC7
:1022A0008D6F730E8E6F000E8F6F50EC36F087ECD3
:1022B0002FF000018351030A07E1010E4E26000EA4
:1022C0004F2250225122346A8351040A0FE1010E39
:1022D000006E000E016E026E036E00504E5E0150E5
:1022E0004F5A0250505A0350515A346A730E8C6F31
:1022F000000E8D6FE20E8E6F730E8F6F000E906F5B
:102300004EC091F04FC092F050C093F051C094F085
:1023100068EC37F0020E8C6F010E8D6F730E8E6FAE
:10232000000E8F6F50EC36F0736B8351050A07E196
:10233000070E716F346A010EC26F4FEC34F025D175
:10234000730E00018C6F000E8D6F820E8E6F720EF9
:102350008F6F000E906F3DEC37F0010E00018C6F17
:10236000010E8D6F730E8E6F000E8F6F50EC36F076
:1023700087EC2FF000018351030A1BE161C000F0DC
:1023800062C001F063C002F064C003F0000E046E8E
:10239000000E056E000E066E7E0E076EF0EC26F047
:1023A00000C061F001C062F002C063F003C064F0DD
:1023B000346A8351040A1BE1000E046E000E056EA0
:1023C000000E066E7E0E076E61C000F062C001F066
:1023D00063C002F064C003F05CEC38F000C061F050
:1023E00001C062F002C063F003C064F0346A730E8F
:1023F0008C6F000E8D6FE60E8E6F730E8F6F000E5A
:10240000906F61C091F062C092F063C093F064C0BD
:1024100094F068EC37F0020E8C6F010E8D6F730E26
:102420008E6F000E8F6F50EC36F0736B8351050A80
:1024300007E1080E716F346A010EC26F4FEC34F081
:10244000A4D0730E00018C6F000E8D6F900E8E6FF6
:10245000720E8F6F000E906F3DEC37F0010E000191
:102460008C6F010E8D6F730E8E6F000E8F6F50ECA0
:1024700036F087EC2FF000018351030A1BE15AC0AC
:1024800000F05BC001F05CC002F05DC003F0CD0E57
:10249000046ECC0E056E4C0E066E7B0E076EF0ECD5
:1024A00026F000C05AF001C05BF002C05CF003C02F
:1024B0005DF0346A8351040A1BE1CD0E046ECC0E2C
:1024C000056E4C0E066E7B0E076E5AC000F05BC0A8
:1024D00001F05CC002F05DC003F05CEC38F000C0BD
:1024E0005AF001C05BF002C05CF003C05DF0346ADA
:1024F000730E8C6F000E8D6FEA0E8E6F730E8F6FE2
:10250000000E906F5AC091F05BC092F05CC093F0E7
:102510005DC094F068EC37F0020E8C6F010E8D6F89
:10252000730E8E6F000E8F6F50EC36F08351050ADC
:1025300007E1040E716F346A010EC26F4FEC34F084
:1025400024D000017151010AD8B4C0EF01F07151DB
:10255000020AD8B418EF02F07151030AD8B48DEF13
:102560000DF07151040AD8B456D47151050AD8B48B
:102570001ED67151060AD8B482D67151070AD8B452
:10258000DFD67151080AD8B45CD7000187EC2FF070
:1025900000C083F0BDEF01F0FFD7280E0001A06F4F
:1025A0006E0EA16F750EA26F6C0EA36F6C0EA46FF2
:1025B000290EA56FA66BAE6BAF6BAC6BAD6B00015C
:1025C0009BC000F09CC001F09DC002F0010E9B2753
:1025D000000E9C239D2300C0F6FF01C0F7FF02C040
:1025E000F8FF0900F5CF00F000C0A9F00052D8B400
:1025F000ECEF23F0A951250A0BE099C0E1FF9AC046
:10260000E2FFA9C0E6FF994B9A2BAE4BAF2BD7D771
:10261000AA6BAB6BAC6BAD6B000123D0AC87010E2A
:102620009B27000E9C239D235AD0AC81010E9B2733
:10263000000E9C239D2353D0AC83010E9B27000EDC
:102640009C239D234CD0AD87010E9B27000E9C231D
:102650009D2345D0AC85010E9B27000E9C239D2316
:102660003ED000019BC0F6FF9CC0F7FF9DC0F8FF65
:102670000900F5CFBAF0BA512D0AD0E09BC0F6FFA1
:102680009CC0F7FF9DC0F8FF0900F5CFBAF0BA5122
:10269000200ACBE09BC0F6FF9CC0F7FF9DC0F8FF6F
:1026A0000900F5CFBAF0BA512B0AC6E09BC0F6FF7D
:1026B0009CC0F7FF9DC0F8FF0900F5CFBAF0BA51F2
:1026C000230AC1E09BC0F6FF9CC0F7FF9DC0F8FF46
:1026D0000900F5CFBAF0BA51300ABCE001D09CD75E
:1026E0000001ACB3AC91ACB7AC959BC0F6FF9CC0FD
:1026F000F7FF9DC0F8FF0900F5CF00F0000E016E56
:1027000000C0C2F00AEC38F0005238E00001AA6BB9
:10271000AB6B0001AAC000F0ABC001F00A0E046E62
:10272000000E056ED8EC36F09BC0F6FF9CC0F7FF9C
:102730009DC0F8FF0900F5CFBAF0BA510024AA6F86
:10274000000E0120AB6F300EAA5F000EAB5B010ED6
:102750009B27000E9C239D239BC0F6FF9CC0F7FF88
:102760009DC0F8FF0900F5CF00F0000E016E00C01B
:10277000C2F00AEC38F00052CCE136D09BC0F6FF34
:102780009CC0F7FF9DC0F8FF0900F5CFBAF000012B
:10279000BA512A0A29E19EC0E9FF9FC0EAFFEECFA5
:1027A00000F0EECF01F000C0E9FF01C0EAFFEECF7C
:1027B000AAF0EECFABF09EC0E9FF9FC0EAFFEECFDC
:1027C00000F0EECF01F0020E0026000E01229EC0A6
:1027D000E1FF9FC0E2FF00C0E6FF01C0E6FF010E7F
:1027E0009B27000E9C239D2300019BC0F6FF9CC0ED
:1027F000F7FF9DC0F8FF0900F5CFBAF0BA512E0AD5
:1028000073E1010E9B27000E9C239D239BC0F6FFC6
:102810009CC0F7FF9DC0F8FF0900F5CFBAF0BA5190
:102820002A0A2AE19EC0E9FF9FC0EAFFEECF00F02E
:10283000EECF01F000C0E9FF01C0EAFFEECFA7F044
:10284000EECFA8F09EC0E9FF9FC0EAFFEECF00F0F8
:10285000EECF01F0020E0026000E01229EC0E1FF25
:102860009FC0E2FF00C0E6FF01C0E6FF010E9B270C
:10287000000E9C239D2336D0A76BA86B9BC0F6FF50
:102880009CC0F7FF9DC0F8FF0900F5CF00F0000ED7
:10289000016E00C0C2F00AEC38F0005223E0A7C07D
:1028A00000F0A8C001F00A0E046E000E056ED8EC10
:1028B00036F09BC0F6FF9CC0F7FF9DC0F8FF0900F3
:1028C000F5CFBAF0BA510024A76F000E0120A86F0F
:1028D000300EA75F000EA85B010E9B27000E9C2305
:1028E0009D23CCD7000104D00001A76BA86BAD8954
:1028F00000019BC000F09CC001F09DC002F0010EE1
:102900009B27000E9C239D2300C0F6FF01C0F7FF0C
:1029100002C0F8FF0900F5CFA9F0EDD0AEC000F07D
:10292000AFC001F01200AC89E3D7AD851FD1AC8BED
:10293000AD811CD1AD831AD1AC8D18D117D1AC8B20
:10294000AC8F14D19EC0E9FF9FC0EAFFEECF00F02C
:10295000EECF01F000C0E9FF01C0EAFFEECFB6F014
:10296000EECFB7F09EC0E9FF9FC0EAFFEECF00F0C8
:10297000EECF01F0020E0026000E01229EC0E1FF04
:102980009FC0E2FF00C0E6FF01C0E6FF000EB719DE
:1029900002E1000EB61904E1A00EB66F000EB76F8B
:1029A0000001B86BB96BB851B625E96EB951B721C2
:1029B000EA6EEECF00F0005203E0B84BB92BF3D72C
:1029C000A751A8110AE0B951A85D02E1B851A75D6D
:1029D00004E2A7C0B8F0A8C0B9F00001AB51B95DDE
:1029E00002E1AA51B85D05E2B851AA5FB951AB5BEB
:1029F00003D00001AA6BAB6BACB716D0AAC000F035
:102A0000ABC001F0010EAA5F000EAB5B00500110DD
:102A10000BE099C0E1FF9AC0E2FF200EE66E994BF1
:102A20009A2BAE4BAF2BEAD7B8C000F0B9C001F07B
:102A3000010EB85F000EB95B0050011013E0B6C084
:102A4000E9FFB7C0EAFFEECF00F099C0E1FF9AC0FE
:102A5000E2FF00C0E6FF994B9A2BB64BB72BAE4B6B
:102A6000AF2BE2D7ACA716D0AAC000F0ABC001F0E4
:102A7000010EAA5F000EAB5B005001100BE099C085
:102A8000E1FF9AC0E2FF200EE66E994B9A2BAE4B07
:102A9000AF2BEAD794D59EC0E9FF9FC0EAFFEECFE7
:102AA00000F0EECF01F000C0E9FF01C0EAFFEECF79
:102AB000A9F09EC0E9FF9FC0EAFFEECF00F0EECF85
:102AC00001F0020E0026000E01229EC0E1FF9FC011
:102AD000E2FF00C0E6FF01C0E6FFA90EB66F000EE0
:102AE000B76F010EB86F000EB96F6AD7C00EAC1386
:102AF000000EAD133BD0A951000AD8B40FD7A9518D
:102B00006C0AD8B410D7A951660AD8B40ED7A95107
:102B1000450AD8B40CD7A951650AD8B409D7A95128
:102B2000670AD8B407D7A9516F0AD8B405D7A951F5
:102B3000640AD8B403D7A951690AD8B4FFD6A951F9
:102B4000700AD8B4FCD6A951580AD8B4F8D6A951FD
:102B5000780AD8B4F5D6A951730AD8B4F3D6A951D6
:102B6000630A99E0A951750AC1E0B7D70001000EC8
:102B7000AC15006EAD51070B016E00500110D8B4BA
:102B800028EF1FF0ADA904D0060EA76F000EA86FA6
:102B90009EC0E9FF9FC0EAFFEECF00F0EECF01F04C
:102BA00000C0E9FF01C0EAFFEECFB0F0EECFB1F018
:102BB000EECFB2F0EECFB3F09EC0E9FF9FC0EAFFC8
:102BC000EECF00F0EECF01F0040E0026000E012241
:102BD0009EC0E1FF9FC0E2FF00C0E6FF01C0E6FF2C
:102BE000046A056A066A076AB0C000F0B1C001F065
:102BF000B2C002F0B3C003F0C6EC34F0010ED8B09E
:102C0000000E006E005205E0B27F030EAC13000E02
:102C1000AD130001B46BB56BB0C000F0B1C001F0F2
:102C2000B2C002F0B3C003F0046A056A066A076A1C
:102C30008EEC37F0000ED8A4010E006E0052D8B40E
:102C400096D0B3C000F0016A026A036AFF0E001456
:102C5000BE6F000EBF6F000EBF177E0EBA6F000E64
:102C6000BB6FBC6FBD6FBA51BE5D006EBB51BF592B
:102C7000016E00C0B4F001C0B5F0010E005CB46F8D
:102C8000000E0158B56FB4C000F0B5C001F0030EDE
:102C9000046E000E056ED8EC36F000C0B4F001C032
:102CA000B5F00A0E046E000E056E2EEC35F000C075
:102CB000B4F001C0B5F0800E0118BA6F800EBA5D95
:102CC00002E1000E005C04E2010EB45F000EB55B91
:102CD0000001B4510008C26FF1EC23F0B0C004F061
:102CE000B1C005F0B2C006F0B3C007F0BBEC33F0E2
:102CF00000C0B6F001C0B7F002C0B8F003C0B9F030
:102D0000000E046E000E056E000E066E7F0E076E3E
:102D1000B6C000F0B7C001F0B8C002F0B9C003F00F
:102D2000C6EC34F0010ED8B0000E006E005205E083
:102D3000010EB45F000EB55B1AD0000E046E000EDB
:102D4000056E200E066E820E076EB6C000F0B7C08C
:102D500001F0B8C002F0B9C003F0C6EC34F0000EC8
:102D6000D8B0010E006E005202E0B44BB52B00014A
:102D7000800E006E800EB519005C02E1B4510008AF
:102D800003E3010EA96F03D00001B4C0A9F0ADB1F7
:102D90001AD0ADA315D0800EB519006E7F0E005C61
:102DA00002E1FC0EB45D0AE3800EB519006E800EE0
:102DB000A819005C02E1A751B45D02E3000103D051
:102DC00000011BEF1BF00001A751A81106E0ADA305
:102DD00004D0010EA75F000EA85B000E006EA85184
:102DE000005C02E1A751080803E2080EA96F03D0B6
:102DF0000001A7C0A9F0B0C000F0B1C001F0B2C09E
:102E000002F0B3C003F0046A056A066A076A8EEC32
:102E100037F0000ED8A4010E006E0052D8B460D175
:102E2000B4C0C2F0F1EC23F000C004F001C005F022
:102E300002C006F003C007F0B0C000F0B1C001F05E
:102E4000B2C002F0B3C003F0DAEC31F000C0B0F071
:102E500001C0B1F002C0B2F003C0B3F0A951000844
:102E6000C26FF1EC23F000C004F001C005F002C015
:102E700006F003C007F0B0C000F0B1C001F0B2C06E
:102E800002F0B3C003F0DAEC31F000C0BAF001C0D8
:102E9000BBF002C0BCF003C0BDF0BAC0B0F0BBC014
:102EA000B1F0BCC0B2F0BDC0B3F0BAC000F0BBC05E
:102EB00001F0BCC002F0BDC003F084EC32F0A6EC1F
:102EC00037F000C004F001C005F002C006F003C0F6
:102ED00007F0BAC000F0BBC001F0BCC002F0BDC03A
:102EE00003F05CEC38F0000E046E000E056E000E70
:102EF000066E7E0E076EC6EC34F0000ED8B0010EE2
:102F0000006E00521AE0B0C000F0B1C001F0B2C0D3
:102F100002F0B3C003F0000E046E000E056E000E4A
:102F2000066E7E0E076EF0EC26F000C0B0F001C019
:102F3000B1F002C0B2F003C0B3F0B0C000F0B1C055
:102F400001F0B2C002F0B3C003F084EC32F000C074
:102F5000BEF001C0BFF002C0C0F003C0C1F0A95173
:102F6000010F006E016A000E0122020E046E000EB7
:102F700001BEFF0E026E036E0450000107E0003632
:102F80000090013602360336FF0FF7D70001340EEA
:102F90000026710E0122000E022200C0F6FF01C0C1
:102FA000F7FF02C0F8FF0900F5CFBAF00900F5CF2E
:102FB000BBF00900F5CFBCF00900F5CFBDF0BD5165
:102FC000C15D08E1BC51C05D05E1BB51BF5D02E1DF
:102FD000BA51BE5D1DE3B0C000F0B1C001F0B2C097
:102FE00002F0B3C003F0CD0E046ECC0E056E4C0E95
:102FF000066E7B0E076EBBEC33F000C0B0F001C074
:10300000B1F002C0B2F003C0B3F0B44BB52B68D03E
:103010000001B0C000F0B1C001F0B2C002F0B3C016
:1030200003F084EC32F000C0BEF001C0BFF002C07B
:10303000C0F003C0C1F0020E046EA9C000F0000E83
:10304000016E026E036E0450000107E0003600902E
:10305000013602360336FF0FF7D70001340E002683
:10306000710E0122000E022200C0F6FF01C0F7FF20
:1030700002C0F8FF0900F5CFBAF00900F5CFBBF0A8
:103080000900F5CFBCF00900F5CFBDF0BD51C15D21
:1030900008E1BC51C05D05E1BB51BF5D02E1BA5121
:1030A000BE5D1EE2B0C000F0B1C001F0B2C002F0DF
:1030B000B3C003F0000E046E000E056E200E066E07
:1030C000820E076EBBEC33F000C0B0F001C0B1F06F
:1030D00002C0B2F003C0B3F0010EB45F000EB55BE6
:1030E0000001ADA395D0ADB793D0800E000A006E5D
:1030F000800EA819005C02E1A7510A0804E20A0E3A
:10310000A76F000EA86F0001B0C000F0B1C001F0C1
:10311000B2C002F0B3C003F084EC32F000C0B6F0ED
:1031200001C0B7F002C0B8F003C0B9F0B651B71192
:10313000B811B91142E00A0E046E000E056E066E5B
:10314000076EB6C000F0B7C001F0B8C002F0B9C059
:1031500003F095EC2AF008C000F009C001F00AC0A5
:1031600002F00BC003F0000EBA6F031808E1BA5169
:10317000021805E1BA51011802E10050000A1DE1F0
:10318000010EA75F000EA85B0A0E046E000E056E0E
:10319000066E076EB6C000F0B7C001F0B8C002F00E
:1031A000B9C003F095EC2AF000C0B6F001C0B7F04A
:1031B00002C0B8F003C0B9F0B9D70001800EA81959
:1031C000006E800E005C02E1A951A75D21E2A751CB
:1031D000A95DC26FF1EC23F000C004F001C005F05E
:1031E00002C006F003C007F0B0C000F0B1C001F0AB
:1031F000B2C002F0B3C003F0DAEC31F000C0B0F0BE
:1032000001C0B1F002C0B2F003C0B3F0A7C0A9F092
:103210000001050EA725006E000EA821016E0050CA
:10322000AA5F0150AB5BA751A81102E1ADA704D082
:10323000010EAA5F000EAB5B030EAC15006EADC0B5
:1032400001F0000E01160050011004E0010EAA5F0B
:10325000000EAB5BACA54AD0ACA31AD0010EAC15E6
:10326000006EADC001F0000E01160050011003E029
:103270002D0E006E02D02B0E006E99C0E1FF9AC099
:10328000E2FF00C0E6FF994B9A2BAE4BAF2B14D058
:10329000010EAC15006EADC001F0000E011600501D
:1032A00001100AE099C0E1FF9AC0E2FF200EE66E2D
:1032B000994B9A2BAE4BAF2B800E006E800EAB1944
:1032C000005C02E1AA5100080FE299C0E1FF9AC038
:1032D000E2FF300EE66E994B9A2BAE4BAF2B010EF0
:1032E000AA5F000EAB5BE8D700014BD0ACB718D09B
:1032F000800E006E800EAB19005C02E1AA5100083E
:103300000FE299C0E1FF9AC0E2FF200EE66E994BF2
:103310009A2BAE4BAF2B010EAA5F000EAB5BE8D72A
:103320000001ACA31AD0010EAC15006EADC001F0C7
:10333000000E01160050011003E02D0E006E02D0A9
:103340002B0E006E99C0E1FF9AC0E2FF00C0E6FFBD
:10335000994B9A2BAE4BAF2B14D0010EAC15006ECF
:10336000ADC001F0000E0116005001100AE099C036
:10337000E1FF9AC0E2FF200EE66E994B9A2BAE4B0E
:10338000AF2B0001B0C000F0B1C001F0B2C002F03C
:10339000B3C003F084EC32F000C0B6F001C0B7F067
:1033A00002C0B8F003C0B9F0020E046EA9C000F06C
:1033B000000E016E026E036E0450000107E000363D
:1033C0000090013602360336FF0FF7D70001340EA6
:1033D0000026710E0122000E022200C0F6FF01C07D
:1033E000F7FF02C0F8FF0900F5CF04F00900F5CFA0
:1033F00005F00900F5CF06F00900F5CF07F0B6C0DB
:1034000000F0B7C001F0B8C002F0B9C003F095EC0D
:103410002AF0300E002699C0E1FF9AC0E2FF00C0FA
:10342000E6FF994B9A2BAE4BAF2BA751A81102E1A7
:10343000ADA775D099C0E1FF9AC0E2FF2E0EE66EEF
:10344000994B9A2BAE4BAF2BA951A75F000EA85BEF
:10345000A95353E0A907020E046EA9C000F0000EA4
:10346000016E026E036E0450000107E0003600900A
:10347000013602360336FF0FF7D70001340E00265F
:10348000710E0122000E022200C0F6FF01C0F7FFFC
:1034900002C0F8FF0900F5CF04F00900F5CF05F0F0
:1034A0000900F5CF06F00900F5CF07F0B6C000F02F
:1034B000B7C001F0B8C002F0B9C003F095EC2AF033
:1034C0000A0E046E000E056E066E076E95EC2AF06D
:1034D00008C000F009C001F00AC002F00BC003F000
:1034E000300E002699C0E1FF9AC0E2FF00C0E6FF5F
:1034F000994B9A2BAE4BAF2BABD7A751A8110FE02E
:1035000099C0E1FF9AC0E2FF300EE66E994B9A2B0C
:10351000AE4BAF2B010EA75F000EA85BEED7ACAB96
:103520000BD099C0E1FF9AC0E2FF450EE66E994BC1
:103530009A2BAE4BAF2B0AD099C0E1FF9AC0E2FFA5
:10354000650EE66E994B9A2BAE4BAF2B800EB519DC
:10355000006E800E005C02E1000EB45D12E2B45118
:103560000008B46FB5C0B5F0E86AB55799C0E1FF7F
:103570009AC0E2FF2D0EE66E994B9A2BAE4BAF2B05
:103580000BD0000199C0E1FF9AC0E2FF2B0EE66E5E
:10359000994B9A2BAE4BAF2B0A0E046E000E056EA4
:1035A000B4C000F0B5C001F02EEC35F0300E0026AE
:1035B00099C0E1FF9AC0E2FF00C0E6FF994B9A2B49
:1035C000AE4BAF2B0A0E046E000E056EB4C000F0B9
:1035D000B5C001F02EEC35F008C000F009C001F0D4
:1035E000300E002699C0E1FF9AC0E2FF00C0E6FF5E
:1035F000994B9A2BAE4BAF2BACA71AD0800E006E16
:10360000800EAB19005C02E1AA51000811E299C0DA
:10361000E1FF9AC0E2FF200EE66E994B9A2BAE4B6B
:10362000AF2B010EAA5F000EAB5BAA51AB11EFE10D
:103630000001DFEF12F00001ADA3FAD0800EB51942
:10364000006E800E005C02E1000EB45D0AE2010E25
:10365000B45D006E000EB559016E0050A75F0150B9
:10366000A85B0001B0C000F0B1C001F0B2C002F030
:10367000B3C003F084EC32F000C0B6F001C0B7F084
:1036800002C0B8F003C0B9F0010EA96FA9510A0A2F
:1036900039E0020E046EA9C000F0000E016E026E49
:1036A000036E0450000107E0003600900136023638
:1036B0000336FF0FF7D70001340E0026710E0122EA
:1036C000000E022200C0F6FF01C0F7FF02C0F8FFA3
:1036D0000900F5CFBAF00900F5CFBBF00900F5CF2E
:1036E000BCF00900F5CFBDF0BD51B95D08E1BC519A
:1036F000B85D05E1BB51B75D02E1BA51B65D02E3C9
:10370000A92BC4D70001A951A75DBE6F000EA8590F
:10371000BF6FBEC0A7F0BFC0A8F0B6C000F0B7C072
:1037200001F0B8C002F0B9C003F0A6EC37F000C059
:1037300004F001C005F002C006F003C007F0B0C0FD
:1037400000F0B1C001F0B2C002F0B3C003F05CEC15
:1037500038F000C0BAF001C0BBF002C0BCF003C03A
:10376000BDF0BEC0C2F0F1EC23F0BAC004F0BBC0A3
:1037700005F0BCC006F0BDC007F0BBEC33F0000E96
:10378000046E000E056E000E066E7E0E076EF0ECE7
:1037900026F084EC32F000C0B6F001C0B7F002C0F1
:1037A000B8F003C0B9F0A751A81142E00A0E046EA8
:1037B000000E056E066E076EB6C000F0B7C001F0D1
:1037C000B8C002F0B9C003F095EC2AF008C000F0D0
:1037D00009C001F00AC002F00BC003F0000EBA6F7E
:1037E000031808E1BA51021805E1BA51011802E1C3
:1037F0000050000A1DE10A0E046E000E056E066EF2
:10380000076EB6C000F0B7C001F0B8C002F0B9C092
:1038100003F095EC2AF000C0B6F001C0B7F002C08A
:10382000B8F003C0B9F0010EA75F000EA85BBBD7CC
:103830000001800E006E800EA819005C02E1A75105
:103840000C0816E3A7C0C2F004EC29F0B0C004F0E5
:10385000B1C005F0B2C006F0B3C007F0F0EC26F03E
:1038600000C0B0F001C0B1F002C0B2F003C0B3F0CC
:103870000001B0C000F0B1C001F0B2C002F0B3C0AE
:1038800003F0046A056A066A076A8EEC37F0000ED8
:10389000D8A4010E006E0052D8B475D0B0C000F0AC
:1038A000B1C001F0B2C002F0B3C003F084EC32F05A
:1038B000000EBA6F031808E1BA51021805E1BA51B7
:1038C000011802E10050000A5EE1800E006E800ED9
:1038D000B519005C02E1B451010855E2B4C0C2F070
:1038E000F1EC23F000C004F001C005F002C006F0C6
:1038F00003C007F0B0C000F0B1C001F0B2C002F0E8
:10390000B3C003F0DAEC31F05F0E046E700E056E9A
:10391000090E066E810E076EC6EC34F0010ED8B0AB
:10392000000E006E005205E0090EB45F000EB55B9C
:1039300005D00001080EB45F000EB55BB4C0C2F044
:10394000F1EC23F000C004F001C005F002C006F065
:1039500003C007F0B0C000F0B1C001F0B2C002F087
:10396000B3C003F0DAEC31F084EC32F000C0B6F012
:1039700001C0B7F002C0B8F003C0B9F0B06BB16BD2
:10398000B26BB36B39D00001B0C000F0B1C001F030
:10399000B2C002F0B3C003F084EC32F000C0B6F065
:1039A00001C0B7F002C0B8F003C0B9F0B6C000F073
:1039B000B7C001F0B8C002F0B9C003F0A6EC37F010
:1039C00000C004F001C005F002C006F003C007F01B
:1039D000B0C000F0B1C001F0B2C002F0B3C003F05B
:1039E0005CEC38F000C0B0F001C0B1F002C0B2F041
:1039F00003C0B3F0B46BB56B010EA96FA9510A0AED
:103A000039E0020E046EA9C000F0000E016E026ED5
:103A1000036E0450000107E00036009001360236C4
:103A20000336FF0FF7D70001340E0026710E012276
:103A3000000E022200C0F6FF01C0F7FF02C0F8FF2F
:103A40000900F5CFBAF00900F5CFBBF00900F5CFBA
:103A5000BCF00900F5CFBDF0BD51B95D08E1BC5126
:103A6000B85D05E1BB51B75D02E1BA51B65D02E355
:103A7000A92BC4D70001A951A725006E000EA821CB
:103A8000016EB4510026B55101220050AA5F0150C9
:103A9000AB5BADB703D0A751A81104E0010EAA5F3C
:103AA000000EAB5B030EAC15006EADC001F0000E56
:103AB00001160050011004E0010EAA5F000EAB5B7E
:103AC000ACA54AD0ACA31AD0010EAC15006EADC0A7
:103AD00001F0000E01160050011003E02D0E006EE3
:103AE00002D02B0E006E99C0E1FF9AC0E2FF00C029
:103AF000E6FF994B9A2BAE4BAF2B14D0010EAC15B1
:103B0000006EADC001F0000E0116005001100AE079
:103B100099C0E1FF9AC0E2FF200EE66E994B9A2B06
:103B2000AE4BAF2B800E006E800EAB19005C02E135
:103B3000AA5100080FE299C0E1FF9AC0E2FF300EDF
:103B4000E66E994B9A2BAE4BAF2B010EAA5F000E7F
:103B5000AB5BE8D700014BD0ACB718D0800E006E3D
:103B6000800EAB19005C02E1AA5100080FE299C077
:103B7000E1FF9AC0E2FF200EE66E994B9A2BAE4B06
:103B8000AF2B010EAA5F000EAB5BE8D70001ACA320
:103B90001AD0010EAC15006EADC001F0000E01167A
:103BA0000050011003E02D0E006E02D02B0E006EAF
:103BB00099C0E1FF9AC0E2FF00C0E6FF994B9A2B43
:103BC000AE4BAF2B14D0010EAC15006EADC001F0A2
:103BD000000E0116005001100AE099C0E1FF9AC0E2
:103BE000E2FF200EE66E994B9A2BAE4BAF2B0001F5
:103BF000A9C000F0A907005252E0020E046EA9C04D
:103C000000F0000E016E026E036E0450000107E02A
:103C100000360090013602360336FF0FF7D7000159
:103C2000340E0026710E0122000E022200C0F6FFA3
:103C300001C0F7FF02C0F8FF0900F5CF04F009004A
:103C4000F5CF05F00900F5CF06F00900F5CF07F034
:103C5000B6C000F0B7C001F0B8C002F0B9C003F0C0
:103C600095EC2AF00A0E046E000E056E066E076EC5
:103C700095EC2AF008C000F009C001F00AC002F07B
:103C80000BC003F0300E002699C0E1FF9AC0E2FF9E
:103C900000C0E6FF994B9A2BAE4BAF2BA8D7800EF6
:103CA000006E800EB519005C02E1B45100080FE20D
:103CB00099C0E1FF9AC0E2FF300EE66E994B9A2B55
:103CC000AE4BAF2B010EB45F000EB55BE8D7000121
:103CD000800E000A006E800EA819005C02E1A75158
:103CE000080803E2080EA96F03D00001A7C0A9F0DD
:103CF000A951A75F000EA85BA95302E1ADA70AD0A6
:103D000099C0E1FF9AC0E2FF2E0EE66E994B9A2B06
:103D1000AE4BAF2BA9C0C2F0F1EC23F0B0C004F061
:103D2000B1C005F0B2C006F0B3C007F0BBEC33F091
:103D300021EC33F000C0B6F001C0B7F002C0B8F01B
:103D400003C0B9F0A95353E0A907020E046EA9C03D
:103D500000F0000E016E026E036E0450000107E0D9
:103D600000360090013602360336FF0FF7D7000108
:103D7000340E0026710E0122000E022200C0F6FF52
:103D800001C0F7FF02C0F8FF0900F5CF04F00900F9
:103D9000F5CF05F00900F5CF06F00900F5CF07F0E3
:103DA000B6C000F0B7C001F0B8C002F0B9C003F06F
:103DB00095EC2AF00A0E046E000E056E066E076E74
:103DC00095EC2AF008C000F009C001F00AC002F02A
:103DD0000BC003F0300E002699C0E1FF9AC0E2FF4D
:103DE00000C0E6FF994B9A2BAE4BAF2BABD7A75138
:103DF000A8110FE099C0E1FF9AC0E2FF300EE66E15
:103E0000994B9A2BAE4BAF2B010EA75F000EA85B10
:103E1000EED7ACA71AD0800E006E800EAB19005CF6
:103E200002E1AA51000811E299C0E1FF9AC0E2FF45
:103E3000200EE66E994B9A2BAE4BAF2B010EAA5F6C
:103E4000000EAB5BAA51AB11EFE10001DFEF12F006
:103E5000C00EAC15BA6FADC0BBF0000EBB17000EA4
:103E6000BB1902E1000EBA19D8A482D0ACA929D09E
:103E70009EC0E9FF9FC0EAFFEECF00F0EECF01F059
:103E800000C0E9FF01C0EAFFEECFB6F0EECFB7F019
:103E9000EECFB8F0EECFB9F09EC0E9FF9FC0EAFFC9
:103EA000EECF00F0EECF01F0040E0026000E01224E
:103EB0009EC0E1FF9FC0E2FF00C0E6FF01C0E6FF39
:103EC0002ED09EC0E9FF9FC0EAFFEECF00F0EECFFC
:103ED00001F000C0E9FF01C0EAFFEECFB6F0EECF7F
:103EE000B7F0000EB7BFFF0EB86FB96F000EB7BFC7
:103EF000FF0EB86FB96F9EC0E9FF9FC0EAFFEECF1B
:103F000000F0EECF01F0020E0026000E01229EC04E
:103F1000E1FF9FC0E2FF00C0E6FF01C0E6FF800EA8
:103F2000B919006E800E005C08E1000EB85D05E175
:103F3000000EB75D02E1000EB65D18E2030EAC1391
:103F4000000EAD13006A016A026A036AB651005E90
:103F5000B751015AB851025AB951035A00C0B6F0CC
:103F600001C0B7F002C0B8F003C0B9F0000156D0EC
:103F70000001ACA929D09EC0E9FF9FC0EAFFEECFA7
:103F800000F0EECF01F000C0E9FF01C0EAFFEECF84
:103F9000B6F0EECFB7F0EECFB8F0EECFB9F09EC0EE
:103FA000E9FF9FC0EAFFEECF00F0EECF01F0040E74
:103FB0000026000E01229EC0E1FF9FC0E2FF00C06C
:103FC000E6FF01C0E6FF2AD09EC0E9FF9FC0EAFFDE
:103FD000EECF00F0EECF01F000C0E9FF01C0EAFF34
:103FE000EECFB6F0EECFB7F0000EB86FB96F000E9F
:103FF000B86FB96F9EC0E9FF9FC0EAFFEECF00F037
:10400000EECF01F0020E0026000E01229EC0E1FF5D
:104010009FC0E2FF00C0E6FF01C0E6FF0001000E06
:10402000A81902E1000EA7190FE1000E006EB919E0
:1040300008E10050B81905E10050B71902E1B65186
:10404000000A02E1A74BA82B0001C00EAC15006EC0
:1040500000C0BEF0C0D0010EA96FA9510A0A39E014
:10406000020E046EA9C000F0000E016E026E036E17
:104070000450000107E00036009001360236033696
:10408000FF0FF7D70001340E0026710E0122000E3B
:10409000022200C0F6FF01C0F7FF02C0F8FF0900CE
:1040A000F5CFBAF00900F5CFBBF00900F5CFBCF0B1
:1040B0000900F5CFBDF0BD51B95D08E1BC51B85D57
:1040C00005E1BB51B75D02E1BA51B65D02E3A92B30
:1040D000C4D700018FD0010EA96FA951080A39E099
:1040E000020E046EA9C000F0000E016E026E036E97
:1040F0000450000107E00036009001360236033616
:10410000FF0FF7D700015C0E0026710E0122000E92
:10411000022200C0F6FF01C0F7FF02C0F8FF09004D
:10412000F5CFBAF00900F5CFBBF00900F5CFBCF030
:104130000900F5CFBDF0BD51B95D08E1BC51B85DD6
:1041400005E1BB51B75D02E1BA51B65D02E3A92BAF
:10415000C4D700014FD0010EA96FA9510C0A39E054
:10416000020E046EA9C000F0000E016E026E036E16
:104170000450000107E00036009001360236033695
:10418000FF0FF7D700017C0E0026710E0122000EF2
:10419000022200C0F6FF01C0F7FF02C0F8FF0900CD
:1041A000F5CFBAF00900F5CFBBF00900F5CFBCF0B0
:1041B0000900F5CFBDF0BD51B95D08E1BC51B85D56
:1041C00005E1BB51B75D02E1BA51B65D02E3A92B2F
:1041D000C4D700010FD0BE51000AD8B43CD7BE519D
:1041E000C00AD8B438D7BE51800AD8B474D7BE51EB
:1041F000400AB1E00001800E006E800EA819005C3C
:1042000002E1A751A95D03E2A7C0A9F00ED0000109
:10421000800EA819006E800E005C02E1A951A75D16
:1042200004E2A9C0A7F0000EA86F0001AA51AB11CB
:104230000EE0030EAC15006EADC001F0000E0116CD
:104240000050011004E0010EAA5F000EAB5B800E6F
:10425000A819006E800EAB19005C02E1AA51A75D9F
:1042600005E2A751AA5FA851AB5B03D00001AA6B7E
:10427000AB6BC40EAC15BA6FAD51080BBB6FBB5125
:10428000080A02E1400EBA1908E1AA51AB1104E094
:10429000010EAA5F000EAB5B1ED00001C00EAC1574
:1042A000BA6FAD51080BBB6FBB51080A02E1800E1B
:1042B000BA1911E1800E006E800EAB19005C02E1AC
:1042C000AA51020805E2020EAA5F000EAB5B03D002
:1042D0000001AA6BAB6B0001ACA56ED0ACA31AD0E9
:1042E000010EAC15006EADC001F0000E01160050BD
:1042F000011003E02D0E006E02D02B0E006E99C04F
:10430000E1FF9AC0E2FF00C0E6FF994B9A2BAE4B4B
:10431000AF2B3CD0010EAC15006EADC001F0000E0D
:104320000116005001100BE099C0E1FF9AC0E2FFB6
:10433000200EE66E994B9A2BAE4BAF2B27D0C00EBA
:10434000AC15BA6FAD51080BBB6FBB51080A02E147
:10435000800EBA191BE199C0E1FF9AC0E2FF300E4E
:10436000E66E994B9A2BAE4BAF2BACAB03D0580EED
:10437000006E02D0780E006E99C0E1FF9AC0E2FF95
:1043800000C0E6FF994B9A2BAE4BAF2B0001AA5110
:10439000AB1111E099C0E1FF9AC0E2FF300EE66E6A
:1043A000994B9A2BAE4BAF2B010EAA5F000EAB5B65
:1043B000AA51AB11EFE185D0AA51AB1113E0ACB714
:1043C00011D099C0E1FF9AC0E2FF200EE66E994B32
:1043D0009A2BAE4BAF2B010EAA5F000EAB5BAA511E
:1043E000AB11EFE1ACA31AD0010EAC15006EADC05D
:1043F00001F0000E01160050011003E02D0E006EBA
:1044000002D02B0E006E99C0E1FF9AC0E2FF00C0FF
:10441000E6FF994B9A2BAE4BAF2B14D0010EAC1587
:10442000006EADC001F0000E0116005001100AE050
:1044300099C0E1FF9AC0E2FF200EE66E994B9A2BDD
:10444000AE4BAF2BC00EAC15BA6FAD51080BBB6FA6
:10445000BB51080A02E1400EBA190BE199C0E1FF15
:104460009AC0E2FF300EE66E994B9A2BAE4BAF2B03
:1044700028D00001C00EAC15BA6FAD51080BBB6F50
:10448000BB51080A02E1800EBA191BE199C0E1FF95
:104490009AC0E2FF300EE66E994B9A2BAE4BAF2BD3
:1044A000ACAB03D0580E006E02D0780E006E99C0EF
:1044B000E1FF9AC0E2FF00C0E6FF994B9A2BAE4B9A
:1044C000AF2B0001800E006E800EA819005C02E187
:1044D000A751A95D0BE299C0E1FF9AC0E2FF300E3F
:1044E000E66E994B9A2BAE4BAF2BEBD70001A7C0D2
:1044F00000F0A8C001F0010EA75F000EA85B0050FD
:104500000110D8B44AD1C00EAC15006E00C0BAF08C
:1045100029D1020E046EA7C000F0A8C001F0000E61
:10452000A8BFFF0E026E036E0450000107E00036C4
:104530000090013602360336FF0FF7D70001340E24
:104540000026710E0122000E022200C0F6FF01C0FB
:10455000F7FF02C0F8FF0900F5CF04F00900F5CF1E
:1045600005F00900F5CF06F00900F5CF07F0B6C059
:1045700000F0B7C001F0B8C002F0B9C003F095EC8C
:104580002AF00A0E046E000E056E066E076E95EC9C
:104590002AF008C000F009C001F00AC002F00BC008
:1045A00003F0300E0024A96FECD0ACAB4ED0020E5D
:1045B000046EA7C000F0A8C001F0000EA8BFFF0E57
:1045C000026E036E0450000107E0003600900136D1
:1045D00002360336FF0FF7D700015C0E0026710E7E
:1045E0000122000E022200C0F6FF01C0F7FF02C048
:1045F000F8FF0900F5CF04F00900F5CF05F0090038
:10460000F5CF06F00900F5CF07F0B6C000F0B7C04F
:1046100001F0B8C002F0B9C003F095EC2AF00F0E1B
:104620000016000E011602160316AC0E0026710EBF
:104630000122000E022200C0F6FF01C0F7FF02C0F7
:10464000F8FF0900F5CFA9F04DD0020E046EA7C007
:1046500000F0A8C001F0000EA8BFFF0E026E036EAE
:104660000450000107E000360090013602360336A0
:10467000FF0FF7D700015C0E0026710E0122000E1D
:10468000022200C0F6FF01C0F7FF02C0F8FF0900D8
:10469000F5CF04F00900F5CF05F00900F5CF06F0DD
:1046A0000900F5CF07F0B6C000F0B7C001F0B8C000
:1046B00002F0B9C003F095EC2AF00F0E0016000EC0
:1046C000011602160316BE0E0026710E0122000E00
:1046D000022200C0F6FF01C0F7FF02C0F8FF090088
:1046E000F5CFA9F000014DD0020E046EA7C000F076
:1046F000A8C001F0000EA8BFFF0E026E036E0450AA
:10470000000107E000360090013602360336FF0F45
:10471000F7D700017C0E0026710E0122000E022246
:1047200000C0F6FF01C0F7FF02C0F8FF0900F5CF97
:1047300004F00900F5CF05F00900F5CF06F00900F7
:10474000F5CF07F0B6C000F0B7C001F0B8C002F076
:10475000B9C003F095EC2AF0070E0014A96F300ED3
:10476000A9270FD0BA51000AD8B4D3D6BA51C00A7B
:10477000D8B4CFD6BA51800AD8B417D7BA51400AA4
:10478000B3E0000199C0E1FF9AC0E2FFA9C0E6FFD3
:10479000994B9A2BAE4BAF2BA9D6ACA71AD0800E53
:1047A000006E800EAB19005C02E1AA51000811E214
:1047B00099C0E1FF9AC0E2FF200EE66E994B9A2B5A
:1047C000AE4BAF2B010EAA5F000EAB5BAA51AB1133
:1047D000EFE10001DFEF12F0AEC000F0AFC001F07A
:1047E0001200800E0001C219006E800E000A005CEB
:1047F000D8B07ED1C2510008046E04C0C2F0800E51
:104800000418006E800E6E0A005CD8A0C6D0640E3C
:10481000046EC2C000F0F5EC35F0120E0026000E5A
:1048200000BEFF0E016E000E0122020E046E000E8D
:1048300001BEFF0E026E036E0450000107E0003659
:104840000090013602360336FF0FF7D70001CC0E79
:104850000026700E0122000E022200C0F6FF01C0E9
:10486000F7FF02C0F8FF0900F5CFC3F00900F5CF4C
:10487000C4F00900F5CFC5F00900F5CFC6F0640E0D
:10488000046EC2C000F0F5EC35F008C000F00A0E6E
:10489000046EF5EC35F0090E0026000E00BEFF0E8A
:1048A000016E000E0122020E046E000E01BEFF0E0C
:1048B000026E036E0450000107E0003600900136DE
:1048C00002360336FF0FF7D70001CC0E0026700E1C
:1048D0000122000E022200C0F6FF01C0F7FF02C055
:1048E000F8FF0900F5CF00F00900F5CF01F009004D
:1048F000F5CF02F00900F5CF03F0C3C004F0C4C047
:1049000005F0C5C006F0C6C007F0BBEC33F000C030
:10491000C3F001C0C4F002C0C5F003C0C6F00A0E67
:10492000046EC2C000F0F5EC35F008C000F0020ED5
:10493000046E000E00BEFF0E016E026E036E045088
:10494000000107E000360090013602360336FF0F03
:10495000F7D70001CC0E0026700E0122000E0222B5
:1049600000C0F6FF01C0F7FF02C0F8FF0900F5CF55
:1049700000F00900F5CF01F00900F5CF02F00900C1
:10498000F5CF03F0C3C004F0C4C005F0C5C006F005
:10499000C6C007F0BBEC33F01200800E0A0A006EAE
:1049A000800EC219005C76E20A0E046EC2C000F0EE
:1049B000F5EC35F0090E0026000E00BEFF0E016E6C
:1049C000000E0122020E046E000E01BEFF0E026EEA
:1049D000036E0450000107E00036009001360236F5
:1049E0000336FF0FF7D70001CC0E0026700E012210
:1049F000000E022200C0F6FF01C0F7FF02C0F8FF60
:104A00000900F5CFC3F00900F5CFC4F00900F5CFD8
:104A1000C5F00900F5CFC6F00A0E046EC2C000F062
:104A2000F5EC35F008C000F0020E046E000E00BE7A
:104A3000FF0E016E026E036E0450000107E00036A7
:104A40000090013602360336FF0FF7D70001CC0E77
:104A50000026700E0122000E022200C0F6FF01C0E7
:104A6000F7FF02C0F8FF0900F5CF00F00900F5CF0D
:104A700001F00900F5CF02F00900F5CF03F0C3C043
:104A800004F0C4C005F0C5C006F0C6C007F0BBEC1A
:104A900033F01200020E046EC2C000F0000EC2BF5E
:104AA000FF0E016E026E036E0450000107E0003637
:104AB0000090013602360336FF0FF7D70001CC0E07
:104AC0000026700E0122000E022200C0F6FF01C077
:104AD000F7FF02C0F8FF0900F5CF00F00900F5CF9D
:104AE00001F00900F5CF02F00900F5CF03F0120044
:104AF000800EC219006E800E6E0A005CD8A0C6D06F
:104B0000640E046EC2C000F0F5EC35F0120E002603
:104B1000000E00BEFF0E016E000E0122020E046E9A
:104B2000000E01BEFF0E026E036E0450000107E08E
:104B300000360090013602360336FF0FF7D700012A
:104B4000000E0026710E0122000E022200C0F6FFA8
:104B500001C0F7FF02C0F8FF0900F5CFC3F009005C
:104B6000F5CFC4F00900F5CFC5F00900F5CFC6F0C8
:104B7000640E046EC2C000F0F5EC35F008C000F021
:104B80000A0E046EF5EC35F0090E0026000E00BE8C
:104B9000FF0E016E000E0122020E046E000E01BE19
:104BA000FF0E026E036E0450000107E00036009015
:104BB000013602360336FF0FF7D70001000E00263C
:104BC000710E0122000E022200C0F6FF01C0F7FFA5
:104BD00002C0F8FF0900F5CF00F00900F5CF01F0A1
:104BE0000900F5CF02F00900F5CF03F0C3C004F0CF
:104BF000C4C005F0C5C006F0C6C007F0BBEC33F07A
:104C000000C0C3F001C0C4F002C0C5F003C0C6F0CC
:104C10000A0E046EC2C000F0F5EC35F008C000F0DA
:104C2000020E046E000E00BEFF0E016E026E036ED9
:104C30000450000107E000360090013602360336CA
:104C4000FF0FF7D70001000E0026710E0122000EA3
:104C5000022200C0F6FF01C0F7FF02C0F8FF090002
:104C6000F5CF00F00900F5CF01F00900F5CF02F013
:104C70000900F5CF03F0C3C004F0C4C005F0C5C0FF
:104C800006F0C6C007F0BBEC33F01200800E0A0A33
:104C9000006E800EC219005C76E20A0E046EC2C07D
:104CA00000F0F5EC35F0090E0026000E00BEFF0EF8
:104CB000016E000E0122020E046E000E01BEFF0EF8
:104CC000026E036E0450000107E0003600900136CA
:104CD00002360336FF0FF7D70001000E0026710ED3
:104CE0000122000E022200C0F6FF01C0F7FF02C041
:104CF000F8FF0900F5CFC3F00900F5CFC4F00900B3
:104D0000F5CFC5F00900F5CFC6F00A0E046EC2C09B
:104D100000F0F5EC35F008C000F0020E046E000E55
:104D200000BEFF0E016E026E036E0450000107E02C
:104D300000360090013602360336FF0FF7D7000128
:104D4000000E0026710E0122000E022200C0F6FFA6
:104D500001C0F7FF02C0F8FF0900F5CF00F009001D
:104D6000F5CF01F00900F5CF02F00900F5CF03F00F
:104D7000C3C004F0C4C005F0C5C006F0C6C007F04B
:104D8000BBEC33F01200020E046EC2C000F0000E45
:104D9000C2BFFF0E016E026E036E0450000107E0F9
:104DA00000360090013602360336FF0FF7D7000EAB
:104DB0000026710E0122000E022200C0F6FF01C083
:104DC000F7FF02C0F8FF0900F5CF00F00900F5CFAA
:104DD00001F00900F5CF02F00900F5CF03F0120051
:104DE0000001025006180E6E086A096A0B6A035029
:104DF0000764E4EF27F006500A6E068E028E035019
:104E00000B6E0750036E000E0B6434EF27F00B504F
:104E1000075ED8B4D5EF27F0070E0764A3EF27F09D
:104E2000075E00C008F001C000F002C001F0026A95
:104E3000074ED5EF27F0076478EF27F0075E00C034
:104E400008F001C000F0016A074ED5EF27F00764B3
:104E500056EF27F0075E00C008F0006A074ED5EF56
:104E600027F007643DEF27F00AC002F005C001F00B
:104E700004C000F0086A01EF29F0030E076448EF50
:104E800027F0075E08380F0B086E074ED5EF27F0A6
:104E9000D8900832074ED5EF27F0D8900832074E49
:104EA000D5EF27F0D8900832D5EF27F0030E07642E
:104EB00067EF27F0075E08380F0B086E0038F00B1D
:104EC000082600380F0B006E074ED5EF27F0D8905C
:104ED00000320832074ED5EF27F0D8900032083262
:104EE000074ED5EF27F0D89000320832D5EF27F0E3
:104EF000030E07648FEF27F0075E08380F0B086E6C
:104F00000038F00B082600380F0B006E0138F00B4C
:104F1000002601380F0B016E074ED5EF27F0D89011
:104F2000013200320832074ED5EF27F0D890013217
:104F300000320832074ED5EF27F0D8900132003208
:104F40000832D5EF27F0030E0764C0EF27F0075EA5
:104F500008380F0B086E0038F00B082600380F0BCE
:104F6000006E0138F00B002601380F0B016E02387D
:104F7000F00B012602380F0B026E074ED5EF27F01B
:104F8000D8900232013200320832074ED5EF27F0B6
:104F9000D8900232013200320832074ED5EF27F0A6
:104FA000D8900232013200320832096A000E0EAE89
:104FB000C9EF28F0081E001E011E021E082A00224A
:104FC00001220222C9EF28F00750D8A4EAEF27F007
:104FD00001EF29F0096A02C00AF0028E068E07501E
:104FE000035C076ED8B4BCEF28F0070E07648AEFA5
:104FF00028F0075E0450096E0550046E0650056ED9
:10500000066A074EBCEF28F0070E07645FEF28F032
:10501000075E0450096E0550046E056A074EBCEF2A
:1050200028F0070E07643DEF28F0075E0450096E74
:10503000046A074EBCEF28F0070E076424EF28F03F
:105040000AC002F001EF29F0030E07642FEF28F0E9
:10505000075E09380F0B096E074EBCEF28F0D89099
:105060000932074EBCEF28F0D8900932074EBCEF4A
:1050700028F0D8900932BCEF28F0030E07644EEFF9
:1050800028F0075E09380F0B096E0438F00B09266B
:1050900004380F0B046E074EBCEF28F0D890043292
:1050A0000932074EBCEF28F0D89004320932074E7F
:1050B000BCEF28F0D89004320932BCEF28F0030E80
:1050C000076476EF28F0075E09380F0B096E043885
:1050D000F00B092604380F0B046E0538F00B04267C
:1050E00005380F0B056E074EBCEF28F0D89005323F
:1050F00004320932074EBCEF28F0D8900532043252
:105100000932074EBCEF28F0D8900532043209323C
:10511000BCEF28F0030E0764A7EF28F0075E0938FC
:105120000F0B096E0438F00B092604380F0B046EC0
:105130000538F00B042605380F0B056E0638F00B0A
:10514000052606380F0B066E074EBCEF28F0D890E8
:105150000632053204320932074EBCEF28F0D890EF
:105160000632053204320932074EBCEF28F0D890DF
:105170000632053204320932086A000E0EAEC9EF5B
:1051800028F0091E041E051E061E092A04220522F7
:10519000062209500826045000220550012206501C
:1051A00002220EBEE0EF28F0D8A0EFEF28F0023286
:1051B000013200320832033EEFEF28F0FBEF28F017
:1051C000D8B0F5EF28F0000E081E001E011E021ECA
:1051D000082A0022012202220A7EF5EF28F0010EA1
:1051E0000C6E91EC2EF003EF29F0020E0C6E91EC98
:1051F0002EF003EF29F0040E0C6E17EC38F003EFDD
:1052000029F0000E0C6E12006E0E0001C25DD8A0D7
:10521000D0D0640E046EC2C000F0BAEC37F0120EAB
:105220000026016A000E0122020E046E000E01BE6D
:10523000FF0E026E036E0450000107E0003600907E
:10524000013602360336FF0FF7D70001CC0E0026D9
:10525000700E0122000E022200C0F6FF01C0F7FF0F
:1052600002C0F8FF0900F5CF00F00900F5CF01F00A
:105270000900F5CF02F00900F5CF03F0000E046E2F
:10528000000E056E000E066E7E0E076EBBEC33F050
:1052900000C0C3F001C0C4F002C0C5F003C0C6F036
:1052A000640E046EC2C000F0BAEC37F008C000F023
:1052B0000A0E046EBAEC37F0090E0026016A000EE1
:1052C0000122020E046E000E01BEFF0E026E036E7E
:1052D0000450000107E00036009001360236033624
:1052E000FF0FF7D70001CC0E0026700E0122000E32
:1052F000022200C0F6FF01C0F7FF02C0F8FF09005C
:10530000F5CF00F00900F5CF01F00900F5CF02F06C
:105310000900F5CF03F0C3C004F0C4C005F0C5C058
:1053200006F0C6C007F0BBEC33F000C0C3F001C00C
:10533000C4F002C0C5F003C0C6F00A0E046EC2C0BD
:1053400000F0BAEC37F008C000F0020E046E000E58
:10535000016E026E036E0450000107E000360090FB
:10536000013602360336FF0FF7D70001CC0E0026B8
:10537000700E0122000E022200C0F6FF01C0F7FFEE
:1053800002C0F8FF0900F5CF00F00900F5CF01F0E9
:105390000900F5CF02F00900F5CF03F0C3C004F017
:1053A000C4C005F0C5C006F0C6C007F0BBEC33F0C2
:1053B0001200C2510A08D8B083D00A0E046EC2C0CF
:1053C00000F0BAEC37F0090E0026016A000E012247
:1053D000020E046E000E01BEFF0E026E036E04503C
:1053E000000107E000360090013602360336FF0F59
:1053F000F7D70001CC0E0026700E0122000E02220B
:1054000000C0F6FF01C0F7FF02C0F8FF0900F5CFAA
:1054100000F00900F5CF01F00900F5CF02F0090016
:10542000F5CF03F0000E046E000E056E000E066E42
:105430007E0E076EBBEC33F000C0C3F001C0C4F0B9
:1054400002C0C5F003C0C6F00A0E046EC2C000F070
:10545000BAEC37F008C000F0020E046E000E016EC8
:10546000026E036E0450000107E000360090013622
:1054700002360336FF0FF7D70001CC0E0026700E60
:105480000122000E022200C0F6FF01C0F7FF02C099
:10549000F8FF0900F5CF00F00900F5CF01F0090091
:1054A000F5CF02F00900F5CF03F0C3C004F0C4C08B
:1054B00005F0C5C006F0C6C007F0BBEC33F0120023
:1054C000020E046EC2C000F0000E016E026E036E8A
:1054D0000450000107E00036009001360236033622
:1054E000FF0FF7D7CC0E0026700E0122000E02220D
:1054F00000C0F6FF01C0F7FF02C0F8FF0900F5CFBA
:1055000000F00900F5CF01F00900F5CF02F0090025
:10551000F5CF03F0000E046E000E056E000E066E51
:105520007E0E076EBBEC33F0120000010B6A0A6AB4
:10553000096A086A0E6A033408360450085E05508A
:10554000D8A0053C095E0650D8A0063C0A5E07506C
:10555000D8A0073C0B5EE86AD8A0010E0E5E0336A9
:10556000070E0C6E0334083609360A360B360E3633
:10557000045003A0CFEF2AF0085E0550D8A0053CE8
:10558000095E0650D8A0063C0A5E0750D8A0073C2A
:105590000B5EE86AD8A0010E0E5EE0EF2AF0082646
:1055A0000550D8B0053C09260650D8B0063C0A265E
:1055B0000750D8B0073C0B26E86AD8B0010E0E267B
:1055C00003360C2EB2EF2AF00234083609360A36BA
:1055D0000B360E36045003A001EF2BF0085E055089
:1055E000D8A0053C095E0650D8A0063C0A5E0750CC
:1055F000D8A0073C0B5EE86AD8A0010E0E5E12EF41
:105600002BF008260550D8B0053C09260650D8B026
:10561000063C0A260750D8B0073C0B26E86AD8B0EB
:10562000010E0E260236070E0C6E023408360936BD
:105630000A360B360E36045002A032EF2BF0085E0D
:105640000550D8A0053C095E0650D8A0063C0A5E6D
:105650000750D8A0073C0B5EE86AD8A0010E0E5E8A
:1056600043EF2BF008260550D8B0053C092606501C
:10567000D8B0063C0A260750D8B0073C0B26E86A8B
:10568000D8B0010E0E2602360C2E15EF2BF0013489
:10569000083609360A360B360E36045002A064EF7F
:1056A0002BF0085E0550D8A0053C095E0650D8A036
:1056B000063C0A5E0750D8A0073C0B5EE86AD8A0FB
:1056C000010E0E5E75EF2BF008260550D8B0053C94
:1056D00009260650D8B0063C0A260750D8B0073C29
:1056E0000B26E86AD8B0010E0E260136070E0C6EA6
:1056F0000134083609360A360B360E36045001A03E
:1057000095EF2BF0085E0550D8A0053C095E0650C9
:10571000D8A0063C0A5E0750D8A0073C0B5EE86A9A
:10572000D8A0010E0E5EA6EF2BF008260550D8B0CB
:10573000053C09260650D8B0063C0A260750D8B0CA
:10574000073C0B26E86AD8B0010E0E2601360C2E57
:1057500078EF2BF00034083609360A360B360E3651
:10576000045001A0C7EF2BF0085E0550D8A0053CFF
:10577000095E0650D8A0063C0A5E0750D8A0073C38
:105780000B5EE86AD8A0010E0E5ED8EF2BF008265B
:105790000550D8B0053C09260650D8B0063C0A266C
:1057A0000750D8B0073C0B26E86AD8B0010E0E2689
:1057B0000036070E0C6E0034083609360A360B36F2
:1057C0000E36045000A0F8EF2BF0085E0550D8A06C
:1057D000053C095E0650D8A0063C0A5E0750D8A0DA
:1057E000073C0B5EE86AD8A0010E0E5E09EF2CF0B4
:1057F00008260550D8B0053C09260650D8B0063C0E
:105800000A260750D8B0073C0B26E86AD8B0010E2C
:105810000E2600360C2EDBEF2BF000B01EEF2CF026
:10582000045008260550D8B0053C09260650D8B0CB
:10583000063C0A260750D8B0073C0B261200000190
:105840000450085E0550D8A0053C095E0650D8A05B
:10585000063C0A5E0750D8A0073C0B5E0336070ED5
:105860000C6E0334083609360A360B36045003A092
:1058700049EF2CF0085E0550D8A0053C095E0650A3
:10588000D8A0063C0A5E0750D8A0073C0B5E56EF36
:105890002CF008260550D8B0053C09260650D8B093
:1058A000063C0A260750D8B0073C0B2603360C2EC0
:1058B00031EF2CF00234083609360A360B36045024
:1058C00003A072EF2CF0085E0550D8A0053C095EDD
:1058D0000650D8A0063C0A5E0750D8A0073C0B5ED5
:1058E0007FEF2CF008260550D8B0053C092606505D
:1058F000D8B0063C0A260750D8B0073C0B26023623
:10590000070E0C6E0234083609360A360B36045080
:1059100002A09AEF2CF0085E0550D8A0053C095E65
:105920000650D8A0063C0A5E0750D8A0073C0B5E84
:10593000A7EF2CF008260550D8B0053C09260650E4
:10594000D8B0063C0A260750D8B0073C0B260236D2
:105950000C2E82EF2CF00134083609360A360B364D
:10596000045002A0C3EF2CF0085E0550D8A0053CFF
:10597000095E0650D8A0063C0A5E0750D8A0073C36
:105980000B5ED0EF2CF008260550D8B0053C092658
:105990000650D8B0063C0A260750D8B0073C0B2664
:1059A0000136070E0C6E0134083609360A360B36FE
:1059B000045001A0EBEF2CF0085E0550D8A0053C88
:1059C000095E0650D8A0063C0A5E0750D8A0073CE6
:1059D0000B5EF8EF2CF008260550D8B0053C0926E0
:1059E0000650D8B0063C0A260750D8B0073C0B2614
:1059F00001360C2ED3EF2CF00034083609360A3667
:105A00000B36045001A014EF2DF0085E0550D8A00D
:105A1000053C095E0650D8A0063C0A5E0750D8A097
:105A2000073C0B5E21EF2DF008260550D8B0053C51
:105A300009260650D8B0063C0A260750D8B0073CC5
:105A40000B260036070E0C6E0034083609360A366F
:105A50000B36045000A03CEF2DF0085E0550D8A096
:105A6000053C095E0650D8A0063C0A5E0750D8A047
:105A7000073C0B5E49EF2DF008260550D8B0053CD9
:105A800009260650D8B0063C0A260750D8B0073C75
:105A90000B2600360C2E24EF2DF000B05EEF2DF01B
:105AA000045008260550D8B0053C09260650D8B049
:105AB000063C0A260750D8B0073C0B261200EDEC36
:105AC00037F0EDEC37F0EDEC37F08EC000F0010E62
:105AD000026E005004E002360290FF0FFBD702C0B6
