:1000000067EF12F0FFFFFFFF04C0CCF003C0CBF09E
:1000100002C0CAF001C0C9F000C0C8F0E9CF85F045
:10002000EACF86F0E1CF87F0E2CF88F09EA01BD028
:100030009E90152A162A172A030E165C08E3A00EB6
:10004000186E860E196E010E1A6E000E1B6E040ECF
:10005000175C08E3E00E1C6E930E1D6E040E1E6E00
:10006000000E1F6E04009EA466D09E9416C020F061
:10007000166ABFCF21F0000E226E21C001F0006A87
:1000800000C021F001C022F0BE500024216E000EFD
:100090000120226E2050000A09E12350215C186ED5
:1000A00024502258196E000E1A6E1B6E2050010A41
:1000B00011E12350FF08186E24C019F0FF0E1956E5
:1000C000000E1A6E1B6E2150182622501922000EA7
:1000D0001A221B222050020A2AE12350FF08186E20
:1000E00024C019F0FF0E1956000E1A6E1B6EFF0E7B
:1000F0001824006EFF0E1920016E000E1A20026EE9
:10010000000E1B20036E00C018F001C019F002C0E1
:100110001AF003C01BF021500024186E2250012059
:10012000196E000E02201A6E000E03201B6E21C0F5
:1001300023F022C024F0A1A093D0A19017C020F0FA
:10014000176ABCCF21F0000E226E21C001F0006AB8
:1001500000C021F001C022F0BB500024216E000E2F
:100160000120226E2050000A09E12550215C1C6EFE
:10017000265022581D6E000E1E6E1F6E2050010A62
:1001800011E12550FF081C6E26C01DF0FF0E1D5604
:10019000000E1E6E1F6E21501C2622501D22000EC6
:1001A0001E221F222050020A2AE12550FF081C6E41
:1001B00026C01DF0FF0E1D56000E1E6E1F6EFF0E98
:1001C0001C24006EFF0E1D20016E000E1E20026E0C
:1001D000000E1F20036E00C01CF001C01DF002C005
:1001E0001EF003C01FF0215000241C6E225001207D
:1001F0001D6E000E02201E6E000E03201F6E20508A
:10020000030A2AE12550FF081C6E26C01DF0FF0ED0
:100210001D56000E1E6E1F6EFE0E1C24006EFF0E7D
:100220001D20016E010E1E20026E000E1F20036EA7
:1002300000C01CF001C01DF002C01EF003C01FF082
:10024000215000241C6E225001201D6E000E022041
:100250001E6E000E03201F6E21C025F022C026F066
:1002600085C0E9FF86C0EAFF87C0E1FF88C0E2FFE2
:10027000CCC004F0CBC003F0CAC002F0C9C001F08A
:10028000C8C000F01100280E0001A16F6E0EA26F11
:10029000750EA36F6C0EA46F6C0EA56F290EA66F62
:1002A000A76BAF6BB06BAD6BAE6B00019CC000F089
:1002B0009DC001F09EC002F0010E9C27000E9D2300
:1002C0009E2300C0F6FF01C0F7FF02C0F8FF09003F
:1002D000F5CF00F000C0AAF00052D8B462EF12F0DF
:1002E000AA51250A0BE09AC0E1FF9BC0E2FFAAC019
:1002F000E6FF9A4B9B2BAF4BB02BD7D7AB6BAC6BBE
:10030000AD6BAE6B000123D0AD87010E9C27000EB4
:100310009D239E235AD0AD81010E9C27000E9D2364
:100320009E2353D0AD83010E9C27000E9D239E2358
:100330004CD0AE87010E9C27000E9D239E2345D0F6
:10034000AD85010E9C27000E9D239E233ED000010B
:100350009CC0F6FF9DC0F7FF9EC0F8FF0900F5CFD7
:10036000BBF0BB512D0AD0E09CC0F6FF9DC0F7FF4B
:100370009EC0F8FF0900F5CFBBF0BB51200ACBE0CF
:100380009CC0F6FF9DC0F7FF9EC0F8FF0900F5CFA7
:10039000BBF0BB512B0AC6E09CC0F6FF9DC0F7FF27
:1003A0009EC0F8FF0900F5CFBBF0BB51230AC1E0A6
:1003B0009CC0F6FF9DC0F7FF9EC0F8FF0900F5CF77
:1003C000BBF0BB51300ABCE001D09CD70001ADB3FB
:1003D000AD91ADB7AD959CC0F6FF9DC0F7FF9EC037
:1003E000F8FF0900F5CF00F0000E016E00C0C3F069
:1003F000CAEC34F0005238E00001AB6BAC6B00018A
:10040000ABC000F0ACC001F00A0E046E000E056E29
:100410008BEC33F09CC0F6FF9DC0F7FF9EC0F8FF49
:100420000900F5CFBBF0BB510024AB6F000E0120DB
:10043000AC6F300EAB5F000EAC5B010E9C27000E64
:100440009D239E239CC0F6FF9DC0F7FF9EC0F8FF32
:100450000900F5CF00F0000E016E00C0C3F0CAEC39
:1004600034F00052CCE136D09CC0F6FF9DC0F7FFBF
:100470009EC0F8FF0900F5CFBBF00001BB512A0A6E
:1004800029E19FC0E9FFA0C0EAFFEECF00F0EECF68
:1004900001F000C0E9FF01C0EAFFEECFABF0EECF04
:1004A000ACF09FC0E9FFA0C0EAFFEECF00F0EECFB6
:1004B00001F0020E0026000E01229FC0E1FFA0C045
:1004C000E2FF00C0E6FF01C0E6FF010E9C27000E20
:1004D0009D239E2300019CC0F6FF9DC0F7FF9EC098
:1004E000F8FF0900F5CFBBF0BB512E0A73E1010EF6
:1004F0009C27000E9D239E239CC0F6FF9DC0F7FF06
:100500009EC0F8FF0900F5CFBBF0BB512A0A2AE1D3
:100510009FC0E9FFA0C0EAFFEECF00F0EECF01F0F0
:1005200000C0E9FF01C0EAFFEECFA8F0EECFA9F0CE
:100530009FC0E9FFA0C0EAFFEECF00F0EECF01F0D0
:10054000020E0026000E01229FC0E1FFA0C0E2FFC4
:1005500000C0E6FF01C0E6FF010E9C27000E9D23B0
:100560009E2336D0A86BA96B9CC0F6FF9DC0F7FFF9
:100570009EC0F8FF0900F5CF00F0000E016E00C02C
:10058000C3F0CAEC34F0005223E0A8C000F0A9C0C8
:1005900001F00A0E046E000E056E8BEC33F09CC069
:1005A000F6FF9DC0F7FF9EC0F8FF0900F5CFBBF036
:1005B000BB510024A86F000E0120A96F300EA85F68
:1005C000000EA95B010E9C27000E9D239E23CCD715
:1005D000000104D00001A86BA96BAE8900019CC08A
:1005E00000F09DC001F09EC002F0010E9C27000E9D
:1005F0009D239E2300C0F6FF01C0F7FF02C0F8FF55
:100600000900F5CFAAF0EDD0AFC000F0B0C001F006
:100610001200AD89E3D7AE851FD1AD8BAE811CD161
:10062000AE831AD1AD8D18D117D1AD8BAD8F14D14A
:100630009FC0E9FFA0C0EAFFEECF00F0EECF01F0CF
:1006400000C0E9FF01C0EAFFEECFB7F0EECFB8F08F
:100650009FC0E9FFA0C0EAFFEECF00F0EECF01F0AF
:10066000020E0026000E01229FC0E1FFA0C0E2FFA3
:1006700000C0E6FF01C0E6FF000EB81902E1000E5F
:10068000B71904E1A10EB76F000EB86F0001B96B86
:10069000BA6BB951B725E96EBA51B821EA6EEECFFF
:1006A00000F0005203E0B94BBA2BF3D7A851A911BF
:1006B0000AE0BA51A95D02E1B951A85D04E2A8C0FF
:1006C000B9F0A9C0BAF00001AC51BA5D02E1AB517A
:1006D000B95D05E2B951AB5FBA51AC5B03D0000123
:1006E000AB6BAC6BADB716D0ABC000F0ACC001F0DB
:1006F000010EAB5F000EAC5B005001100BE09AC026
:10070000E1FF9BC0E2FF200EE66E9A4B9B2BAF4BA6
:10071000B02BEAD7B9C000F0BAC001F0010EB95F42
:10072000000EBA5B0050011013E0B7C0E9FFB8C07B
:10073000EAFFEECF00F09AC0E1FF9BC0E2FF00C0ED
:10074000E6FF9A4B9B2BB74BB82BAF4BB02BE2D7A6
:10075000ADA716D0ABC000F0ACC001F0010EAB5F8E
:10076000000EAC5B005001100BE09AC0E1FF9BC093
:10077000E2FF200EE66E9A4B9B2BAF4BB02BEAD7D5
:1007800094D59FC0E9FFA0C0EAFFEECF00F0EECF06
:1007900001F000C0E9FF01C0EAFFEECFAAF09FC060
:1007A000E9FFA0C0EAFFEECF00F0EECF01F0020EAD
:1007B0000026000E01229FC0E1FFA0C0E2FF00C0A2
:1007C000E6FF01C0E6FFAA0EB76F000EB86F010E7C
:1007D000B96F000EBA6F6AD7C00EAD13000EAE131C
:1007E0003BD0AA51000AD8B40FD7AA516C0AD8B48A
:1007F00010D7AA51660AD8B40ED7AA51450AD8B460
:100800000CD7AA51650AD8B409D7AA51670AD8B437
:1008100007D7AA516F0AD8B405D7AA51640AD8B429
:1008200003D7AA51690AD8B4FFD6AA51700AD8B41E
:10083000FCD6AA51580AD8B4F8D6AA51780AD8B426
:10084000F5D6AA51730AD8B4F3D6AA51630A99E02F
:10085000AA51750AC1E0B7D70001000EAD15006EB0
:10086000AE51070B016E00500110D8B49EEF0DF091
:10087000AEA904D0060EA86F000EA96F9FC0E9FFB5
:10088000A0C0EAFFEECF00F0EECF01F000C0E9FF1C
:1008900001C0EAFFEECFB1F0EECFB2F0EECFB3F091
:1008A000EECFB4F09FC0E9FFA0C0EAFFEECF00F0AA
:1008B000EECF01F0040E0026000E01229FC0E1FFE2
:1008C000A0C0E2FF00C0E6FF01C0E6FF046A056ABF
:1008D000066A076AB1C000F0B2C001F0B3C002F00E
:1008E000B4C003F079EC31F0010ED8B0000E006E08
:1008F000005205E0B37F030EAD13000EAE130001EE
:10090000B56BB66BB1C000F0B2C001F0B3C002F07D
:10091000B4C003F0046A056A066A076A41EC34F061
:10092000000ED8A4010E006E0052D8B496D0B4C008
:1009300000F0016A026A036AFF0E0014BF6F000E26
:10094000C06F000EC0177E0EBB6F000EBC6FBD6F78
:10095000BE6FBB51BF5D006EBC51C059016E00C07F
:10096000B5F001C0B6F0010E005CB56F000E015885
:10097000B66FB5C000F0B6C001F0030E046E000EF5
:10098000056E8BEC33F000C0B5F001C0B6F00A0E76
:10099000046E000E056EE1EC31F000C0B5F001C050
:1009A000B6F0800E0118BB6F800EBB5D02E1000E39
:1009B000005C04E2010EB55F000EB65B0001B551AC
:1009C0000008C36F51EC23F0B1C004F0B2C005F0D1
:1009D000B3C006F0B4C007F06EEC30F000C0B7F062
:1009E00001C0B8F002C0B9F003C0BAF0000E046E46
:1009F000000E056E000E066E7F0E076EB7C000F08B
:100A0000B8C001F0B9C002F0BAC003F079EC31F01F
:100A1000010ED8B0000E006E005205E0010EB55F69
:100A2000000EB65B1AD0000E046E000E056E200E8E
:100A3000066E820E076EB7C000F0B8C001F0B9C0F4
:100A400002F0BAC003F079EC31F0000ED8B0010E1C
:100A5000006E005202E0B54BB62B0001800E006E16
:100A6000800EB619005C02E1B551000803E3010EE7
:100A7000AA6F03D00001B5C0AAF0AEB11AD0AEA3E0
:100A800015D0800EB619006E7F0E005C02E1FC0EE0
:100A9000B55D0AE3800EB619006E800EA919005CE0
:100AA00002E1A851B55D02E3000103D0000191EF1E
:100AB00009F00001A851A91106E0AEA304D0010E6F
:100AC000A85F000EA95B000E006EA951005C02E158
:100AD000A851080803E2080EAA6F03D00001A8C0BD
:100AE000AAF0B1C000F0B2C001F0B3C002F0B4C0CF
:100AF00003F0046A056A066A076A41EC34F0000EE6
:100B0000D8A4010E006E0052D8B460D1B5C0C3F0B5
:100B100051EC23F000C004F001C005F002C006F063
:100B200003C007F0B1C000F0B2C001F0B3C002F0E2
:100B3000B4C003F08DEC2EF000C0B1F001C0B2F0F3
:100B400002C0B3F003C0B4F0AA510008C36F51EC67
:100B500023F000C004F001C005F002C006F003C09D
:100B600007F0B1C000F0B2C001F0B3C002F0B4C0F1
:100B700003F08DEC2EF000C0BBF001C0BCF002C051
:100B8000BDF003C0BEF0BBC0B1F0BCC0B2F0BDC090
:100B9000B3F0BEC0B4F0BBC000F0BCC001F0BDC03B
:100BA00002F0BEC003F037EC2FF059EC34F000C077
:100BB00004F001C005F002C006F003C007F0BBC09E
:100BC00000F0BCC001F0BDC002F0BEC003F0FDECFF
:100BD00034F0000E046E000E056E000E066E7E0EE2
:100BE000076E79EC31F0000ED8B0010E006E0052A5
:100BF0001AE0B1C000F0B2C001F0B3C002F0B4C05E
:100C000003F0000E046E000E056E000E066E7E0EE2
:100C1000076E50EC26F000C0B1F001C0B2F002C087
:100C2000B3F003C0B4F0B1C000F0B2C001F0B3C083
:100C300002F0B4C003F037EC2FF000C0BFF001C0E9
:100C4000C0F002C0C1F003C0C2F0AA51010F006E93
:100C5000016A000E0122020E046E000E01BEFF0E9C
:100C6000026E036E0450000107E00036009001366A
:100C700002360336FF0FF7D70001800E00266A0EFA
:100C80000122000E022200C0F6FF01C0F7FF02C0E1
:100C9000F8FF0900F5CFBBF00900F5CFBCF0090063
:100CA000F5CFBDF00900F5CFBEF0BE51C25D08E141
:100CB000BD51C15D05E1BC51C05D02E1BB51BF5DED
:100CC0001DE3B1C000F0B2C001F0B3C002F0B4C087
:100CD00003F0CD0E046ECC0E056E4C0E066E7B0E30
:100CE000076E6EEC30F000C0B1F001C0B2F002C08F
:100CF000B3F003C0B4F0B54BB62B68D00001B1C05F
:100D000000F0B2C001F0B3C002F0B4C003F037ECA1
:100D10002FF000C0BFF001C0C0F002C0C1F003C09E
:100D2000C2F0020E046EAAC000F0000E016E026E48
:100D3000036E0450000107E00036009001360236D1
:100D40000336FF0FF7D70001800E00266A0E01223E
:100D5000000E022200C0F6FF01C0F7FF02C0F8FF3C
:100D60000900F5CFBBF00900F5CFBCF00900F5CFC5
:100D7000BDF00900F5CFBEF0BE51C25D08E1BD5126
:100D8000C15D05E1BC51C05D02E1BB51BF5D1EE22A
:100D9000B1C000F0B2C001F0B3C002F0B4C003F0C3
:100DA000000E046E000E056E200E066E820E076E9B
:100DB0006EEC30F000C0B1F001C0B2F002C0B3F090
:100DC00003C0B4F0010EB55F000EB65B0001AEA328
:100DD00095D0AEB793D0800E000A006E800EA91990
:100DE000005C02E1A8510A0804E20A0EA86F000E96
:100DF000A96F0001B1C000F0B2C001F0B3C002F0B1
:100E0000B4C003F037EC2FF000C0B7F001C0B8F069
:100E100002C0B9F003C0BAF0B751B811B911BA1194
:100E200042E00A0E046E000E056E066E076EB7C035
:100E300000F0B8C001F0B9C002F0BAC003F0F5ECA0
:100E400029F008C000F009C001F00AC002F00BC090
:100E500003F0000EBB6F031808E1BB51021805E157
:100E6000BB51011802E10050000A1DE1010EA85F0C
:100E7000000EA95B0A0E046E000E056E066E076E6C
:100E8000B7C000F0B8C001F0B9C002F0BAC003F0BA
:100E9000F5EC29F000C0B7F001C0B8F002C0B9F01D
:100EA00003C0BAF0B9D70001800EA919006E800EF8
:100EB000005C02E1AA51A85D21E2A851AA5DC36FBE
:100EC00051EC23F000C004F001C005F002C006F0B0
:100ED00003C007F0B1C000F0B2C001F0B3C002F02F
:100EE000B4C003F08DEC2EF000C0B1F001C0B2F040
:100EF00002C0B3F003C0B4F0A8C0AAF00001050E10
:100F0000A825006E000EA921016E0050AB5F0150B4
:100F1000AC5BA851A91102E1AEA704D0010EAB5FF2
:100F2000000EAC5B030EAD15006EAEC001F0000EFE
:100F300001160050011004E0010EAB5F000EAC5B27
:100F4000ADA54AD0ADA31AD0010EAD15006EAEC04E
:100F500001F0000E01160050011003E02D0E006E8E
:100F600002D02B0E006E9AC0E1FF9BC0E2FF00C0D2
:100F7000E6FF9A4B9B2BAF4BB02B14D0010EAD1557
:100F8000006EAEC001F0000E0116005001100AE024
:100F90009AC0E1FF9BC0E2FF200EE66E9A4B9B2BAE
:100FA000AF4BB02B800E006E800EAC19005C02E1DE
:100FB000AB5100080FE29AC0E1FF9BC0E2FF300E88
:100FC000E66E9A4B9B2BAF4BB02B010EAB5F000E26
:100FD000AC5BE8D700014BD0ADB718D0800E006EE7
:100FE000800EAC19005C02E1AB5100080FE29AC020
:100FF000E1FF9BC0E2FF200EE66E9A4B9B2BAF4BAE
:10100000B02B010EAB5F000EAC5BE8D70001ADA3C7
:101010001AD0010EAD15006EAEC001F0000E011623
:101020000050011003E02D0E006E02D02B0E006E5A
:101030009AC0E1FF9BC0E2FF00C0E6FF9A4B9B2BEA
:10104000AF4BB02B14D0010EAD15006EAEC001F049
:10105000000E0116005001100AE09AC0E1FF9BC08B
:10106000E2FF200EE66E9A4B9B2BAF4BB02B00019C
:10107000B1C000F0B2C001F0B3C002F0B4C003F0E0
:1010800037EC2FF000C0B7F001C0B8F002C0B9F0E3
:1010900003C0BAF0020E046EAAC000F0000E016E8A
:1010A000026E036E0450000107E000360090013626
:1010B00002360336FF0FF7D70001800E00266A0EB6
:1010C0000122000E022200C0F6FF01C0F7FF02C09D
:1010D000F8FF0900F5CF04F00900F5CF05F009008D
:1010E000F5CF06F00900F5CF07F0B7C000F0B8C0A3
:1010F00001F0B9C002F0BAC003F0F5EC29F0300EEF
:1011000000269AC0E1FF9BC0E2FF00C0E6FF9A4BB9
:101110009B2BAF4BB02BA851A91102E1AEA775D004
:101120009AC0E1FF9BC0E2FF2E0EE66E9A4B9B2B0E
:10113000AF4BB02BAA51A85F000EA95BAA5353E096
:10114000AA07020E046EAAC000F0000E016E026E25
:10115000036E0450000107E00036009001360236AD
:101160000336FF0FF7D70001800E00266A0E01221A
:10117000000E022200C0F6FF01C0F7FF02C0F8FF18
:101180000900F5CF04F00900F5CF05F00900F5CF0F
:1011900006F00900F5CF07F0B7C000F0B8C001F0C5
:1011A000B9C002F0BAC003F0F5EC29F00A0E046EE3
:1011B000000E056E066E076EF5EC29F008C000F013
:1011C00009C001F00AC002F00BC003F0300E002687
:1011D0009AC0E1FF9BC0E2FF00C0E6FF9A4B9B2B49
:1011E000AF4BB02BABD7A851A9110FE09AC0E1FFCC
:1011F0009BC0E2FF300EE66E9A4B9B2BAF4BB02BA1
:10120000010EA85F000EA95BEED7ADAB0BD09AC064
:10121000E1FF9BC0E2FF450EE66E9A4B9B2BAF4B66
:10122000B02B0AD09AC0E1FF9BC0E2FF650EE66ECC
:101230009A4B9B2BAF4BB02B800EB619006E800ED5
:10124000005C02E1000EB55D12E2B5510008B56F19
:10125000B6C0B6F0E86AB6579AC0E1FF9BC0E2FF9D
:101260002D0EE66E9A4B9B2BAF4BB02B0BD0000193
:101270009AC0E1FF9BC0E2FF2B0EE66E9A4B9B2BC0
:10128000AF4BB02B0A0E046E000E056EB5C000F019
:10129000B6C001F0E1EC31F0300E00269AC0E1FF5B
:1012A0009BC0E2FF00C0E6FF9A4B9B2BAF4BB02BDD
:1012B0000A0E046E000E056EB5C000F0B6C001F057
:1012C000E1EC31F008C000F009C001F0300E00265A
:1012D0009AC0E1FF9BC0E2FF00C0E6FF9A4B9B2B48
:1012E000AF4BB02BADA71AD0800E006E800EAC199C
:1012F000005C02E1AB51000811E29AC0E1FF9BC023
:10130000E2FF200EE66E9A4B9B2BAF4BB02B010EEB
:10131000AB5F000EAC5BAB51AC11EFE1000155EFE0
:1013200001F00001AEA3FAD0800EB619006E800E57
:10133000005C02E1000EB55D0AE2010EB55D006ED3
:10134000000EB659016E0050A85F0150A95B000164
:10135000B1C000F0B2C001F0B3C002F0B4C003F0FD
:1013600037EC2FF000C0B7F001C0B8F002C0B9F000
:1013700003C0BAF0010EAA6FAA510A0A39E0020EA0
:10138000046EAAC000F0000E016E026E036E0450DF
:10139000000107E000360090013602360336FF0FE9
:1013A000F7D70001800E00266A0E0122000E0222ED
:1013B00000C0F6FF01C0F7FF02C0F8FF0900F5CF3B
:1013C000BBF00900F5CFBCF00900F5CFBDF0090076
:1013D000F5CFBEF0BE51BA5D08E1BD51B95D05E182
:1013E000BC51B85D02E1BB51B75D02E3AA2BC4D783
:1013F0000001AA51A85DBF6F000EA959C06FBFC000
:10140000A8F0C0C0A9F0B7C000F0B8C001F0B9C0E2
:1014100002F0BAC003F059EC34F000C004F001C08F
:1014200005F002C006F003C007F0B1C000F0B2C082
:1014300001F0B3C002F0B4C003F0FDEC34F000C022
:10144000BBF001C0BCF002C0BDF003C0BEF0BFC025
:10145000C3F051EC23F0BBC004F0BCC005F0BDC02C
:1014600006F0BEC007F06EEC30F0000E046E000E09
:10147000056E000E066E7E0E076E50EC26F037EC01
:101480002FF000C0B7F001C0B8F002C0B9F003C03F
:10149000BAF0A851A91142E00A0E046E000E056EC2
:1014A000066E076EB7C000F0B8C001F0B9C002F018
:1014B000BAC003F0F5EC29F008C000F009C001F053
:1014C0000AC002F00BC003F0000EBB6F031808E166
:1014D000BB51021805E1BB51011802E10050000A9E
:1014E0001DE10A0E046E000E056E066E076EB7C093
:1014F00000F0B8C001F0B9C002F0BAC003F0F5ECDA
:1015000029F000C0B7F001C0B8F002C0B9F003C0C4
:10151000BAF0010EA85F000EA95BBBD70001800ED8
:10152000006E800EA919005C02E1A8510C0816E3B8
:10153000A8C0C3F064EC28F0B1C004F0B2C005F05C
:10154000B3C006F0B4C007F050EC26F000C0B1F014
:1015500001C0B2F002C0B3F003C0B4F00001B1C0EA
:1015600000F0B2C001F0B3C002F0B4C003F0046AEE
:10157000056A066A076A41EC34F0000ED8A4010E31
:10158000006E0052D8B475D0B1C000F0B2C001F006
:10159000B3C002F0B4C003F037EC2FF0000EBB6F05
:1015A000031808E1BB51021805E1BB51011802E123
:1015B0000050000A5EE1800E006E800EB619005CDD
:1015C00002E1B551010855E2B5C0C3F051EC23F07A
:1015D00000C004F001C005F002C006F003C007F02F
:1015E000B1C000F0B2C001F0B3C002F0B4C003F06B
:1015F0008DEC2EF05F0E046E700E056E090E066EF9
:10160000810E076E79EC31F0010ED8B0000E006E3D
:10161000005205E0090EB55F000EB65B05D0000173
:10162000080EB55F000EB65BB5C0C3F051EC23F0F9
:1016300000C004F001C005F002C006F003C007F0CE
:10164000B1C000F0B2C001F0B3C002F0B4C003F00A
:101650008DEC2EF037EC2FF000C0B7F001C0B8F0E1
:1016600002C0B9F003C0BAF0B16BB26BB36BB46B2C
:1016700039D00001B1C000F0B2C001F0B3C002F037
:10168000B4C003F037EC2FF000C0B7F001C0B8F0E1
:1016900002C0B9F003C0BAF0B7C000F0B8C001F0A2
:1016A000B9C002F0BAC003F059EC34F000C004F045
:1016B00001C005F002C006F003C007F0B1C000F0A1
:1016C000B2C001F0B3C002F0B4C003F0FDEC34F0DE
:1016D00000C0B1F001C0B2F002C0B3F003C0B4F07A
:1016E000B56BB66B010EAA6FAA510A0A39E0020E59
:1016F000046EAAC000F0000E016E026E036E04506C
:10170000000107E000360090013602360336FF0F75
:10171000F7D70001800E00266A0E0122000E022279
:1017200000C0F6FF01C0F7FF02C0F8FF0900F5CFC7
:10173000BBF00900F5CFBCF00900F5CFBDF0090002
:10174000F5CFBEF0BE51BA5D08E1BD51B95D05E10E
:10175000BC51B85D02E1BB51B75D02E3AA2BC4D70F
:101760000001AA51A825006E000EA921016EB551F5
:101770000026B65101220050AB5F0150AC5BAEB702
:1017800003D0A851A91104E0010EAB5F000EAC5BC1
:10179000030EAD15006EAEC001F0000E0116005034
:1017A000011004E0010EAB5F000EAC5BADA54AD0AA
:1017B000ADA31AD0010EAD15006EAEC001F0000E43
:1017C00001160050011003E02D0E006E02D02B0E0A
:1017D000006E9AC0E1FF9BC0E2FF00C0E6FF9A4B9B
:1017E0009B2BAF4BB02B14D0010EAD15006EAEC0CD
:1017F00001F0000E0116005001100AE09AC0E1FF4E
:101800009BC0E2FF200EE66E9A4B9B2BAF4BB02B9A
:10181000800E006E800EAC19005C02E1AB51000836
:101820000FE29AC0E1FF9BC0E2FF300EE66E9A4BDA
:101830009B2BAF4BB02B010EAB5F000EAC5BE8D720
:1018400000014BD0ADB718D0800E006E800EAC19E1
:10185000005C02E1AB5100080FE29AC0E1FF9BC0BF
:10186000E2FF200EE66E9A4B9B2BAF4BB02B010E86
:10187000AB5F000EAC5BE8D70001ADA31AD0010E40
:10188000AD15006EAEC001F0000E01160050011043
:1018900003E02D0E006E02D02B0E006E9AC0E1FF09
:1018A0009BC0E2FF00C0E6FF9A4B9B2BAF4BB02BD7
:1018B00014D0010EAD15006EAEC001F0000E011681
:1018C000005001100AE09AC0E1FF9BC0E2FF200E29
:1018D000E66E9A4B9B2BAF4BB02B0001AAC000F0D9
:1018E000AA07005252E0020E046EAAC000F0000ED9
:1018F000016E026E036E0450000107E00036009096
:10190000013602360336FF0FF7D70001800E00269E
:101910006A0E0122000E022200C0F6FF01C0F7FF8E
:1019200002C0F8FF0900F5CF04F00900F5CF05F07B
:101930000900F5CF06F00900F5CF07F0B7C000F0B9
:10194000B8C001F0B9C002F0BAC003F0F5EC29F05C
:101950000A0E046E000E056E066E076EF5EC29F099
:1019600008C000F009C001F00AC002F00BC003F08B
:10197000300E00269AC0E1FF9BC0E2FF00C0E6FFE8
:101980009A4B9B2BAF4BB02BA8D7800E006E800ECE
:10199000B619005C02E1B55100080FE29AC0E1FF00
:1019A0009BC0E2FF300EE66E9A4B9B2BAF4BB02BE9
:1019B000010EB55F000EB65BE8D70001800E000A8D
:1019C000006E800EA919005C02E1A851080803E22C
:1019D000080EAA6F03D00001A8C0AAF0AA51A85F00
:1019E000000EA95BAA5302E1AEA70AD09AC0E1FF9C
:1019F0009BC0E2FF2E0EE66E9A4B9B2BAF4BB02B9B
:101A0000AAC0C3F051EC23F0B1C004F0B2C005F09D
:101A1000B3C006F0B4C007F06EEC30F0D4EC2FF099
:101A200000C0B7F001C0B8F002C0B9F003C0BAF00E
:101A3000AA5353E0AA07020E046EAAC000F0000EDB
:101A4000016E026E036E0450000107E00036009044
:101A5000013602360336FF0FF7D70001800E00264D
:101A60006A0E0122000E022200C0F6FF01C0F7FF3D
:101A700002C0F8FF0900F5CF04F00900F5CF05F02A
:101A80000900F5CF06F00900F5CF07F0B7C000F068
:101A9000B8C001F0B9C002F0BAC003F0F5EC29F00B
:101AA0000A0E046E000E056E066E076EF5EC29F048
:101AB00008C000F009C001F00AC002F00BC003F03A
:101AC000300E00269AC0E1FF9BC0E2FF00C0E6FF97
:101AD0009A4B9B2BAF4BB02BABD7A851A9110FE062
:101AE0009AC0E1FF9BC0E2FF300EE66E9A4B9B2B43
:101AF000AF4BB02B010EA85F000EA95BEED7ADA7D0
:101B00001AD0800E006E800EAC19005C02E1AB5161
:101B1000000811E29AC0E1FF9BC0E2FF200EE66ED2
:101B20009A4B9B2BAF4BB02B010EAB5F000EAC5B07
:101B3000AB51AC11EFE1000155EF01F0C00EAD1556
:101B4000BB6FAEC0BCF0000EBC17000EBC1902E1AA
:101B5000000EBB19D8A482D0ADA929D09FC0E9FF3F
:101B6000A0C0EAFFEECF00F0EECF01F000C0E9FF29
:101B700001C0EAFFEECFB7F0EECFB8F0EECFB9F08C
:101B8000EECFBAF09FC0E9FFA0C0EAFFEECF00F0B1
:101B9000EECF01F0040E0026000E01229FC0E1FFEF
:101BA000A0C0E2FF00C0E6FF01C0E6FF2ED09FC04C
:101BB000E9FFA0C0EAFFEECF00F0EECF01F000C0D9
:101BC000E9FF01C0EAFFEECFB7F0EECFB8F0000EAC
:101BD000B8BFFF0EB96FBA6F000EB8BFFF0EB96F76
:101BE000BA6F9FC0E9FFA0C0EAFFEECF00F0EECFD2
:101BF00001F0020E0026000E01229FC0E1FFA0C0EE
:101C0000E2FF00C0E6FF01C0E6FF800EBA19006ED9
:101C1000800E005C08E1000EB95D05E1000EB85DC4
:101C200002E1000EB75D18E2030EAD13000EAE1315
:101C3000006A016A026A036AB751005EB851015A2C
:101C4000B951025ABA51035A00C0B7F001C0B8F0F6
:101C500002C0B9F003C0BAF0000156D00001ADA92E
:101C600029D09FC0E9FFA0C0EAFFEECF00F0EECF81
:101C700001F000C0E9FF01C0EAFFEECFB7F0EECF00
:101C8000B8F0EECFB9F0EECFBAF09FC0E9FFA0C038
:101C9000EAFFEECF00F0EECF01F0040E0026000EBA
:101CA00001229FC0E1FFA0C0E2FF00C0E6FF01C02B
:101CB000E6FF2AD09FC0E9FFA0C0EAFFEECF00F008
:101CC000EECF01F000C0E9FF01C0EAFFEECFB7F0B0
:101CD000EECFB8F0000EB96FBA6F000EB96FBA6FE1
:101CE0009FC0E9FFA0C0EAFFEECF00F0EECF01F009
:101CF000020E0026000E01229FC0E1FFA0C0E2FFFD
:101D000000C0E6FF01C0E6FF0001000EA91902E1D4
:101D1000000EA8190FE1000E006EBA1908E100507C
:101D2000B91905E10050B81902E1B751000A02E102
:101D3000A84BA92B0001C00EAD15006E00C0BFF06E
:101D4000C0D0010EAA6FAA510A0A39E0020E046E31
:101D5000AAC000F0000E016E026E036E0450000176
:101D600007E000360090013602360336FF0FF7D742
:101D70000001800E00266A0E0122000E022200C021
:101D8000F6FF01C0F7FF02C0F8FF0900F5CFBBF076
:101D90000900F5CFBCF00900F5CFBDF00900F5CF83
:101DA000BEF0BE51BA5D08E1BD51B95D05E1BC515F
:101DB000B85D02E1BB51B75D02E3AA2BC4D70001B5
:101DC0008FD0010EAA6FAA51080A39E0020E046EE4
:101DD000AAC000F0000E016E026E036E04500001F6
:101DE00007E000360090013602360336FF0FF7D7C2
:101DF0000001A80E00266A0E0122000E022200C079
:101E0000F6FF01C0F7FF02C0F8FF0900F5CFBBF0F5
:101E10000900F5CFBCF00900F5CFBDF00900F5CF02
:101E2000BEF0BE51BA5D08E1BD51B95D05E1BC51DE
:101E3000B85D02E1BB51B75D02E3AA2BC4D7000134
:101E40004FD0010EAA6FAA510C0A39E0020E046E9F
:101E5000AAC000F0000E016E026E036E0450000175
:101E600007E000360090013602360336FF0FF7D741
:101E70000001C80E00266A0E0122000E022200C0D8
:101E8000F6FF01C0F7FF02C0F8FF0900F5CFBBF075
:101E90000900F5CFBCF00900F5CFBDF00900F5CF82
:101EA000BEF0BE51BA5D08E1BD51B95D05E1BC515E
:101EB000B85D02E1BB51B75D02E3AA2BC4D70001B4
:101EC0000FD0BF51000AD8B43CD7BF51C00AD8B414
:101ED00038D7BF51800AD8B474D7BF51400AB1E097
:101EE0000001800E006E800EA919005C02E1A8516D
:101EF000AA5D03E2A8C0AAF00ED00001800EA919C5
:101F0000006E800E005C02E1AA51A85D04E2AAC046
:101F1000A8F0000EA96F0001AB51AC110EE0030E4A
:101F2000AD15006EAEC001F0000E0116005001109C
:101F300004E0010EAB5F000EAC5B800EA919006ED1
:101F4000800EAC19005C02E1AB51A85D05E2A8511E
:101F5000AB5FA951AC5B03D00001AB6BAC6BC40EA3
:101F6000AD15BB6FAE51080BBC6FBC51080A02E146
:101F7000400EBB1908E1AB51AC1104E0010EAB5FA0
:101F8000000EAC5B1ED00001C00EAD15BB6FAE5194
:101F9000080BBC6FBC51080A02E1800EBB1911E1AD
:101FA000800E006E800EAC19005C02E1AB5102089D
:101FB00005E2020EAB5F000EAC5B03D00001AB6B21
:101FC000AC6B0001ADA56ED0ADA31AD0010EAD155E
:101FD000006EAEC001F0000E01160050011003E0CB
:101FE0002D0E006E02D02B0E006E9AC0E1FF9BC03A
:101FF000E2FF00C0E6FF9A4B9B2BAF4BB02B3CD0CF
:10200000010EAD15006EAEC001F0000E01160050BD
:1020100001100BE09AC0E1FF9BC0E2FF200EE66ECC
:102020009A4B9B2BAF4BB02B27D0C00EAD15BB6F7F
:10203000AE51080BBC6FBC51080A02E1800EBB19FF
:102040001BE19AC0E1FF9BC0E2FF300EE66E9A4BA7
:102050009B2BAF4BB02BADAB03D0580E006E02D014
:10206000780E006E9AC0E1FF9BC0E2FF00C0E6FF61
:102070009A4B9B2BAF4BB02B0001AB51AC1111E035
:102080009AC0E1FF9BC0E2FF300EE66E9A4B9B2B9D
:10209000AF4BB02B010EAB5F000EAC5BAB51AC1184
:1020A000EFE185D0AB51AC1113E0ADB711D09AC0C0
:1020B000E1FF9BC0E2FF200EE66E9A4B9B2BAF4BDD
:1020C000B02B010EAB5F000EAC5BAB51AC11EFE17E
:1020D000ADA31AD0010EAD15006EAEC001F0000E1A
:1020E00001160050011003E02D0E006E02D02B0EE1
:1020F000006E9AC0E1FF9BC0E2FF00C0E6FF9A4B72
:102100009B2BAF4BB02B14D0010EAD15006EAEC0A3
:1021100001F0000E0116005001100AE09AC0E1FF24
:102120009BC0E2FF200EE66E9A4B9B2BAF4BB02B71
:10213000C00EAD15BB6FAE51080BBC6FBC51080A89
:1021400002E1400EBB190BE19AC0E1FF9BC0E2FF28
:10215000300EE66E9A4B9B2BAF4BB02B28D0000174
:10216000C00EAD15BB6FAE51080BBC6FBC51080A59
:1021700002E1800EBB191BE19AC0E1FF9BC0E2FFA8
:10218000300EE66E9A4B9B2BAF4BB02BADAB03D012
:10219000580E006E02D0780E006E9AC0E1FF9BC010
:1021A000E2FF00C0E6FF9A4B9B2BAF4BB02B000128
:1021B000800E006E800EA919005C02E1A851AA5D94
:1021C0000BE29AC0E1FF9BC0E2FF300EE66E9A4B35
:1021D0009B2BAF4BB02BEBD70001A8C000F0A9C0E0
:1021E00001F0010EA85F000EA95B00500110D8B4E9
:1021F0004AD1C00EAD15006E00C0BBF029D1020E51
:10220000046EA8C000F0A9C001F0000EA9BFFF0E27
:10221000026E036E0450000107E0003600900136A4
:1022200002360336FF0FF7D70001800E00266A0E34
:102230000122000E022200C0F6FF01C0F7FF02C01B
:10224000F8FF0900F5CF04F00900F5CF05F009000B
:10225000F5CF06F00900F5CF07F0B7C000F0B8C021
:1022600001F0B9C002F0BAC003F0F5EC29F00A0E93
:10227000046E000E056E066E076EF5EC29F008C0C0
:1022800000F009C001F00AC002F00BC003F0300EEC
:102290000024AA6FECD0ADAB4ED0020E046EA8C0E5
:1022A00000F0A9C001F0000EA9BFFF0E026E036E80
:1022B0000450000107E00036009001360236033674
:1022C000FF0FF7D70001A80E00266A0E0122000EAC
:1022D000022200C0F6FF01C0F7FF02C0F8FF0900AC
:1022E000F5CF04F00900F5CF05F00900F5CF06F0B1
:1022F0000900F5CF07F0B7C000F0B8C001F0B9C0D1
:1023000002F0BAC003F0F5EC29F00F0E0016000E33
:10231000011602160316F80E00266A0E0122000EA0
:10232000022200C0F6FF01C0F7FF02C0F8FF09005B
:10233000F5CFAAF04DD0020E046EA8C000F0A9C0DF
:1023400001F0000EA9BFFF0E026E036E04500001E3
:1023500007E000360090013602360336FF0FF7D74C
:102360000001A80E00266A0E0122000E022200C003
:10237000F6FF01C0F7FF02C0F8FF0900F5CF04F037
:102380000900F5CF05F00900F5CF06F00900F5CFFB
:1023900007F0B7C000F0B8C001F0B9C002F0BAC091
:1023A00003F0F5EC29F00F0E0016000E01160216D0
:1023B00003160A0E00266B0E0122000E022200C038
:1023C000F6FF01C0F7FF02C0F8FF0900F5CFAAF041
:1023D00000014DD0020E046EA8C000F0A9C001F0AB
:1023E000000EA9BFFF0E026E036E0450000107E04D
:1023F00000360090013602360336FF0FF7D7000192
:10240000C80E00266A0E0122000E022200C0F6FF4E
:1024100001C0F7FF02C0F8FF0900F5CF04F0090082
:10242000F5CF05F00900F5CF06F00900F5CF07F06C
:10243000B7C000F0B8C001F0B9C002F0BAC003F0F4
:10244000F5EC29F0070E0014AA6F300EAA270FD062
:10245000BB51000AD8B4D3D6BB51C00AD8B4CFD62A
:10246000BB51800AD8B417D7BB51400AB3E0000172
:102470009AC0E1FF9BC0E2FFAAC0E6FF9A4B9B2BEC
:10248000AF4BB02BA9D6ADA71AD0800E006E800E30
:10249000AC19005C02E1AB51000811E29AC0E1FF07
:1024A0009BC0E2FF200EE66E9A4B9B2BAF4BB02BEE
:1024B000010EAB5F000EAC5BAB51AC11EFE1000164
:1024C00055EF01F0AFC000F0B0C001F0120046ECD3
:1024D00032F000016D6B6E6B6F6B706B1D0ED26E08
:1024E0000D0E0C6EFF0E0B6EFF0E0A6E0C2E01D041
:1024F00007D00B2E01D003D00A2EFED7FAD7F6D77D
:10250000BF0E0B6EFF0E0A6E0B2E01D003D00A2EEB
:10251000FED7FAD72B0E0A6E0A2EFED70000000057
:1025200000009C8E0E0EC16EBA0EC06EFF0E926E33
:10253000FF0E936E1F0E946E966A976A8490849233
:1025400084845E6A5F6A606BF26A9D6AA06A9E6AB2
:10255000A16ABD6ABA6A170EB76E050EBD6E050E8A
:10256000BA6E310ECD6E830E8D6F0F0E8E6F020E12
:102570008F6F030E906F040E916F050E926F830E96
:10258000936F0F0E946F070E956F010E966F060EE8
:10259000976F7FEC2BF00C0E0001C36F02EC31F053
:1025A000FA0EC86ED7EC34F0D08E9F86A194C00E80
:1025B000F26E050E9D6E010EA06ED180010E00011F
:1025C000716F010E726F000115A011D073A10ED0B2
:1025D00073915E50000A0AE15F50000A07E1605102
:1025E000000A04E171C072F08492848402D0000178
:1025F0007381000125EF23F0740E8D6F000E8E6F36
:102600004E0E8F6F6B0E906F000E916FF0EC33F0EB
:10261000010E00018D6F020E8E6F740E8F6F000E13
:10262000906F03EC33F0740E8D6F000E8E6F5E0EA4
:102630008F6F6B0E906F000E916FF0EC33F0020E07
:1026400000018D6F020E8E6F740E8F6F000E906FF3
:1026500003EC33F084921A0E0C6EFF0E0B6EFF0E1D
:102660000A6E0C2E01D007D00B2E01D003D00A2EFB
:10267000FED7FAD7F6D77F0E0B6EFF0E0A6E0B2E23
:1026800001D003D00A2EFED7FAD7580E0A6E0A2EB2
:10269000FED7000000008482010EC36F02EC31F00F
:1026A000020E0001716F346A49EF23F0740E8D6FD2
:1026B000000E8E6F7A0E8F6F6B0E906F000E916F03
:1026C000F0EC33F0010E00018D6F040E8E6F740E6E
:1026D0008F6F000E906F03EC33F0740E8D6F000E51
:1026E0008E6F400E8F6F6B0E906F000E916FF0EC3F
:1026F00033F0020E00018D6F010E8E6F740E8F6F1E
:10270000000E906F03EC33F0CEEF1BF00001740E5F
:102710008D6F000E8E6FEE0E8F6F6B0E906F000E32
:10272000916FF0EC33F0020E00018D6F060E8E6F8C
:10273000740E8F6F000E906F03EC33F00C0E4E6E24
:10274000000E4F6E506E516E1C0E6D6F070E6E6F49
:10275000000E6F6F706F1C0E426E070E436E000E00
:10276000446E456E000E5A6E000E5B6E000E5C6E7F
:10277000800E5D6E000E616F000E626F400E636F23
:10278000800E646F000E566E000E576E170E586E58
:10279000860E596EB4EF1DF00001740E8D6F000EA1
:1027A0008E6FF80E8F6F6B0E906F000E916FF0ECC6
:1027B00033F0020E00018D6F060E8E6F740E8F6F58
:1027C000000E906F03EC33F00C0E4E6E000E4F6E49
:1027D000506E516E110E6D6F070E6E6F000E6F6FA3
:1027E000706F110E426E070E436E000E446E456E02
:1027F000000E5A6E000E5B6E000E5C6E800E5D6EFB
:10280000000E616F000E626F400E636F800E646F8A
:10281000000E566E000E576E160E586E860E596ECE
:10282000B4EF1DF00001740E8D6F000E8E6F020E5E
:102830008F6F6C0E906F000E916FF0EC33F0020E04
:1028400000018D6F060E8E6F740E8F6F000E906FED
:1028500003EC33F00C0E4E6E000E4F6E506E516E48
:10286000110E6D6F070E6E6F000E6F6F706F110E91
:10287000426E070E436E000E446E456E000E5A6E99
:10288000000E5B6E000E5C6E800E5D6E000E616F62
:10289000000E626F400E636F800E646F000E566E06
:1028A000000E576E160E586E860E596EB4EF1DF060
:1028B0000001740E8D6F000E8E6F0C0E8F6F6C0EFC
:1028C000906F000E916FF0EC33F0020E00018D6FEF
:1028D000060E8E6F740E8F6F000E906F03EC33F048
:1028E0000C0E4E6E000E4F6E506E516E110E6D6FCF
:1028F000070E6E6F000E6F6F706F110E426E070E37
:10290000436E000E446E456E000E5A6E000E5B6EF6
:10291000000E5C6E800E5D6E000E616F000E626FC9
:10292000400E636F800E646F000E566E000E576E81
:10293000160E586E860E596EB4EF1DF00001740E1F
:102940008D6F000E8E6F160E8F6F6C0E906F000ED7
:10295000916FF0EC33F0020E00018D6F060E8E6F5A
:10296000740E8F6F000E906F03EC33F00C0E4E6EF2
:10297000000E4F6E506E516E1C0E6D6F070E6E6F17
:10298000000E6F6F706F1C0E426E070E436E000ECE
:10299000446E456E000E5A6E000E5B6E000E5C6E4D
:1029A000800E5D6E000E616F000E626F400E636FF1
:1029B000800E646F000E566E000E576E170E586E26
:1029C000860E596EB4EF1DF00001740E8D6F000E6F
:1029D0008E6F200E8F6F6C0E906F000E916FF0EC6B
:1029E00033F0020E00018D6F060E8E6F740E8F6F26
:1029F000000E906F03EC33F00C0E4E6E000E4F6E17
:102A0000506E516E1C0E6D6F070E6E6F000E6F6F65
:102A1000706F1C0E426E070E436E000E446E456EC4
:102A2000000E5A6E000E5B6E000E5C6E800E5D6EC8
:102A3000000E616F000E626F400E636F800E646F58
:102A4000000E566E000E576E170E586E860E596E9B
:102A5000B4EF1DF00001740E8D6F000E8E6F2A0E04
:102A60008F6F6C0E906F000E916FF0EC33F0020ED2
:102A700000018D6F060E8E6F740E8F6F000E906FBB
:102A800003EC33F00C0E4E6E000E4F6E506E516E16
:102A90001C0E6D6F070E6E6F000E6F6F706F1C0E49
:102AA000426E070E436E000E446E456E000E5A6E67
:102AB000000E5B6E000E5C6E800E5D6E000E616F30
:102AC000000E626F400E636F800E646F000E566ED4
:102AD000000E576E170E586E860E596EB4EF1DF02D
:102AE0000001740E8D6F000E8E6F340E8F6F6C0EA2
:102AF000906F000E916FF0EC33F0020E00018D6FBD
:102B0000060E8E6F740E8F6F000E906F03EC33F015
:102B10000C0E4E6E000E4F6E506E516E1C0E6D6F91
:102B2000070E6E6F000E6F6F706F1C0E426E070EF9
:102B3000436E000E446E456E000E5A6E000E5B6EC4
:102B4000000E5C6E800E5D6E000E616F000E626F97
:102B5000400E636F800E646F000E566E000E576E4F
:102B6000170E586E860E596EB4EF1DF00001740EEC
:102B70008D6F000E8E6F3E0E8F6F6C0E906F000E7D
:102B8000916FF0EC33F0020E00018D6F060E8E6F28
:102B9000740E8F6F000E906F03EC33F00C0E4E6EC0
:102BA000000E4F6E506E516E1C0E6D6F070E6E6FE5
:102BB000000E6F6F706F1C0E426E070E436E000E9C
:102BC000446E456E000E5A6E000E5B6E000E5C6E1B
:102BD000800E5D6E000E616F000E626F400E636FBF
:102BE000800E646F000E566E000E576E170E586EF4
:102BF000860E596EB4EF1DF00001740E8D6F000E3D
:102C00008E6F480E8F6F6C0E906F000E916FF0EC10
:102C100033F0020E00018D6F060E8E6F740E8F6FF3
:102C2000000E906F03EC33F00C0E4E6E000E4F6EE4
:102C3000506E516E1C0E6D6F070E6E6F000E6F6F33
:102C4000706F1C0E426E070E436E000E446E456E92
:102C5000000E5A6E000E5B6E000E5C6E800E5D6E96
:102C6000000E616F000E626F400E636F800E646F26
:102C7000000E566E000E576E170E586E860E596E69
:102C8000B4EF1DF00001740E8D6F000E8E6F520EAA
:102C90008F6F6C0E906F000E916FF0EC33F0020EA0
:102CA00000018D6F060E8E6F740E8F6F000E906F89
:102CB00003EC33F00C0E4E6E000E4F6E506E516EE4
:102CC000110E6D6F070E6E6F000E6F6F706F110E2D
:102CD000426E070E436E000E446E456E000E5A6E35
:102CE000000E5B6E000E5C6E800E5D6E000E616FFE
:102CF000000E626F400E636F800E646F000E566EA2
:102D0000000E576E160E586E860E596EB4EF1DF0FB
:102D10000001740E8D6F000E8E6F5C0E8F6F6C0E47
:102D2000906F000E916FF0EC33F0020E00018D6F8A
:102D3000060E8E6F740E8F6F000E906F03EC33F0E3
:102D40000C0E4E6E000E4F6E506E516E110E6D6F6A
:102D5000070E6E6F000E6F6F706F110E426E070ED2
:102D6000436E000E446E456E000E5A6E000E5B6E92
:102D7000000E5C6E800E5D6E000E616F000E626F65
:102D8000400E636F800E646F000E566E000E576E1D
:102D9000160E586E860E596EB4EF1DF00001740EBB
:102DA0008D6F000E8E6F660E8F6F6C0E906F000E23
:102DB000916FF0EC33F0020E00018D6F060E8E6FF6
:102DC000740E8F6F000E906F03EC33F00C0E4E6E8E
:102DD000000E4F6E506E516E4D0E6D6F050E6E6F84
:102DE000000E6F6F706F4D0E426E050E436E000E3B
:102DF000446E456E000E5A6E000E5B6E000E5C6EE9
:102E0000800E5D6E000E616F000E626F000E636FCC
:102E1000810E646F000E566E000E576E620E586E75
:102E2000850E596EB4EF1DF00001740E8D6F000E0B
:102E30008E6F700E8F6F6C0E906F000E916FF0ECB6
:102E400033F0020E00018D6F060E8E6F740E8F6FC1
:102E5000000E906F03EC33F00D0E4E6E000E4F6EB1
:102E6000506E516EC70E6D6F050E6E6F000E6F6F58
:102E7000706FC70E426E050E436E000E446E456EB7
:102E8000000E5A6E000E5B6E000E5C6E800E5D6E64
:102E9000000E616F000E626F000E636F810E646F33
:102EA000000E566E000E576E620E586E850E596EED
:102EB000B4EF1DF00001740E8D6F000E8E6F7A0E50
:102EC0008F6F6C0E906F000E916FF0EC33F0020E6E
:102ED00000018D6F060E8E6F740E8F6F000E906F57
:102EE00003EC33F00C0E4E6E000E4F6E506E516EB2
:102EF0004D0E6D6F050E6E6F000E6F6F706F4D0E85
:102F0000426E050E436E000E446E456E000E5A6E04
:102F1000000E5B6E000E5C6E800E5D6E000E616FCB
:102F2000000E626F000E636F810E646F000E566EAE
:102F3000000E576E620E586E850E596EB4EF1DF07E
:102F40000001740E8D6F000E8E6F840E8F6F6C0EED
:102F5000906F000E916FF0EC33F0020E00018D6F58
:102F6000060E8E6F740E8F6F000E906F03EC33F0B1
:102F70000F0E4E6E000E4F6E506E516E710E6D6FD5
:102F8000040E6E6F000E6F6F706F710E426E040E46
:102F9000436E000E446E456E000E5A6E000E5B6E60
:102FA000000E5C6E800E5D6E000E616F000E626F33
:102FB000400E636F810E646F000E566E000E576EEA
:102FC000160E586E850E596EB4EF1DF00001740E8A
:102FD0008D6F000E8E6F8E0E8F6F6C0E906F000EC9
:102FE000916FF0EC33F0020E00018D6F060E8E6FC4
:102FF000740E8F6F000E906F03EC33F00C0E4E6E5C
:10300000000E4F6E506E516E890E6D6F030E6E6F17
:10301000000E6F6F706F890E426E030E436E000ECE
:10302000446E456E000E5A6E000E5B6E000E5C6EB6
:10303000800E5D6E000E616F000E626F400E636F5A
:10304000810E646F000E566E000E576E160E586E8F
:10305000850E596EB4EF1DF00001740E8D6F000ED9
:103060008E6F980E8F6F6C0E906F000E916FF0EC5C
:1030700033F0020E00018D6F060E8E6F740E8F6F8F
:10308000000E906F03EC33F00C0E4E6E000E4F6E80
:10309000506E516E890E6D6F030E6E6F000E6F6F66
:1030A000706F890E426E030E436E000E446E456EC5
:1030B000000E5A6E000E5B6E000E5C6E800E5D6E32
:1030C000000E616F000E626F400E636F810E646FC1
:1030D000000E566E000E576E160E586E850E596E07
:1030E000B4EF1DF00001740E8D6F000E8E6FA20EF6
:1030F0008F6F6C0E906F000E916FF0EC33F0020E3C
:1031000000018D6F060E8E6F740E8F6F000E906F24
:1031100003EC33F00F0E4E6E000E4F6E506E516E7C
:10312000710E6D6F040E6E6F000E6F6F706F710E0B
:10313000426E040E436E000E446E456E000E5A6ED3
:10314000000E5B6E000E5C6E800E5D6E000E616F99
:10315000000E626F400E636F810E646F000E566E3C
:10316000000E576E160E586E850E596EB4EF1DF098
:103170000001740E8D6F000E8E6FAC0E8F6F6C0E93
:10318000906F000E916FF0EC33F0020E00018D6F26
:10319000060E8E6F740E8F6F000E906F03EC33F07F
:1031A0000F0E4E6E000E4F6E506E516E710E6D6FA3
:1031B000040E6E6F000E6F6F706F710E426E040E14
:1031C000436E000E446E456E000E5A6E000E5B6E2E
:1031D000000E5C6E800E5D6E000E616F000E626F01
:1031E000400E636F810E646F000E566E000E576EB8
:1031F000160E586E850E596EB4EF1DF00001740E58
:103200008D6F000E8E6FB60E8F6F6C0E906F000E6E
:10321000916FF0EC33F0020E00018D6F060E8E6F91
:10322000740E8F6F000E906F03EC33F00F0E4E6E26
:10323000000E4F6E506E516E710E6D6F040E6E6FFC
:10324000000E6F6F706F710E426E040E436E000EB3
:10325000446E456E000E5A6E000E5B6E000E5C6E84
:10326000800E5D6E000E616F000E626F400E636F28
:10327000810E646F000E566E000E576E160E586E5D
:10328000850E596EB4EF1DF00001740E8D6F000EA7
:103290008E6FC00E8F6F6C0E906F000E916FF0EC02
:1032A00033F0020E00018D6F060E8E6F740E8F6F5D
:1032B000000E906F03EC33F00F0E4E6E000E4F6E4B
:1032C000506E516E710E6D6F040E6E6F000E6F6F4B
:1032D000706F710E426E040E436E000E446E456EAA
:1032E000000E5A6E000E5B6E000E5C6E800E5D6E00
:1032F000000E616F000E626F400E636F810E646F8F
:10330000000E566E000E576E160E586E850E596ED4
:10331000B4EF1DF00001740E8D6F000E8E6FCA0E9B
:103320008F6F6C0E906F000E916FF0EC33F0020E09
:1033300000018D6F060E8E6F740E8F6F000E906FF2
:1033400003EC33F0080E4E6E000E4F6E506E516E51
:10335000090E6D6F020E6E6F000E6F6F706F090EAB
:10336000426E020E436E000E446E456E000E5A6EA3
:10337000000E5B6E000E5C6E800E5D6E000E616F67
:10338000000E626F400E636F810E646F000E566E0A
:10339000000E576E020E586E850E596EB4EF1DF07A
:1033A0000001740E8D6F000E8E6FD40E8F6F6C0E39
:1033B000906F000E916FF0EC33F0020E00018D6FF4
:1033C000060E8E6F740E8F6F000E906F03EC33F04D
:1033D0000D0E4E6E000E4F6E506E516EB60E6D6F2E
:1033E000020E6E6F000E6F6F706FB60E426E020EA1
:1033F000436E000E446E456E000E5A6E000E5B6EFC
:10340000000E5C6E800E5D6E000E616F000E626FCE
:10341000000E636F820E646F000E566E000E576EC4
:10342000540E586E840E596EB4EF1DF00001740EE8
:103430008D6F000E8E6FDE0E8F6F6C0E906F000E14
:10344000916FF0EC33F0020E00018D6F060E8E6F5F
:10345000740E8F6F000E906F03EC33F00D0E4E6EF6
:10346000000E4F6E506E516E910E6D6F020E6E6FAC
:10347000000E6F6F706F910E426E020E436E000E63
:10348000446E456E000E5A6E000E5B6E000E5C6E52
:10349000800E5D6E000E616F000E626F100E636F26
:1034A000820E646F000E566E000E576E480E586EF8
:1034B000840E596EB4EF1DF00001740E8D6F000E76
:1034C0008E6FE80E8F6F6C0E906F000E916FF0ECA8
:1034D00033F0020E00018D6F060E8E6F740E8F6F2B
:1034E000000E906F03EC33F00D0E4E6E000E4F6E1B
:1034F000506E516E580E6D6F060E6E6F000E6F6F30
:10350000706F580E426E060E436E000E446E456E8E
:10351000000E5A6E000E5B6E000E5C6E7F0E5D6ECE
:10352000000E616F000E626F400E636F810E646F5C
:10353000000E566E000E576E780E586E850E596E40
:1035400013D30001740E8D6F000E8E6FF20E8F6F0D
:103550006C0E906F000E916FF0EC33F0020E0001D4
:103560008D6F060E8E6F740E8F6F000E906F03ECD2
:1035700033F00D0E4E6E000E4F6E506E516E910E6A
:103580006D6F020E6E6F000E6F6F706F910E426E58
:10359000020E436E000E446E456E000E5A6E000E13
:1035A0005B6E000E5C6E800E5D6E000E616F000E35
:1035B000626F100E636F820E646F000E566E000E07
:1035C000576E480E586E840E596ECED20001740E9E
:1035D0008D6F000E8E6FFC0E8F6F6C0E906F000E55
:1035E000916FF0EC33F0020E00018D6F060E8E6FBE
:1035F000740E8F6F000E906F03EC33F00D0E4E6E55
:10360000000E4F6E506E516E910E6D6F020E6E6F0A
:10361000000E6F6F706F910E426E020E436E000EC1
:10362000446E456E000E5A6E000E5B6E000E5C6EB0
:10363000800E5D6E000E616F000E626F100E636F84
:10364000820E646F000E566E000E576E480E586E56
:10365000840E596E89D20001740E8D6F000E8E6F2C
:10366000060E8F6F6D0E906F000E916FF0EC33F0C1
:10367000020E00018D6F060E8E6F740E8F6F000E9E
:10368000906F03EC33F00F0E4E6E000E4F6E506EC7
:10369000516E710E6D6F040E6E6F000E6F6F706F56
:1036A000710E426E040E436E000E446E456E000EA7
:1036B0005A6E000E5B6E000E5C6E800E5D6E000E2C
:1036C000616F000E626F400E636F810E646F000EBB
:1036D000566E000E576E160E586E850E596E44D2F9
:1036E0000001740E8D6F000E8E6F100E8F6F6D0EB9
:1036F000906F000E916FF0EC33F0020E00018D6FB1
:10370000060E8E6F740E8F6F000E906F03EC33F009
:103710000D0E4E6E000E4F6E506E516EC70E6D6FD9
:10372000050E6E6F000E6F6F706FC70E426E050E46
:10373000436E000E446E456E000E5A6E000E5B6EB8
:10374000000E5C6E800E5D6E000E616F000E626F8B
:10375000000E636F810E646F000E566E000E576E82
:10376000620E586E850E596EFFD10001740E8D6F7A
:10377000000E8E6F100E8F6F6D0E906F000E916F9A
:10378000F0EC33F0020E00018D6F060E8E6F740E9A
:103790008F6F000E906F03EC33F0E6D1000E006ED9
:1037A000551808E10050541805E10050531802E183
:1037B0005250010A0001D8B486EF13F0000E006EDB
:1037C000551808E10050541805E10050531802E163
:1037D0005250020A0001D8B4CCEF13F0000E006E74
:1037E000551808E10050541805E10050531802E143
:1037F0005250030A0001D8B412EF14F0000E006E0C
:10380000551808E10050541805E10050531802E122
:103810005250040A0001D8B458EF14F0000E006EA4
:10382000551808E10050541805E10050531802E102
:103830005250050A0001D8B49EEF14F0000E006E3D
:10384000551808E10050541805E10050531802E1E2
:103850005250060A0001D8B4E4EF14F0000E006ED6
:10386000551808E10050541805E10050531802E1C2
:103870005250070A0001D8B42AEF15F0000E006E6E
:10388000551808E10050541805E10050531802E1A2
:103890005250080A0001D8B470EF15F0000E006E07
:1038A000551808E10050541805E10050531802E182
:1038B0005250090A0001D8B4B6EF15F0000E006EA0
:1038C000551808E10050541805E10050531802E162
:1038D00052500A0A0001D8B4FCEF15F0000E006E39
:1038E000551808E10050541805E10050531802E142
:1038F00052500B0A0001D8B442EF16F0000E006ED1
:10390000551808E10050541805E10050531802E121
:1039100052500C0A0001D8B488EF16F0000E006E69
:10392000551808E10050541805E10050531802E101
:1039300052500D0A0001D8B4CEEF16F0000E006E02
:10394000551808E10050541805E10050531802E1E1
:1039500052500E0A0001D8B414EF17F0000E006E9A
:10396000551808E10050541805E10050531802E1C1
:1039700052500F0A0001D8B45AEF17F0000E006E33
:10398000551808E10050541805E10050531802E1A1
:103990005250100A0001D8B4A0EF17F0000E006ECC
:1039A000551808E10050541805E10050531802E181
:1039B0005250110A0001D8B4E6EF17F0000E006E65
:1039C000551808E10050541805E10050531802E161
:1039D0005250120A0001D8B42CEF18F0000E006EFD
:1039E000551808E10050541805E10050531802E141
:1039F0005250130A0001D8B472EF18F0000E006E96
:103A0000551808E10050541805E10050531802E120
:103A10005250140A0001D8B4B8EF18F0000E006E2E
:103A2000551808E10050541805E10050531802E100
:103A30005250150A0001D8B4FEEF18F0000E006EC7
:103A4000551808E10050541805E10050531802E1E0
:103A50005250160A0001D8B417D4000E006E551843
:103A600008E10050541805E10050531802E152508B
:103A7000170A0001D8B44ED4000E006E551808E1A4
:103A80000050541805E10050531802E15250180A32
:103A90000001D8B485D4000E006E551808E100501E
:103AA000541805E10050531802E15250190A000160
:103AB000D8B4BCD4000E006E551808E1005054185C
:103AC00005E10050531802E152501A0A0001D8B41F
:103AD000F3D4000E006E551808E10050541805E1AB
:103AE0000050531802E152501B0A0001D8B429D5E6
:103AF000000E006E551808E10050541805E1005002
:103B0000531802E152501C0A0001D8B45FD5000ED0
:103B1000006E551808E10050541805E10050531884
:103B200002E152501D0A0001D8B495D5000E006E76
:103B3000551808E10050541805E10050531802E1EF
:103B400052501E0A0001D8B4CBD5000E006E551895
:103B500008E10050541805E10050531802E152509A
:103B60001E0A0001D8B401D6A7EC2DF00001845143
:103B7000030A09E1010E5226000E53225422552257
:103B8000346A020E716F5550000808E15450000865
:103B900005E15350000802E152501E08000106E200
:103BA000010E526E000E536E546E556E000184511C
:103BB000040A11E1010E006E000E016E026E036E2A
:103BC0000050525E0150535A0250545A0350555AF5
:103BD000346A020E716F000E555C08E1000E545CF1
:103BE00005E1000E535C02E1010E525C000106E2A9
:103BF0001E0E526E000E536E546E556E00018451AF
:103C0000050A64E1010EC36F02EC31F01F0E526E23
:103C1000000E536E546E556E050E0001716F346ABE
:103C2000740E8D6F000E8E6F9C0E8F6F6B0E906FEB
:103C3000000E916FF0EC33F0010E00018D6F050E58
:103C40008E6F740E8F6F000E906F03EC33F0740E56
:103C50008D6F000E8E6FA60E8F6F6B0E906F000E25
:103C6000916FF0EC33F0020E00018D6F060E8E6F37
:103C7000740E8F6F000E906F03EC33F01A0E0C6E03
:103C8000FF0E0B6EFF0E0A6E0C2E01D007D00B2E0E
:103C900001D003D00A2EFED7FAD7F6D77F0E0B6ECF
:103CA000FF0E0A6E0B2E01D003D00A2EFED7FAD7D4
:103CB000580E0A6E0A2EFED700000000010EC36FD8
:103CC00002EC31F0030E0001716F346A49EF23F00A
:103CD000740E8D6F000E8E6F860E8F6F6B0E906F51
:103CE000000E916FF0EC33F0010E00018D6F0E0E9F
:103CF0008E6F740E8F6F000E906F03EC33F0740EA6
:103D00008D6F000E8E6F980E8F6F6B0E906F000E82
:103D1000916FF0EC33F0020E00018D6F0E0E8E6F7E
:103D2000740E8F6F000E906F03EC33F08451030A12
:103D300056E165C000F066C001F067C002F068C0DF
:103D400003F0CD0E046ECC0E056E4C0E066E7B0E8F
:103D5000076E50EC26F000C065F001C066F002C0AE
:103D600067F003C068F042506D2743506E23445003
:103D70006F2345507023010E3A26000E3B223C2251
:103D80003D22740E8D6F000E8E6FAE0E8F6F6B0E18
:103D9000906F000E916FF0EC33F0010E00018D6F0B
:103DA000010E8E6F740E8F6F000E906F03EC33F068
:103DB000740E8D6F000E8E6FAE0E8F6F6B0E906F48
:103DC000000E916FF0EC33F0020E00018D6F010ECA
:103DD0008E6F740E8F6F000E906F03EC33F0845172
:103DE000040A5EE1CD0E046ECC0E056E4C0E066E1E
:103DF0007B0E076E65C000F066C001F067C002F080
:103E000068C003F0FDEC34F000C065F001C066F05E
:103E100002C067F003C068F042506D5F43506E5BB4
:103E200044506F5B4550705B010E006E000E016EDA
:103E3000026E036E00503A5E01503B5A02503C5AEB
:103E400003503D5A740E8D6F000E8E6FAE0E8F6F45
:103E50006B0E906F000E916FF0EC33F0010E0001CD
:103E60008D6F010E8E6F740E8F6F000E906F03ECCE
:103E700033F0740E8D6F000E8E6FAE0E8F6F6B0E63
:103E8000906F000E916FF0EC33F0020E00018D6F19
:103E9000010E8E6F740E8F6F000E906F03EC33F077
:103EA000CD0E046ECC0E056E4C0E066E7B0E076EAC
:103EB00065C000F066C001F067C002F068C003F0A2
:103EC00079EC31F0010ED8B0000E006E005208E01F
:103ED000656B666B676B686B6D6B6E6B6F6B706B36
:103EE0000001740E8D6F000E8E6F1A0E8F6F6D0EA7
:103EF000906F000E916F6DC092F06EC093F06FC026
:103F000094F070C095F01BEC34F0010E8D6F010E33
:103F10008E6F740E8F6F000E906F03EC33F0746B26
:103F2000740E8D6F000E8E6F1E0E8F6F6D0E906F64
:103F3000000E916F65C092F066C093F067C094F078
:103F400068C095F01BEC34F0020E8D6F010E8E6F81
:103F5000740E8F6F000E906F03EC33F0746B84510E
:103F6000050A07E1040E716F346A010EC36F02EC9B
:103F700031F000018451010A08E1010EC36F02EC27
:103F800031F0020E0001716F346A8451020A08E1B7
:103F9000010EC36F02EC31F0020E0001716F346A42
:103FA00078D3740E8D6F000E8E6F980E8F6F6B0E20
:103FB000906F000E916FF0EC33F0010E00018D6FE9
:103FC0000E0E8E6F740E8F6F000E906F03EC33F039
:103FD000740E8D6F000E8E6F860E8F6F6B0E906F4E
:103FE000000E916FF0EC33F0020E00018D6F0E0E9B
:103FF0008E6F740E8F6F000E906F03EC33F0845150
:10400000050A08E1010EC36F02EC31F0020E000157
:10401000716F346A4150705D08E140506F5D05E199
:104020003F506E5D02E13E506D5DD8A0E7D0A7EC39
:104030002DF03450060A03E1020E0001716F0001F9
:10404000010E3E26000E3F224022412285903B0E6B
:104050000B6EFF0E0A6E0B2E01D003D00A2EFED778
:10406000FAD7480E0A6E0A2EFED70000000085809F
:10407000070E0B6EFF0E0A6E0B2E01D003D00A2E18
:10408000FED7FAD7780E0A6E0A2EFED7000000007F
:104090004EC004F04FC005F050C006F051C007F00C
:1040A0003EC000F03FC001F040C002F041C003F04C
:1040B000F5EC29F059EC34F05AC004F05BC005F07F
:1040C0005CC006F05DC007F06EEC30F061C004F03B
:1040D00062C005F063C006F064C007F06EEC30F01B
:1040E000000E046E400E056E1C0E066E8C0E076EE2
:1040F0008DEC2EF000C089F001C08AF002C08BF078
:1041000003C08CF03AC000F03BC001F03CC002F0AC
:104110003DC003F059EC34F00A0E046ED70E056E64
:10412000230E066E780E076E6EEC30F089C004F038
:104130008AC005F08BC006F08CC007F050EC26F06A
:1041400000C069F001C06AF002C06BF003C06CF0FF
:10415000740E8D6F000E8E6F220E8F6F6D0E906F2E
:10416000000E916F00C092F001C093F002C094F075
:1041700003C095F01BEC34F0010E8D6F010E8E6FB5
:10418000740E8F6F000E906F03EC33F0746B740E2F
:104190008D6F000E8E6F260E8F6F6D0E906F000E5E
:1041A000916F3EC092F03FC093F040C094F041C088
:1041B00095F01BEC34F0020E8D6F010E8E6F740EB5
:1041C0008F6F000E906F03EC33F0746B740E8D6F75
:1041D000000E8E6FBA0E8F6F6B0E906F000E916F88
:1041E000F0EC33F0010E00018D6F080E8E6F740E2F
:1041F0008F6F000E906F03EC33F00CD700014D5021
:10420000000808E14C50000805E14B50000802E1AD
:104210004A500208000145E3010E4A26000E4B22D7
:104220004C224D228482060E0C6EFF0E0B6EFF0E8A
:104230000A6E0C2E01D007D00B2E01D003D00A2E0F
:10424000FED7FAD7F6D71A0E0B6EFF0E0A6E0B2E9C
:1042500001D003D00A2EFED7FAD7420E0A6E0A2EDC
:10426000FED78492060E0C6EFF0E0B6EFF0E0A6ECA
:104270000C2E01D007D00B2E01D003D00A2EFED772
:10428000FAD7F6D71A0E0B6EFF0E0A6E0B2E01D060
:1042900003D00A2EFED7FAD7420E0A6E0A2EFED798
:1042A000ADD700016D6B6E6B6F6B706B010E3E6E68
:1042B000000E3F6E406E416E4E6A4F6A506A516A00
:1042C000010E526E000E536E546E556ECD0E656F1C
:1042D000CC0E666F4C0E676F7B0E686F8580849284
:1042E000D8D1740E8D6F000E8E6F860E8F6F6B0E91
:1042F000906F000E916FF0EC33F0010E00018D6FA6
:10430000010E8E6F740E8F6F000E906F03EC33F002
:10431000746BA7EC2DF000018451030A06E1010E35
:104320006D27000E6E236F2370238451040A0EE163
:10433000010E006E000E016E026E036E00506D5F86
:1043400001506E5B02506F5B0350705B740E8D6F9B
:10435000000E8E6F2A0E8F6F6D0E906F000E916F94
:104360006DC092F06EC093F06FC094F070C095F085
:104370001BEC34F0020E8D6F010E8E6F740E8F6F7A
:10438000000E906F03EC33F0746B8451050A0BE15F
:104390006DC042F06EC043F06FC044F070C045F095
:1043A000060E716F346A75D1740E8D6F000E8E6FAC
:1043B000C00E8F6F6B0E906F000E916FF0EC33F0AC
:1043C000010E00018D6F010E8E6F740E8F6F000E47
:1043D000906F03EC33F0746BA7EC2DF00001845167
:1043E000030A06E1010E4E26000E4F2250225122F2
:1043F0008451040A0EE1010E006E000E016E026E81
:10440000036E00504E5E01504F5A0250505A0350F6
:10441000515A740E8D6F000E8E6F2E0E8F6F6D0EB3
:10442000906F000E916F4EC092F04FC093F050C04D
:1044300094F051C095F01BEC34F0020E8D6F010E1C
:104440008E6F740E8F6F000E906F03EC33F0746BF1
:104450008451050A03E1070E716F346A1AD1740E94
:104460008D6F000E8E6FCE0E8F6F6B0E906F000EE5
:10447000916FF0EC33F0010E00018D6F010E8E6F25
:10448000740E8F6F000E906F03EC33F0746BA7EC1B
:104490002DF000018451030A1AE161C000F062C0EE
:1044A00001F063C002F064C003F0000E046E000E61
:1044B000056E000E066E7F0E076E50EC26F000C0F3
:1044C00061F001C062F002C063F003C064F0845187
:1044D000040A1AE1000E046E000E056E000E066E50
:1044E0007F0E076E61C000F062C001F063C002F091
:1044F00064C003F0FDEC34F000C061F001C062F074
:1045000002C063F003C064F0740E8D6F000E8E6FF6
:10451000320E8F6F6D0E906F000E916F61C092F032
:1045200062C093F063C094F064C095F01BEC34F06B
:10453000020E8D6F010E8E6F740E8F6F000E906FD6
:1045400003EC33F0746B8451050A03E1080E716FBC
:10455000346A9FD0740E8D6F000E8E6FDC0E8F6FDD
:104560006B0E906F000E916FF0EC33F0010E0001B6
:104570008D6F010E8E6F740E8F6F000E906F03ECB7
:1045800033F0746BA7EC2DF000018451030A1AE19B
:104590005AC000F05BC001F05CC002F05DC003F0E7
:1045A000CD0E046ECC0E056E4C0E066E7B0E076EA5
:1045B00050EC26F000C05AF001C05BF002C05CF085
:1045C00003C05DF08451040A1AE1CD0E046ECC0ED6
:1045D000056E4C0E066E7B0E076E5AC000F05BC077
:1045E00001F05CC002F05DC003F0FDEC34F000C0EF
:1045F0005AF001C05BF002C05CF003C05DF0740EC5
:104600008D6F000E8E6F360E8F6F6D0E906F000ED9
:10461000916F6DC092F06EC093F06FC094F070C057
:1046200095F01BEC34F0020E8D6F010E8E6F740E40
:104630008F6F000E906F03EC33F0746B8451050A9A
:1046400003E1040E716F346A24D000017151010A34
:10465000D8B4FCEF12F07151020AD8B456EF13F03F
:104660007151030AD8B468EF1EF07151040AD8B42E
:1046700098D47151050AD8B434D67151060AD8B409
:1046800093D67151070AD8B4EAD67151080AD8B442
:1046900061D70001A7EC2DF000C084F0E3EF12F029
:1046A000FFD7800E0001C319006E800E000A005C67
:1046B000D8B07ED1C3510008046E04C0C3F0800E90
:1046C0000418006E800E6E0A005CD8A0C6D0640E7E
:1046D000046EC3C000F0A8EC32F0120E0026000EEB
:1046E00000BEFF0E016E000E0122020E046E000ECF
:1046F00001BEFF0E026E036E0450000107E000369B
:104700000090013602360336FF0FF7D70001180E6E
:1047100000266A0E0122000E022200C0F6FF01C030
:10472000F7FF02C0F8FF0900F5CFC4F00900F5CF8C
:10473000C5F00900F5CFC6F00900F5CFC7F0640E4B
:10474000046EC3C000F0A8EC32F008C000F00A0EFE
:10475000046EA8EC32F0090E0026000E00BEFF0E1B
:10476000016E000E0122020E046E000E01BEFF0E4D
:10477000026E036E0450000107E00036009001361F
:1047800002360336FF0FF7D70001180E00266A0E17
:104790000122000E022200C0F6FF01C0F7FF02C096
:1047A000F8FF0900F5CF00F00900F5CF01F009008E
:1047B000F5CF02F00900F5CF03F0C4C004F0C5C086
:1047C00005F0C6C006F0C7C007F06EEC30F000C0C0
:1047D000C4F001C0C5F002C0C6F003C0C7F00A0EA5
:1047E000046EC3C000F0A8EC32F008C000F0020E66
:1047F000046E000E00BEFF0E016E026E036E0450CA
:10480000000107E000360090013602360336FF0F44
:10481000F7D70001180E00266A0E0122000E0222B0
:1048200000C0F6FF01C0F7FF02C0F8FF0900F5CF96
:1048300000F00900F5CF01F00900F5CF02F0090002
:10484000F5CF03F0C4C004F0C5C005F0C6C006F043
:10485000C7C007F06EEC30F01200800E0A0A006E3E
:10486000800EC319005C76E20A0E046EC3C000F02D
:10487000A8EC32F0090E0026000E00BEFF0E016EFD
:10488000000E0122020E046E000E01BEFF0E026E2B
:10489000036E0450000107E0003600900136023636
:1048A0000336FF0FF7D70001180E00266A0E01220B
:1048B000000E022200C0F6FF01C0F7FF02C0F8FFA1
:1048C0000900F5CFC4F00900F5CFC5F00900F5CF18
:1048D000C6F00900F5CFC7F00A0E046EC3C000F0A1
:1048E000A8EC32F008C000F0020E046E000E00BE0C
:1048F000FF0E016E026E036E0450000107E00036E9
:104900000090013602360336FF0FF7D70001180E6C
:1049100000266A0E0122000E022200C0F6FF01C02E
:10492000F7FF02C0F8FF0900F5CF00F00900F5CF4E
:1049300001F00900F5CF02F00900F5CF03F0C4C083
:1049400004F0C5C005F0C6C006F0C7C007F06EECA5
:1049500030F01200020E046EC3C000F0000EC3BFA0
:10496000FF0E016E026E036E0450000107E0003678
:104970000090013602360336FF0FF7D70001180EFC
:1049800000266A0E0122000E022200C0F6FF01C0BE
:10499000F7FF02C0F8FF0900F5CF00F00900F5CFDE
:1049A00001F00900F5CF02F00900F5CF03F0120085
:1049B000800EC319006E800E6E0A005CD8A0C6D0AF
:1049C000640E046EC3C000F0A8EC32F0120E002694
:1049D000000E00BEFF0E016E000E0122020E046EDC
:1049E000000E01BEFF0E026E036E0450000107E0D0
:1049F00000360090013602360336FF0FF7D700016C
:104A00004C0E00266A0E0122000E022200C0F6FFA4
:104A100001C0F7FF02C0F8FF0900F5CFC4F009009C
:104A2000F5CFC5F00900F5CFC6F00900F5CFC7F006
:104A3000640E046EC3C000F0A8EC32F008C000F0B1
:104A40000A0E046EA8EC32F0090E0026000E00BE1D
:104A5000FF0E016E000E0122020E046E000E01BE5A
:104A6000FF0E026E036E0450000107E00036009056
:104A7000013602360336FF0FF7D700014C0E002631
:104A80006A0E0122000E022200C0F6FF01C0F7FFED
:104A900002C0F8FF0900F5CF00F00900F5CF01F0E2
:104AA0000900F5CF02F00900F5CF03F0C4C004F00F
:104AB000C5C005F0C6C006F0C7C007F06EEC30F008
:104AC00000C0C4F001C0C5F002C0C6F003C0C7F00A
:104AD0000A0E046EC3C000F0A8EC32F008C000F06B
:104AE000020E046E000E00BEFF0E016E026E036E1B
:104AF0000450000107E0003600900136023603360C
:104B0000FF0FF7D700014C0E00266A0E0122000E9F
:104B1000022200C0F6FF01C0F7FF02C0F8FF090043
:104B2000F5CF00F00900F5CF01F00900F5CF02F054
:104B30000900F5CF03F0C4C004F0C5C005F0C6C03D
:104B400006F0C7C007F06EEC30F01200800E0A0AC3
:104B5000006E800EC319005C76E20A0E046EC3C0BC
:104B600000F0A8EC32F0090E0026000E00BEFF0E89
:104B7000016E000E0122020E046E000E01BEFF0E39
:104B8000026E036E0450000107E00036009001360B
:104B900002360336FF0FF7D700014C0E00266A0ECF
:104BA0000122000E022200C0F6FF01C0F7FF02C082
:104BB000F8FF0900F5CFC4F00900F5CFC5F00900F2
:104BC000F5CFC6F00900F5CFC7F00A0E046EC3C0DA
:104BD00000F0A8EC32F008C000F0020E046E000EE7
:104BE00000BEFF0E016E026E036E0450000107E06E
:104BF00000360090013602360336FF0FF7D700016A
:104C00004C0E00266A0E0122000E022200C0F6FFA2
:104C100001C0F7FF02C0F8FF0900F5CF00F009005E
:104C2000F5CF01F00900F5CF02F00900F5CF03F050
:104C3000C4C004F0C5C005F0C6C006F0C7C007F088
:104C40006EEC30F01200020E046EC3C000F0000ED5
:104C5000C3BFFF0E016E026E036E0450000107E039
:104C600000360090013602360336FF0FF7D74C0EA0
:104C700000266A0E0122000E022200C0F6FF01C0CB
:104C8000F7FF02C0F8FF0900F5CF00F00900F5CFEB
:104C900001F00900F5CF02F00900F5CF03F0120092
:104CA0000001025006180E6E086A096A0B6A03506A
:104CB000076444EF27F006500A6E068E028E0350FA
:104CC0000B6E0750036E000E0B6494EF26F00B5032
:104CD000075ED8B435EF27F0070E076403EF27F01F
:104CE000075E00C008F001C000F002C001F0026AD7
:104CF000074E35EF27F00764D8EF26F0075E00C0B7
:104D000008F001C000F0016A074E35EF27F0076494
:104D1000B6EF26F0075E00C008F0006A074E35EFD8
:104D200027F007649DEF26F00AC002F005C001F0ED
:104D300004C000F0086A61EF28F0030E0764A8EFD2
:104D400026F0075E08380F0B086E074E35EF27F088
:104D5000D8900832074E35EF27F0D8900832074E2A
:104D600035EF27F0D890083235EF27F0030E0764AF
:104D7000C7EF26F0075E08380F0B086E0038F00BFF
:104D8000082600380F0B006E074E35EF27F0D8903D
:104D900000320832074E35EF27F0D8900032083243
:104DA000074E35EF27F0D8900032083235EF27F064
:104DB000030E0764EFEF26F0075E08380F0B086E4E
:104DC0000038F00B082600380F0B006E0138F00B8E
:104DD000002601380F0B016E074E35EF27F0D890F3
:104DE000013200320832074E35EF27F0D8900132F9
:104DF00000320832074E35EF27F0D89001320032EA
:104E0000083235EF27F0030E076420EF27F0075E26
:104E100008380F0B086E0038F00B082600380F0B0F
:104E2000006E0138F00B002601380F0B016E0238BE
:104E3000F00B012602380F0B026E074E35EF27F0FC
:104E4000D8900232013200320832074E35EF27F097
:104E5000D8900232013200320832074E35EF27F087
:104E6000D8900232013200320832096A000E0EAECA
:104E700029EF28F0081E001E011E021E082A00222B
:104E80000122022229EF28F00750D8A44AEF27F088
:104E900061EF28F0096A02C00AF0028E068E075000
:104EA000035C076ED8B41CEF28F0070E0764EAEF26
:104EB00027F0075E0450096E0550046E0650056E1B
:104EC000066A074E1CEF28F0070E0764BFEF27F0B5
:104ED000075E0450096E0550046E056A074E1CEF0C
:104EE00028F0070E07649DEF27F0075E0450096E57
:104EF000046A074E1CEF28F0070E076484EF27F0C2
:104F00000AC002F061EF28F0030E07648FEF27F06C
:104F1000075E09380F0B096E074E1CEF28F0D8907A
:104F20000932074E1CEF28F0D8900932074E1CEFCB
:104F300028F0D89009321CEF28F0030E0764AEEF7A
:104F400027F0075E09380F0B096E0438F00B0926AD
:104F500004380F0B046E074E1CEF28F0D890043273
:104F60000932074E1CEF28F0D89004320932074E60
:104F70001CEF28F0D890043209321CEF28F0030E01
:104F80000764D6EF27F0075E09380F0B096E043867
:104F9000F00B092604380F0B046E0538F00B0426BD
:104FA00005380F0B056E074E1CEF28F0D890053220
:104FB00004320932074E1CEF28F0D8900532043233
:104FC0000932074E1CEF28F0D8900532043209321E
:104FD0001CEF28F0030E076407EF28F0075E09387E
:104FE0000F0B096E0438F00B092604380F0B046E02
:104FF0000538F00B042605380F0B056E0638F00B4C
:10500000052606380F0B066E074E1CEF28F0D890C9
:105010000632053204320932074E1CEF28F0D890D0
:105020000632053204320932074E1CEF28F0D890C0
:105030000632053204320932086A000E0EAE29EF3C
:1050400028F0091E041E051E061E092A0422052238
:10505000062209500826045000220550012206505D
:1050600002220EBE40EF28F0D8A04FEF28F0023207
:10507000013200320832033E4FEF28F05BEF28F098
:10508000D8B055EF28F0000E081E001E011E021EAB
:10509000082A0022012202220A7E55EF28F0010E82
:1050A0000C6EB1EC2CF063EF28F0020E0C6EB1EC3C
:1050B0002CF063EF28F0040E0C6EBDEC34F063EFBF
:1050C00028F0000E0C6E12006E0E0001C35DD8A019
:1050D000D0D0640E046EC3C000F06DEC34F0120E3C
:1050E0000026016A000E0122020E046E000E01BEAF
:1050F000FF0E026E036E0450000107E000360090C0
:10510000013602360336FF0FF7D70001180E0026CE
:105110006A0E0122000E022200C0F6FF01C0F7FF56
:1051200002C0F8FF0900F5CF00F00900F5CF01F04B
:105130000900F5CF02F00900F5CF03F0000E046E70
:10514000000E056E000E066E7E0E076E6EEC30F0E1
:1051500000C0C4F001C0C5F002C0C6F003C0C7F073
:10516000640E046EC3C000F06DEC34F008C000F0B3
:105170000A0E046E6DEC34F0090E0026016A000E72
:105180000122020E046E000E01BEFF0E026E036EBF
:105190000450000107E00036009001360236033665
:1051A000FF0FF7D70001180E00266A0E0122000E2D
:1051B000022200C0F6FF01C0F7FF02C0F8FF09009D
:1051C000F5CF00F00900F5CF01F00900F5CF02F0AE
:1051D0000900F5CF03F0C4C004F0C5C005F0C6C097
:1051E00006F0C7C007F06EEC30F000C0C4F001C09C
:1051F000C5F002C0C6F003C0C7F00A0E046EC3C0FB
:1052000000F06DEC34F008C000F0020E046E000EE9
:10521000016E026E036E0450000107E0003600903C
:10522000013602360336FF0FF7D70001180E0026AD
:105230006A0E0122000E022200C0F6FF01C0F7FF35
:1052400002C0F8FF0900F5CF00F00900F5CF01F02A
:105250000900F5CF02F00900F5CF03F0C4C004F057
:10526000C5C005F0C6C006F0C7C007F06EEC30F050
:105270001200C3510A08D8B083D00A0E046EC3C00E
:1052800000F06DEC34F0090E0026016A000E0122D8
:10529000020E046E000E01BEFF0E026E036E04507D
:1052A000000107E000360090013602360336FF0F9A
:1052B000F7D70001180E00266A0E0122000E022206
:1052C00000C0F6FF01C0F7FF02C0F8FF0900F5CFEC
:1052D00000F00900F5CF01F00900F5CF02F0090058
:1052E000F5CF03F0000E046E000E056E000E066E84
:1052F0007E0E076E6EEC30F000C0C4F001C0C5F049
:1053000002C0C6F003C0C7F00A0E046EC3C000F0AE
:105310006DEC34F008C000F0020E046E000E016E59
:10532000026E036E0450000107E000360090013663
:1053300002360336FF0FF7D70001180E00266A0E5B
:105340000122000E022200C0F6FF01C0F7FF02C0DA
:10535000F8FF0900F5CF00F00900F5CF01F00900D2
:10536000F5CF02F00900F5CF03F0C4C004F0C5C0CA
:1053700005F0C6C006F0C7C007F06EEC30F01200B2
:10538000020E046EC3C000F0000E016E026E036ECA
:105390000450000107E00036009001360236033663
:1053A000FF0FF7D7180E00266A0E0122000E022208
:1053B00000C0F6FF01C0F7FF02C0F8FF0900F5CFFB
:1053C00000F00900F5CF01F00900F5CF02F0090067
:1053D000F5CF03F0000E046E000E056E000E066E93
:1053E0007E0E076E6EEC30F0120000010B6A0A6A46
:1053F000096A086A0E6A033408360450085E0550CC
:10540000D8A0053C095E0650D8A0063C0A5E0750AD
:10541000D8A0073C0B5EE86AD8A0010E0E5E0336EA
:10542000070E0C6E0334083609360A360B360E3674
:10543000045003A02FEF2AF0085E0550D8A0053CC9
:10544000095E0650D8A0063C0A5E0750D8A0073C6B
:105450000B5EE86AD8A0010E0E5E40EF2AF0082627
:105460000550D8B0053C09260650D8B0063C0A269F
:105470000750D8B0073C0B26E86AD8B0010E0E26BC
:1054800003360C2E12EF2AF00234083609360A369B
:105490000B360E36045003A061EF2AF0085E05506B
:1054A000D8A0053C095E0650D8A0063C0A5E07500D
:1054B000D8A0073C0B5EE86AD8A0010E0E5E72EF22
:1054C0002AF008260550D8B0053C09260650D8B069
:1054D000063C0A260750D8B0073C0B26E86AD8B02D
:1054E000010E0E260236070E0C6E023408360936FF
:1054F0000A360B360E36045002A092EF2AF0085EF0
:105500000550D8A0053C095E0650D8A0063C0A5EAE
:105510000750D8A0073C0B5EE86AD8A0010E0E5ECB
:10552000A3EF2AF008260550D8B0053C09260650FE
:10553000D8B0063C0A260750D8B0073C0B26E86ACC
:10554000D8B0010E0E2602360C2E75EF2AF001346B
:10555000083609360A360B360E36045002A0C4EF60
:105560002AF0085E0550D8A0053C095E0650D8A078
:10557000063C0A5E0750D8A0073C0B5EE86AD8A03C
:10558000010E0E5ED5EF2AF008260550D8B0053C76
:1055900009260650D8B0063C0A260750D8B0073C6A
:1055A0000B26E86AD8B0010E0E260136070E0C6EE7
:1055B0000134083609360A360B360E36045001A07F
:1055C000F5EF2AF0085E0550D8A0053C095E0650AC
:1055D000D8A0063C0A5E0750D8A0073C0B5EE86ADC
:1055E000D8A0010E0E5E06EF2BF008260550D8B0AD
:1055F000053C09260650D8B0063C0A260750D8B00C
:10560000073C0B26E86AD8B0010E0E2601360C2E98
:10561000D8EF2AF00034083609360A360B360E3633
:10562000045001A027EF2BF0085E0550D8A0053CE0
:10563000095E0650D8A0063C0A5E0750D8A0073C79
:105640000B5EE86AD8A0010E0E5E38EF2BF008263C
:105650000550D8B0053C09260650D8B0063C0A26AD
:105660000750D8B0073C0B26E86AD8B0010E0E26CA
:105670000036070E0C6E0034083609360A360B3633
:105680000E36045000A058EF2BF0085E0550D8A04D
:10569000053C095E0650D8A0063C0A5E0750D8A01B
:1056A000073C0B5EE86AD8A0010E0E5E69EF2BF096
:1056B00008260550D8B0053C09260650D8B0063C4F
:1056C0000A260750D8B0073C0B26E86AD8B0010E6E
:1056D0000E2600360C2E3BEF2BF000B07EEF2BF0A9
:1056E000045008260550D8B0053C09260650D8B00D
:1056F000063C0A260750D8B0073C0B26120091EC56
:1057000034F091EC34F091EC34F08FC000F0010EE5
:10571000026E005004E002360290FF0FFBD702C079
:105720002DF090C000F0010E016E005004E0013633
:105730000190FF0FFBD701C02EF091C000F0010EC9
:10574000076E005004E007360790FF0FFBD707C035
:105750002FF092C000F0010E066E005004E00636F5
:105760000690FF0FFBD706C030F095C000F0010E89
:10577000056E005004E005360590FF0FFBD705C00D
:105780002CF096C000F0010E046E005004E00436C8
:105790000490FF0FFBD704C032F097C000F0010E59
:1057A000036E005004E003360390FF0FFBD703C0E5
:1057B0002BF08DC027F08EC028F093C029F094C044
:1057C0002AF027C0E9FF28C0EAFF29C0E1FF2AC06C
:1057D000E2FF01500210006E075000120650001048
:1057E000026E021C006E0050EF16120E2724016E8E
:1057F00001C0E9FF02C000F0001E0050EF16120EBB
:10580000015CE96E04500510006E03500012001E8A
:105810000050E716120E2924016E01C0E1FF00506E
:10582000E716120E015CE16E06500710006E005084
:10583000EF120350E712F2EC34F02B1C006E005014
:10584000E71691EC34F02B50E712F2EC34F02B1CFD
:10585000006E0050E71691EC34F02B50E712F2EC9A
:1058600034F02B1C006E0050E71691EC34F02F50F2
:10587000EF12301C006E0050EF162B50E712F2ECC6
:1058800034F02B1C006E0050E71691EC34F02B50D6
:10589000E712F2EC34F02B1C006E0050E7162F1CC0
:1058A000006E0050EF162D50EF122B50E712F2EC65
:1058B00034F02B1C006E0050E71691EC34F02D1CD8
:1058C000006E0050EF163050EF122B50E712F2EC42
:1058D00034F02B1C006E0050E716301C006E005098
:1058E000EF162B50E712F2EC34F02B1C006E005038
:1058F000E71691EC34F02B50E712F2EC34F02B1C4D
:10590000006E0050E7163050EF122B50E712F2EC09
:1059100034F02B1C006E0050E71691EC34F0301C74
:10592000006E0050EF162B50E712F2EC34F02B1CF7
:10593000006E0050E7162F503010006E2E500012EF
:105940002D5000120050EF122B50E712F2EC34F001
:105950002B1C006E0050E71691EC34F0010E316EF6
:10596000120000010CB0F4EF2CF00CA29CEF2DF013
:105970000E6A000E02640BEF2DF0F00E0214D8A494
:10598000D6EF2CF0023A01380F0B02260138F00B4B
:10599000016E00380F0B01260038F00B006E08383E
:1059A0000F0B00260838F00B086E0E84D89002BE4C
:1059B000EFEF2CF008360036013602360E2A02BE12
:1059C000EFEF2CF008360036013602360E2A02BE02
:1059D000EFEF2CF008360036013602360E2A0E5054
:1059E000036490EF2DF0035E0BBC08AE96EF2DF034
:1059F000D880800E08640030000E002201220222AE
:105A0000D8A096EF2DF0023201320032034A9CEF0B
:105A10002DF096EF2DF001C002F000C001F008C09B
:105A200000F0086A000E0E86026442EF2DF0F00EC0
:105A30000214D8A42AEF2DF0023A01380F0B0226E7
:105A40000138F00B016E00380F0B01260038F00B07
:105A5000006E0E84D89002BEEFEF2CF000360136B7
:105A600002360E2A02BEEFEF2CF000360136023667
:105A70000E2A02BEEFEF2CF00036013602360E2A57
:105A8000EFEF2CF001C002F000C001F0006A000E40
:105A90000E960E8802646FEF2DF0F00E0214D8A45B
:105AA0005AEF2DF0023A01380F0B02260138F00BA5
:105AB000016E0E84D89002BEEFEF2CF00136023654
:105AC0000E2A02BEEFEF2CF0013602360E2A02BE7D
:105AD000EFEF2CF0013602360E2AEFEF2CF001C06A
