:100000009DEF00F0FFFFFFFF0EC054F50CC053F54D
:100010000BC052F50AC051F508C050F507C04FF5A6
:1000200006C04EF505C04DF504C04CF503C04BF5B8
:1000300002C04AF501C049F500C048F5E9CFF5F422
:10004000EACFF6F4E1CFF7F4E2CFF8F4F2A439D036
:10005000154A162A18C000F0016AFF0E0014D76E68
:10006000FF0E1714D66E15C000F016C001F043EC59
:1000700045F000C004F001C005F002C006F003C066
:1000800007F019C000F01AC001F01BC002F01CC03C
:1000900003F087EC40F0000ED8B0010E006E005265
:1000A0000BE0010E8E14006E001E000E00B0010E5B
:1000B0008E18010B8E1A02D00001F26A0001F29430
:1000C000040000019EA015D01EC000F0016AFF0EC2
:1000D0000014CF6EFF0E1D14CE6E046A8EB2042A79
:1000E000041C006E000E00B0020E8E18020B8E1A59
:1000F0009E900001F5C4E9FFF6C4EAFFF7C4E1FFF2
:10010000F8C4E2FF54C50EF053C50CF052C50BF015
:1001100051C50AF050C508F04FC507F04EC506F0AE
:100120004DC505F04CC504F04BC503F04AC502F0BF
:1001300049C501F048C500F011006AEC28F02E0E08
:100140000401F96FFA6B2E0EFB6FFC6B3A0EFD6F1C
:10015000FE6B1D0ED26E0D0E0C6EFF0E0B6EFF0EA3
:100160000A6E0C2E01D007D00B2E01D003D00A2E20
:10017000FED7FAD7F6D7BF0E0B6EFF0E0A6E0B2E08
:1001800001D003D00A2EFED7FAD72B0E0A6E0A2E04
:10019000FED70000000000009C8E110EC16EBA0E4A
:1001A000C06EFF0E926EFF0E936E1A0E946E966ADC
:1001B000FC0E976E849084928494A16ABD6ABA6A98
:1001C000170EB76E050EBD6E050EBA6E840ED56E97
:1001D000AD0ECD6E620ECA6E620EB16E620E766E9E
:1001E000830E05010D6F0F0E0E6F020E0F6F030EC3
:1001F000106F040E116F050E126F830E136F0F0E2A
:10020000146F070E156F010E166F060E176FB3EC05
:1002100039F00C0E0501436F36EC3FF0FA0EC86E54
:1002200048EC46F0D08E9F86A1949D6AA06A9E6A93
:10023000D190C00EF26E010E5E6E010E5F6EA2EFE7
:1002400016F0D10E05010D6F040E0E6F3C0E0F6FF0
:100250008E0E106F000E116FA7EC44F0010E050119
:100260000D6F020E0E6FD10E0F6F040E106FACECFF
:1002700042F0D10E0D6F040E0E6F4C0E0F6F8E0EEE
:10028000106F000E116FA7EC44F0020E05010D6F08
:10029000020E0E6FD10E0F6F040E106FACEC42F019
:1002A0000D0E0C6EFF0E0B6EFF0E0A6E0C2E01D0A3
:1002B00007D00B2E01D003D00A2EFED7FAD7F6D7DF
:1002C000BF0E0B6EFF0E0A6E0B2E01D003D00A2E4E
:1002D000FED7FAD72B0E0A6E0A2EFED700000000BA
:1002E00000008482060E0C6EFF0E0B6EFF0E0A6E6F
:1002F0000C2E01D007D00B2E01D003D00A2EFED732
:10030000FAD7F6D71A0E0B6EFF0E0A6E0B2E01D01F
:1003100003D00A2EFED7FAD7420E0A6E0A2EFED757
:100320008492010E436F36EC3FF0020E5E6E386A27
:100330001DEF17F054EC41F0D10E05010D6F040EC6
:100340000E6F440E0F6F900E106F000E116FA7EC22
:1003500044F0010E05010D6F010E0E6FD10E0F6FEF
:10036000040E106FACEC42F0D10E0D6F040E0E6F48
:100370004C0E0F6F900E106F000E116FA7EC44F033
:10038000020E05010D6F010E0E6FD10E0F6F040EE0
:10039000106FACEC42F02DC00DF5E10E0E6F040EA7
:1003A0000F6F0AEC42F0010E05010D6F0B0E0E6F80
:1003B000E3C40FF517EC44F0010E05010D6F0C0EB0
:1003C0000E6FE4C40FF517EC44F0010E05010D6F3C
:1003D0000D0E0E6F3A0E0F6F17EC44F02CC00DF59A
:1003E000E10E05010E6F040E0F6F0AEC42F00401DE
:1003F000E351200A02E1300EE36F010E05010D6F9B
:100400000E0E0E6FE3C40FF517EC44F0010E05015C
:100410000D6F0F0E0E6FE4C40FF517EC44F02FC0F4
:100420000DF5E10E05010E6F040E0F6F0AEC42F0A0
:100430000401E351200A02E1300EE36F020E0501D0
:100440000D6F060E0E6FE3C40FF517EC44F0020EAD
:1004500005010D6F070E0E6FE4C40FF517EC44F0A5
:10046000020E05010D6F080E0E6F2E0E0F6F17ECAA
:1004700044F030C00DF5E10E05010E6F040E0F6F54
:100480000AEC42F00401E351200A02E1300EE36F6E
:10049000020E05010D6F090E0E6FE3C40FF517EC88
:1004A00044F0020E05010D6F0A0E0E6FE4C40FF545
:1004B00017EC44F0020E05010D6F0B0E0E6F2E0EA1
:1004C0000F6F17EC44F0020E05010D6F0C0E0E6F4E
:1004D000320E0F6F17EC44F0020E05010D6F0D0E7A
:1004E0000E6F300E0F6F17EC44F031C00DF5E10EBA
:1004F00005010E6F040E0F6F0AEC42F00401E35188
:10050000200A02E1300EE36F020E05010D6F0E0EA0
:100510000E6FE3C40FF517EC44F0020E05010D6FEA
:100520000F0E0E6FE4C40FF517EC44F0000E04013B
:10053000E71902E1010EE61908E1030E5E6E386A62
:10054000010E0501436F36EC3FF0000E0401E71980
:1005500002E1020EE61908E1030E5E6E386A010E32
:100560000501436F36EC3FF0000E0401E71902E18C
:10057000050EE61908E1170E5E6E386A010E0501D8
:10058000436F36EC3FF01DEF17F0D10E05010D6FF4
:10059000040E0E6F520E0F6F900E106F000E116F43
:1005A000A7EC44F0010E05010D6F010E0E6FD10E88
:1005B0000F6F040E106FACEC42F0D10E0D6F040EF5
:1005C0000E6F5A0E0F6F900E106F000E116FA7EC8A
:1005D00044F0020E05010D6F010E0E6FD10E0F6F6C
:1005E000040E106FACEC42F0000E0401E71902E1BA
:1005F000010EE61908E1020E5E6E386A010E050171
:10060000436F36EC3FF0000E0401E71902E1020EE1
:10061000E61908E1020E5E6E386A010E0501436FAD
:1006200036EC3FF0000E0401E71902E1030EE61973
:1006300008E10E0E5E6E386A010E0501436F36EC5E
:100640003FF0000E0401E71902E1040EE61908E18B
:10065000040E5E6E386A010E0501436F36EC3FF002
:100660001DEF17F0D10E05010D6F040E0E6F6A0E0F
:100670000F6F900E106F000E116FA7EC44F0010E7B
:1006800005010D6F030E0E6FD10E0F6F040E106F6C
:10069000ACEC42F0020E0D6F010E0E6F42C000F086
:1006A00043C001F0240E046E000E056ED2EC44F03F
:1006B000750E002405010F6F000E0120106FACECC9
:1006C00042F0000E0401E71902E1010EE6190FE104
:1006D000424A432A386A800E006E800E4318005C3E
:1006E00002E142501E08040102E2426A436A040128
:1006F000000EE71902E1020EE61913E1010E425E57
:10070000000E435A386A800E4318006E800E005C5B
:1007100002E1000E425C040104E21E0E426E000E75
:10072000436E0401000EE71902E1030EE61908E129
:10073000050E5E6E386A010E0501436F36EC3FF020
:10074000000E0401E71902E1040EE61908E10D0E9E
:100750005E6E386A010E0501436F36EC3FF0000E05
:100760000401E71902E1060EE61908E1030E5E6EC8
:10077000386A010E0501436F36EC3FF0000E0401AC
:10078000E71902E1050EE619D8A4DDD142C000F058
:1007900043C001F0240E046E000E056ED2EC44F04E
:1007A000750E00240501036F000E0120046F0A0E70
:1007B0000325E96E000E0421EA6EEECFFFF4EECFC2
:1007C00000F5EECF01F5EECF02F5FFC446F000C50F
:1007D00047F001C548F002C549F0FFC400F000C56C
:1007E00001F001C502F002C503F0000E046E000E18
:1007F000056E000E066E800E076EA2EC3EF0000E37
:10080000046E000E056E200E066E850E076E82ECDD
:1008100034F000C019F001C01AF002C01BF003C090
:100820001CF0FFC400F000C501F001C502F002C5D4
:1008300003F0000E046E000E056E200E066E850E8F
:10084000076E82EC34F0000E046E000E056E200E72
:10085000066E820E076EC1EC3CF01CEC40F000C04E
:10086000E8F401C0E9F400C0EAF401C0EBF40E0EB4
:1008700005010325E96E000E0421EA6EEECF09F5AD
:10088000EECF0AF5EECF0BF5EECF0CF509C565F00E
:100890000AC566F00BC567F00CC568F0120E03259B
:1008A000E96E000E0421EA6EEECF4AF0EECF4BF077
:1008B000EECF4CF0EECF4DF0160E0325E96E000E94
:1008C0000421EA6EEECF05F5EECF06F5EECF07F583
:1008D000EECF08F505C556F006C557F007C558F028
:1008E00008C559F01A0E0325E96E000E0421EA6EC0
:1008F000EECF00F0EECF01F0EECF02F0EECF03F03E
:1009000000C04EF001C04FF002C050F003C051F0E3
:100910001E0E0325E96E000E0421EA6EEECFFFF4F1
:10092000EECF00F5EECF01F5EECF02F5FFC469F092
:1009300000C56AF001C56BF002C56CF0220E0325FC
:10094000E96E000E0421EA6EEECF03F5EECF04F55A
:1009500003C544F004C545F0000E046E000E056E9C
:100960007A0E066E880E076EA2EC3EF0000E046E44
:10097000000E056E610E066E8A0E076EC1EC3CF02D
:1009800005C504F006C505F007C506F008C507F063
:10099000C1EC3CF009C504F00AC505F00BC506F032
:1009A0000CC507F0A2EC3EF000C05AF001C05BF0AD
:1009B00002C05CF003C05DF000C004F001C005F0AF
:1009C00002C006F003C007F0000E006E000E016EBC
:1009D000000E026E7F0E036EC1EC3CF0800E046EC2
:1009E000960E056E180E066E940E076EA2EC3EF083
:1009F000000E046E000E056E000E066E840E076E6D
:100A0000C1EC3CF000C004F001C005F002C006F0EB
:100A100003C007F0800E006E010E016E000E026E24
:100A20008F0E036E6EEC46F000C0ECF401C0EDF4E6
:100A300002C0EEF403C0EFF4ADEC3FF000C017F0DD
:100A400001C018F0000E046E000E056E700E066EEA
:100A5000840E076EFFC400F000C501F001C502F06E
:100A600002C503F0C1EC3CF000C0FFF401C000F58A
:100A700002C001F503C002F503C500F004C501F092
:100A800043EC45F0FFC404F000C505F001C506F0D5
:100A900002C507F0A2EC3EF000C061F001C062F0B8
:100AA00002C063F003C064F000C004F001C005F0B0
:100AB00002C006F003C007F0000E006E000E016ECB
:100AC000000E026E7F0E036EC1EC3CF0800E046ED1
:100AD000960E056E180E066E940E076EA2EC3EF092
:100AE000000E046E000E056E000E066E810E076E7F
:100AF000C1EC3CF000C004F001C005F002C006F0FB
:100B000003C007F0000E006E070E016E000E026EAD
:100B10008F0E036E6EEC46F000C0F0F401C0F1F4ED
:100B200002C0F2F403C0F3F4ADEC3FF000C01DF0DE
:100B300001C01EF0E00EF26E010E9D6E010E050169
:100B4000436F36EC3FF01DEF17F0D10E05010D6F2E
:100B5000040E0E6F760E0F6F900E106F000E116F59
:100B6000A7EC44F0010E05010D6F010E0E6FD10EC2
:100B70000F6F040E106FACEC42F0000E0401E71989
:100B800002E1030EE61908E10C0E5E6E386A010EF2
:100B90000501436F36EC3FF0000E0401E71902E156
:100BA000040EE61908E1040E5E6E386A010E0501B6
:100BB000436F36EC3FF0000E0401E71902E1050E29
:100BC000E61908E1060E5E6E386A010E0501436FF4
:100BD00036EC3FF0000E0401E71902E1060EE619BB
:100BE00008E1030E5E6E386A010E0501436F36ECB4
:100BF0003FF01DEF17F0D10E05010D6F040E0E6FC3
:100C0000840E0F6F900E106F000E116FA7EC44F062
:100C1000010E05010D6F010E0E6FD10E0F6F040E48
:100C2000106FACEC42F0D10E0D6F040E0E6F900EF3
:100C30000F6F900E106F000E116F46C012F547C077
:100C400013F548C014F549C015F5FBEC44F0020E4D
:100C50000D6F010E0E6FD10E0F6F040E106FACEC06
:100C600042F0000E0401E71902E1030EE61908E163
:100C7000070E5E6E386A010E0501436F36EC3FF0D9
:100C8000000E0401E71902E1040EE61908E10B0E5B
:100C90005E6E386A010E0501436F36EC3FF0000EC0
:100CA0000401E71902E1060EE61908E1050E5E6E81
:100CB000386A010E0501436F36EC3FF01DEF17F067
:100CC000D10E05010D6F040E0E6F960E0F6F900E74
:100CD000106F000E116FA7EC44F0010E05010D6FAF
:100CE000010E0E6FD10E0F6F040E106FACEC42F0C0
:100CF000D10E0D6F040E0E6FA40E0F6F900E106FBD
:100D0000000E116F65C012F566C013F567C014F5CB
:100D100068C015F5FBEC44F0020E0D6F010E0E6F6E
:100D2000D10E0F6F040E106FACEC42F0000E0401F8
:100D3000E71902E1030EE61908E1080E5E6E386A53
:100D4000010E0501436F36EC3FF0000E0401E71978
:100D500002E1040EE61908E1060E5E6E386A010E25
:100D60000501436F36EC3FF0000E0401E71902E184
:100D7000060EE61908E1050E5E6E386A010E0501E1
:100D8000436F36EC3FF01DEF17F0D10E05010D6FEC
:100D9000040E0E6FAA0E0F6F900E106F000E116FE3
:100DA000A7EC44F0010E05010D6F010E0E6FD10E80
:100DB0000F6F040E106FACEC42F0D10E0D6F040EED
:100DC0000E6FBA0E0F6F900E106F000E116F4AC0AB
:100DD00012F54BC013F54CC014F54DC015F5FBECE6
:100DE00044F0020E0D6F010E0E6FD10E0F6F040E48
:100DF000106FACEC42F0D10E0D6F040E0E6FC00EF2
:100E00000F6F900E106F000E116FA7EC44F0020EE2
:100E100005010D6F050E0E6FD10E0F6F040E106FD2
:100E2000ACEC42F0000E0401E71902E1030EE619F2
:100E300008E1090E5E6E386A010E0501436F36EC5B
:100E40003FF0000E0401E71902E1040EE61908E183
:100E5000070E5E6E386A010E0501436F36EC3FF0F7
:100E6000000E0401E71902E1060EE61908E1050E7D
:100E70005E6E386A010E0501436F36EC3FF01DEFE0
:100E800017F0D10E05010D6F040E0E6FC20E0F6F1D
:100E9000900E106F000E116FA7EC44F0010E0501CB
:100EA0000D6F010E0E6FD10E0F6F040E106FACECB4
:100EB00042F0D10E0D6F040E0E6FD20E0F6F900E1A
:100EC000106F000E116F56C012F557C013F558C0C1
:100ED00014F559C015F5FBEC44F0020E0D6F010E30
:100EE0000E6FD10E0F6F040E106FACEC42F0D10EEE
:100EF0000D6F040E0E6FD80E0F6F900E106F000E58
:100F0000116FA7EC44F0020E05010D6F050E0E6F78
:100F1000D10E0F6F040E106FACEC42F0000E040106
:100F2000E71902E1030EE61908E10A0E5E6E386A5F
:100F3000010E0501436F36EC3FF0000E0401E71986
:100F400002E1040EE61908E1080E5E6E386A010E31
:100F50000501436F36EC3FF0000E0401E71902E192
:100F6000060EE61908E1050E5E6E386A010E0501EF
:100F7000436F36EC3FF01DEF17F0D10E05010D6FFA
:100F8000040E0E6FDA0E0F6F900E106F000E116FC1
:100F9000A7EC44F0010E05010D6F010E0E6FD10E8E
:100FA0000F6F040E106FACEC42F0D10E0D6F040EFB
:100FB0000E6FE40E0F6F900E106F000E116F4EC08B
:100FC00012F54FC013F550C014F551C015F5FBECE8
:100FD00044F0020E0D6F010E0E6FD10E0F6F040E56
:100FE000106FACEC42F0D10E0D6F040E0E6FEA0ED6
:100FF0000F6F900E106F000E116FA7EC44F0020EF1
:1010000005010D6F050E0E6FD10E0F6F040E106FE0
:10101000ACEC42F0000E0401E71902E1030EE61900
:1010200008E10B0E5E6E386A010E0501436F36EC67
:101030003FF0000E0401E71902E1040EE61908E191
:10104000090E5E6E386A010E0501436F36EC3FF003
:10105000000E0401E71902E1060EE61908E1050E8B
:101060005E6E386A010E0501436F36EC3FF01DEFEE
:1010700017F0D10E05010D6F040E0E6FF00E0F6FFD
:10108000900E106F000E116FA7EC44F0010E0501D9
:101090000D6F010E0E6FD10E0F6F040E106FACECC2
:1010A00042F0D10E0D6F040E0E6F000E0F6F910EF9
:1010B000106F000E116F69C012F56AC013F56BC096
:1010C00014F56CC015F5FBEC44F0020E0D6F010E2B
:1010D0000E6FD10E0F6F040E106FACEC42F0D10EFC
:1010E0000D6F040E0E6F060E0F6F910E106F000E37
:1010F000116FA7EC44F0020E05010D6F0A0E0E6F82
:10110000D10E0F6F040E106FACEC42F0000E040114
:10111000E71902E1030EE61908E1060E5E6E386A71
:10112000010E0501436F36EC3FF0000E0401E71994
:1011300002E1040EE61908E10A0E5E6E386A010E3D
:101140000501436F36EC3FF0000E0401E71902E1A0
:10115000060EE61908E1050E5E6E386A010E0501FD
:10116000436F36EC3FF01DEF17F0D10E05010D6F08
:10117000040E0E6F0E0E0F6F910E106F000E116F9A
:10118000A7EC44F0010E05010D6F010E0E6FD10E9C
:101190000F6F040E106FACEC42F0D10E0D6F040E09
:1011A0000E6F120E0F6F910E106F000E116FA7ECE5
:1011B00044F0010E05010D6F050E0E6FD10E0F6F7D
:1011C000040E106FACEC42F0D10E0D6F040E0E6FDA
:1011D000160E0F6F910E106F000E116F4EC012F5AC
:1011E0004FC013F550C014F551C015F5FBEC44F099
:1011F000010E0D6F080E0E6FD10E0F6F040E106FE3
:10120000ACEC42F0D10E0D6F040E0E6F1C0E0F6F82
:10121000910E106F000E116FA7EC44F0010E050146
:101220000D6F0B0E0E6FD10E0F6F040E106FACEC26
:1012300042F0D10E0D6F040E0E6F220E0F6F910E45
:10124000106F000E116F46C012F547C013F548C06D
:1012500014F549C015F5FBEC44F0020E0D6F070EB6
:101260000E6FD10E0F6F040E106FACEC42F0D10E6A
:101270000D6F040E0E6F280E0F6F910E106F000E83
:10128000116FA7EC44F0020E05010D6F0C0E0E6FEE
:10129000D10E0F6F040E106FACEC42F0000E040183
:1012A000E71902E1030EE61908E10D0E5E6E386AD9
:1012B000010E0501436F36EC3FF0000E0401E71903
:1012C00002E1040EE61908E1050E5E6E386A010EB1
:1012D0000501436F36EC3FF0000E0401E71902E10F
:1012E000060EE61908E1030E5E6E386A010E05016E
:1012F000436F36EC3FF01DEF17F0D10E05010D6F77
:10130000040E0E6F2C0E0F6F910E106F000E116FEA
:10131000A7EC44F0010E05010D6F010E0E6FD10E0A
:101320000F6F040E106FACEC42F0D10E0D6F040E77
:101330000E6F3C0E0F6F910E106F000E116F69C093
:1013400012F56AC013F56BC014F56CC015F5FBEC13
:1013500044F0020E0D6F010E0E6FD10E0F6F040ED2
:10136000106FACEC42F0D10E0D6F040E0E6F420EFA
:101370000F6F910E106F000E116FA7EC44F0020E6C
:1013800005010D6F0A0E0E6FD10E0F6F040E106F58
:10139000ACEC42F0000E0401E71902E1030EE6197D
:1013A00008E1040E5E6E386A010E0501436F36ECEB
:1013B0003FF0000E0401E71902E1040EE61908E10E
:1013C0000C0E5E6E386A010E0501436F36EC3FF07D
:1013D000000E0401E71902E1060EE61908E1030E0A
:1013E0005E6E386A010E0501436F36EC3FF01DEF6B
:1013F00017F0D10E05010D6F040E0E6F4A0E0F6F20
:10140000910E106F000E116F6DC012F56EC013F5C6
:101410006FC014F570C015F5FBEC44F0010E0D6FB4
:10142000010E0E6FD10E0F6F040E106FACEC42F078
:10143000D10E0D6F040E0E6F500E0F6F910E106FC8
:10144000000E116FA7EC44F0010E05010D6F050EA3
:101450000E6FD10E0F6F040E106FACEC42F0D10E78
:101460000D6F040E0E6F540E0F6F910E106F000E65
:10147000116F4EC012F54FC013F550C014F551C096
:1014800015F5FBEC44F0010E0D6F070E0E6FD10E3B
:101490000F6F040E106FACEC42F0D10E0D6F040E06
:1014A0000E6F5A0E0F6F910E106F000E116FA7EC9A
:1014B00044F0010E05010D6F0B0E0E6FD10E0F6F74
:1014C000040E106FACEC42F0D10E0D6F040E0E6FD7
:1014D000600E0F6F910E106F000E116F46C012F567
:1014E00047C013F548C014F549C015F5FBEC44F0AE
:1014F000020E0D6F010E0E6FD10E0F6F040E106FE6
:10150000ACEC42F0D10E0D6F040E0E6F660E0F6F35
:10151000910E106F000E116FA7EC44F0020E050142
:101520000D6F060E0E6FD10E0F6F040E106FACEC28
:1015300042F0000E0401E71902E1020EE61908E18B
:101540000F0E5E6E386A010E0501436F36EC3FF0F8
:10155000000E0401E71902E1030EE61908E1160E78
:101560005E6E386A010E0501436F36EC3FF0000EE7
:101570000401E71902E1040EE61908E1160E5E6E99
:10158000386A010E0501436F36EC3FF0000E04018E
:10159000E71902E1060EE61908E1030E5E6E386AED
:1015A000010E0501436F36EC3FF0000E0401E71910
:1015B00002E1050EE619D8A49CD16DC000F06EC002
:1015C00001F06FC002F070C003F0000E046E400E18
:1015D000056E1C0E066E8C0E076EA2EC3EF065C00A
:1015E00004F066C005F067C006F068C007F0A2EC22
:1015F0003EF000C0FFF401C000F502C001F503C0D9
:1016000002F54AC000F04BC001F04CC002F04DC0E2
:1016100003F056C004F057C005F058C006F059C09A
:1016200007F0A2EC3EF000C004F001C005F002C0DB
:1016300006F003C007F0FFC400F000C501F001C5CB
:1016400002F002C503F0C1EC3CF000C0FFF401C0A1
:1016500000F502C001F503C002F5FFC446F000C565
:1016600047F001C548F002C549F0FFC400F000C5CD
:1016700001F001C502F002C503F0000E046E000E79
:10168000056E000E066E800E076EA2EC3EF0000E98
:10169000046E000E056E200E066E850E076E82EC3F
:1016A00034F000C019F001C01AF002C01BF003C0F2
:1016B0001CF0FFC400F000C501F001C502F002C536
:1016C00003F0000E046E000E056E200E066E850EF1
:1016D000076E82EC34F0000E046E000E056E200ED4
:1016E000066E820E076EC1EC3CF01CEC40F000C0B0
:1016F000E8F401C0E9F400C0EAF401C0EBF44EC024
:1017000000F04FC001F050C002F051C003F0000ED5
:10171000046E000E056E7A0E066E880E076EA2EC41
:101720003EF0000E046E000E056E610E066E8A0E0F
:10173000076EC1EC3CF056C004F057C005F058C02D
:1017400006F059C007F0C1EC3CF065C004F066C07B
:1017500005F067C006F068C007F0A2EC3EF000C0DC
:101760005AF001C05BF002C05CF003C05DF000C045
:1017700004F001C005F002C006F003C007F0000E3F
:10178000006E000E016E000E026E7F0E036EC1EC45
:101790003CF0800E046E960E056E180E066E940ECA
:1017A000076EA2EC3EF0000E046E000E056E000EF9
:1017B000066E840E076EC1EC3CF000C004F001C060
:1017C00005F002C006F003C007F0800E006E010EA7
:1017D000016E000E026E8F0E036E6EEC46F000C0BE
:1017E000ECF401C0EDF402C0EEF403C0EFF4ADEC94
:1017F0003FF000C017F001C018F0000E046E000E9C
:10180000056E700E066E840E076E69C000F06AC029
:1018100001F06BC002F06CC003F0C1EC3CF000C002
:10182000FFF401C000F502C001F503C002F544C099
:1018300000F045C001F043EC45F0FFC404F000C5E2
:1018400005F001C506F002C507F0A2EC3EF000C0AD
:1018500061F001C062F002C063F003C064F000C038
:1018600004F001C005F002C006F003C007F0000E4E
:10187000006E000E016E000E026E7F0E036EC1EC54
:101880003CF0800E046E960E056E180E066E940ED9
:10189000076EA2EC3EF0000E046E000E056E000E08
:1018A000066E810E076EC1EC3CF000C004F001C072
:1018B00005F002C006F003C007F0000E006E070E30
:1018C000016E000E026E8F0E036E6EEC46F000C0CD
:1018D000F0F401C0F1F402C0F2F403C0F3F4ADEC93
:1018E0003FF000C01DF001C01EF0E00EF26E010ED0
:1018F0009D6E00011DEF17F0D10E05010D6F040E56
:101900000E6F6C0E0F6F910E106F000E116FA7EC23
:1019100044F0010E05010D6F010E0E6FD10E0F6F19
:10192000040E106FACEC42F0D10E0D6F040E0E6F72
:101930007C0E0F6F910E106F000E116F4AC012F5E2
:101940004BC013F54CC014F54DC015F5FBEC44F03D
:10195000020E0D6F010E0E6FD10E0F6F040E106F81
:10196000ACEC42F0D10E0D6F040E0E6F820E0F6FB5
:10197000910E106F000E116FA7EC44F0020E0501DE
:101980000D6F050E0E6FD10E0F6F040E106FACECC5
:1019900042F0000E0401E71902E1010EE61937E1F9
:1019A0004AC000F04BC001F04CC002F04DC003F043
:1019B000CD0E046ECC0E056E4C0E066E7C0E076EC0
:1019C00082EC34F000C04AF001C04BF002C04CF091
:1019D00003C04DF0386A00C004F001C005F002C039
:1019E00006F003C007F0000E006E000E016E200E20
:1019F000026E830E036E87EC40F0010ED8B0000E2D
:101A0000006E005204E04A6A4B6A4C6A4D6A00015B
:101A1000000E0401E71902E1020EE6192FE1CD0ED6
:101A2000046ECC0E056E4C0E066E7C0E076E4AC020
:101A300000F04BC001F04CC002F04DC003F06EEC62
:101A400046F000C04AF001C04BF002C04CF003C0A9
:101A50004DF0386A046A056A066A076A87EC40F046
:101A6000010ED8B0000E006E005208E0000E4A6E63
:101A7000000E4B6E200E4C6E830E4D6E0001000E5C
:101A80000401E71902E1030EE61908E1100E5E6E8B
:101A9000386A010E0501436F36EC3FF0000E040179
:101AA000E71902E1040EE61908E1150E5E6E386AC8
:101AB000010E0501436F36EC3FF0000E0401E719FB
:101AC00002E1060EE61908E10E0E5E6E386A010E9E
:101AD0000501436F36EC3FF0000E0401E71902E107
:101AE000050EE619D8B4386A04011DEF17F0D10EBF
:101AF00005010D6F040E0E6F840E0F6F910E106FA7
:101B0000000E116FA7EC44F0010E05010D6F010EE0
:101B10000E6FD10E0F6F040E106FACEC42F0D10EB1
:101B20000D6F040E0E6F920E0F6F910E106F000E60
:101B3000116F65C012F566C013F567C014F568C073
:101B400015F5FBEC44F0020E0D6F010E0E6FD10E79
:101B50000F6F040E106FACEC42F0000E0401E71999
:101B600002E1010EE61937E165C000F066C001F040
:101B700067C002F068C003F0000E046E000E056E30
:101B8000000E066E7F0E076E82EC34F000C065F02A
:101B900001C066F002C067F003C068F0386A00C098
:101BA00004F001C005F002C006F003C007F0000E0B
:101BB000006E000E016E200E026E830E036E87EC27
:101BC00040F0010ED8B0000E006E005204E0656BCC
:101BD000666B676B686B0001000E0401E71902E198
:101BE000020EE6192FE1000E046E000E056E000EC7
:101BF000066E7F0E076E65C000F066C001F067C01C
:101C000002F068C003F06EEC46F000C065F001C061
:101C100066F002C067F003C068F0386A046A056ABB
:101C2000066A076A87EC40F0010ED8B0000E006E1D
:101C3000005208E0000E656F000E666F200E676FA1
:101C4000830E686F0001000E0401E71902E1030E24
:101C5000E61908E1110E5E6E386A010E0501436F48
:101C600036EC3FF0000E0401E71902E1040EE6191C
:101C700008E10F0E5E6E386A010E0501436F36EC07
:101C80003FF0000E0401E71902E1060EE61908E133
:101C90000E0E5E6E386A010E0501436F36EC3FF0A2
:101CA000000E0401E71902E1050EE619D8B4386AFE
:101CB00004011DEF17F0D10E05010D6F040E0E6F1C
:101CC000980E0F6F910E106F000E116FA7EC44F07D
:101CD000010E05010D6F010E0E6FD10E0F6F040E78
:101CE000106FACEC42F0D10E0D6F040E0E6FA80E0B
:101CF0000F6F910E106F000E116F56C012F557C086
:101D000013F558C014F559C015F5FBEC44F0020E5C
:101D10000D6F010E0E6FD10E0F6F040E106FACEC35
:101D200042F0D10E0D6F040E0E6FAE0E0F6F910EBE
:101D3000106F000E116FA7EC44F0020E05010D6F3D
:101D4000050E0E6FD10E0F6F040E106FACEC42F04B
:101D5000000E0401E71902E1010EE61937E156C051
:101D600000F057C001F058C002F059C003F0CD0E8A
:101D7000046ECC0E056E4C0E066E7B0E076E82EC6A
:101D800034F000C056F001C057F002C058F003C054
:101D900059F0386A00C004F001C005F002C006F036
:101DA00003C007F0000E006E000E016E600E026EA2
:101DB000800E036E87EC40F0010ED8B0000E006E6E
:101DC000005204E0566A576A586A596A0001000EC8
:101DD0000401E71902E1020EE6192FE1CD0E046EAF
:101DE000CC0E056E4C0E066E7B0E076E56C000F0D4
:101DF00057C001F058C002F059C003F06EEC46F035
:101E000000C056F001C057F002C058F003C059F0AE
:101E1000386A046A056A066A076A87EC40F0010EB0
:101E2000D8B0000E006E005208E0000E566E000E94
:101E3000576E600E586E800E596E0001000E040140
:101E4000E71902E1030EE61908E1120E5E6E386A28
:101E5000010E0501436F36EC3FF0000E0401E71957
:101E600002E1040EE61908E1100E5E6E386A010EFA
:101E70000501436F36EC3FF0000E0401E71902E163
:101E8000060EE61908E10E0E5E6E386A010E0501B7
:101E9000436F36EC3FF0000E0401E71902E1050E36
:101EA000E619D8B4386A04011DEF17F0D10E050108
:101EB0000D6F040E0E6FB00E0F6F910E106F000EAF
:101EC000116FA7EC44F0010E05010D6F010E0E6FAE
:101ED000D10E0F6F040E106FACEC42F0D10E0D6FEF
:101EE000040E0E6FBA0E0F6F910E106F000E116F71
:101EF0004EC012F54FC013F550C014F551C015F582
:101F0000FBEC44F0020E0D6F010E0E6FD10E0F6F41
:101F1000040E106FACEC42F0D10E0D6F040E0E6F7C
:101F2000C00E0F6F910E106F000E116FA7EC44F0F2
:101F3000020E05010D6F050E0E6FD10E0F6F040E10
:101F4000106FACEC42F0000E0401E71902E1010E43
:101F5000E61937E14EC000F04FC001F050C002F06A
:101F600051C003F0CD0E046ECC0E056E4C0E066E05
:101F70007B0E076E82EC34F000C04EF001C04FF0D3
:101F800002C050F003C051F0386A00C004F001C034
:101F900005F002C006F003C007F0000E006E000E50
:101FA000016E480E026E850E036E87EC40F0010E46
:101FB000D8B0000E006E005204E04E6A4F6A506ABC
:101FC000516A0001000E0401E71902E1020EE61950
:101FD0002FE1CD0E046ECC0E056E4C0E066E7B0E00
:101FE000076E4EC000F04FC001F050C002F051C06B
:101FF00003F06EEC46F000C04EF001C04FF002C09E
:1020000050F003C051F0386A046A056A066A076A2C
:1020100087EC40F0010ED8B0000E006E005208E0D0
:10202000000E4E6E000E4F6E480E506E850E516EB5
:102030000001000E0401E71902E1030EE61908E1B0
:10204000130E5E6E386A010E0501436F36EC3FF0E9
:10205000000E0401E71902E1040EE61908E1110E71
:102060005E6E386A010E0501436F36EC3FF0000EDC
:102070000401E71902E1060EE61908E10E0E5E6E94
:10208000386A010E0501436F36EC3FF0000E040183
:10209000E71902E1050EE619D8B4386A04011DEF0C
:1020A00017F0D10E05010D6F040E0E6FC60E0F6FE7
:1020B000910E106F000E116FA7EC44F0010E050198
:1020C0000D6F010E0E6FD10E0F6F040E106FACEC82
:1020D00042F0D10E0D6F040E0E6FD60E0F6F910EE3
:1020E000106F000E116F69C012F56AC013F56BC056
:1020F00014F56CC015F5FBEC44F0020E0D6F010EEB
:102100000E6FD10E0F6F040E106FACEC42F0D10EBB
:102110000D6F040E0E6FDC0E0F6F910E106F000E20
:10212000116FA7EC44F0020E05010D6F0A0E0E6F41
:10213000D10E0F6F040E106FACEC42F0000E0401D4
:10214000E71902E1010EE61937E169C000F06AC043
:1021500001F06BC002F06CC003F0000E046E000EC4
:10216000056E480E066E850E076E82EC34F000C0D8
:1021700069F001C06AF002C06BF003C06CF0386A0D
:1021800000C004F001C005F002C006F003C007F073
:10219000000E006E800E016E3B0E026E8B0E036E03
:1021A00087EC40F0010ED8B0000E006E005204E043
:1021B000696B6A6B6B6B6C6B0001000E0401E719B5
:1021C00002E1020EE6192FE1000E046E000E056E0C
:1021D000480E066E850E076E69C000F06AC001F0F9
:1021E0006BC002F06CC003F06EEC46F000C069F00A
:1021F00001C06AF002C06BF003C06CF0386A046A78
:10220000056A066A076A87EC40F0010ED8B0000E36
:10221000006E005208E0000E696F800E6A6F3B0E80
:102220006B6F8B0E6C6F0001000E0401E71902E169
:10223000030EE61908E1140E5E6E386A010E050100
:10224000436F36EC3FF0000E0401E71902E1040E83
:10225000E61908E1120E5E6E386A010E0501436F41
:1022600036EC3FF0000E0401E71902E1060EE61914
:1022700008E10E0E5E6E386A010E0501436F36EC02
:102280003FF0000E0401E71902E1050EE619D8B48B
:10229000386A04011DEF17F0D10E05010D6F040E11
:1022A0000E6FE40E0F6F910E106F000E116FA7EC02
:1022B00044F0010E05010D6F010E0E6FD10E0F6F70
:1022C000040E106FACEC42F0D10E0D6F040E0E6FC9
:1022D000F20E0F6F910E106F000E116F44C012F5C9
:1022E00045C013F5FBEC44F0020E0D6F010E0E6FAE
:1022F000D10E0F6F040E106FACEC42F0000E040113
:10230000E71902E1010EE61917E1010E4424046EFB
:10231000000E4520056E04C044F005C045F0386A43
:10232000800E006E800E0518005C02E104500A0861
:10233000040102E2446A456A0401000EE71902E161
:10234000020EE61919E1010E445C046E000E4558B8
:10235000056E04C044F005C045F0386A800E0518CB
:10236000006E800E005C02E1000E045C040104E2D9
:102370000A0E446E000E456E0401000EE71902E1DC
:10238000030EE61908E1150E5E6E386A010E0501AE
:10239000436F36EC3FF0000E0401E71902E1040E32
:1023A000E61908E1130E5E6E386A010E0501436FEF
:1023B00036EC3FF0000E0401E71902E1060EE619C3
:1023C00008E10E0E5E6E386A010E0501436F36ECB1
:1023D0003FF0000E0401E71902E1050EE619D8B43A
:1023E000386A04011DEF17F0D10E05010D6F040EC0
:1023F0000E6FF60E0F6F910E106F000E116FA7EC9F
:1024000044F0010E05010D6F010E0E6FD10E0F6F1E
:10241000040E106FACEC42F0D10E0D6F040E0E6F77
:10242000060E0F6F920E106F000E116F6DC012F539
:102430006EC013F56FC014F570C015F5FBEC44F0D9
:10244000020E0D6F010E0E6FD10E0F6F040E106F86
:10245000ACEC42F0D10E0D6F040E0E6F0C0E0F6F30
:10246000920E106F000E116FA7EC44F0020E0501E2
:102470000D6F0A0E0E6FD10E0F6F040E106FACECC5
:1024800042F0000E0401E71902E1010EE61937E1FE
:102490006DC000F06EC001F06FC002F070C003F0BC
:1024A000CD0E046ECC0E056E4C0E066E7B0E076EC6
:1024B00082EC34F000C06DF001C06EF002C06FF02D
:1024C00003C070F0386A00C004F001C005F002C01B
:1024D00006F003C007F0000E006E000E016E480EFD
:1024E000026E850E036E87EC40F0010ED8B0000E30
:1024F000006E005204E06D6B6E6B6F6B706B0001D1
:10250000000E0401E71902E1020EE6192FE1CD0EDB
:10251000046ECC0E056E4C0E066E7B0E076E6DC003
:1025200000F06EC001F06FC002F070C003F06EECFE
:1025300046F000C06DF001C06EF002C06FF003C045
:1025400070F0386A046A056A066A076A87EC40F028
:10255000010ED8B0000E006E005208E0000E6D6F44
:10256000000E6E6F480E6F6F850E706F0001000ECB
:102570000401E71902E1030EE61908E10F0E5E6E91
:10258000386A010E0501436F36EC3FF0000E04017E
:10259000E71902E1040EE61908E1140E5E6E386ACE
:1025A000010E0501436F36EC3FF0000E0401E71900
:1025B00002E1060EE61908E10E0E5E6E386A010EA3
:1025C0000501436F36EC3FF0000E0401E71902E10C
:1025D000050EE619D8B4386A04011DEF17F0D10EC4
:1025E00005010D6F040E0E6F100E0F6F920E106F1F
:1025F000000E116FA7EC44F0010E05010D6F010EE6
:102600000E6FD10E0F6F040E106FACEC42F0D10EB6
:102610000D6F040E0E6F200E0F6F920E106F000ED6
:10262000116F69C012F56AC013F56BC014F56CC068
:1026300015F5FBEC44F0020E0D6F010E0E6FD10E7E
:102640000F6F040E106FACEC42F0D10E0D6F040E44
:102650000E6F260E0F6F920E106F000E116FA7EC0B
:1026600044F0020E05010D6F0A0E0E6FD10E0F6FB2
:10267000040E106FACEC42F0000E0401E71902E109
:10268000030EE61908E10E0E5E6E386A010E0501B2
:10269000436F36EC3FF0000E0401E71902E1040E2F
:1026A000E61908E10E0E5E6E386A010E0501436FF1
:1026B00036EC3FF0000E0401E71902E1060EE619C0
:1026C00008E1030E5E6E386A010E0501436F36ECB9
:1026D0003FF01DEF17F0046A000160BB042A0450AC
:1026E000000A4AE1608BD10E05010D6F040E0E6FDA
:1026F000340E0F6F900E106F000E116FA7EC44F0A8
:10270000020E05010D6F010E0E6FD10E0F6F040E3C
:10271000106FACEC42F0020E0D6F100E0E6FFC0E3F
:102720000F6F17EC44F0010E05010D6F030E0E6FD5
:10273000F90E0F6F040E106FACEC42F0010E0D6F2E
:10274000060E0E6FFB0E0F6F040E106FACEC42F016
:10275000320E1A6F5BEC46F0300E05011A6F5BEC1F
:1027600046F0010E05010D6F0E0E0E6FFD0E0F6F80
:10277000040E106FACEC42F0010E00016015046E07
:102780000450000A1CE1608134C00DF5E10E050122
:102790000E6F040E0F6F0AEC42F0010E05010D6F73
:1027A000010E0E6FE3C40FF517EC44F0E4C41AF504
:1027B0005BEC46F0100E0501436F36EC3FF0046A07
:1027C000000160B3042A0450000A22E1608335C08E
:1027D0000DF5E10E05010E6F040E0F6F0AEC42F0CD
:1027E0000401E351200A02E1300EE36F010E0501FE
:1027F0000D6F040E0E6FE3C40FF517EC44F0E4C444
:102800001AF55BEC46F0100E0501436F36EC3FF015
:10281000046A000160B5042A0450000A22E16085C0
:1028200036C00DF5E10E05010E6F040E0F6F0AECB8
:1028300042F00401E351200A02E1300EE36F010E81
:1028400005010D6F090E0E6FE3C40FF517EC44F090
:10285000E4C41AF55BEC46F0100E0501436F36EC4C
:102860003FF0046A000160B7042A0450000A1CE12A
:10287000608733C00DF5E10E05010E6F040E0F6F7A
:102880000AEC42F0010E05010D6F0C0E0E6FE3C451
:102890000FF517EC44F0E4C41AF55BEC46F0100EAB
:1028A0000501436F36EC3FF0046A000160B9042A69
:1028B0000450000A22E1608932C00DF5E10E0501E5
:1028C0000E6F040E0F6F0AEC42F00401E351200A70
:1028D00002E1300EE36F010E05010D6F0F0E0E6F5A
:1028E000E3C40FF517EC44F0E4C41AF55BEC46F0D2
:1028F000100E0501436F36EC3FF0046A000160BD25
:10290000042A0450010A06E1609D100E0501436F80
:1029100036EC3FF0000E0401E71902E1050EE6195E
:1029200008E1020E5E6E386A010E0501436F36EC57
:102930003FF0000E0401E71902E1030EE6190AE177
:10294000100EF45D07E2F42B140E0501436F36EC14
:102950003FF0386A000E0401E71902E1040EE6199F
:102960000AE1F451010807E2F407100E0501436F74
:1029700036EC3FF0386A000E0401E71902E1010E5F
:10298000E619D8A484D064D0160E345C06E20A0E90
:102990003426386A00016091608D000178D0000112
:1029A0001F0E345C03E2342A386A609100016FD054
:1029B0000001030E355C05E20A0E3526386A609385
:1029C000608D000164D000010C0E355C03E2352AF5
:1029D000386A609300015BD00001590E365C05E255
:1029E0000A0E3626386A6095608D000150D00001CD
:1029F000630E365C03E2362A386A6095000147D0E0
:102A000000010E0E335C05E20A0E3326386A609729
:102A1000608D00013CD00001170E335C03E2332AC5
:102A2000386A6097000133D00001310E325C05E254
:102A30000A0E3226386A6099608D000128D00001A4
:102A40003B0E325C03E2322A386A609900011FD0E3
:102A50000401F451010A98E0F451020AA0E0F45193
:102A6000040AA6E0F451050AAEE0F451090AB4E004
:102A7000F4510A0ABCE0F4510C0AC2E0F4510D0A08
:102A8000CAE0F4510F0AD0E0F451100AD8E0040172
:102A9000000EE71902E1020EE619D8A484D064D032
:102AA00034500A0806E20A0E345E386A000160916A
:102AB000608D000178D000013450010803E2340633
:102AC000386A609100016FD0000135500A0805E2B4
:102AD0000A0E355E386A6093608D000164D0000193
:102AE0003550010803E23506386A609300015BD077
:102AF000000136500A0805E20A0E365E386A609513
:102B0000608D000150D000013650000803E2360607
:102B1000386A6095000147D000013350090805E28A
:102B20000A0E335E386A6097608D00013CD0000168
:102B30003350000803E23306386A6097000133D04F
:102B400000013250090805E20A0E325E386A6099C7
:102B5000608D000128D000013250000803E23206E7
:102B6000386A609900011FD00401F451010A98E00D
:102B7000F451020AA0E0F451040AA6E0F451050A57
:102B8000AEE0F451090AB4E0F4510A0ABCE0F45191
:102B90000C0AC2E0F4510D0ACAE0F4510F0AD0E069
:102BA000F451100AD8E00401000EE71902E1060E04
:102BB000E61927E171EC43F0010E2E6E2B6A030E2D
:102BC0000C6EFF0E0B6EFF0E0A6E0C2E01D007D09E
:102BD0000B2E01D003D00A2EFED7FAD7F6D78C0ED3
:102BE0000B6EFF0E0A6E0B2E01D003D00A2EFED7FD
:102BF000FAD7A10E0A6E0A2EFED700005EEC42F054
:102C0000386A1BD1D10E05010D6F040E0E6F2E0E0A
:102C10000F6F920E106F000E116FA7EC44F0010EB3
:102C200005010D6F010E0E6FD10E0F6F040E106FA8
:102C3000ACEC42F0D10E0D6F040E0E6F3C0E0F6F18
:102C4000920E106F000E116FE8C412F5E9C413F56F
:102C5000FBEC44F0020E0D6F010E0E6FD10E0F6FE4
:102C6000040E106FACEC42F0000E0401E71902E113
:102C7000010EE61905E1EA51E827EB51E923386A2C
:102C80000401000EE71902E1020EE61905E1EA511E
:102C9000E85FEB51E95B386A0401000EE71902E1D5
:102CA000050EE619D8B4386A0401C7D0D10E050163
:102CB0000D6F040E0E6F400E0F6F920E106F000E10
:102CC000116FA7EC44F0010E05010D6F010E0E6FA0
:102CD000D10E0F6F040E106FACEC42F0D10E0D6FE1
:102CE000040E0E6F4E0E0F6F920E106F000E116FCE
:102CF00044C012F545C013F5FBEC44F0020E0D6F15
:102D0000010E0E6FD10E0F6F040E106FACEC42F07F
:102D1000000E0401E71902E1010EE61905E1640E57
:102D2000E827000EE923386A0401000EE71902E1E2
:102D3000020EE61905E1640EE85F000EE95B386AF1
:102D400004017BD004015E50010AD8B421EF01F0E8
:102D50005E50020AD8B49AEF01F05E50030AD8B46C
:102D6000C5EF02F05E50040AD8B432EF03F05E50B3
:102D7000050AD8B4A5EF05F05E50060AD8B4FBEFFB
:102D800005F05E50070AD8B460EF06F05E50080AFE
:102D9000D8B4C5EF06F05E50090AD8B441EF07F089
:102DA0005E500A0AD8B4BDEF07F05E500B0AD8B4E3
:102DB00039EF08F05E500C0AD8B4B5EF08F05E5059
:102DC0000D0AD8B47DEF09F05E500E0AD8B4F9EFC1
:102DD00009F05E500F0AD8B47CEF0CF05E50100A78
:102DE000D8B477EF0DF05E50110AD8B45BEF0EF057
:102DF0005E50120AD8B456EF0FF05E50130AD8B4E2
:102E000051EF10F05E50140AD8B44CEF11F05E5040
:102E1000150AD8B4F4EF11F05E50160AD8B4EFEFEB
:102E200012F05E50170AD8B456D45E50180AD8B4BF
:102E3000E9D65E50190AD8B439D7DBEC3BF000C0B4
:102E4000E6F4000E00BEFF0E0401E76F1FEF01F075
:102E5000FFD7280E0501216F6E0E226F750E236FAE
:102E60006C0E246F6C0E256F290E266F276B2F6B4F
:102E7000306B2D6B2E6B05011CC500F01DC501F0DC
:102E80001EC502F0010E1C27000E1D231E2300C0CC
:102E9000F6FF01C0F7FF02C0F8FF0900F5CF00F010
:102EA00000C02AF50052D8B465EF28F02A51250A4F
:102EB0000BE01AC5E1FF1BC5E2FF2AC5E6FF1A4B6E
:102EC0001B2B2F4B302BD7D72B6B2C6B2D6B2E6BDB
:102ED000050123D02D87010E1C27000E1D231E2364
:102EE0005AD02D81010E1C27000E1D231E2353D006
:102EF0002D83010E1C27000E1D231E234CD02E8770
:102F0000010E1C27000E1D231E2345D02D85010E0A
:102F10001C27000E1D231E233ED005011CC5F6FFF5
:102F20001DC5F7FF1EC5F8FF0900F5CF3BF53B5166
:102F30002D0AD0E01CC5F6FF1DC5F7FF1EC5F8FF22
:102F40000900F5CF3BF53B51200ACBE01CC5F6FF4D
:102F50001DC5F7FF1EC5F8FF0900F5CF3BF53B5136
:102F60002B0AC6E01CC5F6FF1DC5F7FF1EC5F8FFFE
:102F70000900F5CF3BF53B51230AC1E01CC5F6FF24
:102F80001DC5F7FF1EC5F8FF0900F5CF3BF53B5106
:102F9000300ABCE001D09CD705012DB32D912DB78F
:102FA0002D951CC5F6FF1DC5F7FF1EC5F8FF0900CE
:102FB000F5CF00F0000E016E00C043F52EEC46F098
:102FC000005238E005012B6B2C6B2BC500F02CC593
:102FD00001F00A0E046E000E056EE3EC43F01CC512
:102FE000F6FF1DC5F7FF1EC5F8FF0900F5CF3BF53D
:102FF00005013B5100242B6F000E01202C6F300E79
:103000002B5F000E2C5B010E1C27000E1D231E23C0
:103010001CC5F6FF1DC5F7FF1EC5F8FF0900F5CF5B
:1030200000F0000E016E00C043F52EEC46F0005299
:10303000CCE136D01CC5F6FF1DC5F7FF1EC5F8FF55
:103040000900F5CF3BF505013B512A0A29E11FC5CF
:10305000E9FF20C5EAFFEECF00F0EECF01F000C09F
:10306000E9FF01C0EAFFEECF2BF5EECF2CF51FC52F
:10307000E9FF20C5EAFFEECF00F0EECF01F0020E2F
:103080000026000E01221FC5E1FF20C5E2FF00C09F
:10309000E6FF01C0E6FF010E1C27000E1D231E23C4
:1030A00005011CC5F6FF1DC5F7FF1EC5F8FF090089
:1030B000F5CF3BF53B512E0A74E1010E1C27000EA3
:1030C0001D231E231CC5F6FF1DC5F7FF1EC5F8FFF7
:1030D0000900F5CF3BF53B512A0A2AE11FC5E9FF5C
:1030E00020C5EAFFEECF00F0EECF01F000C0E9FF0F
:1030F00001C0EAFFEECF28F5EECF29F51FC5E9FFA5
:1031000020C5EAFFEECF00F0EECF01F0020E002660
:10311000000E01221FC5E1FF20C5E2FF00C0E6FF4F
:1031200001C0E6FF010E1C27000E1D231E2337D011
:10313000286B296B1CC5F6FF1DC5F7FF1EC5F8FFE0
:103140000900F5CF00F0000E016E00C043F52EEC33
:1031500046F0005224E028C500F029C501F00A0E0F
:10316000046E000E056EE3EC43F01CC5F6FF1DC5B2
:10317000F7FF1EC5F8FF0900F5CF3BF505013B51F0
:103180000024286F000E0120296F300E285F000EEA
:10319000295B010E1C27000E1D231E23CBD7050122
:1031A00004D00501286B296B2E8905011CC500F090
:1031B0001DC501F01EC502F0010E1C27000E1D23C7
:1031C0001E2300C0F6FF01C0F7FF02C0F8FF090090
:1031D000F5CF2AF5EDD02FC500F030C501F0120073
:1031E0002D89E3D72E851FD12D8B2E811CD12E83C7
:1031F0001AD12D8D18D117D12D8B2D8F14D11FC51C
:10320000E9FF20C5EAFFEECF00F0EECF01F000C0ED
:10321000E9FF01C0EAFFEECF37F5EECF38F51FC565
:10322000E9FF20C5EAFFEECF00F0EECF01F0020E7D
:103230000026000E01221FC5E1FF20C5E2FF00C0ED
:10324000E6FF01C0E6FF000E381902E1000E371953
:1032500004E1210E376F050E386F0501396B3A6BAB
:1032600039513725E96E3A513821EA6EEECF00F038
:10327000005203E0394B3A2BF3D7285129110AE0C9
:103280003A51295D02E13951285D04E228C539F53A
:1032900029C53AF505012C513A5D02E12B51395D02
:1032A00005E239512B5F3A512C5B03D005012B6BA2
:1032B0002C6B2DB716D02BC500F02CC501F0010EDC
:1032C0002B5F000E2C5B005001100BE01AC5E1FFD4
:1032D0001BC5E2FF200EE66E1A4B1B2B2F4B302B2B
:1032E000EAD739C500F03AC501F0010E395F000E8A
:1032F0003A5B0050011013E037C5E9FF38C5EAFF1B
:10330000EECF00F01AC5E1FF1BC5E2FF00C0E6FFEB
:103310001A4B1B2B374B382B2F4B302BE2D72DA7BB
:1033200016D02BC500F02CC501F0010E2B5F000E4E
:103330002C5B005001100BE01AC5E1FF1BC5E2FF3A
:10334000200EE66E1A4B1B2B2F4B302BEAD793D552
:103350001FC5E9FF20C5EAFFEECF00F0EECF01F078
:1033600000C0E9FF01C0EAFFEECF2AF51FC5E9FF63
:1033700020C5EAFFEECF00F0EECF01F0020E0026EE
:10338000000E01221FC5E1FF20C5E2FF00C0E6FFDD
:1033900001C0E6FF2A0E376F050E386F010E396F38
:1033A000000E3A6F6AD7C00E2D13000E2E133BD0BD
:1033B0002A51000AD8B40FD72A516C0AD8B410D7B2
:1033C0002A51660AD8B40ED72A51450AD8B40CD768
:1033D0002A51650AD8B409D72A51670AD8B407D741
:1033E0002A516F0AD8B405D72A51640AD8B403D732
:1033F0002A51690AD8B4FFD62A51700AD8B4FCD62B
:103400002A51580AD8B4F8D62A51780AD8B4F5D631
:103410002A51730AD8B4F3D62A51630A99E02A5183
:10342000750AC1E0B7D70501000E2D15006E2E51AB
:10343000070B016E00500110D8B49EEF23F02EA9A7
:1034400004D0060E286F000E296F1FC5E9FF20C5A6
:10345000EAFFEECF00F0EECF01F000C0E9FF01C0BF
:10346000EAFFEECF31F5EECF32F5EECF33F5EECF0A
:1034700034F51FC5E9FF20C5EAFFEECF00F0EECF1F
:1034800001F0040E0026000E01221FC5E1FF20C539
:10349000E2FF00C0E6FF01C0E6FF046A056A066AB3
:1034A000076A31C500F032C501F033C502F034C5FA
:1034B00003F087EC40F0010ED8B0000E006E005211
:1034C00006E00501337F030E2D13000E2E130501B8
:1034D000356B366B31C500F032C501F033C502F0F3
:1034E00034C503F0046A056A066A076A65EC45F0AC
:1034F000000ED8A4010E006E0052D8B49AD034C584
:1035000000F0016A026A036AFF0E001405013F6FB2
:10351000000E406F000E40177E0E3B6F000E3C6F9A
:103520003D6F3E6F3B513F5D006E3C514059016E17
:1035300000C035F501C036F5010E005C356F000E98
:103540000158366F35C500F036C501F0030E046E24
:10355000000E056EE3EC43F000C035F501C036F512
:103560000A0E046E000E056EEFEC40F000C035F55B
:1035700001C036F5800E011805013B6F800E3B5DE2
:1035800002E1000E005C04E2010E355F000E365BC6
:10359000050135510008436F7DEC31F031C504F071
:1035A00032C505F033C506F034C507F0A2EC3EF095
:1035B00000C037F501C038F502C039F503C03AF54F
:1035C000000E046E000E056E000E066E7F0E076E76
:1035D00037C500F038C501F039C502F03AC503F02F
:1035E00087EC40F0010ED8B0000E006E005206E0ED
:1035F000010E0501355F000E365B1BD0000E046E18
:10360000000E056E200E066E820E076E37C500F0A6
:1036100038C501F039C502F03AC503F087EC40F037
:10362000000ED8B0010E006E005203E00501354BCC
:10363000362B0501800E006E800E05013619005CE8
:1036400002E13551000803E3010E2A6F03D00501A2
:1036500035C52AF52EB11AD02EA315D0800E3619F5
:10366000006E7F0E005C02E1FC0E355D0AE3800E09
:103670003619006E800E2919005C02E12851355D73
:1036800002E3050103D005018AEF1FF0050128516F
:10369000291106E02EA304D0010E285F000E295B3D
:1036A000000E006E2951005C02E12851080803E277
:1036B000080E2A6F03D0050128C52AF531C500F090
:1036C00032C501F033C502F034C503F0046A056A5F
:1036D000066A076A65EC45F0000ED8A4010E006E7C
:1036E0000052D8B464D135C543F57DEC31F000C04B
:1036F00004F001C005F002C006F003C007F031C5B8
:1037000000F032C501F033C502F034C503F0C1EC5E
:103710003CF000C031F501C032F502C033F503C002
:1037200034F505012A510008436F7DEC31F000C0EB
:1037300004F001C005F002C006F003C007F031C577
:1037400000F032C501F033C502F034C503F0C1EC1E
:103750003CF000C03BF501C03CF502C03DF503C0A4
:103760003EF53BC531F53CC532F53DC533F53EC5AB
:1037700034F53BC500F03CC501F03DC502F03EC547
:1037800003F06BEC3DF092EC45F000C004F001C09A
:1037900005F002C006F003C007F03BC500F03CC5D1
:1037A00001F03DC502F03EC503F06EEC46F0000EA0
:1037B000046E000E056E000E066E7E0E076E87EC20
:1037C00040F0000ED8B0010E006E00521AE031C574
:1037D00000F032C501F033C502F034C503F0000E2D
:1037E000046E000E056E000E066E7E0E076E82ECF5
:1037F00034F000C031F501C032F502C033F503C02A
:1038000034F531C500F032C501F033C502F034C5DE
:1038100003F06BEC3DF000C03FF501C040F502C085
:1038200041F503C042F505012A51010F006E016AFE
:10383000000E0122020E046E000E01BEFF0E026E8B
:10384000036E0450050107E0003600900136023691
:103850000336FF0FF7D705016E0E00268D0E0122ED
:10386000000E022200C0F6FF01C0F7FF02C0F8FF01
:103870000900F5CF3BF50900F5CF3CF50900F5CF80
:103880003DF50900F5CF3EF53E51425D08E13D5161
:10389000415D05E13C51405D02E13B513F5D1EE36E
:1038A00031C500F032C501F033C502F034C503F074
:1038B000CD0E046ECC0E056E4C0E066E7B0E076EA2
:1038C000A2EC3EF000C031F501C032F502C033F584
:1038D00003C034F50501354B362B69D0050131C5E0
:1038E00000F032C501F033C502F034C503F06BECD3
:1038F0003DF000C03FF501C040F502C041F503C0F6
:1039000042F5020E046E2AC500F0000E016E026E32
:10391000036E0450000107E00036009001360236C5
:103920000336FF0FF7D76E0E00268D0E0122000E14
:10393000022200C0F6FF01C0F7FF02C0F8FF090035
:10394000F5CF3BF50900F5CF3CF50900F5CF3DF586
:103950000900F5CF3EF505013E51425D08E13D51BC
:10396000415D05E13C51405D02E13B513F5D1FE29D
:1039700031C500F032C501F033C502F034C503F0A3
:10398000000E046E000E056E200E066E820E076E8F
:10399000A2EC3EF000C031F501C032F502C033F5B3
:1039A00003C034F5010E0501355F000E365B0501DD
:1039B0002EA398D02EB796D0800E000A006E800EEF
:1039C0002919005C02E128510A0804E20A0E286F56
:1039D000000E296F050131C500F032C501F033C575
:1039E00002F034C503F06BEC3DF000C037F501C0C8
:1039F00038F502C039F503C03AF5050137513811E1
:103A000039113A1144E00A0E046E000E056E066E7E
:103A1000076E37C500F038C501F039C502F03AC568
:103A200003F029EC38F008C000F009C001F00AC02A
:103A300002F00BC003F0000E05013B6F031808E114
:103A40003B51021805E13B51011802E10050000A08
:103A50001EE1010E0501285F000E295B0A0E046EAF
:103A6000000E056E066E076E37C500F038C501F012
:103A700039C502F03AC503F029EC38F000C037F53B
:103A800001C038F502C039F503C03AF5B6D7800E4B
:103A900005012919006E800E005C02E12A51285DA3
:103AA00021E228512A5D436F7DEC31F000C004F023
:103AB00001C005F002C006F003C007F031C500F0F8
:103AC00032C501F033C502F034C503F0C1EC3CF05F
:103AD00000C031F501C032F502C033F503C034F542
:103AE00028C52AF50001050E05012825006E000EE7
:103AF0002921016E00502B5F01502C5B28512911A8
:103B000002E12EA704D0010E2B5F000E2C5B030EEA
:103B10002D15006E2EC501F0000E0116005001108B
:103B200004E0010E2B5F000E2C5B2DA54AD02DA3C7
:103B30001AD0010E2D15006E2EC501F0000E0116D3
:103B40000050011003E02D0E006E02D02B0E006E0F
:103B50001AC5E1FF1BC5E2FF00C0E6FF1A4B1B2B95
:103B60002F4B302B14D0010E2D15006E2EC501F0F9
:103B7000000E0116005001100AE01AC5E1FF1BC536
:103B8000E2FF200EE66E1A4B1B2B2F4B302B800EC4
:103B9000006E800E2C19005C02E12B5100080FE230
:103BA0001AC5E1FF1BC5E2FF300EE66E1A4B1B2B58
:103BB0002F4B302B010E2B5F000E2C5BE8D705013D
:103BC0004BD02DB718D0800E006E800E2C19005CE3
:103BD00002E12B5100080FE21AC5E1FF1BC5E2FF0D
:103BE000200EE66E1A4B1B2B2F4B302B010E2B5F3A
:103BF000000E2C5BE8D705012DA31AD0010E2D1560
:103C0000006E2EC501F0000E01160050011003E0F9
:103C10002D0E006E02D02B0E006E1AC5E1FF1BC5E3
:103C2000E2FF00C0E6FF1A4B1B2B2F4B302B14D0AA
:103C3000010E2D15006E2EC501F0000E011600506C
:103C400001100AE01AC5E1FF1BC5E2FF200EE66E77
:103C50001A4B1B2B2F4B302B050131C500F032C501
:103C600001F033C502F034C503F06BEC3DF000C049
:103C700037F501C038F502C039F503C03AF5020E38
:103C8000046E2AC500F0000E016E026E036E045031
:103C9000000107E000360090013602360336FF0FC0
:103CA000F7D76E0E00268D0E0122000E022200C0F4
:103CB000F6FF01C0F7FF02C0F8FF0900F5CF04F0DE
:103CC0000900F5CF05F00900F5CF06F00900F5CFA2
:103CD00007F037C500F038C501F039C502F03AC524
:103CE00003F029EC38F0300E00261AC5E1FF1BC5A1
:103CF000E2FF00C0E6FF05011A4B1B2B2F4B302BB8
:103D00002851291102E12EA776D01AC5E1FF1BC563
:103D1000E2FF2E0EE66E05011A4B1B2B2F4B302BAC
:103D20002A51285F000E295B2A5353E02A07020E0E
:103D3000046E2AC500F0000E016E026E036E045080
:103D4000050107E000360090013602360336FF0F0A
:103D5000F7D76E0E00268D0E0122000E022200C043
:103D6000F6FF01C0F7FF02C0F8FF0900F5CF04F02D
:103D70000900F5CF05F00900F5CF06F00900F5CFF1
:103D800007F037C500F038C501F039C502F03AC573
:103D900003F029EC38F00A0E046E000E056E066E74
:103DA000076E29EC38F008C000F009C001F00AC025
:103DB00002F00BC003F0300E00261AC5E1FF1BC550
:103DC000E2FF00C0E6FF05011A4B1B2B2F4B302BE7
:103DD000ABD7285129110FE01AC5E1FF1BC5E2FF3F
:103DE000300EE66E1A4B1B2B2F4B302B010E285F2B
:103DF000000E295BEED72DAB0BD01AC5E1FF1BC51A
:103E0000E2FF450EE66E1A4B1B2B2F4B302B0AD0D0
:103E10001AC5E1FF1BC5E2FF650EE66E1A4B1B2BB0
:103E20002F4B302B800E3619006E800E005C02E1A5
:103E3000000E355D12E235510008356F36C536F596
:103E4000E86A36571AC5E1FF1BC5E2FF2D0EE66E84
:103E50001A4B1B2B2F4B302B0BD005011AC5E1FF42
:103E60001BC5E2FF2B0EE66E1A4B1B2B2F4B302B84
:103E70000A0E046E000E056E35C500F036C501F061
:103E8000EFEC40F0300E00261AC5E1FF1BC5E2FF43
:103E900000C0E6FF05011A4B1B2B2F4B302B0A0EDF
:103EA000046E000E056E35C500F036C501F0EFEC6E
:103EB00040F008C000F009C001F0300E00261AC51D
:103EC000E1FF1BC5E2FF00C0E6FF05011A4B1B2BFB
:103ED0002F4B302B2DA71BD0800E006E800E2C197F
:103EE000005C02E12B51000812E21AC5E1FF1BC57C
:103EF000E2FF200EE66E05011A4B1B2B2F4B302BD9
:103F0000010E2B5F000E2C5B2B512C11EEE10501F5
:103F10003BEF17F005012EA3FDD0800E3619006E81
:103F2000800E005C02E1000E355D0AE2010E355D97
:103F3000006E000E3659016E0050285F0150295B5B
:103F400031C500F032C501F033C502F034C503F0CD
:103F50006BEC3DF000C037F501C038F502C039F513
:103F600003C03AF5010E05012A6F2A510A0A39E009
:103F7000020E046E2AC500F0000E016E026E036E82
:103F80000450050107E00036009001360236033682
:103F9000FF0FF7D705016E0E00268D0E0122000ED1
:103FA000022200C0F6FF01C0F7FF02C0F8FF0900BF
:103FB000F5CF3BF50900F5CF3CF50900F5CF3DF510
:103FC0000900F5CF3EF53E513A5D08E13D51395DBE
:103FD00005E13C51385D02E13B51375D02E32A2B9C
:103FE000C4D705012A51285D3F6F000E2959406F43
:103FF0003FC528F540C529F537C500F038C501F0A3
:1040000039C502F03AC503F092EC45F000C004F067
:1040100001C005F002C006F003C007F031C500F092
:1040200032C501F033C502F034C503F06EEC46F042
:1040300000C03BF501C03CF502C03DF503C03EF5B4
:104040003FC543F57DEC31F03BC504F03CC505F0C0
:104050003DC506F03EC507F0A2EC3EF0000E046E32
:10406000000E056E000E066E7E0E076E82EC34F0BA
:104070006BEC3DF000C037F501C038F502C039F5F2
:1040800003C03AF505012851291144E00A0E046ED7
:10409000000E056E066E076E37C500F038C501F0DC
:1040A00039C502F03AC503F029EC38F008C000F039
:1040B00009C001F00AC002F00BC003F0000E0501B8
:1040C0003B6F031808E13B51021805E13B51011811
:1040D00002E10050000A1EE10A0E046E000E056E99
:1040E000066E076E37C500F038C501F039C502F01D
:1040F0003AC503F029EC38F000C037F501C038F5B7
:1041000002C039F503C03AF5010E0501285F000E23
:10411000295BB8D70501800E006E800E05012919B4
:10412000005C02E128510C0816E328C543F596EC23
:1041300036F031C504F032C505F033C506F034C59C
:1041400007F082EC34F000C031F501C032F502C056
:1041500033F503C034F531C500F032C501F033C585
:1041600002F034C503F0046A056A066A076A65EC62
:1041700045F0000ED8A4010E006E0052D8B478D0DD
:1041800031C500F032C501F033C502F034C503F08B
:104190006BEC3DF0000E05013B6F031808E13B514D
:1041A000021805E13B51011802E10050000A60E1EC
:1041B000800E006E800E3619005C02E13551010858
:1041C00057E235C543F57DEC31F000C004F001C085
:1041D00005F002C006F003C007F031C500F032C59B
:1041E00001F033C502F034C503F0C1EC3CF05F0EC2
:1041F000046E700E056E090E066E810E076E87EC5A
:1042000040F0010ED8B0000E006E005206E0090E1C
:104210000501355F000E365B05D0080E0501355FE0
:10422000000E365B35C543F57DEC31F000C004F07F
:1042300001C005F002C006F003C007F031C500F070
:1042400032C501F033C502F034C503F0C1EC3CF0D7
:104250006BEC3DF000C037F501C038F502C039F510
:1042600003C03AF50501316B326B336B346B39D0D7
:1042700031C500F032C501F033C502F034C503F09A
:104280006BEC3DF000C037F501C038F502C039F5E0
:1042900003C03AF537C500F038C501F039C502F062
:1042A0003AC503F092EC45F000C004F001C005F0FF
:1042B00002C006F003C007F031C500F032C501F0BE
:1042C00033C502F034C503F06EEC46F000C031F5A2
:1042D00001C032F502C033F503C034F50501356B7A
:1042E000366B010E2A6F2A510A0A39E0020E046E5B
:1042F0002AC500F0000E016E026E036E0450050127
:1043000007E000360090013602360336FF0FF7D77C
:1043100005016E0E00268D0E0122000E022200C045
:10432000F6FF01C0F7FF02C0F8FF0900F5CF3BF52B
:104330000900F5CF3CF50900F5CF3DF50900F5CFB3
:104340003EF53E513A5D08E13D51395D05E13C5194
:10435000385D02E13B51375D02E32A2BC4D70501EA
:104360002A512825006E000E2921016E35510026A4
:104370003651012200502B5F01502C5B2EB703D029
:104380002851291104E0010E2B5F000E2C5B030E57
:104390002D15006E2EC501F0000E01160050011003
:1043A00004E0010E2B5F000E2C5B2DA54AD02DA33F
:1043B0001AD0010E2D15006E2EC501F0000E01164B
:1043C0000050011003E02D0E006E02D02B0E006E87
:1043D0001AC5E1FF1BC5E2FF00C0E6FF1A4B1B2B0D
:1043E0002F4B302B14D0010E2D15006E2EC501F071
:1043F000000E0116005001100AE01AC5E1FF1BC5AE
:10440000E2FF200EE66E1A4B1B2B2F4B302B800E3B
:10441000006E800E2C19005C02E12B5100080FE2A7
:104420001AC5E1FF1BC5E2FF300EE66E1A4B1B2BCF
:104430002F4B302B010E2B5F000E2C5BE8D70501B4
:104440004BD02DB718D0800E006E800E2C19005C5A
:1044500002E12B5100080FE21AC5E1FF1BC5E2FF84
:10446000200EE66E1A4B1B2B2F4B302B010E2B5FB1
:10447000000E2C5BE8D705012DA31AD0010E2D15D7
:10448000006E2EC501F0000E01160050011003E071
:104490002D0E006E02D02B0E006E1AC5E1FF1BC55B
:1044A000E2FF00C0E6FF1A4B1B2B2F4B302B14D022
:1044B000010E2D15006E2EC501F0000E01160050E4
:1044C00001100AE01AC5E1FF1BC5E2FF200EE66EEF
:1044D0001A4B1B2B2F4B302B05012AC500F02A0746
:1044E000005252E0020E046E2AC500F0000E016E6A
:1044F000026E036E0450050107E00036009001369D
:1045000002360336FF0FF7D76E0E00268D0E0122FE
:10451000000E022200C0F6FF01C0F7FF02C0F8FF44
:104520000900F5CF04F00900F5CF05F00900F5CF3B
:1045300006F00900F5CF07F037C500F038C501F0E7
:1045400039C502F03AC503F029EC38F00A0E046EC2
:10455000000E056E066E076E29EC38F008C000F0FC
:1045600009C001F00AC002F00BC003F0300E0026B3
:104570001AC5E1FF1BC5E2FF00C0E6FF05011A4BAB
:104580001B2B2F4B302BA8D7800E006E800E3619B8
:10459000005C02E1355100080FE21AC5E1FF1BC5BE
:1045A000E2FF300EE66E1A4B1B2B2F4B302B010E09
:1045B000355F000E365BE8D70501800E000A006EFD
:1045C000800E2919005C02E12851080803E2080E58
:1045D0002A6F03D0050128C52AF52A51285F000E4D
:1045E000295B2A5302E12EA70AD01AC5E1FF1BC599
:1045F000E2FF2E0EE66E1A4B1B2B2F4B302B2AC5DB
:1046000043F57DEC31F031C504F032C505F033C51A
:1046100006F034C507F0A2EC3EF008EC3EF000C016
:1046200037F501C038F502C039F503C03AF5050188
:104630002A5353E02A07020E046E2AC500F0000E2A
:10464000016E026E036E0450050107E00036009013
:10465000013602360336FF0FF7D76E0E00268D0E99
:104660000122000E022200C0F6FF01C0F7FF02C0C7
:10467000F8FF0900F5CF04F00900F5CF05F00900B7
:10468000F5CF06F00900F5CF07F037C500F038C5C3
:1046900001F039C502F03AC503F029EC38F00A0EF2
:1046A000046E000E056E066E076E29EC38F008C029
:1046B00000F009C001F00AC002F00BC003F0300E98
:1046C00000261AC5E1FF1BC5E2FF00C0E6FF050199
:1046D0001A4B1B2B2F4B302BAAD7285129110FE037
:1046E0001AC5E1FF1BC5E2FF300EE66E1A4B1B2B0D
:1046F0002F4B302B010E285F000E295BEED72DA724
:104700001AD0800E006E800E2C19005C02E12B5135
:10471000000811E21AC5E1FF1BC5E2FF200EE66E9C
:104720001A4B1B2B2F4B302B010E2B5F000E2C5BDB
:104730002B512C11EFE105013BEF17F0C00E2D15A9
:104740003B6F2EC53CF5000E3C17000E3C1902E1F4
:10475000000E3B19D8A482D02DA929D01FC5E9FF8E
:1047600020C5EAFFEECF00F0EECF01F000C0E9FF78
:1047700001C0EAFFEECF37F5EECF38F5EECF39F5D1
:10478000EECF3AF51FC5E9FF20C5EAFFEECF00F0F6
:10479000EECF01F0040E0026000E01221FC5E1FF3E
:1047A00020C5E2FF00C0E6FF01C0E6FF2ED01FC516
:1047B000E9FF20C5EAFFEECF00F0EECF01F000C028
:1047C000E9FF01C0EAFFEECF37F5EECF38F5000E76
:1047D00038BFFF0E396F3A6F000E38BFFF0E396FCA
:1047E0003A6F1FC5E9FF20C5EAFFEECF00F0EECF1C
:1047F00001F0020E0026000E01221FC5E1FF20C5B8
:10480000E2FF00C0E6FF01C0E6FF800E3A19006E2D
:10481000800E005C08E1000E395D05E1000E385D98
:1048200002E1000E375D18E2030E2D13000E2E1369
:10483000006A016A026A036A3751005E3851015A00
:104840003951025A3A51035A00C037F501C038F5C0
:1048500002C039F503C03AF5050156D005012DA96E
:1048600029D01FC5E9FF20C5EAFFEECF00F0EECF4B
:1048700001F000C0E9FF01C0EAFFEECF37F5EECF4F
:1048800038F5EECF39F5EECF3AF51FC5E9FF20C573
:10489000EAFFEECF00F0EECF01F0040E0026000E8E
:1048A00001221FC5E1FF20C5E2FF00C0E6FF01C0F5
:1048B000E6FF2AD01FC5E9FF20C5EAFFEECF00F0D2
:1048C000EECF01F000C0E9FF01C0EAFFEECF37F5FF
:1048D000EECF38F5000E396F3A6F000E396F3A6F30
:1048E0001FC5E9FF20C5EAFFEECF00F0EECF01F0D3
:1048F000020E0026000E01221FC5E1FF20C5E2FFC7
:1049000000C0E6FF01C0E6FF0501000E291902E123
:10491000000E28190FE1000E006E3A1908E1005050
:10492000391905E10050381902E13751000A02E156
:10493000284B292B0501C00E2D15006E00C03FF538
:10494000C0D0010E2A6F2A510A0A39E0020E046E05
:104950002AC500F0000E016E026E036E04500501C0
:1049600007E000360090013602360336FF0FF7D716
:1049700005016E0E00268D0E0122000E022200C0DF
:10498000F6FF01C0F7FF02C0F8FF0900F5CF3BF5C5
:104990000900F5CF3CF50900F5CF3DF50900F5CF4D
:1049A0003EF53E513A5D08E13D51395D05E13C512E
:1049B000385D02E13B51375D02E32A2BC4D7050184
:1049C0008FD0010E2A6F2A51080A39E0020E046EB8
:1049D0002AC500F0000E016E026E036E0450050140
:1049E00007E000360090013602360336FF0FF7D796
:1049F0000501960E00268D0E0122000E022200C037
:104A0000F6FF01C0F7FF02C0F8FF0900F5CF3BF544
:104A10000900F5CF3CF50900F5CF3DF50900F5CFCC
:104A20003EF53E513A5D08E13D51395D05E13C51AD
:104A3000385D02E13B51375D02E32A2BC4D7050103
:104A40004FD0010E2A6F2A510C0A39E0020E046E73
:104A50002AC500F0000E016E026E036E04500501BF
:104A600007E000360090013602360336FF0FF7D715
:104A70000501B60E00268D0E0122000E022200C096
:104A8000F6FF01C0F7FF02C0F8FF0900F5CF3BF5C4
:104A90000900F5CF3CF50900F5CF3DF50900F5CF4C
:104AA0003EF53E513A5D08E13D51395D05E13C512D
:104AB000385D02E13B51375D02E32A2BC4D7050183
:104AC0000FD03F51000AD8B43CD73F51C00AD8B4E8
:104AD00038D73F51800AD8B474D73F51400AB1E06B
:104AE0000501800E006E800E2919005C02E128513C
:104AF0002A5D03E228C52AF50ED00501800E29198A
:104B0000006E800E005C02E12A51285D04E22AC595
:104B100028F5000E296F05012B512C110EE0030E14
:104B20002D15006E2EC501F0000E0116005001106B
:104B300004E0010E2B5F000E2C5B800E2919006E25
:104B4000800E2C19005C02E12B51285D05E22851F2
:104B50002B5F29512C5B03D005012B6B2C6BC40EF2
:104B60002D153B6F2E51080B3C6F3C51080A02E19A
:104B7000400E3B1908E12B512C1104E0010E2B5F74
:104B8000000E2C5B1ED00501C00E2D153B6F2E5163
:104B9000080B3C6F3C51080A02E1800E3B1911E101
:104BA000800E006E800E2C19005C02E12B51020871
:104BB00005E2020E2B5F000E2C5B03D005012B6B70
:104BC0002C6B05012DA56ED02DA31AD0010E2D152D
:104BD000006E2EC501F0000E01160050011003E01A
:104BE0002D0E006E02D02B0E006E1AC5E1FF1BC504
:104BF000E2FF00C0E6FF1A4B1B2B2F4B302B3CD0A3
:104C0000010E2D15006E2EC501F0000E011600508C
:104C100001100BE01AC5E1FF1BC5E2FF200EE66E96
:104C20001A4B1B2B2F4B302B27D0C00E2D153B6F53
:104C30002E51080B3C6F3C51080A02E1800E3B19D3
:104C40001BE11AC5E1FF1BC5E2FF300EE66E1A4BF1
:104C50001B2B2F4B302B2DAB03D0580E006E02D0E8
:104C6000780E006E1AC5E1FF1BC5E2FF00C0E6FF2B
:104C70001A4B1B2B2F4B302B05012B512C1111E004
:104C80001AC5E1FF1BC5E2FF300EE66E1A4B1B2B67
:104C90002F4B302B010E2B5F000E2C5B2B512C1158
:104CA000EFE185D02B512C1113E02DB711D01AC58F
:104CB000E1FF1BC5E2FF200EE66E1A4B1B2B2F4BAC
:104CC000302B010E2B5F000E2C5B2B512C11EFE1D2
:104CD0002DA31AD0010E2D15006E2EC501F0000E69
:104CE00001160050011003E02D0E006E02D02B0EB5
:104CF000006E1AC5E1FF1BC5E2FF00C0E6FF1A4BBC
:104D00001B2B2F4B302B14D0010E2D15006E2EC5F2
:104D100001F0000E0116005001100AE01AC5E1FF73
:104D20001BC5E2FF200EE66E1A4B1B2B2F4B302BC0
:104D3000C00E2D153B6F2E51080B3C6F3C51080ADD
:104D400002E1400E3B190BE11AC5E1FF1BC5E2FF72
:104D5000300EE66E1A4B1B2B2F4B302B28D0050143
:104D6000C00E2D153B6F2E51080B3C6F3C51080AAD
:104D700002E1800E3B191BE11AC5E1FF1BC5E2FFF2
:104D8000300EE66E1A4B1B2B2F4B302B2DAB03D066
:104D9000580E006E02D0780E006E1AC5E1FF1BC5DA
:104DA000E2FF00C0E6FF1A4B1B2B2F4B302B0501F7
:104DB000800E006E800E2919005C02E128512A5DE8
:104DC0000BE21AC5E1FF1BC5E2FF300EE66E1A4B7F
:104DD0001B2B2F4B302BEBD7050128C500F029C525
:104DE00001F0010E285F000E295B00500110D8B4BD
:104DF0004DD1C00E2D15006E00C03BF52BD1020E1B
:104E0000046E28C500F029C501F0000E29BFFF0E71
:104E1000026E036E0450050107E000360090013673
:104E200002360336FF0FF7D76E0E00268D0E0122D5
:104E3000000E022200C0F6FF01C0F7FF02C0F8FF1B
:104E40000900F5CF04F00900F5CF05F00900F5CF12
:104E500006F00900F5CF07F037C500F038C501F0BE
:104E600039C502F03AC503F029EC38F00A0E046E99
:104E7000000E056E066E076E29EC38F008C000F0D3
:104E800009C001F00AC002F00BC003F0300E00248C
:104E900005012A6FEFD02DAB4ED0020E046E28C54F
:104EA00000F029C501F0000E29BFFF0E026E036E4F
:104EB0000450050107E00036009001360236033643
:104EC000FF0FF7D70501960E00268D0E0122000E6A
:104ED000022200C0F6FF01C0F7FF02C0F8FF090080
:104EE000F5CF04F00900F5CF05F00900F5CF06F085
:104EF0000900F5CF07F037C500F038C501F039C516
:104F000002F03AC503F029EC38F00F0E0016000E3F
:104F1000011602160316E60E00268D0E0122000E63
:104F2000022200C0F6FF01C0F7FF02C0F8FF09002F
:104F3000F5CF2AF54ED0020E046E28C500F029C523
:104F400001F0000E050129BFFF0E026E036E045032
:104F5000050107E000360090013602360336FF0FE8
:104F6000F7D70501960E00268D0E0122000E0222B3
:104F700000C0F6FF01C0F7FF02C0F8FF0900F5CF3F
:104F800004F00900F5CF05F00900F5CF06F009009F
:104F9000F5CF07F037C500F038C501F039C502F08C
:104FA0003AC503F029EC38F00F0E0016000E01167A
:104FB00002160316F80E00268D0E0122000E0222A4
:104FC00000C0F6FF01C0F7FF02C0F8FF0900F5CFEF
:104FD0002AF500014FD0020E046E28C500F029C545
:104FE00001F0000E050129BFFF0E026E036E045092
:104FF000050107E000360090013602360336FF0F48
:10500000F7D7B60E00268D0E0122000E022200C038
:10501000F6FF01C0F7FF02C0F8FF0900F5CF04F06A
:105020000900F5CF05F00900F5CF06F00900F5CF2E
:1050300007F037C500F038C501F039C502F03AC5B0
:1050400003F029EC38F0070E001405012A6F300E2A
:105050002A2710D005013B51000AD8B4D0D63B51C5
:10506000C00AD8B4CCD63B51800AD8B414D73B512F
:10507000400AB1E005011AC5E1FF1BC5E2FF2AC5E0
:10508000E6FF1A4B1B2B2F4B302BA6D62DA71AD081
:10509000800E006E800E2C19005C02E12B5100087E
:1050A00011E21AC5E1FF1BC5E2FF200EE66E1A4BA6
:1050B0001B2B2F4B302B010E2B5F000E2C5B2B512B
:1050C0002C11EFE105013BEF17F02FC500F030C5C3
:1050D00001F01200000E3E6E000E3F6E000E406E9C
:1050E000000E416E000E426E000E436E000E446EC6
:1050F000000E456E000E466E000E476E000E486EA6
:10510000000E496E000E196E000E1A6E000E1B6E18
:10511000000E1C6E000E4A6E000E4B6E000E4C6EA2
:10512000000E4D6E000E4E6E000E4F6E000E506E55
:10513000000E516E000E526E000E536E000E546E35
:10514000000E556E000E566E000E576E000E586E15
:10515000000E596E000E5A6E000E5B6E000E5C6EF5
:10516000000E5D6E000E0001616F000E626F000E9A
:10517000636F000E646F000E656F000E666F000EA9
:10518000676F000E686F000E696F000E6A6F000E89
:105190006B6F000E6C6F000E6D6F000E6E6F000E69
:1051A0006F6F000E706FCD0E716FCC0E726F4C0E64
:1051B000736F7B0E746F000E156E000E166E410E2F
:1051C000756FA80E766FA80E776F2D0E786F330E61
:1051D000796F410E7A6F2D0E7B6F300E7C6F300E23
:1051E0007D6F7E6B000E7F6F800E806F630E816F10
:1051F000890E826F000E836F000E846F400E856FE4
:10520000820E866F000E876F000E886F400E896FCA
:10521000800E8A6F080E8B6FAC0E8C6F0C0E8D6F2C
:10522000800E8E6F000E8F6F000E906F700E916F5C
:10523000830E926F000E936FC00E946F5A0E956F8F
:105240008A0E966F020E976F000E986F410E996F3F
:10525000A80E9A6FA80E9B6F2D0E9C6F330E9D6F3C
:10526000410E9E6F2D0E9F6F300EA06F310EA16FFD
:10527000A26B000EA36F200EA46F620EA56F890EA5
:10528000A66F000EA76F000EA86F400EA96F820ECA
:10529000AA6F000EAB6F000EAC6F400EAD6F800EAC
:1052A000AE6FD10EAF6F790EB06F0D0EB16F800E75
:1052B000B26F000EB36F000EB46F700EB56F830E39
:1052C000B66F000EB76FC00EB86F5A0EB96F8A0E68
:1052D000BA6F020EBB6F000EBC6F410EBD6FA80E01
:1052E000BE6FA80EBF6F2D0EC06F330EC16F410E83
:1052F000C26F2D0EC36F300EC46F320EC56FC66BFA
:10530000000EC76F200EC86F620EC96F890ECA6F7C
:10531000000ECB6F000ECC6F400ECD6F820ECE6FA5
:10532000000ECF6F000ED06F400ED16F800ED26F87
:10533000D10ED36F790ED46F0D0ED56F800ED66F50
:10534000000ED76F000ED86F700ED96F830EDA6F14
:10535000000EDB6FC00EDC6F5A0EDD6F8A0EDE6F43
:10536000020EDF6F000EE06F410EE16FA80EE26FDC
:10537000A80EE36F2D0EE46F330EE56F410EE66F5E
:105380002D0EE76F300EE86F330EE96FEA6B000EFB
:10539000EB6F200EEC6F620EED6F890EEE6F000E5C
:1053A000EF6F000EF06F400EF16F820EF26F000E85
:1053B000F36F000EF46F400EF56F800EF66FD10E96
:1053C000F76F790EF86F0D0EF96F800EFA6F000E01
:1053D000FB6F000EFC6F700EFD6F830EFE6F000EF4
:1053E000FF6FC00E0101006F5A0E016F8A0E026F2F
:1053F000020E036F000E046F410E056FA80E066FBC
:10540000A80E076F2D0E086F330E096F410E0A6F3D
:105410002D0E0B6F300E0C6F340E0D6F0E6B000ED9
:105420000F6F800E106F630E116F890E126F000EDA
:10543000136F000E146F400E156F820E166F000E64
:10544000176F000E186F400E196F800E1A6F080E3E
:105450001B6FAC0E1C6F0C0E1D6F800E1E6F000EAE
:105460001F6F000E206F700E216F830E226F000ED3
:10547000236FC00E246F5A0E256F8A0E266F020E00
:10548000276F000E286F410E296FA80E2A6FA80EF5
:105490002B6F2D0E2C6F330E2D6F410E2E6F2D0E98
:1054A0002F6F300E306F350E316F326B000E336F51
:1054B000800E346F630E356F890E366F000E376FB6
:1054C000000E386F400E396F820E3A6F000E3B6F40
:1054D000000E3C6F400E3D6F800E3E6F080E3F6F1A
:1054E000AC0E406F0C0E416F800E426F000E436F8A
:1054F000000E446F700E456F830E466F000E476FAF
:10550000C00E486F5A0E496F8A0E4A6F020E4B6FDB
:10551000000E4C6F430E4D6FA80E4E6FA90E4F6FCD
:10552000330E506F2D0E516F410E526FE00E536FC0
:10553000200E546F200E556F566B000E576F800E65
:10554000586F630E596F890E5A6F000E5B6F000E15
:105550005C6F400E5D6F820E5E6F000E5F6F000E1F
:10556000606F400E616F800E626F080E636FAC0E4D
:10557000646F0C0E656F800E666F000E676F000E15
:10558000686F700E696F830E6A6F000E6B6FC00ECE
:105590006C6F5A0E6D6F8A0E6E6F020E6F6F000E7B
:1055A000706F430E716FA80E726FA90E736F2D0E80
:1055B000746F330E756F410E766F2D0E776F410E3F
:1055C000786F360E796F7A6B000E7B6F800E7C6F72
:1055D000630E7D6F890E7E6F000E7F6F000E806FF1
:1055E000400E816F820E826F000E836F000E846FFB
:1055F000400E856F800E866F080E876FAC0E886F29
:105600000C0E896F800E8A6F000E8B6F000E8C6FF0
:10561000700E8D6F830E8E6F000E8F6FC00E906FA9
:105620005A0E916F8A0E926F020E936F000E946F56
:10563000430E956FA80E966FA90E976F2D0E986F5B
:10564000330E996F410E9A6F2D0E9B6F410E9C6F1A
:10565000A70E9D6F9E6B000E9F6F800EA06F630E56
:10566000A16F890EA26F000EA36F000EA46F400EF3
:10567000A56F820EA66F000EA76F000EA86F400EDA
:10568000A96F800EAA6F080EAB6FAC0EAC6F0C0E3C
:10569000AD6F800EAE6F000EAF6F000EB06F700E6C
:1056A000B16F830EB26F000EB36FC00EB46F5A0E9F
:1056B000B56F8A0EB66F020EB76F000EB86F430E4D
:1056C000B96FA80EBA6FA90EBB6F2D0EBC6F330E4B
:1056D000BD6F410EBE6F2D0EBF6FE00EC06F4B0E43
:1056E000C16FC26B000EC36F200EC46F620EC56F18
:1056F000890EC66F000EC76F000EC86F400EC96FCF
:10570000820ECA6F000ECB6F000ECC6F400ECD6FB5
:10571000800ECE6FD10ECF6F790ED06F0D0ED16F80
:10572000800ED26F000ED36F000ED46F700ED56F47
:10573000830ED66F000ED76FC00ED86F5A0ED96F7A
:105740008A0EDA6F020EDB6F000EDC6F430EDD6F28
:10575000A80EDE6FA90EDF6F330EE06F410EE16F12
:105760002D0EE26FE00EE36F390EE46F4B0EE56F26
:10577000E66B000EE76F200EE86F620EE96F890E90
:10578000EA6F000EEB6F000EEC6F400EED6F820EB5
:10579000EE6F000EEF6F000EF06F400EF16F800E97
:1057A000F26FD10EF36F790EF46F0D0EF56F800E60
:1057B000F66F000EF76F000EF86F700EF96F830E24
:1057C000FA6F000EFB6FC00EFC6F5A0EFD6F8A0E53
:1057D000FE6F020EFF6F000E0201006F430E016F9D
:1057E000A80E026FA90E036F330E046F410E056FF2
:1057F0002D0E066F410E076F390E086F4B0E096FA5
:105800000A6B000E0B6F200E0C6F620E0D6F890E6F
:105810000E6F000E0F6F000E106F400E116F820E94
:10582000126F000E136F000E146F400E156F800E76
:10583000166FD10E176F790E186F0D0E196F800E3F
:105840001A6F000E1B6F000E1C6F700E1D6F830E03
:105850001E6F000E1F6FC00E206F5A0E216F8A0E32
:10586000226F020E236F000E246F410E256FA80ECB
:10587000266FA80E276F2D0E286F340E296F200E6D
:105880002A6F200E2B6F200E2C6F200E2D6F2E6B8B
:10589000000E2F6FA00E306F290E316F890E326F00
:1058A000000E336F000E346F400E356F820E366F70
:1058B000000E376F000E386F000E396F810E3A6F91
:1058C000D10E3B6F790E3C6F0D0E3D6F800E3E6F1B
:1058D000000E3F6F000E406F700E416F830E426FDF
:1058E000000E436FC00E446F5A0E456F8A0E466F0E
:1058F000020E476F000E486F410E496FA80E4A6FA7
:10590000A80E4B6F4D0E4C6F2D0E4D6F340E4E6F1B
:10591000200E4F6F200E506F200E516F526B000EF5
:10592000536FE00E546F380E556F890E566F000E90
:10593000576F000E586F500E596F820E5A6F000E3F
:105940005B6F000E5C6F000E5D6F810E5E6F080E68
:105950005F6FAC0E606F0C0E616F800E626F000E99
:10596000636F000E646F700E656F830E666F000EBE
:10597000676FC00E686F5A0E696F8A0E6A6F020EEB
:105980006B6F000E6C6F430E6D6FA80E6E6FA90EDD
:105990006F6F2D0E706F340E716F4D0E726FE00EC3
:1059A000736F200E746F200E756F766B000E776F1D
:1059B000A00E786F290E796F890E7A6F000E7B6FBB
:1059C000000E7C6F400E7D6F820E7E6F000E7F6F2B
:1059D000000E806F000E816F810E826FD10E836F7B
:1059E000790E846F0D0E856F800E866F000E876FA7
:1059F000000E886F700E896F830E8A6F000E8B6F9A
:105A0000C00E8C6F5A0E8D6F8A0E8E6F020E8F6FC6
:105A1000000E906F410E916FA80E926FA80E936FBB
:105A20004D0E946F2D0E956F360E966F200E976F5C
:105A3000200E986F200E996F9A6B000E9B6F200EB0
:105A40009C6F0E0E9D6F890E9E6F000E9F6F000E55
:105A5000A06F700EA16F820EA26F000EA36F000EDA
:105A6000A46F400EA56F810EA66F080EA76FAC0E37
:105A7000A86F0C0EA96F800EAA6F000EAB6F000E00
:105A8000AC6F700EAD6F830EAE6F000EAF6FC00EB9
:105A9000B06F5A0EB16F8A0EB26F020EB36F000E66
:105AA000B46F410EB56FA80EB66FA80EB76F360E65
:105AB000B86F2D0EB96F410EBA6FA00EBB6F200EDE
:105AC000BC6F200EBD6FBE6B000EBF6F400EC06F6F
:105AD000620EC16F880EC26F000EC36F000EC46FDE
