:100000009DEF00F0FFFFFFFF0EC050F50CC04FF555
:100010000BC04EF50AC04DF508C04CF507C04BF5B6
:1000200006C04AF505C049F504C048F503C047F5C8
:1000300002C046F501C045F500C044F5E9CFF1F432
:10004000EACFF2F4E1CFF3F4E2CFF4F4F2A439D042
:10005000154A162A18C000F0016AFF0E0014D76E68
:10006000FF0E1714D66E15C000F016C001F0B5ECE7
:1000700043F000C004F001C005F002C006F003C068
:1000800007F019C000F01AC001F01BC002F01CC03C
:1000900003F01BEC3FF0000ED8B0010E006E0052D2
:1000A0000BE0010E8E14006E001E000E00B0010E5B
:1000B0008E18010B8E1A02D00001F26A0001F29430
:1000C000040000019EA015D01EC000F0016AFF0EC2
:1000D0000014CF6EFF0E1D14CE6E046A8EB2042A79
:1000E000041C006E000E00B0020E8E18020B8E1A59
:1000F0009E900001F1C4E9FFF2C4EAFFF3C4E1FFFE
:10010000F4C4E2FF50C50EF04FC50CF04EC50BF025
:100110004DC50AF04CC508F04BC507F04AC506F0BE
:1001200049C505F048C504F047C503F046C502F0CF
:1001300045C501F044C500F0110069EC27F02E0E12
:100140000401F56FF66B2E0EF76FF86B3A0EF96F30
:10015000FA6B1D0ED26E0D0E0C6EFF0E0B6EFF0EA7
:100160000A6E0C2E01D007D00B2E01D003D00A2E20
:10017000FED7FAD7F6D7BF0E0B6EFF0E0A6E0B2E08
:1001800001D003D00A2EFED7FAD72B0E0A6E0A2E04
:10019000FED70000000000009C8E110EC16EBA0E4A
:1001A000C06EFF0E926EFF0E936E1A0E946E966ADC
:1001B000FC0E976E849084928494A16ABD6ABA6A98
:1001C000170EB76E050EBD6E050EBA6E840ED56E97
:1001D000AD0ECD6E620ECA6E620EB16E620E766E9E
:1001E000830E0501096F0F0E0A6F020E0B6F030ECF
:1001F0000C6F040E0D6F050E0E6F830E0F6F0F0E3A
:10020000106F070E116F010E126F060E136FB2EC16
:1002100038F00C0E05013F6F35EC3EF0FA0EC86E5B
:10022000DCEC44F0D08E9F86A1949D6AA06A9E6A01
:10023000D190C00EF26E010E5E6E010E5F6EABEFDE
:1002400015F0D10E0501096F040E0A6F640E0B6FD5
:100250008B0E0C6F000E0D6F3BEC43F0010E050191
:10026000096F020E0A6FD10E0B6F040E0C6F40EC7B
:1002700041F0D10E096F040E0A6F740E0B6F8B0ED6
:100280000C6F000E0D6F3BEC43F0020E0501096F81
:10029000020E0A6FD10E0B6F040E0C6F40EC41F092
:1002A0000D0E0C6EFF0E0B6EFF0E0A6E0C2E01D0A3
:1002B00007D00B2E01D003D00A2EFED7FAD7F6D7DF
:1002C000BF0E0B6EFF0E0A6E0B2E01D003D00A2E4E
:1002D000FED7FAD72B0E0A6E0A2EFED700000000BA
:1002E00000008482060E0C6EFF0E0B6EFF0E0A6E6F
:1002F0000C2E01D007D00B2E01D003D00A2EFED732
:10030000FAD7F6D71A0E0B6EFF0E0A6E0B2E01D01F
:1003100003D00A2EFED7FAD7420E0A6E0A2EFED757
:100320008492010E3F6F35EC3EF0020E5E6E386A2D
:100330001CEF16F043EC40F0D10E0501096F040EDE
:100340000A6F6C0E0B6F8D0E0C6F000E0D6F3BEC79
:1003500043F0010E0501096F010E0A6FD10E0B6FFC
:10036000040E0C6F40EC41F0D10E096F040E0A6FC1
:10037000740E0B6F8D0E0C6F000E0D6F3BEC43F087
:10038000020E0501096F010E0A6FD10E0B6F040EEC
:100390000C6F40EC41F02DC009F5E10E0A6F040E20
:1003A0000B6F9EEC40F0010E0501096F0B0E0A6FFA
:1003B000E3C40BF5ABEC42F0010E0501096F0C0E26
:1003C0000A6FE4C40BF5ABEC42F0010E0501096FB6
:1003D0000D0E0A6F3A0E0B6FABEC42F02CC009F514
:1003E000E10E05010A6F040E0B6F9EEC40F0040154
:1003F000E351200A02E1300EE36F010E0501096F9F
:100400000E0E0A6FE3C40BF5ABEC42F0010E0501D2
:10041000096F0F0E0A6FE4C40BF5ABEC42F02FC06E
:1004200009F5E10E05010A6F040E0B6F9EEC40F01A
:100430000401E351200A02E1300EE36F020E0501D0
:10044000096F060E0A6FE3C40BF5ABEC42F0020E27
:100450000501096F070E0A6FE4C40BF5ABEC42F01F
:10046000020E0501096F080E0A6F2E0E0B6FABEC22
:1004700042F030C009F5E10E05010A6F040E0B6F62
:100480009EEC40F00401E351200A02E1300EE36FDC
:10049000020E0501096F090E0A6FE3C40BF5ABEC00
:1004A00042F0020E0501096F0A0E0A6FE4C40BF553
:1004B000ABEC42F0020E0501096F0B0E0A6F2E0E17
:1004C0000B6FABEC42F0020E0501096F0C0E0A6FC8
:1004D000320E0B6FABEC42F0020E0501096F0D0EF0
:1004E0000A6F300E0B6FABEC42F031C009F5E10E34
:1004F00005010A6F040E0B6F9EEC40F00401E351FE
:10050000200A02E1300EE36F020E0501096F0E0EA4
:100510000A6FE3C40BF5ABEC42F0020E0501096F64
:100520000F0E0A6FE4C40BF5ABEC42F0000E0401B1
:10053000E71902E1010EE61908E1030E5E6E386A62
:10054000010E05013F6F35EC3EF0000E0401E71986
:1005500002E1020EE61908E1030E5E6E386A010E32
:1005600005013F6F35EC3EF0000E0401E71902E192
:10057000050EE61908E1170E5E6E386A010E0501D8
:100580003F6F35EC3EF01CEF16F0D10E0501096F00
:10059000040E0A6F7A0E0B6F8D0E0C6F000E0D6F2E
:1005A0003BEC43F0010E0501096F010E0A6FD10EFD
:1005B0000B6F040E0C6F40EC41F0D10E096F040E6E
:1005C0000A6F820E0B6F8D0E0C6F000E0D6F3BECE1
:1005D00043F0020E0501096F010E0A6FD10E0B6F79
:1005E000040E0C6F40EC41F0000E0401E71902E12B
:1005F000010EE61908E1020E5E6E386A010E050171
:100600003F6F35EC3EF0000E0401E71902E1020EE7
:10061000E61908E1020E5E6E386A010E05013F6FB1
:1006200035EC3EF0000E0401E71902E1030EE61975
:1006300008E10E0E5E6E386A010E05013F6F35EC63
:100640003EF0000E0401E71902E1040EE61908E18C
:10065000040E5E6E386A010E05013F6F35EC3EF008
:100660001CEF16F0D10E0501096F040E0A6F920EF1
:100670000B6F8D0E0C6F000E0D6F3BEC43F0010EF7
:100680000501096F030E0A6FD10E0B6F040E0C6F7C
:1006900040EC41F0020E096F010E0A6F42C000F0FB
:1006A00043C001F0240E046E000E056E66EC43F0AC
:1006B000750E002405010B6F000E01200C6F40EC3D
:1006C00041F0000E0401E71902E1010EE6190FE105
:1006D000424A432A386A800E006E800E4318005C3E
:1006E00002E142501E08040102E2426A436A040128
:1006F000000EE71902E1020EE61913E1010E425E57
:10070000000E435A386A800E4318006E800E005C5B
:1007100002E1000E425C040104E21E0E426E000E75
:10072000436E0401000EE71902E1030EE61908E129
:10073000050E5E6E386A010E05013F6F35EC3EF026
:10074000000E0401E71902E1040EE61908E10D0E9E
:100750005E6E386A010E05013F6F35EC3EF0000E0B
:100760000401E71902E1060EE61908E1030E5E6EC8
:10077000386A010E05013F6F35EC3EF0000E0401B2
:10078000E71902E1050EE619D8A4BDD142C000F078
:1007900043C001F0240E046E000E056E66EC43F0BB
:1007A000750E00240401FF6F000E01200501006F8B
:1007B0000A0E0401FF25E96E000E05010021EA6E14
:1007C000EECF00F0EECF01F0EECF02F0EECF03F06F
:1007D00000C046F001C047F002C048F003C049F035
:1007E000000E046E000E056E000E066E800E076E83
:1007F000A1EC3DF0000E046E000E056E200E066E9C
:10080000850E076E81EC33F000C019F001C01AF0BC
:1008100002C01BF003C01CF00E0E0401FF25E96EA0
:10082000000E05010021EA6EEECF05F5EECF06F5CC
:10083000EECF07F5EECF08F505C565F006C566F005
:1008400007C567F008C568F0120E0401FF25E96EC0
:10085000000E05010021EA6EEECF4AF0EECF4BF01C
:10086000EECF4CF0EECF4DF0160E0401FF25E96EF1
:10087000000E05010021EA6EEECF01F5EECF02F584
:10088000EECF03F5EECF04F501C556F002C557F0E3
:1008900003C558F004C559F01A0E0401FF25E96E8E
:1008A000000E05010021EA6EEECF00F0EECF01F060
:1008B000EECF02F0EECF03F000C04EF001C04FF0DB
:1008C00002C050F003C051F01E0E0401FF25E96E76
:1008D000000E05010021EA6EEECFFBF4EECFFCF432
:1008E000EECFFDF4EECFFEF4FBC469F0FCC46AF079
:1008F000FDC46BF0FEC46CF0220E0401FF25E96E0E
:10090000000E05010021EA6EEECFFFF4EECF00F5F8
:10091000FFC444F000C545F0000E046E000E056EE5
:100920007A0E066E880E076EA1EC3DF0000E046E86
:10093000000E056E610E066E8A0E076EC0EC3BF06F
:1009400001C504F002C505F003C506F004C507F0B3
:10095000C0EC3BF005C504F006C505F007C506F080
:1009600008C507F0A1EC3DF000C05AF001C05BF0F3
:1009700002C05CF003C05DF000C004F001C005F0EF
:1009800002C006F003C007F0000E006E000E016EFC
:10099000000E026E7F0E036EC0EC3BF0800E046E04
:1009A000960E056E180E066E940E076EA1EC3DF0C5
:1009B000000E046E000E056E000E066E840E076EAD
:1009C000C0EC3BF000C004F001C005F002C006F02E
:1009D00003C007F0800E006E010E016E000E026E65
:1009E0008F0E036E02EC45F000C0E8F401C0E9F49C
:1009F00002C0EAF403C0EBF4ACEC3EF000C017F028
:100A000001C018F0000E046E000E056E700E066E2A
:100A1000840E076EFBC400F0FCC401F0FDC402F0BC
:100A2000FEC403F0C0EC3BF000C0FBF401C0FCF4DA
:100A300002C0FDF403C0FEF4FFC400F000C501F0E5
:100A4000B5EC43F0FBC404F0FCC405F0FDC406F0B3
:100A5000FEC407F0A1EC3DF000C061F001C062F0FF
:100A600002C063F003C064F000C004F001C005F0F0
:100A700002C006F003C007F0000E006E000E016E0B
:100A8000000E026E7F0E036EC0EC3BF0800E046E13
:100A9000960E056E180E066E940E076EA1EC3DF0D4
:100AA000000E046E000E056E000E066E810E076EBF
:100AB000C0EC3BF000C004F001C005F002C006F03D
:100AC00003C007F0000E006E070E016E000E026EEE
:100AD0008F0E036E02EC45F000C0ECF401C0EDF4A3
:100AE00002C0EEF403C0EFF4ACEC3EF000C01DF029
:100AF00001C01EF0E00EF26E010E9D6E010E0501AA
:100B00003F6F35EC3EF01CEF16F0D10E0501096F7A
:100B1000040E0A6F9E0E0B6F8D0E0C6F000E0D6F84
:100B20003BEC43F0010E0501096F010E0A6FD10E77
:100B30000B6F040E0C6F40EC41F0000E0401E7193E
:100B400002E1030EE61908E10C0E5E6E386A010E32
:100B500005013F6F35EC3EF0000E0401E71902E19C
:100B6000040EE61908E1040E5E6E386A010E0501F6
:100B70003F6F35EC3EF0000E0401E71902E1050E6F
:100B8000E61908E1060E5E6E386A010E05013F6F38
:100B900035EC3EF0000E0401E71902E1060EE619FD
:100BA00008E1030E5E6E386A010E05013F6F35ECF9
:100BB0003EF01CEF16F0D10E0501096F040E0A6F0E
:100BC000AC0E0B6F8D0E0C6F000E0D6F3BEC43F0F7
:100BD000010E0501096F010E0A6FD10E0B6F040E95
:100BE0000C6F40EC41F0D10E096F040E0A6FB80E85
:100BF0000B6F8D0E0C6F000E0D6F46C00EF547C0CB
:100C00000FF548C010F549C011F58FEC43F0020E06
:100C1000096F010E0A6FD10E0B6F040E0C6F40ECC2
:100C200041F0000E0401E71902E1030EE61908E1A4
:100C3000070E5E6E386A010E05013F6F35EC3EF01F
:100C4000000E0401E71902E1040EE61908E10B0E9B
:100C50005E6E386A010E05013F6F35EC3EF0000E06
:100C60000401E71902E1060EE61908E1050E5E6EC1
:100C7000386A010E05013F6F35EC3EF01CEF16F0AF
:100C8000D10E0501096F040E0A6FBE0E0B6F8D0E9B
:100C90000C6F000E0D6F3BEC43F0010E0501096F68
:100CA000010E0A6FD10E0B6F040E0C6F40EC41F079
:100CB000D10E096F040E0A6FCC0E0B6F8D0E0C6FE8
:100CC000000E0D6F65C00EF566C00FF567C010F51C
:100CD00068C011F58FEC43F0020E096F010E0A6F28
:100CE000D10E0B6F040E0C6F40EC41F0000E0401AE
:100CF000E71902E1030EE61908E1080E5E6E386A94
:100D0000010E05013F6F35EC3EF0000E0401E719BE
:100D100002E1040EE61908E1060E5E6E386A010E65
:100D200005013F6F35EC3EF0000E0401E71902E1CA
:100D3000060EE61908E1050E5E6E386A010E050121
:100D40003F6F35EC3EF01CEF16F0D10E0501096F38
:100D5000040E0A6FD20E0B6F8D0E0C6F000E0D6F0E
:100D60003BEC43F0010E0501096F010E0A6FD10E35
:100D70000B6F040E0C6F40EC41F0D10E096F040EA6
:100D80000A6FE20E0B6F8D0E0C6F000E0D6F4AC0D6
:100D90000EF54BC00FF54CC010F54DC011F58FECA2
:100DA00043F0020E096F010E0A6FD10E0B6F040E95
:100DB0000C6F40EC41F0D10E096F040E0A6FE80E83
:100DC0000B6F8D0E0C6F000E0D6F3BEC43F0020E9F
:100DD0000501096F050E0A6FD10E0B6F040E0C6F23
:100DE00040EC41F0000E0401E71902E1030EE619A0
:100DF00008E1090E5E6E386A010E05013F6F35ECA1
:100E00003EF0000E0401E71902E1040EE61908E1C4
:100E1000070E5E6E386A010E05013F6F35EC3EF03D
:100E2000000E0401E71902E1060EE61908E1050EBD
:100E30005E6E386A010E05013F6F35EC3EF01CEF27
:100E400016F0D10E0501096F040E0A6FEA0E0B6F42
:100E50008D0E0C6F000E0D6F3BEC43F0010E050183
:100E6000096F010E0A6FD10E0B6F040E0C6F40EC70
:100E700041F0D10E096F040E0A6FFA0E0B6F8D0E42
:100E80000C6F000E0D6F56C00EF557C00FF558C011
:100E900010F559C011F58FEC43F0020E096F010EE9
:100EA0000A6FD10E0B6F040E0C6F40EC41F0D10EA7
:100EB000096F040E0A6F000E0B6F8E0E0C6F000E82
:100EC0000D6F3BEC43F0020E0501096F050E0A6F32
:100ED000D10E0B6F040E0C6F40EC41F0000E0401BC
:100EE000E71902E1030EE61908E10A0E5E6E386AA0
:100EF000010E05013F6F35EC3EF0000E0401E719CD
:100F000002E1040EE61908E1080E5E6E386A010E71
:100F100005013F6F35EC3EF0000E0401E71902E1D8
:100F2000060EE61908E1050E5E6E386A010E05012F
:100F30003F6F35EC3EF01CEF16F0D10E0501096F46
:100F4000040E0A6F020E0B6F8E0E0C6F000E0D6FEB
:100F50003BEC43F0010E0501096F010E0A6FD10E43
:100F60000B6F040E0C6F40EC41F0D10E096F040EB4
:100F70000A6F0C0E0B6F8E0E0C6F000E0D6F4EC0B5
:100F80000EF54FC00FF550C010F551C011F58FECA4
:100F900043F0020E096F010E0A6FD10E0B6F040EA3
:100FA0000C6F40EC41F0D10E096F040E0A6F120E67
:100FB0000B6F8E0E0C6F000E0D6F3BEC43F0020EAC
:100FC0000501096F050E0A6FD10E0B6F040E0C6F31
:100FD00040EC41F0000E0401E71902E1030EE619AE
:100FE00008E10B0E5E6E386A010E05013F6F35ECAD
:100FF0003EF0000E0401E71902E1040EE61908E1D3
:10100000090E5E6E386A010E05013F6F35EC3EF049
:10101000000E0401E71902E1060EE61908E1050ECB
:101020005E6E386A010E05013F6F35EC3EF01CEF35
:1010300016F0D10E0501096F040E0A6F180E0B6F22
:101040008E0E0C6F000E0D6F3BEC43F0010E050190
:10105000096F010E0A6FD10E0B6F040E0C6F40EC7E
:1010600041F0D10E096F040E0A6F280E0B6F8E0E21
:101070000C6F000E0D6F69C00EF56AC00FF56BC0E6
:1010800010F56CC011F58FEC43F0020E096F010EE4
:101090000A6FD10E0B6F040E0C6F40EC41F0D10EB5
:1010A000096F040E0A6F2E0E0B6F8E0E0C6F000E62
:1010B0000D6F3BEC43F0020E0501096F0A0E0A6F3B
:1010C000D10E0B6F040E0C6F40EC41F0000E0401CA
:1010D000E71902E1030EE61908E1060E5E6E386AB2
:1010E000010E05013F6F35EC3EF0000E0401E719DB
:1010F00002E1040EE61908E10A0E5E6E386A010E7E
:1011000005013F6F35EC3EF0000E0401E71902E1E6
:10111000060EE61908E1050E5E6E386A010E05013D
:101120003F6F35EC3EF01CEF16F0D10E0501096F54
:10113000040E0A6F360E0B6F8E0E0C6F000E0D6FC5
:101140003BEC43F0010E0501096F010E0A6FD10E51
:101150000B6F040E0C6F40EC41F0D10E096F040EC2
:101160000A6F3A0E0B6F8E0E0C6F000E0D6F3BEC7C
:1011700043F0010E0501096F050E0A6FD10E0B6FCA
:10118000040E0C6F40EC41F0D10E096F040E0A6F93
:101190003E0E0B6F8E0E0C6F000E0D6F4EC00EF5D7
:1011A0004FC00FF550C010F551C011F58FEC43F052
:1011B000010E096F080E0A6FD10E0B6F040E0C6F33
:1011C00040EC41F0D10E096F040E0A6F440E0B6F14
:1011D0008E0E0C6F000E0D6F3BEC43F0010E0501FF
:1011E000096F0B0E0A6FD10E0B6F040E0C6F40ECE3
:1011F00041F0D10E096F040E0A6F4A0E0B6F8E0E6E
:101200000C6F000E0D6F46C00EF547C00FF548C0BD
:1012100010F549C011F58FEC43F0020E096F070E6F
:101220000A6FD10E0B6F040E0C6F40EC41F0D10E23
:10123000096F040E0A6F500E0B6F8E0E0C6F000EAE
:101240000D6F3BEC43F0020E0501096F0C0E0A6FA7
:10125000D10E0B6F040E0C6F40EC41F0000E040138
:10126000E71902E1030EE61908E10D0E5E6E386A19
:10127000010E05013F6F35EC3EF0000E0401E71949
:1012800002E1040EE61908E1050E5E6E386A010EF1
:1012900005013F6F35EC3EF0000E0401E71902E155
:1012A000060EE61908E1030E5E6E386A010E0501AE
:1012B0003F6F35EC3EF01CEF16F0D10E0501096FC3
:1012C000040E0A6F540E0B6F8E0E0C6F000E0D6F16
:1012D0003BEC43F0010E0501096F010E0A6FD10EC0
:1012E0000B6F040E0C6F40EC41F0D10E096F040E31
:1012F0000A6F640E0B6F8E0E0C6F000E0D6F69C0BF
:101300000EF56AC00FF56BC010F56CC011F58FECCF
:1013100043F0020E096F010E0A6FD10E0B6F040E1F
:101320000C6F40EC41F0D10E096F040E0A6F6A0E8B
:101330000B6F8E0E0C6F000E0D6F3BEC43F0020E28
:101340000501096F0A0E0A6FD10E0B6F040E0C6FA8
:1013500040EC41F0000E0401E71902E1030EE6192A
:1013600008E1040E5E6E386A010E05013F6F35EC30
:101370003EF0000E0401E71902E1040EE61908E14F
:101380000C0E5E6E386A010E05013F6F35EC3EF0C3
:10139000000E0401E71902E1060EE61908E1030E4A
:1013A0005E6E386A010E05013F6F35EC3EF01CEFB2
:1013B00016F0D10E0501096F040E0A6F720E0B6F45
:1013C0008E0E0C6F000E0D6F6DC00EF56EC00FF51A
:1013D0006FC010F570C011F58FEC43F0010E096F6E
:1013E000010E0A6FD10E0B6F040E0C6F40EC41F032
:1013F000D10E096F040E0A6F780E0B6F8E0E0C6FF4
:10140000000E0D6F3BEC43F0010E0501096F050E58
:101410000A6FD10E0B6F040E0C6F40EC41F0D10E31
:10142000096F040E0A6F7C0E0B6F8E0E0C6F000E90
:101430000D6F4EC00EF54FC00FF550C010F551C0E6
:1014400011F58FEC43F0010E096F070E0A6FD10EF4
:101450000B6F040E0C6F40EC41F0D10E096F040EBF
:101460000A6F820E0B6F8E0E0C6F000E0D6F3BEC31
:1014700043F0010E0501096F0B0E0A6FD10E0B6FC1
:10148000040E0C6F40EC41F0D10E096F040E0A6F90
:10149000880E0B6F8E0E0C6F000E0D6F46C00EF592
:1014A00047C00FF548C010F549C011F58FEC43F067
:1014B000020E096F010E0A6FD10E0B6F040E0C6F36
:1014C00040EC41F0D10E096F040E0A6F8E0E0B6FC7
:1014D0008E0E0C6F000E0D6F3BEC43F0020E0501FB
:1014E000096F060E0A6FD10E0B6F040E0C6F40ECE5
:1014F00041F0000E0401E71902E1020EE61908E1CD
:101500000F0E5E6E386A010E05013F6F35EC3EF03E
:10151000000E0401E71902E1030EE61908E1160EB8
:101520005E6E386A010E05013F6F35EC3EF0000E2D
:101530000401E71902E1040EE61908E1160E5E6ED9
:10154000386A010E05013F6F35EC3EF0000E0401D4
:10155000E71902E1060EE61908E1030E5E6E386A2D
:10156000010E05013F6F35EC3EF0000E0401E71956
:1015700002E1050EE619D8A466D16DC000F06EC078
:1015800001F06FC002F070C003F0000E046E400E58
:10159000056E1C0E066E8C0E076EA1EC3DF065C04C
:1015A00004F066C005F067C006F068C007F0A1EC63
:1015B0003DF000C0FBF401C0FCF402C0FDF403C028
:1015C000FEF44AC000F04BC001F04CC002F04DC028
:1015D00003F056C004F057C005F058C006F059C0DB
:1015E00007F0A1EC3DF000C004F001C005F002C01E
:1015F00006F003C007F0FBC400F0FCC401F0FDC41A
:1016000002F0FEC403F0C0EC3BF000C046F001C0A5
:1016100047F002C048F003C049F0000E046E000E0F
:10162000056E000E066E800E076EA1EC3DF0000EFA
:10163000046E000E056E200E066E850E076E81ECA0
:1016400033F000C019F001C01AF002C01BF003C053
:101650001CF04EC000F04FC001F050C002F051C06D
:1016600003F0000E046E000E056E7A0E066E880EF4
:10167000076EA1EC3DF0000E046E000E056E610ECB
:10168000066E8A0E076EC0EC3BF056C004F057C0E1
:1016900005F058C006F059C007F0C0EC3BF065C03B
:1016A00004F066C005F067C006F068C007F0A1EC62
:1016B0003DF000C05AF001C05BF002C05CF003C016
:1016C0005DF000C004F001C005F002C006F003C0E8
:1016D00007F0000E006E000E016E000E026E7F0E0F
:1016E000036EC0EC3BF0800E046E960E056E180E75
:1016F000066E940E076EA1EC3DF0000E046E000E17
:10170000056E000E066E840E076EC0EC3BF000C046
:1017100004F001C005F002C006F003C007F0800E1F
:10172000006E010E016E000E026E8F0E036E02EC53
:1017300045F000C0E8F401C0E9F402C0EAF403C0D7
:10174000EBF4ACEC3EF000C017F001C018F0000E56
:10175000046E000E056E700E066E840E076E69C074
:1017600000F06AC001F06BC002F06CC003F0C0EC86
:101770003BF000C0FBF401C0FCF402C0FDF403C068
:10178000FEF444C000F045C001F0B5EC43F0FBC4EA
:1017900004F0FCC405F0FDC406F0FEC407F0A1ECA3
:1017A0003DF000C061F001C062F002C063F003C010
:1017B00064F000C004F001C005F002C006F003C0F0
:1017C00007F0000E006E000E016E000E026E7F0E1E
:1017D000036EC0EC3BF0800E046E960E056E180E84
:1017E000066E940E076EA1EC3DF0000E046E000E26
:1017F000056E000E066E810E076EC0EC3BF000C059
:1018000004F001C005F002C006F003C007F0000EAE
:10181000006E070E016E000E026E8F0E036E02EC5C
:1018200045F000C0ECF401C0EDF402C0EEF403C0DA
:10183000EFF4ACEC3EF000C01DF001C01EF0E00E75
:10184000F26E010E9D6E00011CEF16F0D10E050127
:10185000096F040E0A6F940E0B6F8E0E0C6F000E44
:101860000D6F3BEC43F0010E0501096F010E0A6F8D
:10187000D10E0B6F040E0C6F40EC41F0D10E096FCE
:10188000040E0A6FA40E0B6F8E0E0C6F000E0D6F00
:101890004AC00EF54BC00FF54CC010F54DC011F508
:1018A0008FEC43F0020E096F010E0A6FD10E0B6F21
:1018B000040E0C6F40EC41F0D10E096F040E0A6F5C
:1018C000AA0E0B6F8E0E0C6F000E0D6F3BEC43F0EB
:1018D000020E0501096F050E0A6FD10E0B6F040E83
:1018E0000C6F40EC41F0000E0401E71902E1010E1B
:1018F000E61937E14AC000F04BC001F04CC002F0DD
:101900004DC003F0CD0E046ECC0E056E4C0E066E6F
:101910007C0E076E81EC33F000C04AF001C04BF042
:1019200002C04CF003C04DF0386A00C004F001C0A2
:1019300005F002C006F003C007F0000E006E000EB6
:10194000016E200E026E830E036E1BEC3FF0010E43
:10195000D8B0000E006E005204E04A6A4B6A4C6A2E
:101960004D6A0001000E0401E71902E1020EE619BA
:101970002FE1CD0E046ECC0E056E4C0E066E7C0E65
:10198000076E4AC000F04BC001F04CC002F04DC0E1
:1019900003F002EC45F000C04AF001C04BF002C079
:1019A0004CF003C04DF0386A046A056A066A076A9B
:1019B0001BEC3FF0010ED8B0000E006E005208E0A4
:1019C000000E4A6E000E4B6E200E4C6E830E4D6E56
:1019D0000001000E0401E71902E1030EE61908E117
:1019E000100E5E6E386A010E05013F6F35EC3EF059
:1019F000000E0401E71902E1040EE61908E1150ED4
:101A00005E6E386A010E05013F6F35EC3EF0000E48
:101A10000401E71902E1060EE61908E10E0E5E6EFA
:101A2000386A010E05013F6F35EC3EF0000E0401EF
:101A3000E71902E1050EE619D8B4386A04011CEF73
:101A400016F0D10E0501096F040E0A6FAC0E0B6F74
:101A50008E0E0C6F000E0D6F3BEC43F0010E050176
:101A6000096F010E0A6FD10E0B6F040E0C6F40EC64
:101A700041F0D10E096F040E0A6FBA0E0B6F8E0E75
:101A80000C6F000E0D6F65C00EF566C00FF567C0D8
:101A900010F568C011F58FEC43F0020E096F010ECE
:101AA0000A6FD10E0B6F040E0C6F40EC41F0000E6C
:101AB0000401E71902E1010EE61937E165C000F003
:101AC00066C001F067C002F068C003F0000E046E4B
:101AD000000E056E000E066E7F0E076E81EC33F071
:101AE00000C065F001C066F002C067F003C068F096
:101AF000386A00C004F001C005F002C006F003C05F
:101B000007F0000E006E000E016E200E026E830EB6
:101B1000036E1BEC3FF0010ED8B0000E006E0052B9
:101B200004E0656B666B676B686B0001000E040177
:101B3000E71902E1020EE6192FE1000E046E000E15
:101B4000056E000E066E7F0E076E65C000F066C063
:101B500001F067C002F068C003F002EC45F000C07D
:101B600065F001C066F002C067F003C068F0386A33
:101B7000046A056A066A076A1BEC3FF0010ED8B0DA
:101B8000000E006E005208E0000E656F000E666FDA
:101B9000200E676F830E686F0001000E0401E719C5
:101BA00002E1030EE61908E1110E5E6E386A010EBD
:101BB00005013F6F35EC3EF0000E0401E71902E12C
:101BC000040EE61908E10F0E5E6E386A010E05017B
:101BD0003F6F35EC3EF0000E0401E71902E1060EFE
:101BE000E61908E10E0E5E6E386A010E05013F6FC0
:101BF00035EC3EF0000E0401E71902E1050EE6198E
:101C0000D8B4386A04011CEF16F0D10E0501096F33
:101C1000040E0A6FC00E0B6F8E0E0C6F000E0D6F50
:101C20003BEC43F0010E0501096F010E0A6FD10E66
:101C30000B6F040E0C6F40EC41F0D10E096F040ED7
:101C40000A6FD00E0B6F8E0E0C6F000E0D6F56C00C
:101C50000EF557C00FF558C010F559C011F58FECAF
:101C600043F0020E096F010E0A6FD10E0B6F040EC6
:101C70000C6F40EC41F0D10E096F040E0A6FD60EC6
:101C80000B6F8E0E0C6F000E0D6F3BEC43F0020ECF
:101C90000501096F050E0A6FD10E0B6F040E0C6F54
:101CA00040EC41F0000E0401E71902E1010EE619D3
:101CB00037E156C000F057C001F058C002F059C0DB
:101CC00003F0CD0E046ECC0E056E4C0E066E7B0E30
:101CD000076E81EC33F000C056F001C057F002C02F
:101CE00058F003C059F0386A00C004F001C005F094
:101CF00002C006F003C007F0000E006E000E016E79
:101D0000600E026E800E036E1BEC3FF0010ED8B029
:101D1000000E006E005204E0566A576A586A596A0B
:101D20000001000E0401E71902E1020EE6192FE19D
:101D3000CD0E046ECC0E056E4C0E066E7B0E076E3D
:101D400056C000F057C001F058C002F059C003F06F
:101D500002EC45F000C056F001C057F002C058F048
:101D600003C059F0386A046A056A066A076A1BEC00
:101D70003FF0010ED8B0000E006E005208E0000ED9
:101D8000566E000E576E600E586E800E596E000132
:101D9000000E0401E71902E1030EE61908E1120E34
:101DA0005E6E386A010E05013F6F35EC3EF0000EA5
:101DB0000401E71902E1040EE61908E1100E5E6E57
:101DC000386A010E05013F6F35EC3EF0000E04014C
:101DD000E71902E1060EE61908E10E0E5E6E386A9A
:101DE000010E05013F6F35EC3EF0000E0401E719CE
:101DF00002E1050EE619D8B4386A04011CEF16F0AA
:101E0000D10E0501096F040E0A6FD80E0B6F8E0EEE
:101E10000C6F000E0D6F3BEC43F0010E0501096FD6
:101E2000010E0A6FD10E0B6F040E0C6F40EC41F0E7
:101E3000D10E096F040E0A6FE20E0B6F8E0E0C6F3F
:101E4000000E0D6F4EC00EF54FC00FF550C010F5CF
:101E500051C011F58FEC43F0020E096F010E0A6FAD
:101E6000D10E0B6F040E0C6F40EC41F0D10E096FD8
:101E7000040E0A6FE80E0B6F8E0E0C6F000E0D6FC6
:101E80003BEC43F0020E0501096F050E0A6FD10EFF
:101E90000B6F040E0C6F40EC41F0000E0401E719CB
:101EA00002E1010EE61937E14EC000F04FC001F02B
:101EB00050C002F051C003F0CD0E046ECC0E056E82
:101EC0004C0E066E7B0E076E81EC33F000C04EF0B8
:101ED00001C04FF002C050F003C051F0386A00C09A
:101EE00004F001C005F002C006F003C007F0000EC8
:101EF000006E000E016E480E026E850E036E1BEC26
:101F00003FF0010ED8B0000E006E005204E04E6AA1
:101F10004F6A506A516A0001000E0401E71902E19C
:101F2000020EE6192FE1CD0E046ECC0E056E4C0E9E
:101F3000066E7B0E076E4EC000F04FC001F050C021
:101F400002F051C003F002EC45F000C04EF001C0B9
:101F50004FF002C050F003C051F0386A046A056ABD
:101F6000066A076A1BEC3FF0010ED8B0000E006E47
:101F7000005208E0000E4E6E000E4F6E480E506E7E
:101F8000850E516E0001000E0401E71902E1030EF7
:101F9000E61908E1130E5E6E386A010E05013F6F07
:101FA00035EC3EF0000E0401E71902E1040EE619DB
:101FB00008E1110E5E6E386A010E05013F6F35ECC7
:101FC0003EF0000E0401E71902E1060EE61908E1F1
:101FD0000E0E5E6E386A010E05013F6F35EC3EF065
:101FE000000E0401E71902E1050EE619D8B4386ABB
:101FF00004011CEF16F0D10E0501096F040E0A6FE3
:10200000EE0E0B6F8E0E0C6F000E0D6F3BEC43F05F
:10201000010E0501096F010E0A6FD10E0B6F040E40
:102020000C6F40EC41F0D10E096F040E0A6FFE0EEA
:102030000B6F8E0E0C6F000E0D6F69C00EF56AC02F
:102040000FF56BC010F56CC011F58FEC43F0020E6C
:10205000096F010E0A6FD10E0B6F040E0C6F40EC6E
:1020600041F0D10E096F040E0A6F040E0B6F8F0E34
:102070000C6F000E0D6F3BEC43F0020E0501096F73
:102080000A0E0A6FD10E0B6F040E0C6F40EC41F07C
:10209000000E0401E71902E1010EE61937E169C0FB
:1020A00000F06AC001F06BC002F06CC003F0000EDB
:1020B000046E000E056E480E066E850E076E81ECEE
:1020C00033F000C069F001C06AF002C06BF003C0D9
:1020D0006CF0386A00C004F001C005F002C006F0E0
:1020E00003C007F0000E006E800E016E3B0E026E04
:1020F0008B0E036E1BEC3FF0010ED8B0000E006E8D
:10210000005204E0696B6A6B6B6B6C6B0001000E34
:102110000401E71902E1020EE6192FE1000E046E38
:10212000000E056E480E066E850E076E69C000F043
:102130006AC001F06BC002F06CC003F002EC45F025
:1021400000C069F001C06AF002C06BF003C06CF01F
:10215000386A046A056A066A076A1BEC3FF0010EDA
:10216000D8B0000E006E005208E0000E696F800EBD
:102170006A6F3B0E6B6F8B0E6C6F0001000E0401DB
:10218000E71902E1030EE61908E1140E5E6E386AE3
:10219000010E05013F6F35EC3EF0000E0401E7191A
:1021A00002E1040EE61908E1120E5E6E386A010EB5
:1021B00005013F6F35EC3EF0000E0401E71902E126
:1021C000060EE61908E10E0E5E6E386A010E050174
:1021D0003F6F35EC3EF0000E0401E71902E1050EF9
:1021E000E619D8B4386A04011CEF16F0D10E0501C7
:1021F000096F040E0A6F0C0E0B6F8F0E0C6F000E22
:102200000D6F3BEC43F0010E0501096F010E0A6FE3
:10221000D10E0B6F040E0C6F40EC41F0D10E096F24
:10222000040E0A6F1A0E0B6F8F0E0C6F000E0D6FDF
:1022300044C00EF545C00FF58FEC43F0020E096F58
:10224000010E0A6FD10E0B6F040E0C6F40EC41F0C3
:10225000000E0401E71902E1010EE61917E1010E73
:102260004424046E000E4520056E04C044F005C0F1
:1022700045F0386A800E006E800E0518005C02E1A1
:1022800004500A08040102E2446A456A0401000E8F
:10229000E71902E1020EE61919E1010E445C046E31
:1022A000000E4558056E04C044F005C045F0386A7C
:1022B000800E0518006E800E005C02E1000E045CCA
:1022C000040104E20A0E446E000E456E0401000E85
:1022D000E71902E1030EE61908E1150E5E6E386A91
:1022E000010E05013F6F35EC3EF0000E0401E719C9
:1022F00002E1040EE61908E1130E5E6E386A010E63
:1023000005013F6F35EC3EF0000E0401E71902E1D4
:10231000060EE61908E10E0E5E6E386A010E050122
:102320003F6F35EC3EF0000E0401E71902E1050EA7
:10233000E619D8B4386A04011CEF16F0D10E050175
:10234000096F040E0A6F1E0E0B6F8F0E0C6F000EBE
:102350000D6F3BEC43F0010E0501096F010E0A6F92
:10236000D10E0B6F040E0C6F40EC41F0D10E096FD3
:10237000040E0A6F2E0E0B6F8F0E0C6F000E0D6F7A
:102380006DC00EF56EC00FF56FC010F570C011F581
:102390008FEC43F0020E096F010E0A6FD10E0B6F26
:1023A000040E0C6F40EC41F0D10E096F040E0A6F61
:1023B000340E0B6F8F0E0C6F000E0D6F3BEC43F065
:1023C000020E0501096F0A0E0A6FD10E0B6F040E83
:1023D0000C6F40EC41F0000E0401E71902E1010E20
:1023E000E61937E16DC000F06EC001F06FC002F079
:1023F00070C003F0CD0E046ECC0E056E4C0E066E52
:102400007B0E076E81EC33F000C06DF001C06EF002
:1024100002C06FF003C070F0386A00C004F001C061
:1024200005F002C006F003C007F0000E006E000EBB
:10243000016E480E026E850E036E1BEC3FF0010E1E
:10244000D8B0000E006E005204E06D6B6E6B6F6BC7
:10245000706B0001000E0401E71902E1020EE6199B
:102460002FE1CD0E046ECC0E056E4C0E066E7B0E6B
:10247000076E6DC000F06EC001F06FC002F070C05A
:1024800003F002EC45F000C06DF001C06EF002C038
:102490006FF003C070F0386A046A056A066A076A5A
:1024A0001BEC3FF0010ED8B0000E006E005208E0A9
:1024B000000E6D6F000E6E6F480E6F6F850E706FA1
:1024C0000001000E0401E71902E1030EE61908E11C
:1024D0000F0E5E6E386A010E05013F6F35EC3EF05F
:1024E000000E0401E71902E1040EE61908E1140EDA
:1024F0005E6E386A010E05013F6F35EC3EF0000E4E
:102500000401E71902E1060EE61908E10E0E5E6EFF
:10251000386A010E05013F6F35EC3EF0000E0401F4
:10252000E71902E1050EE619D8B4386A04011CEF78
:1025300016F0D10E0501096F040E0A6F380E0B6FED
:102540008F0E0C6F000E0D6F3BEC43F0010E05017A
:10255000096F010E0A6FD10E0B6F040E0C6F40EC69
:1025600041F0D10E096F040E0A6F480E0B6F8F0EEB
:102570000C6F000E0D6F69C00EF56AC00FF56BC0D1
:1025800010F56CC011F58FEC43F0020E096F010ECF
:102590000A6FD10E0B6F040E0C6F40EC41F0D10EA0
:1025A000096F040E0A6F4E0E0B6F8F0E0C6F000E2C
:1025B0000D6F3BEC43F0020E0501096F0A0E0A6F26
:1025C000D10E0B6F040E0C6F40EC41F0000E0401B5
:1025D000E71902E1030EE61908E10E0E5E6E386A95
:1025E000010E05013F6F35EC3EF0000E0401E719C6
:1025F00002E1040EE61908E10E0E5E6E386A010E65
:1026000005013F6F35EC3EF0000E0401E71902E1D1
:10261000060EE61908E1030E5E6E386A010E05012A
:102620003F6F35EC3EF008D3046A000160BB042A1A
:102630000450000A4AE1608BD10E0501096F040EB7
:102640000A6F5C0E0B6F8D0E0C6F000E0D6F3BEC66
:1026500043F0020E0501096F010E0A6FD10E0B6FD8
:10266000040E0C6F40EC41F0020E096F100E0A6F61
:10267000FC0E0B6FABEC42F0010E0501096F030E6F
:102680000A6FF50E0B6F040E0C6F40EC41F0010E5B
:10269000096F060E0A6FF70E0B6F040E0C6F40ECFD
:1026A00041F0320E166FEFEC44F0300E0501166F5C
:1026B000EFEC44F0010E0501096F0E0E0A6FF90EE2
:1026C0000B6F040E0C6F40EC41F0010E0001601521
:1026D000046E0450000A1CE1608134C009F5E10E6B
:1026E00005010A6F040E0B6F9EEC40F0010E050110
:1026F000096F010E0A6FE3C40BF5ABEC42F0E4C4C2
:1027000016F5EFEC44F0100E05013F6F35EC3EF08E
:10271000046A000160B3042A0450000A22E16083C5
:1027200035C009F5E10E05010A6F040E0B6F9EEC32
:1027300040F00401E351200A02E1300EE36F010E84
:102740000501096F040E0A6FE3C40BF5ABEC42F010
:10275000E4C416F5EFEC44F0100E05013F6F35ECC4
:102760003EF0046A000160B5042A0450000A22E128
:10277000608536C009F5E10E05010A6F040E0B6F86
:102780009EEC40F00401E351200A02E1300EE36FB9
:10279000010E0501096F090E0A6FE3C40BF5ABECDE
:1027A00042F0E4C416F5EFEC44F0100E05013F6F63
:1027B00035EC3EF0046A000160B7042A0450000AB8
:1027C0001CE1608733C009F5E10E05010A6F040EB4
:1027D0000B6F9EEC40F0010E0501096F0C0E0A6FA5
:1027E000E3C40BF5ABEC42F0E4C416F5EFEC44F0B7
:1027F000100E05013F6F35EC3EF0046A000160B930
:10280000042A0450000A22E1608932C009F5E10E71
:1028100005010A6F040E0B6F9EEC40F00401E351BA
:10282000200A02E1300EE36F010E0501096F0F0E61
:102830000A6FE3C40BF5ABEC42F0E4C416F5EFEC21
:1028400044F0100E05013F6F35EC3EF0046A0001C4
:1028500060BD042A0450010A06E1609D100E0501C6
:102860003F6F35EC3EF0000E0401E71902E1050E62
:10287000E61908E1020E5E6E386A010E05013F6F2F
:1028800035EC3EF0000E0401E71902E1030EE619F3
:102890000AE1100EF05D07E2F02B140E05013F6F08
:1028A00035EC3EF0386A000E0401E71902E1040E2F
:1028B000E6190AE1F051010807E2F007100E0501E0
:1028C0003F6F35EC3EF0386A000E0401E71902E173
:1028D000010EE619D8A484D064D0160E345C06E24A
:1028E0000A0E3426386A00016091608D000178D0AC
:1028F00000011F0E345C03E2342A386A6091000143
:102900006FD00001030E355C05E20A0E3526386AE9
:102910006093608D000164D000010C0E355C03E211
:10292000352A386A609300015BD00001590E365C8D
:1029300005E20A0E3626386A6095608D000150D097
:102940000001630E365C03E2362A386A60950001A6
:1029500047D000010E0E335C05E20A0E3326386ABA
:102960006097608D00013CD00001170E335C03E2DC
:10297000332A386A6097000133D00001310E325C8F
:1029800005E20A0E3226386A6099608D000128D06F
:1029900000013B0E325C03E2322A386A6099000182
:1029A0001FD00401F051010A98E0F051020AA0E0A2
:1029B000F051040AA6E0F051050AAEE0F051090A10
:1029C000B4E0F0510A0ABCE0F0510C0AC2E0F05148
:1029D0000D0ACAE0F0510F0AD0E0F051100AD8E019
:1029E0000401000EE71902E1020EE619D8A484D012
:1029F00064D034500A0806E20A0E345E386A0001D8
:102A00006091608D000178D000013450010803E22C
:102A10003406386A609100016FD0000135500A0811
:102A200005E20A0E355E386A6093608D000164D05D
:102A300000013550010803E23506386A6093000151
:102A40005BD0000136500A0805E20A0E365E386A8D
:102A50006095608D000150D000013650000803E2FF
:102A60003606386A6095000147D0000133500908E6
:102A700005E20A0E335E386A6097608D00013CD033
:102A800000013350000803E23306386A6097000102
:102A900033D000013250090805E20A0E325E386A6E
:102AA0006099608D000128D000013250000803E2D7
:102AB0003206386A609900011FD00401F051010A02
:102AC00098E0F051020AA0E0F051040AA6E0F051AB
:102AD000050AAEE0F051090AB4E0F0510A0ABCE080
:102AE000F0510C0AC2E0F0510D0ACAE0F0510F0A91
:102AF000D0E0F051100AD8E00401000EE71902E11D
:102B0000060EE61927E13EEC42F0010E2E6E2B6A0E
:102B1000030E0C6EFF0E0B6EFF0E0A6E0C2E01D014
:102B200007D00B2E01D003D00A2EFED7FAD7F6D746
:102B30008C0E0B6EFF0E0A6E0B2E01D003D00A2EE8
:102B4000FED7FAD7A10E0A6E0A2EFED70000F2ECCD
:102B500040F0386A71D05E50010AD8B421EF01F01C
:102B60005E50020AD8B49AEF01F05E50030AD8B45E
:102B7000C5EF02F05E50040AD8B432EF03F05E50A5
:102B8000050AD8B485EF05F05E50060AD8B4DBEF2D
:102B900005F05E50070AD8B440EF06F05E50080A10
:102BA000D8B4A5EF06F05E50090AD8B421EF07F0BB
:102BB0005E500A0AD8B49DEF07F05E500B0AD8B4F5
:102BC00019EF08F05E500C0AD8B495EF08F05E508B
:102BD0000D0AD8B45DEF09F05E500E0AD8B4D9EFF3
:102BE00009F05E500F0AD8B426EF0CF05E50100AC0
:102BF000D8B421EF0DF05E50110AD8B405EF0EF0F5
:102C00005E50120AD8B400EF0FF05E50130AD8B429
:102C1000FBEF0FF05E50140AD8B4F6EF10F05E50E0
:102C2000150AD8B49EEF11F05E50160AD8B481D4BC
:102C30005E50170AD8B4F8D4DAEC3AF000C0E6F4E3
:102C4000000E00BEFF0E0401E76F1FEF01F0FFD77B
:102C5000280E05011D6F6E0E1E6F750E1F6F6C0E18
:102C6000206F6C0E216F290E226F236B2B6B2C6B48
:102C7000296B2A6B050118C500F019C501F01AC5AA
:102C800002F0010E1827000E19231A2300C0F6FFC8
:102C900001C0F7FF02C0F8FF0900F5CF00F000C047
:102CA00026F50052D8B464EF27F02651250A0BE030
:102CB00016C5E1FF17C5E2FF26C5E6FF164B172B29
:102CC0002B4B2C2BD7D7276B286B296B2A6B050135
:102CD00023D02987010E1827000E19231A235AD052
:102CE0002981010E1827000E19231A2353D0298396
:102CF000010E1827000E19231A234CD02A87010E23
:102D00001827000E19231A2345D02985010E1827EC
:102D1000000E19231A233ED0050118C5F6FF19C568
:102D2000F7FF1AC5F8FF0900F5CF37F537512D0A1F
:102D3000D0E018C5F6FF19C5F7FF1AC5F8FF09005E
:102D4000F5CF37F53751200ACBE018C5F6FF19C586
:102D5000F7FF1AC5F8FF0900F5CF37F537512B0AF1
:102D6000C6E018C5F6FF19C5F7FF1AC5F8FF090038
:102D7000F5CF37F53751230AC1E018C5F6FF19C55D
:102D8000F7FF1AC5F8FF0900F5CF37F53751300ABC
:102D9000BCE001D09CD7050129B3299129B7299519
:102DA00018C5F6FF19C5F7FF1AC5F8FF0900F5CFDA
:102DB00000F0000E016E00C03FF5C2EC44F000527E
:102DC00038E00501276B286B27C500F028C501F006
:102DD0000A0E046E000E056E77EC42F018C5F6FF81
:102DE00019C5F7FF1AC5F8FF0900F5CF37F505013A
:102DF00037510024276F000E0120286F300E275F07
:102E0000000E285B010E1827000E19231A2318C57F
:102E1000F6FF19C5F7FF1AC5F8FF0900F5CF00F056
:102E2000000E016E00C03FF5C2EC44F00052CCE150
:102E300036D018C5F6FF19C5F7FF1AC5F8FF090007
:102E4000F5CF37F5050137512A0A29E11BC5E9FFFE
:102E50001CC5EAFFEECF00F0EECF01F000C0E9FFA5
:102E600001C0EAFFEECF27F5EECF28F51BC5E9FF3D
:102E70001CC5EAFFEECF00F0EECF01F0020E0026F7
:102E8000000E01221BC5E1FF1CC5E2FF00C0E6FFEA
:102E900001C0E6FF010E1827000E19231A230501B1
:102EA00018C5F6FF19C5F7FF1AC5F8FF0900F5CFD9
:102EB00037F537512E0A74E1010E1827000E192339
:102EC0001A2318C5F6FF19C5F7FF1AC5F8FF090040
:102ED000F5CF37F537512A0A2AE11BC5E9FF1CC592
:102EE000EAFFEECF00F0EECF01F000C0E9FF01C035
:102EF000EAFFEECF24F5EECF25F51BC5E9FF1CC593
:102F0000EAFFEECF00F0EECF01F0020E0026000E39
:102F100001221BC5E1FF1CC5E2FF00C0E6FF01C0A6
:102F2000E6FF010E1827000E19231A2337D0246B51
:102F3000256B18C5F6FF19C5F7FF1AC5F8FF09007C
:102F4000F5CF00F0000E016E00C03FF5C2EC44F07A
:102F5000005224E024C500F025C501F00A0E046EDD
:102F6000000E056E77EC42F018C5F6FF19C5F7FFA5
:102F70001AC5F8FF0900F5CF37F5050137510024D0
:102F8000246F000E0120256F300E245F000E255B9C
:102F9000010E1827000E19231A23CBD7050104D0E0
:102FA0000501246B256B2A89050118C500F019C598
:102FB00001F01AC502F0010E1827000E19231A237A
:102FC00000C0F6FF01C0F7FF02C0F8FF0900F5CF0F
:102FD00026F5EDD02BC500F02CC501F01200298993
:102FE000E3D72A851FD1298B2A811CD12A831AD1A4
:102FF000298D18D117D1298B298F14D11BC5E9FF31
:103000001CC5EAFFEECF00F0EECF01F000C0E9FFF3
:1030100001C0EAFFEECF33F5EECF34F51BC5E9FF73
:103020001CC5EAFFEECF00F0EECF01F0020E002645
:10303000000E01221BC5E1FF1CC5E2FF00C0E6FF38
:1030400001C0E6FF000E341902E1000E331904E15D
:103050001D0E336F050E346F0501356B366B355120
:103060003325E96E36513421EA6EEECF00F000527E
:1030700003E0354B362BF3D7245125110AE03651A6
:10308000255D02E13551245D04E224C535F525C5F1
:1030900036F505012851365D02E12751355D05E21F
:1030A0003551275F3651285B03D00501276B286B0C
:1030B00029B716D027C500F028C501F0010E275FFB
:1030C000000E285B005001100BE016C5E1FF17C58C
:1030D000E2FF200EE66E164B172B2B4B2C2BEAD75C
:1030E00035C500F036C501F0010E355F000E365BC8
:1030F0000050011013E033C5E9FF34C5EAFFEECFFD
:1031000000F016C5E1FF17C5E2FF00C0E6FF164B51
:10311000172B334B342B2B4B2C2BE2D729A716D054
:1031200027C500F028C501F0010E275F000E285BBF
:10313000005001100BE016C5E1FF17C5E2FF200E9D
:10314000E66E164B172B2B4B2C2BEAD793D51BC5B2
:10315000E9FF1CC5EAFFEECF00F0EECF01F000C0A2
:10316000E9FF01C0EAFFEECF26F51BC5E9FF1CC54C
:10317000EAFFEECF00F0EECF01F0020E0026000EC7
:1031800001221BC5E1FF1CC5E2FF00C0E6FF01C034
:10319000E6FF260E336F050E346F010E356F000EFD
:1031A000366F6AD7C00E2913000E2A133BD0265162
:1031B000000AD8B40FD726516C0AD8B410D72651BC
:1031C000660AD8B40ED72651450AD8B40CD7265172
:1031D000650AD8B409D72651670AD8B407D726514B
:1031E0006F0AD8B405D72651640AD8B403D726513C
:1031F000690AD8B4FFD62651700AD8B4FCD6265135
:10320000580AD8B4F8D62651780AD8B4F5D626513B
:10321000730AD8B4F3D62651630A99E02651750A89
:10322000C1E0B7D70501000E2915006E2A51070B22
:10323000016E00500110D8B49DEF22F02AA904D0ED
:10324000060E246F000E256F1BC5E9FF1CC5EAFFA3
:10325000EECF00F0EECF01F000C0E9FF01C0EAFFC1
:10326000EECF2DF5EECF2EF5EECF2FF5EECF30F5DC
:103270001BC5E9FF1CC5EAFFEECF00F0EECF01F061
:10328000040E0026000E01221BC5E1FF1CC5E2FF53
:1032900000C0E6FF01C0E6FF046A056A066A076A25
:1032A0002DC500F02EC501F02FC502F030C503F08A
:1032B0001BEC3FF0010ED8B0000E006E005206E08D
:1032C00005012F7F030E2913000E2A130501316B10
:1032D000326B2DC500F02EC501F02FC502F030C5B0
:1032E00003F0046A056A066A076AF9EC43F0000E07
:1032F000D8A4010E006E0052D8B49AD030C500F0A8
:10330000016A026A036AFF0E001405013B6F000E9A
:103310003C6F000E3C177E0E376F000E386F396F12
:103320003A6F37513B5D006E38513C59016E00C019
:1033300031F501C032F5010E005C316F000E01580D
:10334000326F31C500F032C501F0030E046E000E7D
:10335000056E77EC42F000C031F501C032F50A0E7F
:10336000046E000E056E83EC3FF000C031F501C025
:1033700032F5800E01180501376F800E375D02E1CE
:10338000000E005C04E2010E315F000E325B0501AD
:10339000315100083F6F7CEC30F02DC504F02EC594
:1033A00005F02FC506F030C507F0A1EC3DF000C0D8
:1033B00033F501C034F502C035F503C036F5000E13
:1033C000046E000E056E000E066E7F0E076E33C58E
:1033D00000F034C501F035C502F036C503F01BEC32
:1033E0003FF0010ED8B0000E006E005206E0010E54
:1033F0000501315F000E325B1BD0000E046E000E23
:10340000056E200E066E820E076E33C500F034C5C1
:1034100001F035C502F036C503F01BEC3FF0000E9D
:10342000D8B0010E006E005203E00501314B322B83
:103430000501800E006E800E05013219005C02E16C
:103440003151000803E3010E266F03D0050131C599
:1034500026F52AB11AD02AA315D0800E3219006E93
:103460007F0E005C02E1FC0E315D0AE3800E321932
:10347000006E800E2519005C02E12451315D02E3EB
:10348000050103D0050189EF1EF005012451251126
:1034900006E02AA304D0010E245F000E255B000E77
:1034A000006E2551005C02E12451080803E2080E79
:1034B000266F03D0050124C526F52DC500F02EC5C5
:1034C00001F02FC502F030C503F0046A056A066AF0
:1034D000076AF9EC43F0000ED8A4010E006E00520A
:1034E000D8B464D131C53FF57CEC30F000C004F0B5
:1034F00001C005F002C006F003C007F02DC500F0C2
:103500002EC501F02FC502F030C503F0C0EC3BF032
:1035100000C02DF501C02EF502C02FF503C030F517
:103520000501265100083F6F7CEC30F000C004F02C
:1035300001C005F002C006F003C007F02DC500F081
:103540002EC501F02FC502F030C503F0C0EC3BF0F2
:1035500000C037F501C038F502C039F503C03AF5AF
:1035600037C52DF538C52EF539C52FF53AC530F5D7
:1035700037C500F038C501F039C502F03AC503F08F
:103580006AEC3CF026EC44F000C004F001C005F009
:1035900002C006F003C007F037C500F038C501F0DF
:1035A00039C502F03AC503F002EC45F0000E046E96
:1035B000000E056E000E066E7E0E076E1BEC3FF0D1
:1035C000000ED8B0010E006E00521AE02DC500F0BA
:1035D0002EC501F02FC502F030C503F0000E046EB9
:1035E000000E056E000E066E7E0E076E81EC33F047
:1035F00000C02DF501C02EF502C02FF503C030F537
:103600002DC500F02EC501F02FC502F030C503F026
:103610006AEC3CF000C03BF501C03CF502C03DF552
:1036200003C03EF505012651010F006E016A000E30
:103630000122020E046E000E01BEFF0E026E036E2A
:103640000450050107E000360090013602360336CB
:10365000FF0FF7D70501960E00268A0E0122000EF5
:10366000022200C0F6FF01C0F7FF02C0F8FF090008
:10367000F5CF37F50900F5CF38F50900F5CF39F565
:103680000900F5CF3AF53A513E5D08E139513D5D0B
:1036900005E138513C5D02E137513B5D1EE32DC52C
:1036A00000F02EC501F02FC502F030C503F0CD0E9D
:1036B000046ECC0E056E4C0E066E7B0E076EA1ECF2
:1036C0003DF000C02DF501C02EF502C02FF503C05E
:1036D00030F50501314B322B69D005012DC500F0C5
:1036E0002EC501F02FC502F030C503F06AEC3CF0A6
:1036F00000C03BF501C03CF502C03DF503C03EF5FE
:10370000020E046E26C500F0000E016E026E036EFE
:103710000450000107E000360090013602360336FF
:10372000FF0FF7D7960E00268A0E0122000E022206
:1037300000C0F6FF01C0F7FF02C0F8FF0900F5CF97
:1037400037F50900F5CF38F50900F5CF39F509004F
:10375000F5CF3AF505013A513E5D08E139513D5D3D
:1037600005E138513C5D02E137513B5D1FE22DC55B
:1037700000F02EC501F02FC502F030C503F0000E99
:10378000046E000E056E200E066E820E076EA1EC12
:103790003DF000C02DF501C02EF502C02FF503C08D
:1037A00030F5010E0501315F000E325B05012AA3E1
:1037B00098D02AB796D0800E000A006E800E251988
:1037C000005C02E124510A0804E20A0E246F000E94
:1037D000256F05012DC500F02EC501F02FC502F0A3
:1037E00030C503F06AEC3CF000C033F501C034F59D
:1037F00002C035F503C036F50501335134113511DA
:10380000361144E00A0E046E000E056E066E076E59
:1038100033C500F034C501F035C502F036C503F0FC
:1038200028EC37F008C000F009C001F00AC002F02F
:103830000BC003F0000E0501376F031808E1375184
:10384000021805E13751011802E10050000A1EE19B
:10385000010E0501245F000E255B0A0E046E000EAA
:10386000056E066E076E33C500F034C501F035C530
:1038700002F036C503F028EC37F000C033F501C084
:1038800034F502C035F503C036F5B6D7800E050114
:103890002519006E800E005C02E12651245D21E2B4
:1038A0002451265D3F6F7CEC30F000C004F001C075
:1038B00005F002C006F003C007F02DC500F02EC5CC
:1038C00001F02FC502F030C503F0C0EC3BF000C0A2
:1038D0002DF501C02EF502C02FF503C030F524C52B
:1038E00026F50001050E05012425006E000E252198
:1038F000016E0050275F0150285B2451251102E121
:103900002AA704D0010E275F000E285B030E29159D
:10391000006E2AC501F0000E01160050011004E0EF
:10392000010E275F000E285B29A54AD029A31AD0D3
:10393000010E2915006E2AC501F0000E0116005077
:10394000011003E02D0E006E02D02B0E006E16C586
:10395000E1FF17C5E2FF00C0E6FF164B172B2B4B0C
:103960002C2B14D0010E2915006E2AC501F0000E73
:103970000116005001100AE016C5E1FF17C5E2FF6D
:10398000200EE66E164B172B2B4B2C2B800E006E49
:10399000800E2819005C02E1275100080FE216C5CD
:1039A000E1FF17C5E2FF300EE66E164B172B2B4BCF
:1039B0002C2B010E275F000E285BE8D705014BD0AA
:1039C00029B718D0800E006E800E2819005C02E125
:1039D000275100080FE216C5E1FF17C5E2FF200ED0
:1039E000E66E164B172B2B4B2C2B010E275F000E70
:1039F000285BE8D7050129A31AD0010E2915006E0E
:103A00002AC501F0000E01160050011003E02D0E32
:103A1000006E02D02B0E006E16C5E1FF17C5E2FF47
:103A200000C0E6FF164B172B2B4B2C2B14D0010E8E
:103A30002915006E2AC501F0000E01160050011074
:103A40000AE016C5E1FF17C5E2FF200EE66E164B31
:103A5000172B2B4B2C2B05012DC500F02EC501F08B
:103A60002FC502F030C503F06AEC3CF000C033F51E
:103A700001C034F502C035F503C036F5020E046E00
:103A800026C500F0000E016E026E036E04500001A8
:103A900007E000360090013602360336FF0FF7D7F5
:103AA000960E00268A0E0122000E022200C0F6FFAA
:103AB00001C0F7FF02C0F8FF0900F5CF04F00900CC
:103AC000F5CF05F00900F5CF06F00900F5CF07F0B6
:103AD00033C500F034C501F035C502F036C503F03A
:103AE00028EC37F0300E002616C5E1FF17C5E2FFBF
:103AF00000C0E6FF0501164B172B2B4B2C2B245136
:103B0000251102E12AA776D016C5E1FF17C5E2FF0D
:103B10002E0EE66E0501164B172B2B4B2C2B265128
:103B2000245F000E255B265353E02607020E046E29
:103B300026C500F0000E016E026E036E04500501F2
:103B400007E000360090013602360336FF0FF7D744
:103B5000960E00268A0E0122000E022200C0F6FFF9
:103B600001C0F7FF02C0F8FF0900F5CF04F009001B
:103B7000F5CF05F00900F5CF06F00900F5CF07F005
:103B800033C500F034C501F035C502F036C503F089
:103B900028EC37F00A0E046E000E056E066E076EF6
:103BA00028EC37F008C000F009C001F00AC002F0AC
:103BB0000BC003F0300E002616C5E1FF17C5E2FF6B
:103BC00000C0E6FF0501164B172B2B4B2C2BABD758
:103BD000245125110FE016C5E1FF17C5E2FF300E95
:103BE000E66E164B172B2B4B2C2B010E245F000E71
:103BF000255BEED729AB0BD016C5E1FF17C5E2FF59
:103C0000450EE66E164B172B2B4B2C2B0AD016C5E8
:103C1000E1FF17C5E2FF650EE66E164B172B2B4B27
:103C20002C2B800E3219006E800E005C02E1000E1B
:103C3000315D12E231510008316F32C532F5E86A68
:103C4000325716C5E1FF17C5E2FF2D0EE66E164B83
:103C5000172B2B4B2C2B0BD0050116C5E1FF17C5DD
:103C6000E2FF2B0EE66E164B172B2B4B2C2B0A0E5E
:103C7000046E000E056E31C500F032C501F083EC14
:103C80003FF0300E002616C5E1FF17C5E2FF00C069
:103C9000E6FF0501164B172B2B4B2C2B0A0E046E3F
:103CA000000E056E31C500F032C501F083EC3FF027
:103CB00008C000F009C001F0300E002616C5E1FF73
:103CC00017C5E2FF00C0E6FF0501164B172B2B4B73
:103CD0002C2B29A71BD0800E006E800E2819005CAB
:103CE00002E12751000812E216C5E1FF17C5E2FF05
:103CF000200EE66E0501164B172B2B4B2C2B010EBD
:103D0000275F000E285B27512811EEE105013AEFED
:103D100016F005012AA3FDD0800E3219006E800E28
:103D2000005C02E1000E315D0AE2010E315D006EC1
:103D3000000E3259016E0050245F0150255B2DC5E5
:103D400000F02EC501F02FC502F030C503F06AEC7B
:103D50003CF000C033F501C034F502C035F503C0B6
:103D600036F5010E0501266F26510A0A39E0020ECA
:103D7000046E26C500F0000E016E026E036E045044
:103D8000050107E000360090013602360336FF0FCA
:103D9000F7D70501960E00268A0E0122000E022298
:103DA00000C0F6FF01C0F7FF02C0F8FF0900F5CF21
:103DB00037F50900F5CF38F50900F5CF39F50900D9
:103DC000F5CF3AF53A51365D08E13951355D05E1F7
:103DD0003851345D02E13751335D02E3262BC4D7FD
:103DE00005012651245D3B6F000E25593C6F3BC5F4
:103DF00024F53CC525F533C500F034C501F035C5C3
:103E000002F036C503F026EC44F000C004F001C017
:103E100005F002C006F003C007F02DC500F02EC566
:103E200001F02FC502F030C503F002EC45F000C0F0
:103E300037F501C038F502C039F503C03AF53BC586
:103E40003FF57CEC30F037C504F038C505F039C5D6
:103E500006F03AC507F0A1EC3DF0000E046E000E2E
:103E6000056E000E066E7E0E076E81EC33F06AEC76
:103E70003CF000C033F501C034F502C035F503C095
:103E800036F505012451251144E00A0E046E000E9A
:103E9000056E066E076E33C500F034C501F035C5FA
:103EA00002F036C503F028EC37F008C000F009C076
:103EB00001F00AC002F00BC003F0000E0501376FDD
:103EC000031808E13751021805E13751011802E1E2
:103ED0000050000A1EE10A0E046E000E056E066E0A
:103EE000076E33C500F034C501F035C502F036C5A4
:103EF00003F028EC37F000C033F501C034F502C000
:103F000035F503C036F5010E0501245F000E255B73
:103F1000B8D70501800E006E800E05012519005CE2
:103F200002E124510C0816E324C53FF595EC35F069
:103F30002DC504F02EC505F02FC506F030C507F0DD
:103F400081EC33F000C02DF501C02EF502C02FF535
:103F500003C030F52DC500F02EC501F02FC502F0CD
:103F600030C503F0046A056A066A076AF9EC43F093
:103F7000000ED8A4010E006E0052D8B478D02DC522
:103F800000F02EC501F02FC502F030C503F06AEC39
:103F90003CF0000E0501376F031808E13751021895
:103FA00005E13751011802E10050000A60E1800E7E
:103FB000006E800E3219005C02E13151010857E2B7
:103FC00031C53FF57CEC30F000C004F001C005F0D5
:103FD00002C006F003C007F02DC500F02EC501F0A9
:103FE0002FC502F030C503F0C0EC3BF05F0E046E4D
:103FF000700E056E090E066E810E076E1BEC3FF00B
:10400000010ED8B0000E006E005206E0090E050148
:10401000315F000E325B05D0080E0501315F000EE6
:10402000325B31C53FF57CEC30F000C004F001C0DC
:1040300005F002C006F003C007F02DC500F02EC544
:1040400001F02FC502F030C503F0C0EC3BF06AEC84
:104050003CF000C033F501C034F502C035F503C0B3
:1040600036F505012D6B2E6B2F6B306B39D02DC5BE
:1040700000F02EC501F02FC502F030C503F06AEC48
:104080003CF000C033F501C034F502C035F503C083
:1040900036F533C500F034C501F035C502F036C53C
:1040A00003F026EC44F000C004F001C005F002C0AB
:1040B00006F003C007F02DC500F02EC501F02FC596
:1040C00002F030C503F002EC45F000C02DF501C050
:1040D0002EF502C02FF503C030F50501316B326BB0
:1040E000010E266F26510A0A39E0020E046E26C51B
:1040F00000F0000E016E026E036E0450050107E031
:1041000000360090013602360336FF0FF7D705015F
:10411000960E00268A0E0122000E022200C0F6FF33
:1041200001C0F7FF02C0F8FF0900F5CF37F509001D
:10413000F5CF38F50900F5CF39F50900F5CF3AF597
:104140003A51365D08E13951355D05E13851345D4C
:1041500002E13751335D02E3262BC4D70501265116
:104160002425006E000E2521016E315100263251AA
:1041700001220050275F0150285B2AB703D0245149
:10418000251104E0010E275F000E285B030E2915A0
:10419000006E2AC501F0000E01160050011004E067
:1041A000010E275F000E285B29A54AD029A31AD04B
:1041B000010E2915006E2AC501F0000E01160050EF
:1041C000011003E02D0E006E02D02B0E006E16C5FE
:1041D000E1FF17C5E2FF00C0E6FF164B172B2B4B84
:1041E0002C2B14D0010E2915006E2AC501F0000EEB
:1041F0000116005001100AE016C5E1FF17C5E2FFE5
:10420000200EE66E164B172B2B4B2C2B800E006EC0
:10421000800E2819005C02E1275100080FE216C544
:10422000E1FF17C5E2FF300EE66E164B172B2B4B46
:104230002C2B010E275F000E285BE8D705014BD021
:1042400029B718D0800E006E800E2819005C02E19C
:10425000275100080FE216C5E1FF17C5E2FF200E47
:10426000E66E164B172B2B4B2C2B010E275F000EE7
:10427000285BE8D7050129A31AD0010E2915006E85
:104280002AC501F0000E01160050011003E02D0EAA
:10429000006E02D02B0E006E16C5E1FF17C5E2FFBF
:1042A00000C0E6FF164B172B2B4B2C2B14D0010E06
:1042B0002915006E2AC501F0000E011600500110EC
:1042C0000AE016C5E1FF17C5E2FF200EE66E164BA9
:1042D000172B2B4B2C2B050126C500F0260700526F
:1042E00052E0020E046E26C500F0000E016E026E52
:1042F000036E0450050107E00036009001360236D7
:104300000336FF0FF7D7960E00268A0E0122000E05
:10431000022200C0F6FF01C0F7FF02C0F8FF09004B
:10432000F5CF04F00900F5CF05F00900F5CF06F050
:104330000900F5CF07F033C500F034C501F035C5ED
:1043400002F036C503F028EC37F00A0E046E000EBA
:10435000056E066E076E28EC37F008C000F009C045
:1043600001F00AC002F00BC003F0300E002616C5A3
:10437000E1FF17C5E2FF00C0E6FF0501164B172B52
:104380002B4B2C2BA8D7800E006E800E3219005CB0
:1043900002E1315100080FE216C5E1FF17C5E2FF47
:1043A000300EE66E164B172B2B4B2C2B010E315F6C
:1043B000000E325BE8D70501800E000A006E800E09
:1043C0002519005C02E12451080803E2080E266F5B
:1043D00003D0050124C526F52651245F000E255B78
:1043E000265302E12AA70AD016C5E1FF17C5E2FF4E
:1043F0002E0EE66E164B172B2B4B2C2B26C53FF59E
:104400007CEC30F02DC504F02EC505F02FC506F06C
:1044100030C507F0A1EC3DF007EC3DF000C033F5EE
:1044200001C034F502C035F503C036F50501265349
:1044300053E02607020E046E26C500F0000E016E42
:10444000026E036E0450050107E00036009001364D
:1044500002360336FF0FF7D7960E00268A0E01228A
:10446000000E022200C0F6FF01C0F7FF02C0F8FFF5
:104470000900F5CF04F00900F5CF05F00900F5CFEC
:1044800006F00900F5CF07F033C500F034C501F0A0
:1044900035C502F036C503F028EC37F00A0E046E7D
:1044A000000E056E066E076E28EC37F008C000F0AF
:1044B00009C001F00AC002F00BC003F0300E002664
:1044C00016C5E1FF17C5E2FF00C0E6FF0501164B68
:1044D000172B2B4B2C2BAAD7245125110FE016C5D7
:1044E000E1FF17C5E2FF300EE66E164B172B2B4B84
:1044F0002C2B010E245F000E255BEED729A71AD0C6
:10450000800E006E800E2819005C02E12751000821
:1045100011E216C5E1FF17C5E2FF200EE66E164B4D
:10452000172B2B4B2C2B010E275F000E285B2751DE
:104530002811EFE105013AEF16F0C00E2915376F8B
:104540002AC538F5000E3817000E381902E1000EA2
:104550003719D8A482D029A929D01BC5E9FF1CC5C9
:10456000EAFFEECF00F0EECF01F000C0E9FF01C09E
:10457000EAFFEECF33F5EECF34F5EECF35F5EECFE3
:1045800036F51BC5E9FF1CC5EAFFEECF00F0EECF04
:1045900001F0040E0026000E01221BC5E1FF1CC520
:1045A000E2FF00C0E6FF01C0E6FF2ED01BC5E9FF19
:1045B0001CC5EAFFEECF00F0EECF01F000C0E9FF2E
:1045C00001C0EAFFEECF33F5EECF34F5000E34BF75
:1045D000FF0E356F366F000E34BFFF0E356F366F2E
:1045E0001BC5E9FF1CC5EAFFEECF00F0EECF01F0DE
:1045F000020E0026000E01221BC5E1FF1CC5E2FFD2
:1046000000C0E6FF01C0E6FF800E3619006E800E86
:10461000005C08E1000E355D05E1000E345D02E14D
:10462000000E335D18E2030E2913000E2A13006AF0
:10463000016A026A036A3351005E3451015A3551EE
:10464000025A3651035A00C033F501C034F502C096
:1046500035F503C036F5050156D0050129A929D045
:104660001BC5E9FF1CC5EAFFEECF00F0EECF01F05D
:1046700000C0E9FF01C0EAFFEECF33F5EECF34F51D
:10468000EECF35F5EECF36F51BC5E9FF1CC5EAFFC9
:10469000EECF00F0EECF01F0040E0026000E012256
:1046A0001BC5E1FF1CC5E2FF00C0E6FF01C0E6FF3D
:1046B0002AD01BC5E9FF1CC5EAFFEECF00F0EECF04
:1046C00001F000C0E9FF01C0EAFFEECF33F5EECF05
:1046D00034F5000E356F366F000E356F366F1BC523
:1046E000E9FF1CC5EAFFEECF00F0EECF01F0020EAD
:1046F0000026000E01221BC5E1FF1CC5E2FF00C021
:10470000E6FF01C0E6FF0501000E251902E1000EDB
:1047100024190FE1000E006E361908E1005035191A
:1047200005E10050341902E13351000A02E1244B43
:10473000252B0501C00E2915006E00C03BF5C0D029
:10474000010E266F26510A0A39E0020E046E26C5B4
:1047500000F0000E016E026E036E0450050107E0CA
:1047600000360090013602360336FF0FF7D70501F9
:10477000960E00268A0E0122000E022200C0F6FFCD
:1047800001C0F7FF02C0F8FF0900F5CF37F50900B7
:10479000F5CF38F50900F5CF39F50900F5CF3AF531
:1047A0003A51365D08E13951355D05E13851345DE6
:1047B00002E13751335D02E3262BC4D705018FD0C8
:1047C000010E266F2651080A39E0020E046E26C536
:1047D00000F0000E016E026E036E0450050107E04A
:1047E00000360090013602360336FF0FF7D7050179
:1047F000BE0E00268A0E0122000E022200C0F6FF25
:1048000001C0F7FF02C0F8FF0900F5CF37F5090036
:10481000F5CF38F50900F5CF39F50900F5CF3AF5B0
:104820003A51365D08E13951355D05E13851345D65
:1048300002E13751335D02E3262BC4D705014FD087
:10484000010E266F26510C0A39E0020E046E26C5B1
:1048500000F0000E016E026E036E0450050107E0C9
:1048600000360090013602360336FF0FF7D70501F8
:10487000DE0E00268A0E0122000E022200C0F6FF84
:1048800001C0F7FF02C0F8FF0900F5CF37F50900B6
:10489000F5CF38F50900F5CF39F50900F5CF3AF530
:1048A0003A51365D08E13951355D05E13851345DE5
:1048B00002E13751335D02E3262BC4D705010FD047
:1048C0003B51000AD8B43CD73B51C00AD8B438D7C2
:1048D0003B51800AD8B474D73B51400AB1E005017E
:1048E000800E006E800E2519005C02E12451265DC9
:1048F00003E224C526F50ED00501800E2519006EB1
:10490000800E005C02E12651245D04E226C524F5F8
:10491000000E256F0501275128110EE0030E291501
:10492000006E2AC501F0000E01160050011004E0CF
:10493000010E275F000E285B800E2519006E800E89
:104940002819005C02E12751245D05E22451275F0C
:104950002551285B03D00501276B286BC40E291550
:10496000376F2A51080B386F3851080A02E1400EA0
:10497000371908E12751281104E0010E275F000EC6
:10498000285B1ED00501C00E2915376F2A51080B70
:10499000386F3851080A02E1800E371911E1800E94
:1049A000006E800E2819005C02E12751020805E222
:1049B000020E275F000E285B03D00501276B286BD2
:1049C000050129A56ED029A31AD0010E2915006E64
:1049D0002AC501F0000E01160050011003E02D0E53
:1049E000006E02D02B0E006E16C5E1FF17C5E2FF68
:1049F00000C0E6FF164B172B2B4B2C2B3CD0010E87
:104A00002915006E2AC501F0000E01160050011094
:104A10000BE016C5E1FF17C5E2FF200EE66E164B50
:104A2000172B2B4B2C2B27D0C00E2915376F2A5153
:104A3000080B386F3851080A02E1800E37191BE164
:104A400016C5E1FF17C5E2FF300EE66E164B172BB9
:104A50002B4B2C2B29AB03D0580E006E02D0780EB6
:104A6000006E16C5E1FF17C5E2FF00C0E6FF164B5A
:104A7000172B2B4B2C2B05012751281111E016C5A4
:104A8000E1FF17C5E2FF300EE66E164B172B2B4BDE
:104A90002C2B010E275F000E285B27512811EFE118
:104AA00085D02751281113E029B711D016C5E1FF91
:104AB00017C5E2FF200EE66E164B172B2B4B2C2B47
:104AC000010E275F000E285B27512811EFE129A373
:104AD0001AD0010E2915006E2AC501F0000E01162C
:104AE0000050011003E02D0E006E02D02B0E006E60
:104AF00016C5E1FF17C5E2FF00C0E6FF164B172BF6
:104B00002B4B2C2B14D0010E2915006E2AC501F059
:104B1000000E0116005001100AE016C5E1FF17C58E
:104B2000E2FF200EE66E164B172B2B4B2C2BC00EE4
:104B30002915376F2A51080B386F3851080A02E1DE
:104B4000400E37190BE116C5E1FF17C5E2FF300E25
:104B5000E66E164B172B2B4B2C2B28D00501C00EC5
:104B60002915376F2A51080B386F3851080A02E1AE
:104B7000800E37191BE116C5E1FF17C5E2FF300EA5
:104B8000E66E164B172B2B4B2C2B29AB03D0580E54
:104B9000006E02D0780E006E16C5E1FF17C5E2FF69
:104BA00000C0E6FF164B172B2B4B2C2B0501800E5C
:104BB000006E800E2519005C02E12451265D0BE297
:104BC00016C5E1FF17C5E2FF300EE66E164B172B38
:104BD0002B4B2C2BEBD7050124C500F025C501F08C
:104BE000010E245F000E255B00500110D8B44DD19A
:104BF000C00E2915006E00C037F52BD1020E046ED1
:104C000024C500F025C501F0000E25BFFF0E026E81
:104C1000036E0450050107E00036009001360236AD
:104C20000336FF0FF7D7960E00268A0E0122000EDC
:104C3000022200C0F6FF01C0F7FF02C0F8FF090022
:104C4000F5CF04F00900F5CF05F00900F5CF06F027
:104C50000900F5CF07F033C500F034C501F035C5C4
:104C600002F036C503F028EC37F00A0E046E000E91
:104C7000056E066E076E28EC37F008C000F009C01C
:104C800001F00AC002F00BC003F0300E0024050151
:104C9000266FEFD029AB4ED0020E046E24C500F073
:104CA00025C501F0000E25BFFF0E026E036E0450F5
:104CB000050107E000360090013602360336FF0F8B
:104CC000F7D70501BE0E00268A0E0122000E022231
:104CD00000C0F6FF01C0F7FF02C0F8FF0900F5CFE2
:104CE00004F00900F5CF05F00900F5CF06F0090042
:104CF000F5CF07F033C500F034C501F035C502F03B
:104D000036C503F028EC37F00F0E0016000E011622
:104D1000021603160E0E00268B0E0122000E022232
:104D200000C0F6FF01C0F7FF02C0F8FF0900F5CF91
:104D300026F54ED0020E046E24C500F025C501F004
:104D4000000E050125BFFF0E026E036E0450050123
:104D500007E000360090013602360336FF0FF7D722
:104D60000501BE0E00268A0E0122000E022200C09E
:104D7000F6FF01C0F7FF02C0F8FF0900F5CF04F00D
:104D80000900F5CF05F00900F5CF06F00900F5CFD1
:104D900007F033C500F034C501F035C502F036C563
:104DA00003F028EC37F00F0E0016000E0116021665
:104DB0000316200E00268B0E0122000E022200C0D8
:104DC000F6FF01C0F7FF02C0F8FF0900F5CF26F596
:104DD00000014FD0020E046E24C500F025C501F07D
:104DE000000E050125BFFF0E026E036E0450050183
:104DF00007E000360090013602360336FF0FF7D782
:104E0000DE0E00268A0E0122000E022200C0F6FFEE
:104E100001C0F7FF02C0F8FF0900F5CF04F0090058
:104E2000F5CF05F00900F5CF06F00900F5CF07F042
:104E300033C500F034C501F035C502F036C503F0C6
:104E400028EC37F0070E00140501266F300E2627D8
:104E500010D005013751000AD8B4D0D63751C00A56
:104E6000D8B4CCD63751800AD8B414D73751400AB9
:104E7000B1E0050116C5E1FF17C5E2FF26C5E6FF53
:104E8000164B172B2B4B2C2BA6D629A71AD0800EEE
:104E9000006E800E2819005C02E12751000811E223
:104EA00016C5E1FF17C5E2FF200EE66E164B172B65
:104EB0002B4B2C2B010E275F000E285B275128114E
:104EC000EFE105013AEF16F02BC500F02CC501F01B
:104ED0001200000E3E6E000E3F6E000E406E000E81
:104EE000416E000E426E000E436E000E446E000EC8
:104EF000456E000E466E000E476E000E486E000EA8
:104F0000496E000E196E000E1A6E000E1B6E000E1A
:104F10001C6E000E4A6E000E4B6E000E4C6E000EA4
:104F20004D6E000E4E6E000E4F6E000E506E000E57
:104F3000516E000E526E000E536E000E546E000E37
:104F4000556E000E566E000E576E000E586E000E17
:104F5000596E000E5A6E000E5B6E000E5C6E000EF7
:104F60005D6E000E0001616F000E626F000E636FD8
:104F7000000E646F000E656F000E666F000E676FA7
:104F8000000E686F000E696F000E6A6F000E6B6F87
:104F9000000E6C6F000E6D6F000E6E6F000E6F6F67
:104FA000000E706FCD0E716FCC0E726F4C0E736F62
:104FB0007B0E746F000E156E000E166E410E756F2F
:104FC000A80E766FA80E776F2D0E786F330E796F5F
:104FD000410E7A6F2D0E7B6F300E7C6F300E7D6F21
:104FE0007E6B000E7F6F800E806F630E816F890E67
:104FF000826F000E836F000E846F400E856F820EED
:10500000866F000E876F000E886F400E896F800ECE
:105010008A6F080E8B6FAC0E8C6F0C0E8D6F800E2E
:105020008E6F000E8F6F000E906F700E916F830E5B
:10503000926F000E936FC00E946F5A0E956F8A0E8A
:10504000966F020E976F000E986F410E996FA80E23
:105050009A6FA80E9B6F2D0E9C6F330E9D6F410EA5
:105060009E6F2D0E9F6F300EA06F310EA16FA26B41
:10507000000EA36F200EA46F620EA56F890EA66F9F
:10508000000EA76F000EA86F400EA96F820EAA6FC8
:10509000000EAB6F000EAC6F400EAD6F800EAE6FAA
:1050A000D10EAF6F790EB06F0D0EB16F800EB26F73
:1050B000000EB36F000EB46F700EB56F830EB66F37
:1050C000000EB76FC00EB86F5A0EB96F8A0EBA6F66
:1050D000020EBB6F000EBC6F410EBD6FA80EBE6FFF
:1050E000A80EBF6F2D0EC06F330EC16F410EC26F81
:1050F0002D0EC36F300EC46F320EC56FC66B000E1F
:10510000C76F200EC86F620EC96F890ECA6F000E7E
:10511000CB6F000ECC6F400ECD6F820ECE6F000EA7
:10512000CF6F000ED06F400ED16F800ED26FD10EB8
:10513000D36F790ED46F0D0ED56F800ED66F000E23
:10514000D76F000ED86F700ED96F830EDA6F000E16
:10515000DB6FC00EDC6F5A0EDD6F8A0EDE6F020E43
:10516000DF6F000EE06F410EE16FA80EE26FA80E38
:10517000E36F2D0EE46F330EE56F410EE66F2D0EDB
:10518000E76F300EE86F330EE96FEA6B000EEB6FDE
:10519000200EEC6F620EED6F890EEE6F000EEF6F5A
:1051A000000EF06F400EF16F820EF26F000EF36F83
:1051B000000EF46F400EF56F800EF66FD10EF76F94
:1051C000790EF86F0D0EF96F800EFA6F000EFB6FFF
:1051D000000EFC6F700EFD6F830EFE6F000EFF6FF2
:1051E000C00E0101006F5A0E016F8A0E026F020E8F
:1051F000036F000E046F410E056FA80E066FA80E18
:10520000076F2D0E086F330E096F410E0A6F2D0EBA
:105210000B6F300E0C6F340E0D6F0E6B000E0F6F98
:10522000800E106F630E116F890E126F000E136FD8
:10523000000E146F400E156F820E166F000E176F62
:10524000000E186F400E196F800E1A6F080E1B6F3C
:10525000AC0E1C6F0C0E1D6F800E1E6F000E1F6FAC
:10526000000E206F700E216F830E226F000E236FD1
:10527000C00E246F5A0E256F8A0E266F020E276FFE
:10528000000E286F410E296FA80E2A6FA80E2B6FF3
:105290002D0E2C6F330E2D6F410E2E6F2D0E2F6F96
:1052A000300E306F350E316F326B000E336F800E63
:1052B000346F630E356F890E366F000E376F000E38
:1052C000386F400E396F820E3A6F000E3B6F000E42
:1052D0003C6F400E3D6F800E3E6F080E3F6FAC0E70
:1052E000406F0C0E416F800E426F000E436F000E38
:1052F000446F700E456F830E466F000E476FC00EF1
:10530000486F5A0E496F8A0E4A6F020E4B6F000E9D
:105310004C6F430E4D6FA80E4E6FA90E4F6F330E9C
:10532000506F2D0E516F410E526FE00E536F200ED5
:10533000546F200E556F566B000E576F800E586FCE
:10534000630E596F890E5A6F000E5B6F000E5C6F13
:10535000400E5D6F820E5E6F000E5F6F000E606F1D
:10536000400E616F800E626F080E636FAC0E646F4B
:105370000C0E656F800E666F000E676F000E686F13
:10538000700E696F830E6A6F000E6B6FC00E6C6FCC
:105390005A0E6D6F8A0E6E6F020E6F6F000E706F79
:1053A000430E716FA80E726FA90E736F2D0E746F7E
:1053B000330E756F410E766F2D0E776F410E786F3D
:1053C000360E796F7A6B000E7B6F800E7C6F630EEA
:1053D0007D6F890E7E6F000E7F6F000E806F400E16
:1053E000816F820E826F000E836F000E846F400EFD
:1053F000856F800E866F080E876FAC0E886F0C0E5F
:10540000896F800E8A6F000E8B6F000E8C6F700E8E
:105410008D6F830E8E6F000E8F6FC00E906F5A0EC1
:10542000916F8A0E926F020E936F000E946F430E6F
:10543000956FA80E966FA90E976F2D0E986F330E6D
:10544000996F410E9A6F2D0E9B6F410E9C6FA70EA8
:105450009D6F9E6B000E9F6F800EA06F630EA16FFD
:10546000890EA26F000EA36F000EA46F400EA56FF1
:10547000820EA66F000EA76F000EA86F400EA96FD8
:10548000800EAA6F080EAB6FAC0EAC6F0C0EAD6F3A
:10549000800EAE6F000EAF6F000EB06F700EB16F6A
:1054A000830EB26F000EB36FC00EB46F5A0EB56F9D
:1054B0008A0EB66F020EB76F000EB86F430EB96F4B
:1054C000A80EBA6FA90EBB6F2D0EBC6F330EBD6F49
:1054D000410EBE6F2D0EBF6FE00EC06F4B0EC16F41
:1054E000C26B000EC36F200EC46F620EC56F890EB3
:1054F000C66F000EC76F000EC86F400EC96F820ED8
:10550000CA6F000ECB6F000ECC6F400ECD6F800EB9
:10551000CE6FD10ECF6F790ED06F0D0ED16F800E82
:10552000D26F000ED36F000ED46F700ED56F830E46
:10553000D66F000ED76FC00ED86F5A0ED96F8A0E75
:10554000DA6F020EDB6F000EDC6F430EDD6FA80E0C
:10555000DE6FA90EDF6F330EE06F410EE16F2D0E8F
:10556000E26FE00EE36F390EE46F4B0EE56FE66B12
:10557000000EE76F200EE86F620EE96F890EEA6F8A
:10558000000EEB6F000EEC6F400EED6F820EEE6FB3
:10559000000EEF6F000EF06F400EF16F800EF26F95
:1055A000D10EF36F790EF46F0D0EF56F800EF66F5E
:1055B000000EF76F000EF86F700EF96F830EFA6F22
:1055C000000EFB6FC00EFC6F5A0EFD6F8A0EFE6F51
:1055D000020EFF6F000E0201006F430E016FA80E56
:1055E000026FA90E036F330E046F410E056F2D0E6F
:1055F000066F410E076F390E086F4B0E096F0A6B6D
:10560000000E0B6F200E0C6F620E0D6F890E0E6F69
:10561000000E0F6F000E106F400E116F820E126F92
:10562000000E136F000E146F400E156F800E166F74
:10563000D10E176F790E186F0D0E196F800E1A6F3D
:10564000000E1B6F000E1C6F700E1D6F830E1E6F01
:10565000000E1F6FC00E206F5A0E216F8A0E226F30
:10566000020E236F000E246F410E256FA80E266FC9
:10567000A80E276F2D0E286F340E296F200E2A6F6B
:10568000200E2B6F200E2C6F200E2D6F2E6B000E18
:105690002F6FA00E306F290E316F890E326F000E02
:1056A000336F000E346F400E356F820E366F000E72
:1056B000376F000E386F000E396F810E3A6FD10EC2
:1056C0003B6F790E3C6F0D0E3D6F800E3E6F000EEE
:1056D0003F6F000E406F700E416F830E426F000EE1
:1056E000436FC00E446F5A0E456F8A0E466F020E0E
:1056F000476F000E486F410E496FA80E4A6FA80E03
:105700004B6F4D0E4C6F2D0E4D6F340E4E6F200EA5
:105710004F6F200E506F200E516F526B000E536F63
:10572000E00E546F380E556F890E566F000E576F8E
:10573000000E586F500E596F820E5A6F000E5B6F3D
:10574000000E5C6F000E5D6F810E5E6F080E5F6F66
:10575000AC0E606F0C0E616F800E626F000E636F97
:10576000000E646F700E656F830E666F000E676FBC
:10577000C00E686F5A0E696F8A0E6A6F020E6B6FE9
:10578000000E6C6F430E6D6FA80E6E6FA90E6F6FDB
:105790002D0E706F340E716F4D0E726FE00E736FC1
:1057A000200E746F200E756F766B000E776FA00E53
:1057B000786F290E796F890E7A6F000E7B6F000E5D
:1057C0007C6F400E7D6F820E7E6F000E7F6F000E2D
:1057D000806F000E816F810E826FD10E836F790E04
:1057E000846F0D0E856F800E866F000E876F000E22
:1057F000886F700E896F830E8A6F000E8B6FC00EDC
:105800008C6F5A0E8D6F8A0E8E6F020E8F6F000E88
:10581000906F410E916FA80E926FA80E936F4D0E70
:10582000946F2D0E956F360E966F200E976F200E8B
:10583000986F200E996F9A6B000E9B6F200E9C6FD5
:105840000E0E9D6F890E9E6F000E9F6F000EA06F53
:10585000700EA16F820EA26F000EA36F000EA46FD8
:10586000400EA56F810EA66F080EA76FAC0EA86F35
:105870000C0EA96F800EAA6F000EAB6F000EAC6FFE
:10588000700EAD6F830EAE6F000EAF6FC00EB06FB7
:105890005A0EB16F8A0EB26F020EB36F000EB46F64
:1058A000410EB56FA80EB66FA80EB76F360EB86F63
:1058B0002D0EB96F410EBA6FA00EBB6F200EBC6FDC
:1058C000200EBD6FBE6B000EBF6F400EC06F620E2C
:1058D000C16F880EC26F000EC36F000EC46F400E02
:1058E000C56F820EC66F000EC76F000EC86F400EE8
:1058F000C96F810ECA6FD10ECB6F790ECC6F0D0EB2
:10590000CD6F800ECE6F000ECF6F000ED06F700E79
:10591000D16F830ED26F000ED36FC00ED46F5A0EAC
:10592000D56F8A0ED66F020ED76F000ED86F430E5A
:10593000D96FA80EDA6FA90EDB6F2D0EDC6F360E55
:10594000DD6F200EDE6F200EDF6F200EE06F200E69
:10595000E16FE26B000EE36F400EE46F620EE56FE5
:10596000880EE66F000EE76F000EE86F400EE96FDD
:10597000820EEA6F000EEB6F000EEC6F400EED6FC3
:10598000810EEE6FD10EEF6F790EF06F0D0EF16F8D
:10599000800EF26F000EF36F000EF46F700EF56F55
:1059A000830EF66F000EF76FC00EF86F5A0EF96F88
:1059B0008A0EFA6F020EFB6F000EFC6F430EFD6F36
:1059C000A80EFE6F4D0EFF6F2D0E0301006F360EF9
:1059D000016F2D0E026F300E036F360E046F200E16
:1059E000056F066B000E076F200E086F0E0E096F15
:1059F000890E0A6F000E0B6F000E0C6F700E0D6F8C
:105A0000820E0E6F000E0F6F000E106F400E116FA2
:105A1000810E126F080E136FAC0E146F0C0E156F03
:105A2000800E166F000E176F000E186F700E196F34
:105A3000830E1A6F000E1B6FC00E1C6F5A0E1D6F67
:105A40008A0E1E6F020E1F6F000E206F430E216F15
:105A5000A80E226F4D0E236F2D0E246F360E256F6C
:105A60002D0E266F300E276F370E286F200E296FF0
:105A70002A6B000E2B6F200E2C6F0E0E2D6F890ED1
:105A80002E6F000E2F6F000E306F700E316F820E72
:105A9000326F000E336F000E346F400E356F810E83
:105AA000366F080E376FAC0E386F0C0E396F800EE4
:105AB0003A6F000E3B6F000E3C6F700E3D6F830E11
:105AC0003E6F000E3F6FC00E406F5A0E416F8A0E40
:105AD000426F020E436F000E446F430E456FA80ED7
