:1000000043EF01F0FFFFFFFF04C0D7F003C0D6F0BD
:1000100002C0D5F001C0D4F000C0D3F0E9CF90F019
:10002000EACF91F0E1CF92F0E2CF93F09EA01BD007
:100030009E90152A162A172A030E165C08E3A00EB6
:10004000186E860E196E010E1A6E000E1B6E040ECF
:10005000175C08E3E00E1C6E930E1D6E040E1E6E00
:10006000000E1F6E04009EA466D09E9416C020F061
:10007000166ABFCF21F0000E226E21C001F0006A87
:1000800000C021F001C022F0BE500024216E000EFD
:100090000120226E2050000A09E12350215C186ED5
:1000A00024502258196E000E1A6E1B6E2050010A41
:1000B00011E12350FF08186E24C019F0FF0E1956E5
:1000C000000E1A6E1B6E2150182622501922000EA7
:1000D0001A221B222050020A2AE12350FF08186E20
:1000E00024C019F0FF0E1956000E1A6E1B6EFF0E7B
:1000F0001824006EFF0E1920016E000E1A20026EE9
:10010000000E1B20036E00C018F001C019F002C0E1
:100110001AF003C01BF021500024186E2250012059
:10012000196E000E02201A6E000E03201B6E21C0F5
:1001300023F022C024F0A1A093D0A19017C020F0FA
:10014000176ABCCF21F0000E226E21C001F0006AB8
:1001500000C021F001C022F0BB500024216E000E2F
:100160000120226E2050000A09E12550215C1C6EFE
:10017000265022581D6E000E1E6E1F6E2050010A62
:1001800011E12550FF081C6E26C01DF0FF0E1D5604
:10019000000E1E6E1F6E21501C2622501D22000EC6
:1001A0001E221F222050020A2AE12550FF081C6E41
:1001B00026C01DF0FF0E1D56000E1E6E1F6EFF0E98
:1001C0001C24006EFF0E1D20016E000E1E20026E0C
:1001D000000E1F20036E00C01CF001C01DF002C005
:1001E0001EF003C01FF0215000241C6E225001207D
:1001F0001D6E000E02201E6E000E03201F6E20508A
:10020000030A2AE12550FF081C6E26C01DF0FF0ED0
:100210001D56000E1E6E1F6EFE0E1C24006EFF0E7D
:100220001D20016E010E1E20026E000E1F20036EA7
:1002300000C01CF001C01DF002C01EF003C01FF082
:10024000215000241C6E225001201D6E000E022041
:100250001E6E000E03201F6E21C025F022C026F066
:1002600090C0E9FF91C0EAFF92C0E1FF93C0E2FFB6
:10027000D7C004F0D6C003F0D5C002F0D4C001F05E
:10028000D3C000F0110067EC37F00001756B766B9E
:10029000776B786B1D0ED26E0D0E0C6EFF0E0B6E13
:1002A000FF0E0A6E0C2E01D007D00B2E01D003D00A
:1002B0000A2EFED7FAD7F6D7BF0E0B6EFF0E0A6EC8
:1002C0000B2E01D003D00A2EFED7FAD72B0E0A6EC2
:1002D0000A2EFED70000000000009C8E0E0EC16E9C
:1002E000BA0EC06EFF0E926EFF0E936E1F0E946ECE
:1002F000966A976A849084928484796B7A6B7B6B1C
:10030000F26A9D6AA06A9E6AA16ABD6ABA6A170EFD
:10031000B76E050EBD6E050EBA6E310ECD6E830E34
:10032000986F0F0E996F020E9A6F030E9B6F040E5B
:100330009C6F050E9D6F830E9E6F0F0E9F6F070EB5
:10034000A06F010EA16F060EA26F77EC30F00C0EBD
:100350000001CE6FDFEC37F0FA0EC86E5FEC3BF0B9
:10036000D08E9F86A194C00EF26E9D6AA06AD19035
:10037000010E00017C6F010E7D6F0001B7EF15F0DB
:100380007E0E986F000E996F5E0E9A6F780E9B6FBF
:10039000000E9C6F6BEC3AF0010E0001986F020E9C
:1003A000996F7E0E9A6F000E9B6F7EEC39F07E0E79
:1003B000986F000E996F6E0E9A6F780E9B6F000EFD
:1003C0009C6F6BEC3AF0020E0001986F020E996F71
:1003D0007E0E9A6F000E9B6F7EEC39F00D0E0C6E48
:1003E000FF0E0B6EFF0E0A6E0C2E01D007D00B2EE7
:1003F00001D003D00A2EFED7FAD7F6D7BF0E0B6E68
:10040000FF0E0A6E0B2E01D003D00A2EFED7FAD7AC
:100410002B0E0A6E0A2EFED7000000000000848218
:10042000060E0C6EFF0E0B6EFF0E0A6E0C2E01D028
:1004300007D00B2E01D003D00A2EFED7FAD7F6D75D
:100440001A0E0B6EFF0E0A6E0B2E01D003D00A2E71
:10045000FED7FAD7420E0A6E0A2EFED78492010EFC
:10046000CE6FDFEC37F0020E00017C6F346ADDEFF7
:1004700015F07E0E986F000E996F8A0E9A6F780EA7
:100480009B6F000E9C6F6BEC3AF0010E0001986FB1
:10049000040E996F7E0E9A6F000E9B6F7EEC39F002
:1004A0007E0E986F000E996F500E9A6F780E9B6FAC
:1004B000000E9C6F6BEC3AF0020E0001986F010E7B
:1004C000996F7E0E9A6F000E9B6F7EEC39F0B5EF40
:1004D0000AF000017E0E986F000E996FF20E9A6F6F
:1004E000780E9B6F000E9C6F6BEC3AF0020E0001D1
:1004F000986F060E996F7E0E9A6F000E9B6F7EECC2
:1005000039F00C0E4E6E000E4F6E506E516E1C0E7A
:10051000756F070E766F000E776F786F1C0E426E48
:10052000070E436E000E446E456E000E656F000EA2
:10053000666F000E676F800E686F000E696F000EA9
:100540006A6F400E6B6F800E6C6F000E616F000E55
:10055000626F170E636F860E646F9BEF0CF00001E5
:100560007E0E986F000E996FFC0E9A6F780E9B6F3F
:10057000000E9C6F6BEC3AF0020E0001986F060EB5
:10058000996F7E0E9A6F000E9B6F7EEC39F00C0E09
:100590004E6E000E4F6E506E516E110E756F070E3F
:1005A000766F000E776F786F110E426E070E436EF6
:1005B000000E446E456E000E656F000E666F000EF5
:1005C000676F800E686F000E696F000E6A6F400ED5
:1005D0006B6F800E6C6F000E616F000E626F160EF7
:1005E000636F860E646F9BEF0CF000017E0E986FB8
:1005F000000E996F060E9A6F790E9B6F000E9C6F1E
:100600006BEC3AF0020E0001986F060E996F7E0EA9
:100610009A6F000E9B6F7EEC39F00C0E4E6E000E42
:100620004F6E506E516E110E756F070E766F000E85
:10063000776F786F110E426E070E436E000E446E98
:10064000456E000E656F000E666F000E676F800EC0
:10065000686F000E696F000E6A6F400E6B6F800E40
:100660006C6F000E616F000E626F160E636F860E68
:10067000646F9BEF0CF000017E0E986F000E996F77
:10068000100E9A6F790E9B6F000E9C6F6BEC3AF018
:10069000020E0001986F060E996F7E0E9A6F000E83
:1006A0009B6F7EEC39F00C0E4E6E000E4F6E506E4E
:1006B000516E110E756F070E766F000E776F786FA3
:1006C000110E426E070E436E000E446E456E000E14
:1006D000656F000E666F000E676F800E686F000E0C
:1006E000696F000E6A6F400E6B6F800E6C6F000EAC
:1006F000616F000E626F160E636F860E646F9BEF64
:100700000CF000017E0E986F000E996F1A0E9A6F12
:10071000790E9B6F000E9C6F6BEC3AF0020E00019D
:10072000986F060E996F7E0E9A6F000E9B6F7EEC8F
:1007300039F00C0E4E6E000E4F6E506E516E1C0E48
:10074000756F070E766F000E776F786F1C0E426E16
:10075000070E436E000E446E456E000E656F000E70
:10076000666F000E676F800E686F000E696F000E77
:100770006A6F400E6B6F800E6C6F000E616F000E23
:10078000626F170E636F860E646F9BEF0CF00001B3
:100790007E0E986F000E996F240E9A6F790E9B6FE4
:1007A000000E9C6F6BEC3AF0020E0001986F060E83
:1007B000996F7E0E9A6F000E9B6F7EEC39F00C0ED7
:1007C0004E6E000E4F6E506E516E1C0E756F070E02
:1007D000766F000E776F786F1C0E426E070E436EB9
:1007E000000E446E456E000E656F000E666F000EC3
:1007F000676F800E686F000E696F000E6A6F400EA3
:100800006B6F800E6C6F000E616F000E626F170EC3
:10081000636F860E646F9BEF0CF000017E0E986F85
:10082000000E996F2E0E9A6F790E9B6F000E9C6FC3
:100830006BEC3AF0020E0001986F060E996F7E0E77
:100840009A6F000E9B6F7EEC39F00C0E4E6E000E10
:100850004F6E506E516E1C0E756F070E766F000E48
:10086000776F786F1C0E426E070E436E000E446E5B
:10087000456E000E656F000E666F000E676F800E8E
:10088000686F000E696F000E6A6F400E6B6F800E0E
:100890006C6F000E616F000E626F170E636F860E35
:1008A000646F9BEF0CF000017E0E986F000E996F45
:1008B000380E9A6F790E9B6F000E9C6F6BEC3AF0BE
:1008C000020E0001986F060E996F7E0E9A6F000E51
:1008D0009B6F7EEC39F00C0E4E6E000E4F6E506E1C
:1008E000516E1C0E756F070E766F000E776F786F66
:1008F0001C0E426E070E436E000E446E456E000ED7
:10090000656F000E666F000E676F800E686F000ED9
:10091000696F000E6A6F400E6B6F800E6C6F000E79
:10092000616F000E626F170E636F860E646F9BEF30
:100930000CF000017E0E986F000E996F420E9A6FB8
:10094000790E9B6F000E9C6F6BEC3AF0020E00016B
:10095000986F060E996F7E0E9A6F000E9B6F7EEC5D
:1009600039F00C0E4E6E000E4F6E506E516E1C0E16
:10097000756F070E766F000E776F786F1C0E426EE4
:10098000070E436E000E446E456E000E656F000E3E
:10099000666F000E676F800E686F000E696F000E45
:1009A0006A6F400E6B6F800E6C6F000E616F000EF1
:1009B000626F170E636F860E646F9BEF0CF0000181
:1009C0007E0E986F000E996F4C0E9A6F790E9B6F8A
:1009D000000E9C6F6BEC3AF0020E0001986F060E51
:1009E000996F7E0E9A6F000E9B6F7EEC39F00C0EA5
:1009F0004E6E000E4F6E506E516E1C0E756F070ED0
:100A0000766F000E776F786F1C0E426E070E436E86
:100A1000000E446E456E000E656F000E666F000E90
:100A2000676F800E686F000E696F000E6A6F400E70
:100A30006B6F800E6C6F000E616F000E626F170E91
:100A4000636F860E646F9BEF0CF000017E0E986F53
:100A5000000E996F560E9A6F790E9B6F000E9C6F69
:100A60006BEC3AF0020E0001986F060E996F7E0E45
:100A70009A6F000E9B6F7EEC39F00C0E4E6E000EDE
:100A80004F6E506E516E110E756F070E766F000E21
:100A9000776F786F110E426E070E436E000E446E34
:100AA000456E000E656F000E666F000E676F800E5C
:100AB000686F000E696F000E6A6F400E6B6F800EDC
:100AC0006C6F000E616F000E626F160E636F860E04
:100AD000646F9BEF0CF000017E0E986F000E996F13
:100AE000600E9A6F790E9B6F000E9C6F6BEC3AF064
:100AF000020E0001986F060E996F7E0E9A6F000E1F
:100B00009B6F7EEC39F00C0E4E6E000E4F6E506EE9
:100B1000516E110E756F070E766F000E776F786F3E
:100B2000110E426E070E436E000E446E456E000EAF
:100B3000656F000E666F000E676F800E686F000EA7
:100B4000696F000E6A6F400E6B6F800E6C6F000E47
:100B5000616F000E626F160E636F860E646F9BEFFF
:100B60000CF000017E0E986F000E996F6A0E9A6F5E
:100B7000790E9B6F000E9C6F6BEC3AF0020E000139
:100B8000986F060E996F7E0E9A6F000E9B6F7EEC2B
:100B900039F00C0E4E6E000E4F6E506E516E4D0EB3
:100BA000756F050E766F000E776F786F4D0E426E83
:100BB000050E436E000E446E456E000E656F000E0E
:100BC000666F000E676F800E686F000E696F000E13
:100BD0006A6F000E6B6F810E6C6F000E616F000EFE
:100BE000626F620E636F850E646F9BEF0CF0000105
:100BF0007E0E986F000E996F740E9A6F790E9B6F30
:100C0000000E9C6F6BEC3AF0020E0001986F060E1E
:100C1000996F7E0E9A6F000E9B6F7EEC39F00D0E71
:100C20004E6E000E4F6E506E516EC70E756F050EF4
:100C3000766F000E776F786FC70E426E050E436EAB
:100C4000000E446E456E000E656F000E666F000E5E
:100C5000676F800E686F000E696F000E6A6F000E7E
:100C60006B6F810E6C6F000E616F000E626F620E13
:100C7000636F850E646F9BEF0CF000017E0E986F22
:100C8000000E996F7E0E9A6F790E9B6F000E9C6F0F
:100C90006BEC3AF0020E0001986F060E996F7E0E13
:100CA0009A6F000E9B6F7EEC39F00C0E4E6E000EAC
:100CB0004F6E506E516E4D0E756F050E766F000EB5
:100CC000776F786F4D0E426E050E436E000E446EC8
:100CD000456E000E656F000E666F000E676F800E2A
:100CE000686F000E696F000E6A6F000E6B6F810EE9
:100CF0006C6F000E616F000E626F620E636F850E87
:100D0000646F9BEF0CF000017E0E986F000E996FE0
:100D1000880E9A6F790E9B6F000E9C6F6BEC3AF009
:100D2000020E0001986F060E996F7E0E9A6F000EEC
:100D30009B6F7EEC39F00F0E4E6E000E4F6E506EB4
:100D4000516E710E756F040E766F000E776F786FAF
:100D5000710E426E040E436E000E446E456E000E20
:100D6000656F000E666F000E676F800E686F000E75
:100D7000696F000E6A6F400E6B6F810E6C6F000E14
:100D8000616F000E626F160E636F850E646F9BEFCE
:100D90000CF000017E0E986F000E996F920E9A6F04
:100DA000790E9B6F000E9C6F6BEC3AF0020E000107
:100DB000986F060E996F7E0E9A6F000E9B6F7EECF9
:100DC00039F00C0E4E6E000E4F6E506E516E890E45
:100DD000756F030E766F000E776F786F890E426E17
:100DE000030E436E000E446E456E000E656F000EDE
:100DF000666F000E676F800E686F000E696F000EE1
:100E00006A6F400E6B6F810E6C6F000E616F000E8B
:100E1000626F160E636F850E646F9BEF0CF000011E
:100E20007E0E986F000E996F9C0E9A6F790E9B6FD5
:100E3000000E9C6F6BEC3AF0020E0001986F060EEC
:100E4000996F7E0E9A6F000E9B6F7EEC39F00C0E40
:100E50004E6E000E4F6E506E516E890E756F030E02
:100E6000766F000E776F786F890E426E030E436EB9
:100E7000000E446E456E000E656F000E666F000E2C
:100E8000676F800E686F000E696F000E6A6F400E0C
:100E90006B6F810E6C6F000E616F000E626F160E2D
:100EA000636F850E646F9BEF0CF000017E0E986FF0
:100EB000000E996FA60E9A6F790E9B6F000E9C6FB5
:100EC0006BEC3AF0020E0001986F060E996F7E0EE1
:100ED0009A6F000E9B6F7EEC39F00F0E4E6E000E77
:100EE0004F6E506E516E710E756F040E766F000E60
:100EF000776F786F710E426E040E436E000E446E73
:100F0000456E000E656F000E666F000E676F800EF7
:100F1000686F000E696F000E6A6F400E6B6F810E76
:100F20006C6F000E616F000E626F160E636F850EA0
:100F3000646F9BEF0CF000017E0E986F000E996FAE
:100F4000B00E9A6F790E9B6F000E9C6F6BEC3AF0AF
:100F5000020E0001986F060E996F7E0E9A6F000EBA
:100F60009B6F7EEC39F00F0E4E6E000E4F6E506E82
:100F7000516E710E756F040E766F000E776F786F7D
:100F8000710E426E040E436E000E446E456E000EEE
:100F9000656F000E666F000E676F800E686F000E43
:100FA000696F000E6A6F400E6B6F810E6C6F000EE2
:100FB000616F000E626F160E636F850E646F9BEF9C
:100FC0000CF000017E0E986F000E996FBA0E9A6FAA
:100FD000790E9B6F000E9C6F6BEC3AF0020E0001D5
:100FE000986F060E996F7E0E9A6F000E9B6F7EECC7
:100FF00039F00F0E4E6E000E4F6E506E516E710E28
:10100000756F040E766F000E776F786F710E426EFB
:10101000040E436E000E446E456E000E656F000EAA
:10102000666F000E676F800E686F000E696F000EAE
:101030006A6F400E6B6F810E6C6F000E616F000E59
:10104000626F160E636F850E646F9BEF0CF00001EC
:101050007E0E986F000E996FC40E9A6F790E9B6F7B
:10106000000E9C6F6BEC3AF0020E0001986F060EBA
:10107000996F7E0E9A6F000E9B6F7EEC39F00F0E0B
:101080004E6E000E4F6E506E516E710E756F040EE7
:10109000766F000E776F786F710E426E040E436E9E
:1010A000000E446E456E000E656F000E666F000EFA
:1010B000676F800E686F000E696F000E6A6F400EDA
:1010C0006B6F810E6C6F000E616F000E626F160EFB
:1010D000636F850E646F9BEF0CF000017E0E986FBE
:1010E000000E996FCE0E9A6F790E9B6F000E9C6F5B
:1010F0006BEC3AF0020E0001986F060E996F7E0EAF
:101100009A6F000E9B6F7EEC39F0080E4E6E000E4B
:101110004F6E506E516E090E756F020E766F000E97
:10112000776F786F090E426E020E436E000E446EAA
:10113000456E000E656F000E666F000E676F800EC5
:10114000686F000E696F000E6A6F400E6B6F810E44
:101150006C6F000E616F000E626F020E636F850E82
:10116000646F9BEF0CF000017E0E986F000E996F7C
:10117000D80E9A6F790E9B6F000E9C6F6BEC3AF055
:10118000020E0001986F060E996F7E0E9A6F000E88
:101190009B6F7EEC39F00D0E4E6E000E4F6E506E52
:1011A000516EB60E756F020E766F000E776F786F08
:1011B000B60E426E020E436E000E446E456E000E79
:1011C000656F000E666F000E676F800E686F000E11
:1011D000696F000E6A6F000E6B6F820E6C6F000EEF
:1011E000616F000E626F540E636F840E646F9BEF2D
:1011F0000CF000017E0E986F000E996FE20E9A6F50
:10120000790E9B6F000E9C6F6BEC3AF0020E0001A2
:10121000986F060E996F7E0E9A6F000E9B6F7EEC94
:1012200039F00D0E4E6E000E4F6E506E516E910ED7
:10123000756F020E766F000E776F786F910E426EAB
:10124000020E436E000E446E456E000E656F000E7A
:10125000666F000E676F800E686F000E696F000E7C
:101260006A6F100E6B6F820E6C6F000E616F000E56
:10127000626F480E636F840E646F9BEF0CF0000189
:101280007E0E986F000E996FEC0E9A6F790E9B6F21
:10129000000E9C6F6BEC3AF0020E0001986F060E88
:1012A000996F7E0E9A6F000E9B6F7EEC39F00D0EDB
:1012B0004E6E000E4F6E506E516E580E756F060ECC
:1012C000766F000E776F786F580E426E060E436E83
:1012D000000E446E456E000E656F000E666F000EC8
:1012E000676F7F0E686F000E696F000E6A6F400EA9
:1012F0006B6F810E6C6F000E616F000E626F780E67
:10130000636F850E646F17D300017E0E986F000E19
:10131000996FF60E9A6F790E9B6F000E9C6F6BECB7
:101320003AF0020E0001986F060E996F7E0E9A6FCA
:10133000000E9B6F7EEC39F00D0E4E6E000E4F6E60
:10134000506E516E910E756F020E766F000E776FB4
:10135000786F910E426E020E436E000E446E456E23
:10136000000E656F000E666F000E676F800E686F6F
:10137000000E696F000E6A6F100E6B6F820E6C6F3D
:10138000000E616F000E626F480E636F840E646F13
:10139000D2D200017E0E986F000E996F000E9A6FE8
:1013A0007A0E9B6F000E9C6F6BEC3AF0020E000100
:1013B000986F060E996F7E0E9A6F000E9B6F7EECF3
:1013C00039F00D0E4E6E000E4F6E506E516E910E36
:1013D000756F020E766F000E776F786F910E426E0A
:1013E000020E436E000E446E456E000E656F000ED9
:1013F000666F000E676F800E686F000E696F000EDB
:101400006A6F100E6B6F820E6C6F000E616F000EB4
:10141000626F480E636F840E646F8DD200017E0E82
:10142000986F000E996F0A0E9A6F7A0E9B6F000EDE
:101430009C6F6BEC3AF0020E0001986F060E996FEC
:101440007E0E9A6F000E9B6F7EEC39F00F0E4E6E83
:10145000000E4F6E506E516E710E756F040E766FEA
:10146000000E776F786F710E426E040E436E000EA1
:10147000446E456E000E656F000E666F000E676F5E
:10148000800E686F000E696F000E6A6F400E6B6F02
:10149000810E6C6F000E616F000E626F160E636F2F
:1014A000850E646F48D200017E0E986F000E996F12
:1014B000140E9A6F7A0E9B6F000E9C6F6BEC3AF0D5
:1014C000020E0001986F060E996F7E0E9A6F000E45
:1014D0009B6F7EEC39F00D0E4E6E000E4F6E506E0F
:1014E000516EC70E756F050E766F000E776F786FB1
:1014F000C70E426E050E436E000E446E456E000E22
:10150000656F000E666F000E676F800E686F000ECD
:10151000696F000E6A6F000E6B6F810E6C6F000EAC
:10152000616F000E626F620E636F850E646F03D28F
:1015300000017E0E986F000E996F1E0E9A6F7A0E44
:101540009B6F000E9C6F6BEC3AF0020E0001986FDF
:10155000060E996F7E0E9A6F000E9B6F7EEC39F02F
:10156000756B766B776B786BE6D1000E006E551855
:1015700008E10050541805E10050531802E15250A0
:10158000010A0001D8B469EF02F0000E006E551890
:1015900008E10050541805E10050531802E1525080
:1015A000020A0001D8B4AFEF02F0000E006E551829
:1015B00008E10050541805E10050531802E1525060
:1015C000030A0001D8B4F5EF02F0000E006E5518C2
:1015D00008E10050541805E10050531802E1525040
:1015E000040A0001D8B43BEF03F0000E006E55185A
:1015F00008E10050541805E10050531802E1525020
:10160000050A0001D8B481EF03F0000E006E5518F2
:1016100008E10050541805E10050531802E15250FF
:10162000060A0001D8B4C7EF03F0000E006E55188B
:1016300008E10050541805E10050531802E15250DF
:10164000070A0001D8B40DEF04F0000E006E551823
:1016500008E10050541805E10050531802E15250BF
:10166000080A0001D8B453EF04F0000E006E5518BC
:1016700008E10050541805E10050531802E152509F
:10168000090A0001D8B499EF04F0000E006E551855
:1016900008E10050541805E10050531802E152507F
:1016A0000A0A0001D8B4DFEF04F0000E006E5518EE
:1016B00008E10050541805E10050531802E152505F
:1016C0000B0A0001D8B425EF05F0000E006E551886
:1016D00008E10050541805E10050531802E152503F
:1016E0000C0A0001D8B46BEF05F0000E006E55181F
:1016F00008E10050541805E10050531802E152501F
:101700000D0A0001D8B4B1EF05F0000E006E5518B7
:1017100008E10050541805E10050531802E15250FE
:101720000E0A0001D8B4F7EF05F0000E006E551850
:1017300008E10050541805E10050531802E15250DE
:101740000F0A0001D8B43DEF06F0000E006E5518E8
:1017500008E10050541805E10050531802E15250BE
:10176000100A0001D8B483EF06F0000E006E551881
:1017700008E10050541805E10050531802E152509E
:10178000110A0001D8B4C9EF06F0000E006E55181A
:1017900008E10050541805E10050531802E152507E
:1017A000120A0001D8B40FEF07F0000E006E5518B2
:1017B00008E10050541805E10050531802E152505E
:1017C000130A0001D8B455EF07F0000E006E55184B
:1017D00008E10050541805E10050531802E152503E
:1017E000140A0001D8B49BEF07F0000E006E5518E4
:1017F00008E10050541805E10050531802E152501E
:10180000150A0001D8B4E1EF07F0000E006E55187C
:1018100008E10050541805E10050531802E15250FD
:10182000160A0001D8B413D4000E006E551808E152
:101830000050541805E10050531802E15250170AA5
:101840000001D8B44AD4000E006E551808E10050CB
:10185000541805E10050531802E15250180A0001D3
:10186000D8B481D4000E006E551808E10050541809
:1018700005E10050531802E15250190A0001D8B492
:10188000B8D4000E006E551808E10050541805E158
:101890000050531802E152501A0A0001D8B4EFD494
:1018A000000E006E551808E10050541805E1005074
:1018B000531802E152501B0A0001D8B425D5000E7E
:1018C000006E551808E10050541805E100505318F7
:1018D00002E152501C0A0001D8B45BD5000E006E24
:1018E000551808E10050541805E10050531802E162
:1018F00052501D0A0001D8B491D5000E006E551843
:1019000008E10050541805E10050531802E152500C
:101910001E0A0001D8B4C7D5000E006E551808E1A4
:101920000050541805E10050531802E152501F0AAC
:101930000001D8B4FDD59FEC32F000018E51030AAE
:1019400009E1010E5226000E532254225522346A18
:10195000020E7C6F5550000808E15450000805E164
:101960005350000802E152501F08000106E2010E28
:10197000526E000E536E546E556E00018E51040A65
:1019800011E1010E006E000E016E026E036E00503A
:10199000525E0150535A0250545A0350555A346AF9
:1019A000020E7C6F000E555C08E1000E545C05E1F0
:1019B000000E535C02E1010E525C000106E21F0EB4
:1019C000526E000E536E546E556E00018E51050A14
:1019D000D8A4C6D0000E006E551808E10050541867
:1019E00005E10050531802E152501F0A5DE1010E5B
:1019F000CE6FDFEC37F07E0E0001986F000E996F0E
:101A0000AC0E9A6F780E9B6F000E9C6F6BEC3AF0E9
:101A1000010E0001986F050E996F7E0E9A6F000EF1
:101A20009B6F7EEC39F07E0E986F000E996FB60EAC
:101A30009A6F780E9B6F000E9C6F6BEC3AF0020E63
:101A40000001986F060E996F7E0E9A6F000E9B6FC5
:101A50007EEC39F01A0E0C6EFF0E0B6EFF0E0A6E46
:101A60000C2E01D007D00B2E01D003D00A2EFED7AA
:101A7000FAD7F6D77F0E0B6EFF0E0A6E0B2E01D033
:101A800003D00A2EFED7FAD7580E0A6E0A2EFED7BA
:101A900000000000010ECE6FDFEC37F0050E0001F4
:101AA0007C6F346ADDEF15F00001010ECE6FDFECC4
:101AB00037F07E0E0001986F000E996FAC0E9A6F92
:101AC000780E9B6F000E9C6F6BEC3AF0010E0001DC
:101AD000986F050E996F7E0E9A6F000E9B6F7EECCD
:101AE00039F07E0E986F000E996FB60E9A6F780ED1
:101AF0009B6F000E9C6F6BEC3AF0020E0001986F2A
:101B0000060E996F7E0E9A6F000E9B6F7EEC39F079
:101B10001A0E0C6EFF0E0B6EFF0E0A6E0C2E01D00D
:101B200007D00B2E01D003D00A2EFED7FAD7F6D756
:101B30007F0E0B6EFF0E0A6E0B2E01D003D00A2E05
:101B4000FED7FAD7580E0A6E0A2EFED70000000004
:101B5000010ECE6FDFEC37F0030E00017C6F346AAC
:101B6000DDEF15F07E0E986F000E996F960E9A6F4E
:101B7000780E9B6F000E9C6F6BEC3AF0010E00012B
:101B8000986F0E0E996F7E0E9A6F000E9B6F7EEC13
:101B900039F07E0E986F000E996FA80E9A6F780E2E
:101BA0009B6F000E9C6F6BEC3AF0020E0001986F79
:101BB0000E0E996F7E0E9A6F000E9B6F7EEC39F0C1
:101BC0008E51030A57E16DC000F06EC001F06FC086
:101BD00002F070C003F0CD0E046ECC0E056E4C0EFC
:101BE000066E7B0E076E08EC2AF000C06DF001C097
:101BF0006EF002C06FF003C070F0346A4250752777
:101C0000435076234450772345507823010E3A26DB
:101C1000000E3B223C223D227E0E986F000E996FF3
:101C2000BE0E9A6F780E9B6F000E9C6F6BEC3AF0B5
:101C3000010E0001986F010E996F7E0E9A6F000ED3
:101C40009B6F7EEC39F07E0E986F000E996FBE0E82
:101C50009A6F780E9B6F000E9C6F6BEC3AF0020E41
:101C60000001986F010E996F7E0E9A6F000E9B6FA8
:101C70007EEC39F08E51040A5FE1CD0E046ECC0E7D
:101C8000056E4C0E066E7B0E076E6DC000F06EC0CA
:101C900001F06FC002F070C003F08AEC3BF000C0AE
:101CA0006DF001C06EF002C06FF003C070F0346AD6
:101CB0004250755F4350765B4450775B4550785B8C
:101CC000010E006E000E016E026E036E00503A5E51
:101CD00001503B5A02503C5A03503D5A7E0E986FB9
:101CE000000E996FBE0E9A6F780E9B6F000E9C6F60
:101CF0006BEC3AF0010E0001986F010E996F7E0EA9
:101D00009A6F000E9B6F7EEC39F07E0E986F000E7E
:101D1000996FBE0E9A6F780E9B6F000E9C6F6BECE6
:101D20003AF0020E0001986F010E996F7E0E9A6FC5
:101D3000000E9B6F7EEC39F0CD0E046ECC0E056E5E
:101D40004C0E066E7B0E076E6DC000F06EC001F08B
:101D50006FC002F070C003F056EC38F0010ED8B03E
:101D6000000E006E005208E06D6B6E6B6F6B706B57
:101D7000756B766B776B786B000175C098F076C0E9
:101D800099F077C09AF078C09BF07E0E9C6F000EA1
:101D90009D6F85EC33F0010E0001986F010E996F75
:101DA0007E0E9A6F000E9B6F7EEC39F07E6B7E0E7E
:101DB000986F000E996F280E9A6F7A0E9B6F000E27
:101DC0009C6F6DC09DF06EC09EF06FC09FF070C0A4
:101DD000A0F096EC3AF0020E986F010E996F7E0E0D
:101DE0009A6F000E9B6F7EEC39F07E0E986F000E9E
:101DF000996FC80E9A6F780E9B6F000E9C6F6BECFC
:101E00003AF0020E0001986F050E996F7E0E9A6FE0
:101E1000000E9B6F7EEC39F07E6B8E51050A07E158
:101E2000040E7C6F346A010ECE6FDFEC37F00001D8
:101E30008E51010A08E1010ECE6FDFEC37F0020E81
:101E400000017C6F346A8E51020A08E1010ECE6FE8
:101E5000DFEC37F0020E00017C6F346ADDEF15F025
:101E60007E0E986F000E996FA80E9A6F780E9B6F7A
:101E7000000E9C6F6BEC3AF0010E0001986F0E0E95
:101E8000996F7E0E9A6F000E9B6F7EEC39F07E0E7E
:101E9000986F000E996F960E9A6F780E9B6F000EDA
:101EA0009C6F6BEC3AF0020E0001986F0E0E996F6A
:101EB0007E0E9A6F000E9B6F7EEC39F08E51050AF4
:101EC00008E1010ECE6FDFEC37F0020E00017C6FEF
:101ED000346A7851415C08E17751405C05E1765104
:101EE0003F5C02E175513E5CD8B013D19FEC32F0FB
:101EF00000C08EF00050050A29E100018E6B820EB1
:101F00000B6EFF0E0A6E0B2E01D003D00A2EFED7E9
:101F1000FAD7870E0A6E0A2EFED7000000018E51F6
:101F2000050A14E09FEC32F000C08EF0410E0B6EFB
:101F3000FF0E0A6E0B2E01D003D00A2EFED7FAD761
:101F4000C30E0A6E0A2EFED70000E8D700018E519C
:101F5000060AD8B4DED0010E3E26000E3F224022F3
:101F6000412285903B0E0B6EFF0E0A6E0B2E01D0A8
:101F700003D00A2EFED7FAD7480E0A6E0A2EFED7D5
:101F8000000000008580070E0B6EFF0E0A6E0B2E00
:101F900001D003D00A2EFED7FAD7780E0A6E0A2E89
:101FA000FED7000000004EC004F04FC005F050C046
:101FB00006F051C007F03EC000F03FC001F040C045
:101FC00002F041C003F0ADEC2DF0D4EC3AF065C066
:101FD00004F066C005F067C006F068C007F0D3ECF7
:101FE00036F069C004F06AC005F06BC006F06CC042
:101FF00007F0D3EC36F0000E046E400E056E1C0E9A
:10200000066E8C0E076EF2EC34F000C094F001C046
:1020100095F002C096F003C097F03AC000F03BC0C4
:1020200001F03CC002F03DC003F0D4EC3AF00A0EDF
:10203000046ED70E056E230E066E780E076ED3EC77
:1020400036F094C004F095C005F096C006F097C035
:1020500007F008EC2AF000C071F001C072F002C075
:1020600073F003C074F07E0E986F000E996F2C0E03
:102070009A6F7A0E9B6F000E9C6F00C09DF001C09E
:102080009EF002C09FF003C0A0F096EC3AF0010E63
:10209000986F010E996F7E0E9A6F000E9B6F7EEC0B
:1020A00039F07E6B7E0E986F000E996F300E9A6F2E
:1020B0007A0E9B6F000E9C6F3EC09DF03FC09EF05D
:1020C00040C09FF041C0A0F096EC3AF0020E986F2D
:1020D000010E996F7E0E9A6F000E9B6F7EEC39F0A9
:1020E0007E6B7E0E986F000E996FC80E9A6F780EF9
:1020F0009B6F000E9C6F6BEC3AF0010E0001986F25
:10210000080E996F7E0E9A6F000E9B6F7EEC39F071
:10211000E0D600014D50000808E14C50000805E1F0
:102120004B50000802E14A500208000145E3010E4D
:102130004A26000E4B224C224D228482060E0C6E43
:10214000FF0E0B6EFF0E0A6E0C2E01D007D00B2E69
:1021500001D003D00A2EFED7FAD7F6D71A0E0B6E8F
:10216000FF0E0A6E0B2E01D003D00A2EFED7FAD72F
:10217000420E0A6E0A2EFED78492060E0C6EFF0ED9
:102180000B6EFF0E0A6E0C2E01D007D00B2E01D065
:1021900003D00A2EFED7FAD7F6D71A0E0B6EFF0E13
:1021A0000A6E0B2E01D003D00A2EFED7FAD7420EAC
:1021B0000A6E0A2EFED7ADD70001756B766B776B72
:1021C000786B010E3E6E000E3F6E406E416E4E6AA1
:1021D0004F6A506A516A010E526E000E536E546E71
:1021E000556ECD0E6D6FCC0E6E6F4C0E6F6F7B0EFD
:1021F000706F85808492DDEF15F09FEC32F0000166
:10220000756B766B776B786B7E0E986F000E996F9F
:10221000960E9A6F780E9B6F000E9C6F6BEC3AF0E7
:10222000010E0001986F010E996F7E0E9A6F000EDD
:102230009B6F7EEC39F00E0ECE6FDFEC37F00001B5
:102240008E51030A09E16051050806E3602B140E64
:10225000CE6FDFEC37F0346A00018E51040A09E1D9
:102260006051000806E26007100ECE6FDFEC37F019
:10227000346A00018E51010AD8A42AD115D1800EEA
:10228000006E800E5F18005C02E15E5009080001DC
:102290002EE35E4A5F2A346A800E006E800E5F185D
:1022A000005C02E15E500908000102E25E6A5F6ABA
:1022B00000018F0E986F000E996F340E9A6F7A0E90
:1022C0009B6F000E9C6F5EC09DF05FC09EF096EC11
:1022D0003AF0010E986F050E996F8F0E9A6F000EEF
:1022E0009B6F7EEC39F0100ECE6FDFEC37F0F0D044
:1022F000800E006E800E5D18005C02E15C500908E3
:102300002DE35C4A5D2A346A800E006E800E5D18F3
:10231000005C02E15C50090802E25C6A5D6A8F0EB3
:102320000001986F000E996F380E9A6F7A0E9B6FAE
:10233000000E9C6F5CC09DF05DC09EF096EC3AF084
:10234000010E986F060E996F8F0E9A6F000E9B6F9D
:102350007EEC39F0100ECE6FDFEC37F0B9D0800E86
:10236000006E800E5B18005C02E15A5009082DE3F4
:102370005A4A5B2A346A800E006E800E5B18005C3D
:1023800002E15A50090802E25A6A5B6A8F0E0001A4
:10239000986F000E996F3C0E9A6F7A0E9B6F000E2D
:1023A0009C6F5AC09DF05BC09EF096EC3AF0010E17
:1023B000986F070E996F8F0E9A6F000E9B6F7EECD1
:1023C00039F0100ECE6FDFEC37F082D0800E006E49
:1023D000800E5918005C02E1585009082DE3584A54
:1023E000592A346A800E006E800E5918005C02E192
:1023F0005850090802E2586A596A8F0E0001986F16
:10240000000E996F400E9A6F7A0E9B6F000E9C6FB4
:1024100058C09DF059C09EF096EC3AF0010E986FAE
:10242000080E996F8F0E9A6F000E9B6F7EEC39F03D
:10243000100ECE6FDFEC37F04BD0800E006E800EAA
:102440005718005C02E1565009082DE3564A572AF6
:10245000346A800E006E800E5718005C02E1565000
:10246000090802E2566A576A8F0E0001986F000E43
:10247000996F440E9A6F7A0E9B6F000E9C6F56C038
:102480009DF057C09EF096EC3AF0010E986F090E41
:10249000996F8F0E9A6F000E9B6F7EEC39F0100EC5
:1024A000CE6FDFEC37F014D000016051010AD8B4D0
:1024B000E6D66051020AD8B41BD76051030AD8B4DB
:1024C0004ED76051040AD8B481D76051050AB5E0EF
:1024D00000018E51020AD8A43ED129D1800E5F1886
:1024E000006E800E005C02E1000E5E5C000132E3D3
:1024F000010E5E5E000E5F5A346A800E5F18006E39
:10250000800E005C02E1000E5E5C000104E2090E38
:102510005E6E000E5F6E00018F0E986F000E996F59
:10252000480E9A6F7A0E9B6F000E9C6F5EC09DF0F6
:102530005FC09EF096EC3AF0010E986F050E996F11
:102540008F0E9A6F000E9B6F7EEC39F0100ECE6FDF
:10255000DFEC37F000D1800E5D18006E800E005C5D
:1025600002E1000E5C5C31E3010E5C5E000E5D5A20
:10257000346A800E5D18006E800E005C02E1000E71
:102580005C5C04E2090E5C6E000E5D6E8F0E000155
:10259000986F000E996F4C0E9A6F7A0E9B6F000E1B
:1025A0009C6F5CC09DF05DC09EF096EC3AF0010E11
:1025B000986F060E996F8F0E9A6F000E9B6F7EECD0
:1025C00039F0100ECE6FDFEC37F0C5D0800E5B18FF
:1025D000006E800E005C02E1000E5A5C31E3010ED9
:1025E0005A5E000E5B5A346A800E5B18006E800ED5
:1025F000005C02E1000E5A5C04E2090E5A6E000E05
:102600005B6E8F0E0001986F000E996F500E9A6FDF
:102610007A0E9B6F000E9C6F5AC09DF05BC09EF0BF
:1026200096EC3AF0010E986F070E996F8F0E9A6F25
:10263000000E9B6F7EEC39F0100ECE6FDFEC37F0A2
:102640008AD0800E5918006E800E005C02E1000EE8
:10265000585C31E3010E585E000E595A346A800E00
:102660005918006E800E005C02E1000E585C04E216
:10267000090E586E000E596E8F0E0001986F000EF5
:10268000996F540E9A6F7A0E9B6F000E9C6F58C014
:102690009DF059C09EF096EC3AF0010E986F080E2E
:1026A000996F8F0E9A6F000E9B6F7EEC39F0100EB3
:1026B000CE6FDFEC37F04FD0800E5718006E800ED3
:1026C000005C02E1000E565C31E3010E565E000E26
:1026D000575A346A800E5718006E800E005C02E173
:1026E000000E565C04E2090E566E000E576E8F0EF9
:1026F0000001986F000E996F580E9A6F7A0E9B6FBB
:10270000000E9C6F56C09DF057C09EF096EC3AF0BC
:10271000010E986F090E996F8F0E9A6F000E9B6FC6
:102720007EEC39F0100ECE6FDFEC37F014D00001E4
:102730006051010AD8B4D2D66051020AD8B40BD77E
:102740006051030AD8B442D76051040AD8B479D78B
:102750006051050AB1E000018E51050A5AE15EC0E0
:1027600000F05FC001F0100E046E270E056E06EC3F
:102770003AF000C094F001C095F05CC000F05DC07C
:1027800001F0E80E046E030E056E06EC3AF0005000
:102790009425756F01509521766F5AC000F05BC08B
:1027A00001F0640E046E000E056E06EC3AF0000EA9
:1027B00076BFFF0E776F786F005075270150762334
:1027C00058C000F059C001F00A0E046E000E056EEC
:1027D00006EC3AF0000E76BFFF0E776F786F005070
:1027E000752701507623000E76BFFF0E776F786F46
:1027F0005650752757507623000E76BFFF0E776F21
:10280000786F010ECE6FDFEC37F0060E00017C6FA3
:10281000346AD3D17E0E986F000E996FCE0E9A6FE8
:10282000780E9B6F000E9C6F6BEC3AF0010E00016E
:10283000986F010E996F7E0E9A6F000E9B6F7EEC63
:1028400039F09FEC32F000018E51030A0BE1010ECA
:102850004E26000E4F2250225122346A010ECE6FB6
:10286000DFEC37F000018E51040A13E1010E006E17
:10287000000E016E026E036E00504E5E01504F5A04
:102880000250505A0350515A346A010ECE6FDFEC99
:1028900037F07E0E0001986F000E996F5C0E9A6FF4
:1028A0007A0E9B6F000E9C6F4EC09DF04FC09EF045
:1028B00050C09FF051C0A0F096EC3AF0020E986F15
:1028C000010E996F7E0E9A6F000E9B6F7EEC39F0B1
:1028D0007E6B8E51050A07E1070E7C6F346A010E8C
:1028E000CE6FDFEC37F069D17E0E0001986F000EDD
:1028F000996FDA0E9A6F780E9B6F000E9C6F6BECDF
:102900003AF0010E0001986F010E996F7E0E9A6FDA
:10291000000E9B6F7EEC39F07E0E986F000E996F63
:10292000BE0E9A6F780E9B6F000E9C6F6BEC3AF0A8
:10293000020E0001986F040E996F7E0E9A6F000EC2
:102940009B6F7EEC39F09FEC32F000018E51030A50
:102950001FE169C000F06AC001F06BC002F06CC0FA
:1029600003F0000E046E000E056E000E066E7E0E65
:10297000076E08EC2AF000C069F001C06AF002C0DE
:102980006BF003C06CF0346A010ECE6FDFEC37F0F1
:1029900000018E51040A1FE1000E046E000E056E48
:1029A000000E066E7E0E076E69C000F06AC001F070
:1029B0006BC002F06CC003F08AEC3BF000C069F021
:1029C00001C06AF002C06BF003C06CF0346A010E03
:1029D000CE6FDFEC37F07E0E0001986F000E996F1E
:1029E000600E9A6F7A0E9B6F000E9C6F69C09DF00F
:1029F0006AC09EF06BC09FF06CC0A0F096EC3AF0FD
:102A0000020E986F010E996F7E0E9A6F000E9B6FEB
:102A10007EEC39F07E6B8E51050A07E1080E7C6F63
:102A2000346A010ECE6FDFEC37F0C7D07E0E0001A6
:102A3000986F000E996FE60E9A6F780E9B6F000EDE
:102A40009C6F6BEC3AF0010E0001986F010E996FCC
:102A50007E0E9A6F000E9B6F7EEC39F09FEC32F089
:102A600000018E51030A1FE165C000F066C001F04D
:102A700067C002F068C003F0CD0E046ECC0E056E88
:102A80004C0E066E7B0E076E08EC2AF000C065F057
:102A900001C066F002C067F003C068F0346A010E3E
:102AA000CE6FDFEC37F000018E51040A1FE1CD0E2E
:102AB000046ECC0E056E4C0E066E7B0E076E65C066
:102AC00000F066C001F067C002F068C003F08AEC55
:102AD0003BF000C065F001C066F002C067F003C0C3
:102AE00068F0346A010ECE6FDFEC37F07E0E000125
:102AF000986F000E996FBE0E9A6F780E9B6F000E46
:102B00009C6F6BEC3AF0020E0001986F040E996F07
:102B10007E0E9A6F000E9B6F7EEC39F07E0E986FE2
:102B2000000E996F640E9A6F7A0E9B6F000E9C6F69
:102B300065C09DF066C09EF067C09FF068C0A0F0C1
:102B400096EC3AF0020E986F010E996F7E0E9A6F16
:102B5000000E9B6F7EEC39F08E51050A07E1040EE2
:102B60007C6F346A010ECE6FDFEC37F026D00001A7
:102B70007C51010AD8B4C0EF01F07C51020AD8B4EC
:102B800039EF02F07C51030AD8B4B2EF0DF07C515A
:102B9000040AD8B430EF0FF07C51050AD8B4FDEF29
:102BA00010F07C51060AD8B435D67C51070AD8B447
:102BB0009BD67C51080AD8B439D700019FEC32F07B
:102BC00000C08EF0BDEF01F0FFD7280E0001AC6F02
:102BD0006E0EAD6F750EAE6F6C0EAF6F6C0EB06F8C
:102BE000290EB16FB26BBA6BBB6BB86BB96B0001DE
:102BF000A7C000F0A8C001F0A9C002F0010EA727ED
:102C0000000EA823A92300C0F6FF01C0F7FF02C0F1
:102C1000F8FF0900F5CF00F000C0B5F00052D8B4BD
:102C200004EF27F0B551250A0BE0A5C0E1FFA6C0CF
:102C3000E2FFB5C0E6FFA54BA62BBA4BBB2BD7D7FF
:102C4000B66BB76BB86BB96B000123D0B887010EB8
:102C5000A727000EA823A9235AD0B881010EA727C1
:102C6000000EA823A92353D0B883010EA727000E76
:102C7000A823A9234CD0B987010EA727000EA823AB
:102C8000A92345D0B885010EA727000EA823A923A4
:102C90003ED00001A7C0F6FFA8C0F7FFA9C0F8FF0B
:102CA0000900F5CFC6F0C6512D0AD0E0A7C0F6FF47
:102CB000A8C0F7FFA9C0F8FF0900F5CFC6F0C651BC
:102CC000200ACBE0A7C0F6FFA8C0F7FFA9C0F8FF15
:102CD0000900F5CFC6F0C6512B0AC6E0A7C0F6FF23
:102CE000A8C0F7FFA9C0F8FF0900F5CFC6F0C6518C
:102CF000230AC1E0A7C0F6FFA8C0F7FFA9C0F8FFEC
:102D00000900F5CFC6F0C651300ABCE001D09CD70F
:102D10000001B8B3B891B8B7B895A7C0F6FFA8C07E
:102D2000F7FFA9C0F8FF0900F5CF00F0000E016E13
:102D300000C0CEF038EC3BF0005238E00001B66B3A
:102D4000B76B0001B6C000F0B7C001F00A0E046E08
:102D5000000E056E06EC3AF0A7C0F6FFA8C0F7FF1C
:102D6000A9C0F8FF0900F5CFC6F0C6510024B66F20
:102D7000000E0120B76F300EB65F000EB75B010E7C
:102D8000A727000EA823A923A7C0F6FFA8C0F7FF16
:102D9000A9C0F8FF0900F5CF00F0000E016E00C0D9
:102DA000CEF038EC3BF00052CCE136D0A7C0F6FFB5
:102DB000A8C0F7FFA9C0F8FF0900F5CFC6F00001D1
:102DC000C6512A0A29E1AAC0E9FFABC0EAFFEECF4B
:102DD00000F0EECF01F000C0E9FF01C0EAFFEECF46
:102DE000B6F0EECFB7F0AAC0E9FFABC0EAFFEECF76
:102DF00000F0EECF01F0020E0026000E0122AAC064
:102E0000E1FFABC0E2FF00C0E6FF01C0E6FF010E3C
:102E1000A727000EA823A9230001A7C0F6FFA8C07A
:102E2000F7FFA9C0F8FF0900F5CFC6F0C6512E0A7A
:102E300073E1010EA727000EA823A923A7C0F6FF60
:102E4000A8C0F7FFA9C0F8FF0900F5CFC6F0C6512A
:102E50002A0A2AE1AAC0E9FFABC0EAFFEECF00F0E0
:102E6000EECF01F000C0E9FF01C0EAFFEECFB3F002
:102E7000EECFB4F0AAC0E9FFABC0EAFFEECF00F09E
:102E8000EECF01F0020E0026000E0122AAC0E1FFE3
:102E9000ABC0E2FF00C0E6FF01C0E6FF010EA727BE
:102EA000000EA823A92336D0B36BB46BA7C0F6FFDE
:102EB000A8C0F7FFA9C0F8FF0900F5CF00F0000E89
:102EC000016E00C0CEF038EC3BF0005223E0B3C0FE
:102ED00000F0B4C001F00A0E046E000E056E06ECA0
:102EE0003AF0A7C0F6FFA8C0F7FFA9C0F8FF090095
:102EF000F5CFC6F0C6510024B36F000E0120B46FA9
:102F0000300EB35F000EB45B010EA727000EA8239E
:102F1000A923CCD7000104D00001B36BB46BB989ED
:102F20000001A7C000F0A8C001F0A9C002F0010E86
:102F3000A727000EA823A92300C0F6FF01C0F7FFB2
:102F400002C0F8FF0900F5CFB5F0EDD0BAC000F02F
:102F5000BBC001F01200B889E3D7B9851FD1B88B87
:102F6000B9811CD1B9831AD1B88D18D117D1B88BBA
:102F7000B88F14D1AAC0E9FFABC0EAFFEECF00F0D2
:102F8000EECF01F000C0E9FF01C0EAFFEECFC2F0D2
:102F9000EECFC3F0AAC0E9FFABC0EAFFEECF00F06E
:102FA000EECF01F0020E0026000E0122AAC0E1FFC2
:102FB000ABC0E2FF00C0E6FF01C0E6FF000EC31990
:102FC00002E1000EC21904E1AC0EC26F000EC36F25
:102FD0000001C46BC56BC451C225E96EC551C32144
:102FE000EA6EEECF00F0005203E0C44BC52BF3D7DE
:102FF000B351B4110AE0C551B45D02E1C451B35DEF
:1030000004E2B3C0C4F0B4C0C5F00001B751C55D5F
:1030100002E1B651C45D05E2C451B65FC551B75B6C
:1030200003D00001B66BB76BB8B716D0B6C000F0CE
:10303000B7C001F0010EB65F000EB75B0050011083
:103040000BE0A5C0E1FFA6C0E2FF200EE66EA54B97
:10305000A62BBA4BBB2BEAD7C4C000F0C5C001F009
:10306000010EC45F000EC55B0050011013E0C2C02A
:10307000E9FFC3C0EAFFEECF00F0A5C0E1FFA6C0A4
:10308000E2FF00C0E6FFA54BA62BC24BC32BBA4BF9
:10309000BB2BE2D7B8A716D0B6C000F0B7C001F07E
:1030A000010EB65F000EB75B005001100BE0A5C02B
:1030B000E1FFA6C0E2FF200EE66EA54BA62BBA4BA1
:1030C000BB2BEAD794D5AAC0E9FFABC0EAFFEECF8D
:1030D00000F0EECF01F000C0E9FF01C0EAFFEECF43
:1030E000B5F0AAC0E9FFABC0EAFFEECF00F0EECF2B
:1030F00001F0020E0026000E0122AAC0E1FFABC0C3
:10310000E2FF00C0E6FF01C0E6FFB50EC26F000E91
:10311000C36F010EC46F000EC56F6AD7C00EB8131F
:10312000000EB9133BD0B551000AD8B40FD7B55132
:103130006C0AD8B410D7B551660AD8B40ED7B551B9
:10314000450AD8B40CD7B551650AD8B409D7B551DA
:10315000670AD8B407D7B5516F0AD8B405D7B551A7
:10316000640AD8B403D7B551690AD8B4FFD6B551AB
:10317000700AD8B4FCD6B551580AD8B4F8D6B551AF
:10318000780AD8B4F5D6B551730AD8B4F3D6B55188
:10319000630A99E0B551750AC1E0B7D70001000E86
:1031A000B815006EB951070B016E00500110D8B46C
:1031B00040EF22F0B9A904D0060EB36F000EB46F31
:1031C000AAC0E9FFABC0EAFFEECF00F0EECF01F0FE
:1031D00000C0E9FF01C0EAFFEECFBCF0EECFBDF0CA
:1031E000EECFBEF0EECFBFF0AAC0E9FFABC0EAFF62
:1031F000EECF00F0EECF01F0040E0026000E01220B
:10320000AAC0E1FFABC0E2FF00C0E6FF01C0E6FFDD
:10321000046A056A066A076ABCC000F0BDC001F016
:10322000BEC002F0BFC003F056EC38F0010ED8B0BB
:10323000000E006E005205E0BE7F030EB813000EB4
:10324000B9130001C06BC16BBCC000F0BDC001F080
:10325000BEC002F0BFC003F0046A056A066A076ACE
:10326000BCEC3AF0000ED8A4010E006E0052D8B4A7
:1032700096D0BFC000F0016A026A036AFF0E001414
:10328000CA6F000ECB6F000ECB177E0EC66F000EFE
:10329000C76FC86FC96FC651CA5D006EC751CB59A1
:1032A000016E00C0C0F001C0C1F0010E005CC06F33
:1032B000000E0158C16FC0C000F0C1C001F0030E84
:1032C000046E000E056E06EC3AF000C0C0F001C0BE
:1032D000C1F00A0E046E000E056EBEEC38F000C0A0
:1032E000C0F001C0C1F0800E0118C66F800EC65D2F
:1032F00002E1000E005C04E2010EC05F000EC15B43
:103300000001C0510008CE6F09EC27F0BCC004F0EA
:10331000BDC005F0BEC006F0BFC007F0D3EC36F06C
:1033200000C0C2F001C0C3F002C0C4F003C0C5F0C9
:10333000000E046E000E056E000E066E7F0E076E08
:10334000C2C000F0C3C001F0C4C002F0C5C003F0A9
:1033500056EC38F0010ED8B0000E006E005205E0B9
:10336000010EC05F000EC15B1AD0000E046E000E8D
:10337000056E200E066E820E076EC2C000F0C3C03E
:1033800001F0C4C002F0C5C003F056EC38F0000EE6
:10339000D8B0010E006E005202E0C04BC12B0001FC
:1033A000800E006E800EC119005C02E1C051000861
:1033B00003E3010EB56F03D00001C0C0B5F0B9B191
:1033C0001AD0B9A315D0800EC119006E7F0E005C13
:1033D00002E1FC0EC05D0AE3800EC119006E800E92
:1033E000B419005C02E1B351C05D02E3000103D0F7
:1033F000000133EF1EF00001B351B41106E0B9A390
:1034000004D0010EB35F000EB45B000E006EB45129
:10341000005C02E1B351080803E2080EB56F03D067
:103420000001B3C0B5F0BCC000F0BDC001F0BEC02B
:1034300002F0BFC003F0046A056A066A076ABCECC2
:103440003AF0000ED8A4010E006E0052D8B460D13C
:10345000C0C0CEF009EC27F000C004F001C005F0B8
:1034600002C006F003C007F0BCC000F0BDC001F010
:10347000BEC002F0BFC003F0F2EC34F000C0BCF0FC
:1034800001C0BDF002C0BEF003C0BFF0B5510008DE
:10349000CE6F09EC27F000C004F001C005F002C0B7
:1034A00006F003C007F0BCC000F0BDC001F0BEC014
:1034B00002F0BFC003F0F2EC34F000C0C6F001C06F
:1034C000C7F002C0C8F003C0C9F0C6C0BCF0C7C096
:1034D000BDF0C8C0BEF0C9C0BFF0C6C000F0C7C0D4
:1034E00001F0C8C002F0C9C003F09CEC35F0D4EC88
:1034F0003AF000C004F001C005F002C006F003C0BD
:1035000007F0C6C000F0C7C001F0C8C002F0C9C0D3
:1035100003F08AEC3BF0000E046E000E056E000E08
:10352000066E7E0E076E56EC38F0000ED8B0010E17
:10353000006E00521AE0BCC000F0BDC001F0BEC079
:1035400002F0BFC003F0000E046E000E056E000E08
:10355000066E7E0E076E08EC2AF000C0BCF001C0BB
:10356000BDF002C0BEF003C0BFF0BCC000F0BDC0E3
:1035700001F0BEC002F0BFC003F09CEC35F000C00B
:10358000CAF001C0CBF002C0CCF003C0CDF0B55101
:10359000010F006E016A000E0122020E046E000E81
:1035A00001BEFF0E026E036E0450000107E00036FC
:1035B0000090013602360336FF0FF7D70001900E58
:1035C0000026770E0122000E022200C0F6FF01C085
:1035D000F7FF02C0F8FF0900F5CFC6F00900F5CFEC
:1035E000C7F00900F5CFC8F00900F5CFC9F0C951FF
:1035F000CD5D08E1C851CC5D05E1C751CB5D02E16D
:10360000C651CA5D1DE3BCC000F0BDC001F0BEC024
:1036100002F0BFC003F0CD0E046ECC0E056E4C0E52
:10362000066E7B0E076ED3EC36F000C0BCF001C016
:10363000BDF002C0BEF003C0BFF0C04BC12B68D0CC
:103640000001BCC000F0BDC001F0BEC002F0BFC0B0
:1036500003F09CEC35F000C0CAF001C0CBF002C012
:10366000CCF003C0CDF0020E046EB5C000F0000E29
:10367000016E026E036E0450000107E000360090F8
:10368000013602360336FF0FF7D70001900E0026F1
:10369000770E0122000E022200C0F6FF01C0F7FFE4
:1036A00002C0F8FF0900F5CFC6F00900F5CFC7F05A
:1036B0000900F5CFC8F00900F5CFC9F0C951CD5DBB
:1036C00008E1C851CC5D05E1C751CB5D02E1C651AF
:1036D000CA5D1EE2BCC000F0BDC001F0BEC002F079
:1036E000BFC003F0000E046E000E056E200E066EC5
:1036F000820E076ED3EC36F000C0BCF001C0BDF006
:1037000002C0BEF003C0BFF0010EC05F000EC15B7F
:103710000001B9A395D0B9B793D0800E000A006E0E
:10372000800EB419005C02E1B3510A0804E20A0EEB
:10373000B36F000EB46F0001BCC000F0BDC001F05B
:10374000BEC002F0BFC003F09CEC35F000C0C2F078
:1037500001C0C3F002C0C4F003C0C5F0C251C31120
:10376000C411C51142E00A0E046E000E056E066E0D
:10377000076EC2C000F0C3C001F0C4C002F0C5C0F3
:1037800003F0ADEC2DF008C000F009C001F00AC054
:1037900002F00BC003F0000EC66F031808E1C6511B
:1037A000021805E1C651011802E10050000A1DE1AE
:1037B000010EB35F000EB45B0A0E046E000E056EC0
:1037C000066E076EC2C000F0C3C001F0C4C002F0B4
:1037D000C5C003F0ADEC2DF000C0C2F001C0C3F0D5
:1037E00002C0C4F003C0C5F0B9D70001800EB419FF
:1037F000006E800E005C02E1B551B35D21E2B35171
:10380000B55DCE6F09EC27F000C004F001C005F0F3
:1038100002C006F003C007F0BCC000F0BDC001F05C
:10382000BEC002F0BFC003F0F2EC34F000C0BCF048
:1038300001C0BDF002C0BEF003C0BFF0B3C0B5F020
:103840000001050EB325006E000EB421016E00507C
:10385000B65F0150B75BB351B41102E1B9A704D010
:10386000010EB65F000EB75B030EB815006EB9C04F
:1038700001F0000E01160050011004E0010EB65FC9
:10388000000EB75BB8A54AD0B8A31AD0010EB81580
:10389000006EB9C001F0000E01160050011003E0E7
:1038A0002D0E006E02D02B0E006EA5C0E1FFA6C04B
:1038B000E2FF00C0E6FFA54BA62BBA4BBB2B14D0F2
:1038C000010EB815006EB9C001F0000E01160050CF
:1038D00001100AE0A5C0E1FFA6C0E2FF200EE66EDF
:1038E000A54BA62BBA4BBB2B800E006E800EB719D2
:1038F000005C02E1B65100080FE2A5C0E1FFA6C0DE
:10390000E2FF300EE66EA54BA62BBA4BBB2B010E89
:10391000B65F000EB75BE8D700014BD0B8B718D040
:10392000800E006E800EB719005C02E1B6510008EF
:103930000FE2A5C0E1FFA6C0E2FF200EE66EA54B98
:10394000A62BBA4BBB2B010EB65F000EB75BE8D7B8
:103950000001B8A31AD0010EB815006EB9C001F06D
:10396000000E01160050011003E02D0E006E02D073
:103970002B0E006EA5C0E1FFA6C0E2FF00C0E6FF6F
:10398000A54BA62BBA4BBB2B14D0010EB815006E5D
:10399000B9C001F0000E0116005001100AE0A5C0E8
:1039A000E1FFA6C0E2FF200EE66EA54BA62BBA4BA8
:1039B000BB2B0001BCC000F0BDC001F0BEC002F0D6
:1039C000BFC003F09CEC35F000C0C2F001C0C3F0F2
:1039D00002C0C4F003C0C5F0020E046EB5C000F012
:1039E000000E016E026E036E0450000107E0003607
:1039F0000090013602360336FF0FF7D70001900E14
:103A00000026770E0122000E022200C0F6FF01C040
:103A1000F7FF02C0F8FF0900F5CF04F00900F5CF69
:103A200005F00900F5CF06F00900F5CF07F0C2C098
:103A300000F0C3C001F0C4C002F0C5C003F0ADEC9B
:103A40002DF0300E0026A5C0E1FFA6C0E2FF00C0A9
:103A5000E6FFA54BA62BBA4BBB2BB351B41102E129
:103A6000B9A775D0A5C0E1FFA6C0E2FF2E0EE66E95
:103A7000A54BA62BBA4BBB2BB551B35F000EB45B65
:103A8000B55353E0B507020E046EB5C000F0000E4A
:103A9000016E026E036E0450000107E000360090D4
:103AA000013602360336FF0FF7D70001900E0026CD
:103AB000770E0122000E022200C0F6FF01C0F7FFC0
:103AC00002C0F8FF0900F5CF04F00900F5CF05F0BA
:103AD0000900F5CF06F00900F5CF07F0C2C000F0ED
:103AE000C3C001F0C4C002F0C5C003F0ADEC2DF0BE
:103AF0000A0E046E000E056E066E076EADEC2DF01C
:103B000008C000F009C001F00AC002F00BC003F0C9
:103B1000300E0026A5C0E1FFA6C0E2FF00C0E6FF10
:103B2000A54BA62BBA4BBB2BABD7B351B4110FE0AF
:103B3000A5C0E1FFA6C0E2FF300EE66EA54BA62BA6
:103B4000BA4BBB2B010EB35F000EB45BEED7B8AB24
:103B50000BD0A5C0E1FFA6C0E2FF450EE66EA54B67
:103B6000A62BBA4BBB2B0AD0A5C0E1FFA6C0E2FF33
:103B7000650EE66EA54BA62BBA4BBB2B800EC1196A
:103B8000006E800E005C02E1000EC05D12E2C051CA
:103B90000008C06FC1C0C1F0E86AC157A5C0E1FF0D
:103BA000A6C0E2FF2D0EE66EA54BA62BBA4BBB2B93
:103BB0000BD00001A5C0E1FFA6C0E2FF2B0EE66E10
:103BC000A54BA62BBA4BBB2B0A0E046E000E056E3E
:103BD000C0C000F0C1C001F0BEEC38F0300E0026CD
:103BE000A5C0E1FFA6C0E2FF00C0E6FFA54BA62BE3
:103BF000BA4BBB2B0A0E046E000E056EC0C000F05F
:103C0000C1C001F0BEEC38F008C000F009C001F0FE
:103C1000300E0026A5C0E1FFA6C0E2FF00C0E6FF0F
:103C2000A54BA62BBA4BBB2BB8A71AD0800E006EA3
:103C3000800EB719005C02E1B651000811E2A5C080
:103C4000E1FFA6C0E2FF200EE66EA54BA62BBA4B05
:103C5000BB2B010EB65F000EB75BB651B711EFE19B
:103C60000001F7EF15F00001B9A3FAD0800EC119D9
:103C7000006E800E005C02E1000EC05D0AE2010EE3
:103C8000C05D006E000EC159016E0050B35F01505F
:103C9000B45B0001BCC000F0BDC001F0BEC002F0CA
:103CA000BFC003F09CEC35F000C0C2F001C0C3F00F
:103CB00002C0C4F003C0C5F0010EB56FB5510A0AC9
:103CC00039E0020E046EB5C000F0000E016E026E07
:103CD000036E0450000107E0003600900136023602
:103CE0000336FF0FF7D70001900E0026770E012252
:103CF000000E022200C0F6FF01C0F7FF02C0F8FF6D
:103D00000900F5CFC6F00900F5CFC7F00900F5CFDF
:103D1000C8F00900F5CFC9F0C951C55D08E1C85127
:103D2000C45D05E1C751C35D02E1C651C25D02E356
:103D3000B52BC4D70001B551B35DCA6F000EB4599D
:103D4000CB6FCAC0B3F0CBC0B4F0C2C000F0C3C0E8
:103D500001F0C4C002F0C5C003F0D4EC3AF000C0DA
:103D600004F001C005F002C006F003C007F0BCC0BB
:103D700000F0BDC001F0BEC002F0BFC003F08AEC8D
:103D80003BF000C0C6F001C0C7F002C0C8F003C0DD
:103D9000C9F0CAC0CEF009EC27F0C6C004F0C7C015
:103DA00005F0C8C006F0C9C007F0D3EC36F0000E2D
:103DB000046E000E056E000E066E7E0E076E08EC99
:103DC0002AF09CEC35F000C0C2F001C0C3F002C084
:103DD000C4F003C0C5F0B351B41142E00A0E046E42
:103DE000000E056E066E076EC2C000F0C3C001F083
:103DF000C4C002F0C5C003F0ADEC2DF008C000F067
:103E000009C001F00AC002F00BC003F0000EC66F3B
:103E1000031808E1C651021805E1C651011802E174
:103E20000050000A1DE10A0E046E000E056E066EBB
:103E3000076EC2C000F0C3C001F0C4C002F0C5C02C
:103E400003F0ADEC2DF000C0C2F001C0C3F002C021
:103E5000C4F003C0C5F0010EB35F000EB45BBBD766
:103E60000001800E006E800EB419005C02E1B351B7
:103E70000C0816E3B3C0CEF01CEC2CF0BCC004F070
:103E8000BDC005F0BEC006F0BFC007F008EC2AF0C8
:103E900000C0BCF001C0BDF002C0BEF003C0BFF066
:103EA0000001BCC000F0BDC001F0BEC002F0BFC048
:103EB00003F0046A056A066A076ABCEC3AF0000E71
:103EC000D8A4010E006E0052D8B475D0BCC000F06A
:103ED000BDC001F0BEC002F0BFC003F09CEC35F0E5
:103EE000000EC66F031808E1C651021805E1C6515D
:103EF000011802E10050000A5EE1800E006E800EA3
:103F0000C119005C02E1C051010855E2C0C0CEF009
:103F100009EC27F000C004F001C005F002C006F073
:103F200003C007F0BCC000F0BDC001F0BEC002F08D
:103F3000BFC003F0F2EC34F05F0E046E700E056E3D
:103F4000090E066E810E076E56EC38F0010ED8B0E1
:103F5000000E006E005205E0090EC05F000EC15B4E
:103F600005D00001080EC05F000EC15BC0C0CEF0DE
:103F700009EC27F000C004F001C005F002C006F013
:103F800003C007F0BCC000F0BDC001F0BEC002F02D
:103F9000BFC003F0F2EC34F09CEC35F000C0C2F08E
:103FA00001C0C3F002C0C4F003C0C5F0BC6BBD6B60
:103FB000BE6BBF6B39D00001BCC000F0BDC001F0CA
:103FC000BEC002F0BFC003F09CEC35F000C0C2F0F0
:103FD00001C0C3F002C0C4F003C0C5F0C2C000F00D
:103FE000C3C001F0C4C002F0C5C003F0D4EC3AF085
:103FF00000C004F001C005F002C006F003C007F0E5
:10400000BCC000F0BDC001F0BEC002F0BFC003F0F4
:104010008AEC3BF000C0BCF001C0BDF002C0BEF0B5
:1040200003C0BFF0C06BC16B010EB56FB5510A0A7A
:1040300039E0020E046EB5C000F0000E016E026E93
:10404000036E0450000107E000360090013602368E
:104050000336FF0FF7D70001900E0026770E0122DE
:10406000000E022200C0F6FF01C0F7FF02C0F8FFF9
:104070000900F5CFC6F00900F5CFC7F00900F5CF6C
:10408000C8F00900F5CFC9F0C951C55D08E1C851B4
:10409000C45D05E1C751C35D02E1C651C25D02E3E3
:1040A000B52BC4D70001B551B325006E000EB42165
:1040B000016EC0510026C15101220050B65F01506F
:1040C000B75BB9B703D0B351B41104E0010EB65FCA
:1040D000000EB75B030EB815006EB9C001F0000EFC
:1040E00001160050011004E0010EB65F000EB75B30
:1040F000B8A54AD0B8A31AD0010EB815006EB9C041
:1041000001F0000E01160050011003E02D0E006EAC
:1041100002D02B0E006EA5C0E1FFA6C0E2FF00C0DA
:10412000E6FFA54BA62BBA4BBB2B14D0010EB8153E
:10413000006EB9C001F0000E0116005001100AE037
:10414000A5C0E1FFA6C0E2FF200EE66EA54BA62BA0
:10415000BA4BBB2B800E006E800EB719005C02E1DB
:10416000B65100080FE2A5C0E1FFA6C0E2FF300E85
:10417000E66EA54BA62BBA4BBB2B010EB65F000E0D
:10418000B75BE8D700014BD0B8B718D0800E006EEF
:10419000800EB719005C02E1B65100080FE2A5C01D
:1041A000E1FFA6C0E2FF200EE66EA54BA62BBA4BA0
:1041B000BB2B010EB65F000EB75BE8D70001B8A3BA
:1041C0001AD0010EB815006EB9C001F0000E01162C
:1041D0000050011003E02D0E006E02D02B0E006E79
:1041E000A5C0E1FFA6C0E2FF00C0E6FFA54BA62BDD
:1041F000BA4BBB2B14D0010EB815006EB9C001F03C
:10420000000E0116005001100AE0A5C0E1FFA6C093
:10421000E2FF200EE66EA54BA62BBA4BBB2B00018E
:10422000B5C000F0B507005252E0020E046EB5C0F2
:1042300000F0000E016E026E036E0450000107E0F4
:1042400000360090013602360336FF0FF7D7000123
:10425000900E0026770E0122000E022200C0F6FF0B
:1042600001C0F7FF02C0F8FF0900F5CF04F0090014
:10427000F5CF05F00900F5CF06F00900F5CF07F0FE
:10428000C2C000F0C3C001F0C4C002F0C5C003F05A
:10429000ADEC2DF00A0E046E000E056E066E076E74
:1042A000ADEC2DF008C000F009C001F00AC002F02A
:1042B0000BC003F0300E0026A5C0E1FFA6C0E2FF50
:1042C00000C0E6FFA54BA62BBA4BBB2BA8D7800E90
:1042D000006E800EC119005C02E1C05100080FE2BF
:1042E000A5C0E1FFA6C0E2FF300EE66EA54BA62BEF
:1042F000BA4BBB2B010EC05F000EC15BE8D70001BB
:10430000800E000A006E800EB419005C02E1B35109
:10431000080803E2080EB56F03D00001B3C0B5F082
:10432000B551B35F000EB45BB55302E1B9A70AD033
:10433000A5C0E1FFA6C0E2FF2E0EE66EA54BA62BA0
:10434000BA4BBB2BB5C0CEF009EC27F0BCC004F0D3
:10435000BDC005F0BEC006F0BFC007F0D3EC36F01C
:1043600039EC36F000C0C2F001C0C3F002C0C4F0A6
:1043700003C0C5F0B55353E0B507020E046EB5C0D7
:1043800000F0000E016E026E036E0450000107E0A3
:1043900000360090013602360336FF0FF7D70001D2
:1043A000900E0026770E0122000E022200C0F6FFBA
:1043B00001C0F7FF02C0F8FF0900F5CF04F00900C3
:1043C000F5CF05F00900F5CF06F00900F5CF07F0AD
:1043D000C2C000F0C3C001F0C4C002F0C5C003F009
:1043E000ADEC2DF00A0E046E000E056E066E076E23
:1043F000ADEC2DF008C000F009C001F00AC002F0D9
:104400000BC003F0300E0026A5C0E1FFA6C0E2FFFE
:1044100000C0E6FFA54BA62BBA4BBB2BABD7B351C5
:10442000B4110FE0A5C0E1FFA6C0E2FF300EE66EBA
:10443000A54BA62BBA4BBB2B010EB35F000EB45B92
:10444000EED7B8A71AD0800E006E800EB719005CA8
:1044500002E1B651000811E2A5C0E1FFA6C0E2FFEB
:10446000200EE66EA54BA62BBA4BBB2B010EB65FFA
:10447000000EB75BB651B711EFE10001F7EF15F091
:10448000C00EB815C66FB9C0C7F0000EC717000E32
:10449000C71902E1000EC619D8A482D0B8A929D044
:1044A000AAC0E9FFABC0EAFFEECF00F0EECF01F00B
:1044B00000C0E9FF01C0EAFFEECFC2F0EECFC3F0CB
:1044C000EECFC4F0EECFC5F0AAC0E9FFABC0EAFF63
:1044D000EECF00F0EECF01F0040E0026000E012218
:1044E000AAC0E1FFABC0E2FF00C0E6FF01C0E6FFEB
:1044F0002ED0AAC0E9FFABC0EAFFEECF00F0EECFAE
:1045000001F000C0E9FF01C0EAFFEECFC2F0EECF3C
:10451000C3F0000EC3BFFF0EC46FC56F000EC3BF54
:10452000FF0EC46FC56FAAC0E9FFABC0EAFFEECFB4
:1045300000F0EECF01F0020E0026000E0122AAC00C
:10454000E1FFABC0E2FF00C0E6FF01C0E6FF800E66
:10455000C519006E800E005C08E1000EC45D05E127
:10456000000EC35D02E1000EC25D18E2030EB81337
:10457000000EB913006A016A026A036AC251005E42
:10458000C351015AC451025AC551035A00C0C2F066
:1045900001C0C3F002C0C4F003C0C5F0000156D092
:1045A0000001B8A929D0AAC0E9FFABC0EAFFEECF4D
:1045B00000F0EECF01F000C0E9FF01C0EAFFEECF4E
:1045C000C2F0EECFC3F0EECFC4F0EECFC5F0AAC07C
:1045D000E9FFABC0EAFFEECF00F0EECF01F0040E32
:1045E0000026000E0122AAC0E1FFABC0E2FF00C01E
:1045F000E6FF01C0E6FF2AD0AAC0E9FFABC0EAFF90
:10460000EECF00F0EECF01F000C0E9FF01C0EAFFFD
:10461000EECFC2F0EECFC3F0000EC46FC56F000E38
:10462000C46FC56FAAC0E9FFABC0EAFFEECF00F0D0
:10463000EECF01F0020E0026000E0122AAC0E1FF1B
:10464000ABC0E2FF00C0E6FF01C0E6FF0001000EC4
:10465000B41902E1000EB3190FE1000E006EC51986
:1046600008E10050C41905E10050C31902E1C2512C
:10467000000A02E1B34BB42B0001C00EB815006E66
:1046800000C0CAF0C0D0010EB56FB5510A0A39E0BA
:10469000020E046EB5C000F0000E016E026E036ED5
:1046A0000450000107E00036009001360236033660
:1046B000FF0FF7D70001900E0026770E0122000EA3
:1046C000022200C0F6FF01C0F7FF02C0F8FF090098
:1046D000F5CFC6F00900F5CFC7F00900F5CFC8F057
:1046E0000900F5CFC9F0C951C55D08E1C851C45DE5
:1046F00005E1C751C35D02E1C651C25D02E3B52BBE
:10470000C4D700018FD0010EB56FB551080A39E04A
:10471000020E046EB5C000F0000E016E026E036E54
:104720000450000107E000360090013602360336DF
:10473000FF0FF7D70001B80E0026770E0122000EFA
:10474000022200C0F6FF01C0F7FF02C0F8FF090017
:10475000F5CFC6F00900F5CFC7F00900F5CFC8F0D6
:104760000900F5CFC9F0C951C55D08E1C851C45D64
:1047700005E1C751C35D02E1C651C25D02E3B52B3D
:10478000C4D700014FD0010EB56FB5510C0A39E006
:10479000020E046EB5C000F0000E016E026E036ED4
:1047A0000450000107E0003600900136023603365F
:1047B000FF0FF7D70001D80E0026770E0122000E5A
:1047C000022200C0F6FF01C0F7FF02C0F8FF090097
:1047D000F5CFC6F00900F5CFC7F00900F5CFC8F056
:1047E0000900F5CFC9F0C951C55D08E1C851C45DE4
:1047F00005E1C751C35D02E1C651C25D02E3B52BBD
:10480000C4D700010FD0CA51000AD8B43CD7CA514E
:10481000C00AD8B438D7CA51800AD8B474D7CA519C
:10482000400AB1E00001800E006E800EB419005CF9
:1048300002E1B351B55D03E2B3C0B5F00ED00001A3
:10484000800EB419006E800E005C02E1B551B35DBC
:1048500004E2B5C0B3F0000EB46F0001B651B71159
:104860000EE0030EB815006EB9C001F0000E01167F
:104870000050011004E0010EB65F000EB75B800E21
:10488000B419006E800EB719005C02E1B651B35D39
:1048900005E2B351B65FB451B75B03D00001B66B0C
:1048A000B76BC40EB815C66FB951080BC76FC751A7
:1048B000080A02E1400EC61908E1B651B71104E03A
:1048C000010EB65F000EB75B1ED00001C00EB8151A
:1048D000C66FB951080BC76FC751080A02E1800EB5
:1048E000C61911E1800E006E800EB719005C02E15E
:1048F000B651020805E2020EB65F000EB75B03D0A8
:104900000001B66BB76B0001B8A56ED0B8A31AD082
:10491000010EB815006EB9C001F0000E011600506E
:10492000011003E02D0E006E02D02B0E006EA5C00C
:10493000E1FFA6C0E2FF00C0E6FFA54BA62BBA4BE5
:10494000BB2B3CD0010EB815006EB9C001F0000EB3
:104950000116005001100BE0A5C0E1FFA6C0E2FF68
:10496000200EE66EA54BA62BBA4BBB2B27D0C00E54
:10497000B815C66FB951080BC76FC751080A02E1D5
:10498000800EC6191BE1A5C0E1FFA6C0E2FF300EF4
:10499000E66EA54BA62BBA4BBB2BB8AB03D0580E7B
:1049A000006E02D0780E006EA5C0E1FFA6C0E2FF47
:1049B00000C0E6FFA54BA62BBA4BBB2B0001B6519E
:1049C000B71111E0A5C0E1FFA6C0E2FF300EE66E10
:1049D000A54BA62BBA4BBB2B010EB65F000EB75BE7
:1049E000B651B711EFE185D0B651B71113E0B8B7A2
:1049F00011D0A5C0E1FFA6C0E2FF200EE66EA54BD8
:104A0000A62BBA4BBB2B010EB65F000EB75BB6519F
:104A1000B711EFE1B8A31AD0010EB815006EB9C0F6
:104A200001F0000E01160050011003E02D0E006E83
:104A300002D02B0E006EA5C0E1FFA6C0E2FF00C0B1
:104A4000E6FFA54BA62BBA4BBB2B14D0010EB81515
:104A5000006EB9C001F0000E0116005001100AE00E
:104A6000A5C0E1FFA6C0E2FF200EE66EA54BA62B77
:104A7000BA4BBB2BC00EB815C66FB951080BC76F28
:104A8000C751080A02E1400EC6190BE1A5C0E1FFBB
:104A9000A6C0E2FF300EE66EA54BA62BBA4BBB2B91
:104AA00028D00001C00EB815C66FB951080BC76FEA
:104AB000C751080A02E1800EC6191BE1A5C0E1FF3B
:104AC000A6C0E2FF300EE66EA54BA62BBA4BBB2B61
:104AD000B8AB03D0580E006E02D0780E006EA5C0A1
:104AE000E1FFA6C0E2FF00C0E6FFA54BA62BBA4B34
:104AF000BB2B0001800E006E800EB419005C02E139
:104B0000B351B55D0BE2A5C0E1FFA6C0E2FF300ED8
:104B1000E66EA54BA62BBA4BBB2BEBD70001B3C05F
:104B200000F0B4C001F0010EB35F000EB45B0050A2
:104B30000110D8B44AD1C00EB815006E00C0C6F03E
:104B400029D1020E046EB3C000F0B4C001F0000E13
:104B5000B4BFFF0E026E036E0450000107E0003682
:104B60000090013602360336FF0FF7D70001900E92
:104B70000026770E0122000E022200C0F6FF01C0BF
:104B8000F7FF02C0F8FF0900F5CF04F00900F5CFE8
:104B900005F00900F5CF06F00900F5CF07F0C2C017
:104BA00000F0C3C001F0C4C002F0C5C003F0ADEC1A
:104BB0002DF00A0E046E000E056E066E076EADEC4B
:104BC0002DF008C000F009C001F00AC002F00BC0CF
:104BD00003F0300E0024B56FECD0B8AB4ED0020E0F
:104BE000046EB3C000F0B4C001F0000EB4BFFF0EFD
:104BF000026E036E0450000107E00036009001369B
:104C000002360336FF0FF7D70001B80E0026770EE5
:104C10000122000E022200C0F6FF01C0F7FF02C011
:104C2000F8FF0900F5CF04F00900F5CF05F0090001
:104C3000F5CF06F00900F5CF07F0C2C000F0C3C001
:104C400001F0C4C002F0C5C003F0ADEC2DF00F0EB2
:104C50000016000E011602160316080E0026780E26
:104C60000122000E022200C0F6FF01C0F7FF02C0C1
:104C7000F8FF0900F5CFB5F04DD0020E046EB3C0B9
:104C800000F0B4C001F0000EB4BFFF0E026E036E60
:104C90000450000107E0003600900136023603366A
:104CA000FF0FF7D70001B80E0026770E0122000E85
:104CB000022200C0F6FF01C0F7FF02C0F8FF0900A2
:104CC000F5CF04F00900F5CF05F00900F5CF06F0A7
:104CD0000900F5CF07F0C2C000F0C3C001F0C4C0A6
:104CE00002F0C5C003F0ADEC2DF00F0E0016000E63
:104CF0000116021603161A0E0026780E0122000E67
:104D0000022200C0F6FF01C0F7FF02C0F8FF090051
:104D1000F5CFB5F000014DD0020E046EB3C000F027
:104D2000B4C001F0000EB4BFFF0E026E036E04505B
:104D3000000107E000360090013602360336FF0F0F
:104D4000F7D70001D80E0026770E0122000E0222AE
:104D500000C0F6FF01C0F7FF02C0F8FF0900F5CF61
:104D600004F00900F5CF05F00900F5CF06F00900C1
:104D7000F5CF07F0C2C000F0C3C001F0C4C002F01C
:104D8000C5C003F0ADEC2DF0070E0014B56F300E6A
:104D9000B5270FD0C651000AD8B4D3D6C651C00A21
:104DA000D8B4CFD6C651800AD8B417D7C651400A56
:104DB000B3E00001A5C0E1FFA6C0E2FFB5C0E6FF79
:104DC000A54BA62BBA4BBB2BA9D6B8A71AD0800EE1
:104DD000006E800EB719005C02E1B651000811E2C6
:104DE000A5C0E1FFA6C0E2FF200EE66EA54BA62BF4
:104DF000BA4BBB2B010EB65F000EB75BB651B711B5
:104E0000EFE10001F7EF15F0BAC000F0BBC001F010
:104E10001200800E0001CE19006E800E000A005CA8
:104E2000D8B07ED1CE510008046E04C0CEF0800E02
:104E30000418006E800E6E0A005CD8A0C6D0640E06
:104E4000046ECEC000F023EC39F0120E0026000EE6
:104E500000BEFF0E016E000E0122020E046E000E57
:104E600001BEFF0E026E036E0450000107E0003623
:104E70000090013602360336FF0FF7D70001280EE7
:104E80000026770E0122000E022200C0F6FF01C0AC
:104E9000F7FF02C0F8FF0900F5CFCFF00900F5CF0A
:104EA000D0F00900F5CFD1F00900F5CFD2F0640EB3
:104EB000046ECEC000F023EC39F008C000F00A0EFA
:104EC000046E23EC39F0090E0026000E00BEFF0E22
:104ED000016E000E0122020E046E000E01BEFF0ED6
:104EE000026E036E0450000107E0003600900136A8
:104EF00002360336FF0FF7D70001280E0026770E83
:104F00000122000E022200C0F6FF01C0F7FF02C01E
:104F1000F8FF0900F5CF00F00900F5CF01F0090016
:104F2000F5CF02F00900F5CF03F0CFC004F0D0C0F8
:104F300005F0D1C006F0D2C007F0D3EC36F000C0C7
:104F4000CFF001C0D0F002C0D1F003C0D2F00A0E01
:104F5000046ECEC000F023EC39F008C000F0020E61
:104F6000046E000E00BEFF0E016E026E036E045052
:104F7000000107E000360090013602360336FF0FCD
:104F8000F7D70001280E0026770E0122000E02221C
:104F900000C0F6FF01C0F7FF02C0F8FF0900F5CF1F
:104FA00000F00900F5CF01F00900F5CF02F009008B
:104FB000F5CF03F0CFC004F0D0C005F0D1C006F0AB
:104FC000D2C007F0D3EC36F01200800E0A0A006E51
:104FD000800ECE19005C76E20A0E046ECEC000F0A0
:104FE00023EC39F0090E0026000E00BEFF0E016E04
:104FF000000E0122020E046E000E01BEFF0E026EB4
:10500000036E0450000107E00036009001360236BE
:105010000336FF0FF7D70001280E0026770E012276
:10502000000E022200C0F6FF01C0F7FF02C0F8FF29
:105030000900F5CFCFF00900F5CFD0F00900F5CF8A
:10504000D1F00900F5CFD2F00A0E046ECEC000F008
:1050500023EC39F008C000F0020E046E000E00BE12
:10506000FF0E016E026E036E0450000107E0003671
:105070000090013602360336FF0FF7D70001280EE5
:105080000026770E0122000E022200C0F6FF01C0AA
:10509000F7FF02C0F8FF0900F5CF00F00900F5CFD7
:1050A00001F00900F5CF02F00900F5CF03F0CFC001
:1050B00004F0D0C005F0D1C006F0D2C007F0D3ECA8
:1050C00036F01200020E046ECEC000F0000ECEBF0D
:1050D000FF0E016E026E036E0450000107E0003601
:1050E0000090013602360336FF0FF7D70001280E75
:1050F0000026770E0122000E022200C0F6FF01C03A
:10510000F7FF02C0F8FF0900F5CF00F00900F5CF66
:1051100001F00900F5CF02F00900F5CF03F012000D
:10512000800ECE19006E800E6E0A005CD8A0C6D02C
:10513000640E046ECEC000F023EC39F0120E00268F
:10514000000E00BEFF0E016E000E0122020E046E64
:10515000000E01BEFF0E026E036E0450000107E058
:1051600000360090013602360336FF0FF7D70001F4
:105170005C0E0026770E0122000E022200C0F6FF10
:1051800001C0F7FF02C0F8FF0900F5CFCFF009001A
:10519000F5CFD0F00900F5CFD1F00900F5CFD2F06E
:1051A000640E046ECEC000F023EC39F008C000F0AD
:1051B0000A0E046E23EC39F0090E0026000E00BE24
:1051C000FF0E016E000E0122020E046E000E01BEE3
:1051D000FF0E026E036E0450000107E000360090DF
:1051E000013602360336FF0FF7D700015C0E0026AA
:1051F000770E0122000E022200C0F6FF01C0F7FF69
:1052000002C0F8FF0900F5CF00F00900F5CF01F06A
:105210000900F5CF02F00900F5CF03F0CFC004F08C
:10522000D0C005F0D1C006F0D2C007F0D3EC36F004
:1052300000C0CFF001C0D0F002C0D1F003C0D2F066
:105240000A0E046ECEC000F023EC39F008C000F066
:10525000020E046E000E00BEFF0E016E026E036EA3
:105260000450000107E00036009001360236033694
:10527000FF0FF7D700015C0E0026770E0122000E0B
:10528000022200C0F6FF01C0F7FF02C0F8FF0900CC
:10529000F5CF00F00900F5CF01F00900F5CF02F0DD
:1052A0000900F5CF03F0CFC004F0D0C005F0D1C0A5
:1052B00006F0D2C007F0D3EC36F01200800E0A0AD6
:1052C000006E800ECE19005C76E20A0E046ECEC02F
:1052D00000F023EC39F0090E0026000E00BEFF0E90
:1052E000016E000E0122020E046E000E01BEFF0EC2
:1052F000026E036E0450000107E000360090013694
:1053000002360336FF0FF7D700015C0E0026770E3A
:105310000122000E022200C0F6FF01C0F7FF02C00A
:10532000F8FF0900F5CFCFF00900F5CFD0F0090064
:10533000F5CFD1F00900F5CFD2F00A0E046ECEC041
:1053400000F023EC39F008C000F0020E046E000EED
:1053500000BEFF0E016E026E036E0450000107E0F6
:1053600000360090013602360336FF0FF7D70001F2
:105370005C0E0026770E0122000E022200C0F6FF0E
:1053800001C0F7FF02C0F8FF0900F5CF00F00900E7
:10539000F5CF01F00900F5CF02F00900F5CF03F0D9
:1053A000CFC004F0D0C005F0D1C006F0D2C007F0E5
:1053B000D3EC36F01200020E046ECEC000F0000EE8
:1053C000CEBFFF0E016E026E036E0450000107E0B7
:1053D00000360090013602360336FF0FF7D75C0E19
:1053E0000026770E0122000E022200C0F6FF01C047
:1053F000F7FF02C0F8FF0900F5CF00F00900F5CF74
:1054000001F00900F5CF02F00900F5CF03F012001A
:105410000001025006180E6E086A096A0B6A0350F2
:105420000764FCEF2AF006500A6E068E028E0350C7
:105430000B6E0750036E000E0B644CEF2AF00B50FE
:10544000075ED8B4EDEF2AF0070E0764BBEF2AF031
:10545000075E00C008F001C000F002C001F0026A5F
:10546000074EEDEF2AF0076490EF2AF0075E00C0C8
:1054700008F001C000F0016A074EEDEF2AF0076462
:105480006EEF2AF0075E00C008F0006A074EEDEFED
:105490002AF0076455EF2AF00AC002F005C001F0B7
:1054A00004C000F0086A19EF2CF0030E076460EFE7
:1054B0002AF0075E08380F0B086E074EEDEF2AF052
:1054C000D8900832074EEDEF2AF0D8900832074EF8
:1054D000EDEF2AF0D8900832EDEF2AF0030E0764C2
:1054E0007FEF2AF0075E08380F0B086E0038F00BCC
:1054F000082600380F0B006E074EEDEF2AF0D8900B
:1055000000320832074EEDEF2AF0D8900032083210
:10551000074EEDEF2AF0D89000320832EDEF2AF076
:10552000030E0764A7EF2AF0075E08380F0B086E1A
:105530000038F00B082600380F0B006E0138F00B16
:10554000002601380F0B016E074EEDEF2AF0D890C0
:10555000013200320832074EEDEF2AF0D8900132C6
:1055600000320832074EEDEF2AF0D89001320032B7
:105570000832EDEF2AF0030E0764D8EF2AF0075E39
:1055800008380F0B086E0038F00B082600380F0B98
:10559000006E0138F00B002601380F0B016E023847
:1055A000F00B012602380F0B026E074EEDEF2AF0CA
:1055B000D8900232013200320832074EEDEF2AF065
:1055C000D8900232013200320832074EEDEF2AF055
:1055D000D8900232013200320832096A000E0EAE53
:1055E000E1EF2BF0081E001E011E021E082A0022F9
:1055F00001220222E1EF2BF00750D8A402EF2BF09A
:1056000019EF2CF0096A02C00AF0028E068E0750CC
:10561000035C076ED8B4D4EF2BF0070E0764A2EF3B
:105620002BF0075E0450096E0550046E0650056E9F
:10563000066A074ED4EF2BF0070E076477EF2BF0C6
:10564000075E0450096E0550046E056A074ED4EFDC
:105650002BF0070E076455EF2BF0075E0450096E20
:10566000046A074ED4EF2BF0070E07643CEF2BF0D3
:105670000AC002F019EF2CF0030E076447EF2BF07D
:10568000075E09380F0B096E074ED4EF2BF0D89048
:105690000932074ED4EF2BF0D8900932074ED4EFE1
:1056A0002BF0D8900932D4EF2BF0030E076466EF8D
:1056B0002BF0075E09380F0B096E0438F00B092632
:1056C00004380F0B046E074ED4EF2BF0D890043241
:1056D0000932074ED4EF2BF0D89004320932074E2E
:1056E000D4EF2BF0D89004320932D4EF2BF0030E14
:1056F00007648EEF2BF0075E09380F0B096E043834
:10570000F00B092604380F0B046E0538F00B042645
:1057100005380F0B056E074ED4EF2BF0D8900532ED
:1057200004320932074ED4EF2BF0D8900532043200
:105730000932074ED4EF2BF0D890053204320932EB
:10574000D4EF2BF0030E0764BFEF2BF0075E093890
:105750000F0B096E0438F00B092604380F0B046E8A
:105760000538F00B042605380F0B056E0638F00BD4
:10577000052606380F0B066E074ED4EF2BF0D89097
:105780000632053204320932074ED4EF2BF0D8909E
:105790000632053204320932074ED4EF2BF0D8908E
:1057A0000632053204320932086A000E0EAEE1EF0D
:1057B0002BF0091E041E051E061E092A04220522BE
:1057C00006220950082604500022055001220650E6
:1057D00002220EBEF8EF2BF0D8A007EF2CF0023219
:1057E000013200320832033E07EF2CF013EF2CF0A9
:1057F000D8B00DEF2CF0000E081E001E011E021E78
:10580000082A0022012202220A7E0DEF2CF0010E4E
:105810000C6EA9EC31F01BEF2CF0020E0C6EA9EC13
:1058200031F01BEF2CF0040E0C6E45EC3BF01BEF3F
:105830002CF0000E0C6E12006E0E0001CE5DD8A092
:10584000D0D0640E046ECEC000F0E8EC3AF0120E38
:105850000026016A000E0122020E046E000E01BE37
:10586000FF0E026E036E0450000107E00036009048
:10587000013602360336FF0FF7D70001280E002647
:10588000770E0122000E022200C0F6FF01C0F7FFD2
:1058900002C0F8FF0900F5CF00F00900F5CF01F0D4
:1058A0000900F5CF02F00900F5CF03F0000E046EF9
:1058B000000E056E000E066E7E0E076ED3EC36F0FF
:1058C00000C0CFF001C0D0F002C0D1F003C0D2F0D0
:1058D000640E046ECEC000F0E8EC3AF008C000F0B0
:1058E0000A0E046EE8EC3AF0090E0026016A000E7A
:1058F0000122020E046E000E01BEFF0E026E036E48
:105900000450000107E000360090013602360336ED
:10591000FF0FF7D70001280E0026770E0122000E98
:10592000022200C0F6FF01C0F7FF02C0F8FF090025
:10593000F5CF00F00900F5CF01F00900F5CF02F036
:105940000900F5CF03F0CFC004F0D0C005F0D1C0FE
:1059500006F0D2C007F0D3EC36F000C0CFF001C0A3
:10596000D0F002C0D1F003C0D2F00A0E046ECEC057
:1059700000F0E8EC3AF008C000F0020E046E000EF1
:10598000016E026E036E0450000107E000360090C5
:10599000013602360336FF0FF7D70001280E002626
:1059A000770E0122000E022200C0F6FF01C0F7FFB1
:1059B00002C0F8FF0900F5CF00F00900F5CF01F0B3
:1059C0000900F5CF02F00900F5CF03F0CFC004F0D5
:1059D000D0C005F0D1C006F0D2C007F0D3EC36F04D
:1059E0001200CE510A08D8B083D00A0E046ECEC081
:1059F00000F0E8EC3AF0090E0026016A000E0122E0
:105A0000020E046E000E01BEFF0E026E036E045005
:105A1000000107E000360090013602360336FF0F22
:105A2000F7D70001280E0026770E0122000E022271
:105A300000C0F6FF01C0F7FF02C0F8FF0900F5CF74
:105A400000F00900F5CF01F00900F5CF02F00900E0
:105A5000F5CF03F0000E046E000E056E000E066E0C
:105A60007E0E076ED3EC36F000C0CFF001C0D0F050
:105A700002C0D1F003C0D2F00A0E046ECEC000F016
:105A8000E8EC3AF008C000F0020E046E000E016E61
:105A9000026E036E0450000107E0003600900136EC
:105AA00002360336FF0FF7D70001280E0026770EC7
:105AB0000122000E022200C0F6FF01C0F7FF02C063
:105AC000F8FF0900F5CF00F00900F5CF01F009005B
:105AD000F5CF02F00900F5CF03F0CFC004F0D0C03D
