:1000000067EF12F0FFFFFFFF04C0CCF003C0CBF09E
:1000100002C0CAF001C0C9F000C0C8F0E9CF85F045
:10002000EACF86F0E1CF87F0E2CF88F09EA01BD028
:100030009E90152A162A172A030E165C08E3A00EB6
:10004000186E860E196E010E1A6E000E1B6E040ECF
:10005000175C08E3E00E1C6E930E1D6E040E1E6E00
:10006000000E1F6E04009EA466D09E9416C020F061
:10007000166ABFCF21F0000E226E21C001F0006A87
:1000800000C021F001C022F0BE500024216E000EFD
:100090000120226E2050000A09E12350215C186ED5
:1000A00024502258196E000E1A6E1B6E2050010A41
:1000B00011E12350FF08186E24C019F0FF0E1956E5
:1000C000000E1A6E1B6E2150182622501922000EA7
:1000D0001A221B222050020A2AE12350FF08186E20
:1000E00024C019F0FF0E1956000E1A6E1B6EFF0E7B
:1000F0001824006EFF0E1920016E000E1A20026EE9
:10010000000E1B20036E00C018F001C019F002C0E1
:100110001AF003C01BF021500024186E2250012059
:10012000196E000E02201A6E000E03201B6E21C0F5
:1001300023F022C024F0A1A093D0A19017C020F0FA
:10014000176ABCCF21F0000E226E21C001F0006AB8
:1001500000C021F001C022F0BB500024216E000E2F
:100160000120226E2050000A09E12550215C1C6EFE
:10017000265022581D6E000E1E6E1F6E2050010A62
:1001800011E12550FF081C6E26C01DF0FF0E1D5604
:10019000000E1E6E1F6E21501C2622501D22000EC6
:1001A0001E221F222050020A2AE12550FF081C6E41
:1001B00026C01DF0FF0E1D56000E1E6E1F6EFF0E98
:1001C0001C24006EFF0E1D20016E000E1E20026E0C
:1001D000000E1F20036E00C01CF001C01DF002C005
:1001E0001EF003C01FF0215000241C6E225001207D
:1001F0001D6E000E02201E6E000E03201F6E20508A
:10020000030A2AE12550FF081C6E26C01DF0FF0ED0
:100210001D56000E1E6E1F6EFE0E1C24006EFF0E7D
:100220001D20016E010E1E20026E000E1F20036EA7
:1002300000C01CF001C01DF002C01EF003C01FF082
:10024000215000241C6E225001201D6E000E022041
:100250001E6E000E03201F6E21C025F022C026F066
:1002600085C0E9FF86C0EAFF87C0E1FF88C0E2FFE2
:10027000CCC004F0CBC003F0CAC002F0C9C001F08A
:10028000C8C000F01100280E0001A16F6E0EA26F11
:10029000750EA36F6C0EA46F6C0EA56F290EA66F62
:1002A000A76BAF6BB06BAD6BAE6B00019CC000F089
:1002B0009DC001F09EC002F0010E9C27000E9D2300
:1002C0009E2300C0F6FF01C0F7FF02C0F8FF09003F
:1002D000F5CF00F000C0AAF00052D8B462EF12F0DF
:1002E000AA51250A0BE09AC0E1FF9BC0E2FFAAC019
:1002F000E6FF9A4B9B2BAF4BB02BD7D7AB6BAC6BBE
:10030000AD6BAE6B000123D0AD87010E9C27000EB4
:100310009D239E235AD0AD81010E9C27000E9D2364
:100320009E2353D0AD83010E9C27000E9D239E2358
:100330004CD0AE87010E9C27000E9D239E2345D0F6
:10034000AD85010E9C27000E9D239E233ED000010B
:100350009CC0F6FF9DC0F7FF9EC0F8FF0900F5CFD7
:10036000BBF0BB512D0AD0E09CC0F6FF9DC0F7FF4B
:100370009EC0F8FF0900F5CFBBF0BB51200ACBE0CF
:100380009CC0F6FF9DC0F7FF9EC0F8FF0900F5CFA7
:10039000BBF0BB512B0AC6E09CC0F6FF9DC0F7FF27
:1003A0009EC0F8FF0900F5CFBBF0BB51230AC1E0A6
:1003B0009CC0F6FF9DC0F7FF9EC0F8FF0900F5CF77
:1003C000BBF0BB51300ABCE001D09CD70001ADB3FB
:1003D000AD91ADB7AD959CC0F6FF9DC0F7FF9EC037
:1003E000F8FF0900F5CF00F0000E016E00C0C3F069
:1003F000D2EC32F0005238E00001AB6BAC6B000184
:10040000ABC000F0ACC001F00A0E046E000E056E29
:1004100093EC31F09CC0F6FF9DC0F7FF9EC0F8FF43
:100420000900F5CFBBF0BB510024AB6F000E0120DB
:10043000AC6F300EAB5F000EAC5B010E9C27000E64
:100440009D239E239CC0F6FF9DC0F7FF9EC0F8FF32
:100450000900F5CF00F0000E016E00C0C3F0D2EC31
:1004600032F00052CCE136D09CC0F6FF9DC0F7FFC1
:100470009EC0F8FF0900F5CFBBF00001BB512A0A6E
:1004800029E19FC0E9FFA0C0EAFFEECF00F0EECF68
:1004900001F000C0E9FF01C0EAFFEECFABF0EECF04
:1004A000ACF09FC0E9FFA0C0EAFFEECF00F0EECFB6
:1004B00001F0020E0026000E01229FC0E1FFA0C045
:1004C000E2FF00C0E6FF01C0E6FF010E9C27000E20
:1004D0009D239E2300019CC0F6FF9DC0F7FF9EC098
:1004E000F8FF0900F5CFBBF0BB512E0A73E1010EF6
:1004F0009C27000E9D239E239CC0F6FF9DC0F7FF06
:100500009EC0F8FF0900F5CFBBF0BB512A0A2AE1D3
:100510009FC0E9FFA0C0EAFFEECF00F0EECF01F0F0
:1005200000C0E9FF01C0EAFFEECFA8F0EECFA9F0CE
:100530009FC0E9FFA0C0EAFFEECF00F0EECF01F0D0
:10054000020E0026000E01229FC0E1FFA0C0E2FFC4
:1005500000C0E6FF01C0E6FF010E9C27000E9D23B0
:100560009E2336D0A86BA96B9CC0F6FF9DC0F7FFF9
:100570009EC0F8FF0900F5CF00F0000E016E00C02C
:10058000C3F0D2EC32F0005223E0A8C000F0A9C0C2
:1005900001F00A0E046E000E056E93EC31F09CC063
:1005A000F6FF9DC0F7FF9EC0F8FF0900F5CFBBF036
:1005B000BB510024A86F000E0120A96F300EA85F68
:1005C000000EA95B010E9C27000E9D239E23CCD715
:1005D000000104D00001A86BA96BAE8900019CC08A
:1005E00000F09DC001F09EC002F0010E9C27000E9D
:1005F0009D239E2300C0F6FF01C0F7FF02C0F8FF55
:100600000900F5CFAAF0EDD0AFC000F0B0C001F006
:100610001200AD89E3D7AE851FD1AD8BAE811CD161
:10062000AE831AD1AD8D18D117D1AD8BAD8F14D14A
:100630009FC0E9FFA0C0EAFFEECF00F0EECF01F0CF
:1006400000C0E9FF01C0EAFFEECFB7F0EECFB8F08F
:100650009FC0E9FFA0C0EAFFEECF00F0EECF01F0AF
:10066000020E0026000E01229FC0E1FFA0C0E2FFA3
:1006700000C0E6FF01C0E6FF000EB81902E1000E5F
:10068000B71904E1A10EB76F000EB86F0001B96B86
:10069000BA6BB951B725E96EBA51B821EA6EEECFFF
:1006A00000F0005203E0B94BBA2BF3D7A851A911BF
:1006B0000AE0BA51A95D02E1B951A85D04E2A8C0FF
:1006C000B9F0A9C0BAF00001AC51BA5D02E1AB517A
:1006D000B95D05E2B951AB5FBA51AC5B03D0000123
:1006E000AB6BAC6BADB716D0ABC000F0ACC001F0DB
:1006F000010EAB5F000EAC5B005001100BE09AC026
:10070000E1FF9BC0E2FF200EE66E9A4B9B2BAF4BA6
:10071000B02BEAD7B9C000F0BAC001F0010EB95F42
:10072000000EBA5B0050011013E0B7C0E9FFB8C07B
:10073000EAFFEECF00F09AC0E1FF9BC0E2FF00C0ED
:10074000E6FF9A4B9B2BB74BB82BAF4BB02BE2D7A6
:10075000ADA716D0ABC000F0ACC001F0010EAB5F8E
:10076000000EAC5B005001100BE09AC0E1FF9BC093
:10077000E2FF200EE66E9A4B9B2BAF4BB02BEAD7D5
:1007800094D59FC0E9FFA0C0EAFFEECF00F0EECF06
:1007900001F000C0E9FF01C0EAFFEECFAAF09FC060
:1007A000E9FFA0C0EAFFEECF00F0EECF01F0020EAD
:1007B0000026000E01229FC0E1FFA0C0E2FF00C0A2
:1007C000E6FF01C0E6FFAA0EB76F000EB86F010E7C
:1007D000B96F000EBA6F6AD7C00EAD13000EAE131C
:1007E0003BD0AA51000AD8B40FD7AA516C0AD8B48A
:1007F00010D7AA51660AD8B40ED7AA51450AD8B460
:100800000CD7AA51650AD8B409D7AA51670AD8B437
:1008100007D7AA516F0AD8B405D7AA51640AD8B429
:1008200003D7AA51690AD8B4FFD6AA51700AD8B41E
:10083000FCD6AA51580AD8B4F8D6AA51780AD8B426
:10084000F5D6AA51730AD8B4F3D6AA51630A99E02F
:10085000AA51750AC1E0B7D70001000EAD15006EB0
:10086000AE51070B016E00500110D8B49EEF0DF091
:10087000AEA904D0060EA86F000EA96F9FC0E9FFB5
:10088000A0C0EAFFEECF00F0EECF01F000C0E9FF1C
:1008900001C0EAFFEECFB1F0EECFB2F0EECFB3F091
:1008A000EECFB4F09FC0E9FFA0C0EAFFEECF00F0AA
:1008B000EECF01F0040E0026000E01229FC0E1FFE2
:1008C000A0C0E2FF00C0E6FF01C0E6FF046A056ABF
:1008D000066A076AB1C000F0B2C001F0B3C002F00E
:1008E000B4C003F081EC2FF0010ED8B0000E006E02
:1008F000005205E0B37F030EAD13000EAE130001EE
:10090000B56BB66BB1C000F0B2C001F0B3C002F07D
:10091000B4C003F0046A056A066A076A49EC32F05B
:10092000000ED8A4010E006E0052D8B496D0B4C008
:1009300000F0016A026A036AFF0E0014BF6F000E26
:10094000C06F000EC0177E0EBB6F000EBC6FBD6F78
:10095000BE6FBB51BF5D006EBC51C059016E00C07F
:10096000B5F001C0B6F0010E005CB56F000E015885
:10097000B66FB5C000F0B6C001F0030E046E000EF5
:10098000056E93EC31F000C0B5F001C0B6F00A0E70
:10099000046E000E056EE9EC2FF000C0B5F001C04A
:1009A000B6F0800E0118BB6F800EBB5D02E1000E39
:1009B000005C04E2010EB55F000EB65B0001B551AC
:1009C0000008C36F59EC21F0B1C004F0B2C005F0CB
:1009D000B3C006F0B4C007F076EC2EF000C0B7F05C
:1009E00001C0B8F002C0B9F003C0BAF0000E046E46
:1009F000000E056E000E066E7F0E076EB7C000F08B
:100A0000B8C001F0B9C002F0BAC003F081EC2FF019
:100A1000010ED8B0000E006E005205E0010EB55F69
:100A2000000EB65B1AD0000E046E000E056E200E8E
:100A3000066E820E076EB7C000F0B8C001F0B9C0F4
:100A400002F0BAC003F081EC2FF0000ED8B0010E16
:100A5000006E005202E0B54BB62B0001800E006E16
:100A6000800EB619005C02E1B551000803E3010EE7
:100A7000AA6F03D00001B5C0AAF0AEB11AD0AEA3E0
:100A800015D0800EB619006E7F0E005C02E1FC0EE0
:100A9000B55D0AE3800EB619006E800EA919005CE0
:100AA00002E1A851B55D02E3000103D0000191EF1E
:100AB00009F00001A851A91106E0AEA304D0010E6F
:100AC000A85F000EA95B000E006EA951005C02E158
:100AD000A851080803E2080EAA6F03D00001A8C0BD
:100AE000AAF0B1C000F0B2C001F0B3C002F0B4C0CF
:100AF00003F0046A056A066A076A49EC32F0000EE0
:100B0000D8A4010E006E0052D8B460D1B5C0C3F0B5
:100B100059EC21F000C004F001C005F002C006F05D
:100B200003C007F0B1C000F0B2C001F0B3C002F0E2
:100B3000B4C003F095EC2CF000C0B1F001C0B2F0ED
:100B400002C0B3F003C0B4F0AA510008C36F59EC5F
:100B500021F000C004F001C005F002C006F003C09F
:100B600007F0B1C000F0B2C001F0B3C002F0B4C0F1
:100B700003F095EC2CF000C0BBF001C0BCF002C04B
:100B8000BDF003C0BEF0BBC0B1F0BCC0B2F0BDC090
:100B9000B3F0BEC0B4F0BBC000F0BCC001F0BDC03B
:100BA00002F0BEC003F03FEC2DF061EC32F000C06B
:100BB00004F001C005F002C006F003C007F0BBC09E
:100BC00000F0BCC001F0BDC002F0BEC003F005ECF7
:100BD00033F0000E046E000E056E000E066E7E0EE3
:100BE000076E81EC2FF0000ED8B0010E006E00529F
:100BF0001AE0B1C000F0B2C001F0B3C002F0B4C05E
:100C000003F0000E046E000E056E000E066E7E0EE2
:100C1000076E58EC24F000C0B1F001C0B2F002C081
:100C2000B3F003C0B4F0B1C000F0B2C001F0B3C083
:100C300002F0B4C003F03FEC2DF000C0BFF001C0E3
:100C4000C0F002C0C1F003C0C2F0AA51010F006E93
:100C5000016A000E0122020E046E000E01BEFF0E9C
:100C6000026E036E0450000107E00036009001366A
:100C700002360336FF0FF7D70001900E0026660EEE
:100C80000122000E022200C0F6FF01C0F7FF02C0E1
:100C9000F8FF0900F5CFBBF00900F5CFBCF0090063
:100CA000F5CFBDF00900F5CFBEF0BE51C25D08E141
:100CB000BD51C15D05E1BC51C05D02E1BB51BF5DED
:100CC0001DE3B1C000F0B2C001F0B3C002F0B4C087
:100CD00003F0CD0E046ECC0E056E4C0E066E7B0E30
:100CE000076E76EC2EF000C0B1F001C0B2F002C089
:100CF000B3F003C0B4F0B54BB62B68D00001B1C05F
:100D000000F0B2C001F0B3C002F0B4C003F03FEC99
:100D10002DF000C0BFF001C0C0F002C0C1F003C0A0
:100D2000C2F0020E046EAAC000F0000E016E026E48
:100D3000036E0450000107E00036009001360236D1
:100D40000336FF0FF7D70001900E0026660E012232
:100D5000000E022200C0F6FF01C0F7FF02C0F8FF3C
:100D60000900F5CFBBF00900F5CFBCF00900F5CFC5
:100D7000BDF00900F5CFBEF0BE51C25D08E1BD5126
:100D8000C15D05E1BC51C05D02E1BB51BF5D1EE22A
:100D9000B1C000F0B2C001F0B3C002F0B4C003F0C3
:100DA000000E046E000E056E200E066E820E076E9B
:100DB00076EC2EF000C0B1F001C0B2F002C0B3F08A
:100DC00003C0B4F0010EB55F000EB65B0001AEA328
:100DD00095D0AEB793D0800E000A006E800EA91990
:100DE000005C02E1A8510A0804E20A0EA86F000E96
:100DF000A96F0001B1C000F0B2C001F0B3C002F0B1
:100E0000B4C003F03FEC2DF000C0B7F001C0B8F063
:100E100002C0B9F003C0BAF0B751B811B911BA1194
:100E200042E00A0E046E000E056E066E076EB7C035
:100E300000F0B8C001F0B9C002F0BAC003F0FDEC98
:100E400027F008C000F009C001F00AC002F00BC092
:100E500003F0000EBB6F031808E1BB51021805E157
:100E6000BB51011802E10050000A1DE1010EA85F0C
:100E7000000EA95B0A0E046E000E056E066E076E6C
:100E8000B7C000F0B8C001F0B9C002F0BAC003F0BA
:100E9000FDEC27F000C0B7F001C0B8F002C0B9F017
:100EA00003C0BAF0B9D70001800EA919006E800EF8
:100EB000005C02E1AA51A85D21E2A851AA5DC36FBE
:100EC00059EC21F000C004F001C005F002C006F0AA
:100ED00003C007F0B1C000F0B2C001F0B3C002F02F
:100EE000B4C003F095EC2CF000C0B1F001C0B2F03A
:100EF00002C0B3F003C0B4F0A8C0AAF00001050E10
:100F0000A825006E000EA921016E0050AB5F0150B4
:100F1000AC5BA851A91102E1AEA704D0010EAB5FF2
:100F2000000EAC5B030EAD15006EAEC001F0000EFE
:100F300001160050011004E0010EAB5F000EAC5B27
:100F4000ADA54AD0ADA31AD0010EAD15006EAEC04E
:100F500001F0000E01160050011003E02D0E006E8E
:100F600002D02B0E006E9AC0E1FF9BC0E2FF00C0D2
:100F7000E6FF9A4B9B2BAF4BB02B14D0010EAD1557
:100F8000006EAEC001F0000E0116005001100AE024
:100F90009AC0E1FF9BC0E2FF200EE66E9A4B9B2BAE
:100FA000AF4BB02B800E006E800EAC19005C02E1DE
:100FB000AB5100080FE29AC0E1FF9BC0E2FF300E88
:100FC000E66E9A4B9B2BAF4BB02B010EAB5F000E26
:100FD000AC5BE8D700014BD0ADB718D0800E006EE7
:100FE000800EAC19005C02E1AB5100080FE29AC020
:100FF000E1FF9BC0E2FF200EE66E9A4B9B2BAF4BAE
:10100000B02B010EAB5F000EAC5BE8D70001ADA3C7
:101010001AD0010EAD15006EAEC001F0000E011623
:101020000050011003E02D0E006E02D02B0E006E5A
:101030009AC0E1FF9BC0E2FF00C0E6FF9A4B9B2BEA
:10104000AF4BB02B14D0010EAD15006EAEC001F049
:10105000000E0116005001100AE09AC0E1FF9BC08B
:10106000E2FF200EE66E9A4B9B2BAF4BB02B00019C
:10107000B1C000F0B2C001F0B3C002F0B4C003F0E0
:101080003FEC2DF000C0B7F001C0B8F002C0B9F0DD
:1010900003C0BAF0020E046EAAC000F0000E016E8A
:1010A000026E036E0450000107E000360090013626
:1010B00002360336FF0FF7D70001900E0026660EAA
:1010C0000122000E022200C0F6FF01C0F7FF02C09D
:1010D000F8FF0900F5CF04F00900F5CF05F009008D
:1010E000F5CF06F00900F5CF07F0B7C000F0B8C0A3
:1010F00001F0B9C002F0BAC003F0FDEC27F0300EE9
:1011000000269AC0E1FF9BC0E2FF00C0E6FF9A4BB9
:101110009B2BAF4BB02BA851A91102E1AEA775D004
:101120009AC0E1FF9BC0E2FF2E0EE66E9A4B9B2B0E
:10113000AF4BB02BAA51A85F000EA95BAA5353E096
:10114000AA07020E046EAAC000F0000E016E026E25
:10115000036E0450000107E00036009001360236AD
:101160000336FF0FF7D70001900E0026660E01220E
:10117000000E022200C0F6FF01C0F7FF02C0F8FF18
:101180000900F5CF04F00900F5CF05F00900F5CF0F
:1011900006F00900F5CF07F0B7C000F0B8C001F0C5
:1011A000B9C002F0BAC003F0FDEC27F00A0E046EDD
:1011B000000E056E066E076EFDEC27F008C000F00D
:1011C00009C001F00AC002F00BC003F0300E002687
:1011D0009AC0E1FF9BC0E2FF00C0E6FF9A4B9B2B49
:1011E000AF4BB02BABD7A851A9110FE09AC0E1FFCC
:1011F0009BC0E2FF300EE66E9A4B9B2BAF4BB02BA1
:10120000010EA85F000EA95BEED7ADAB0BD09AC064
:10121000E1FF9BC0E2FF450EE66E9A4B9B2BAF4B66
:10122000B02B0AD09AC0E1FF9BC0E2FF650EE66ECC
:101230009A4B9B2BAF4BB02B800EB619006E800ED5
:10124000005C02E1000EB55D12E2B5510008B56F19
:10125000B6C0B6F0E86AB6579AC0E1FF9BC0E2FF9D
:101260002D0EE66E9A4B9B2BAF4BB02B0BD0000193
:101270009AC0E1FF9BC0E2FF2B0EE66E9A4B9B2BC0
:10128000AF4BB02B0A0E046E000E056EB5C000F019
:10129000B6C001F0E9EC2FF0300E00269AC0E1FF55
:1012A0009BC0E2FF00C0E6FF9A4B9B2BAF4BB02BDD
:1012B0000A0E046E000E056EB5C000F0B6C001F057
:1012C000E9EC2FF008C000F009C001F0300E002654
:1012D0009AC0E1FF9BC0E2FF00C0E6FF9A4B9B2B48
:1012E000AF4BB02BADA71AD0800E006E800EAC199C
:1012F000005C02E1AB51000811E29AC0E1FF9BC023
:10130000E2FF200EE66E9A4B9B2BAF4BB02B010EEB
:10131000AB5F000EAC5BAB51AC11EFE1000155EFE0
:1013200001F00001AEA3FAD0800EB619006E800E57
:10133000005C02E1000EB55D0AE2010EB55D006ED3
:10134000000EB659016E0050A85F0150A95B000164
:10135000B1C000F0B2C001F0B3C002F0B4C003F0FD
:101360003FEC2DF000C0B7F001C0B8F002C0B9F0FA
:1013700003C0BAF0010EAA6FAA510A0A39E0020EA0
:10138000046EAAC000F0000E016E026E036E0450DF
:10139000000107E000360090013602360336FF0FE9
:1013A000F7D70001900E0026660E0122000E0222E1
:1013B00000C0F6FF01C0F7FF02C0F8FF0900F5CF3B
:1013C000BBF00900F5CFBCF00900F5CFBDF0090076
:1013D000F5CFBEF0BE51BA5D08E1BD51B95D05E182
:1013E000BC51B85D02E1BB51B75D02E3AA2BC4D783
:1013F0000001AA51A85DBF6F000EA959C06FBFC000
:10140000A8F0C0C0A9F0B7C000F0B8C001F0B9C0E2
:1014100002F0BAC003F061EC32F000C004F001C089
:1014200005F002C006F003C007F0B1C000F0B2C082
:1014300001F0B3C002F0B4C003F005EC33F000C01B
:10144000BBF001C0BCF002C0BDF003C0BEF0BFC025
:10145000C3F059EC21F0BBC004F0BCC005F0BDC026
:1014600006F0BEC007F076EC2EF0000E046E000E03
:10147000056E000E066E7E0E076E58EC24F03FECF3
:101480002DF000C0B7F001C0B8F002C0B9F003C041
:10149000BAF0A851A91142E00A0E046E000E056EC2
:1014A000066E076EB7C000F0B8C001F0B9C002F018
:1014B000BAC003F0FDEC27F008C000F009C001F04D
:1014C0000AC002F00BC003F0000EBB6F031808E166
:1014D000BB51021805E1BB51011802E10050000A9E
:1014E0001DE10A0E046E000E056E066E076EB7C093
:1014F00000F0B8C001F0B9C002F0BAC003F0FDECD2
:1015000027F000C0B7F001C0B8F002C0B9F003C0C6
:10151000BAF0010EA85F000EA95BBBD70001800ED8
:10152000006E800EA919005C02E1A8510C0816E3B8
:10153000A8C0C3F06CEC26F0B1C004F0B2C005F056
:10154000B3C006F0B4C007F058EC24F000C0B1F00E
:1015500001C0B2F002C0B3F003C0B4F00001B1C0EA
:1015600000F0B2C001F0B3C002F0B4C003F0046AEE
:10157000056A066A076A49EC32F0000ED8A4010E2B
:10158000006E0052D8B475D0B1C000F0B2C001F006
:10159000B3C002F0B4C003F03FEC2DF0000EBB6FFF
:1015A000031808E1BB51021805E1BB51011802E123
:1015B0000050000A5EE1800E006E800EB619005CDD
:1015C00002E1B551010855E2B5C0C3F059EC21F074
:1015D00000C004F001C005F002C006F003C007F02F
:1015E000B1C000F0B2C001F0B3C002F0B4C003F06B
:1015F00095EC2CF05F0E046E700E056E090E066EF3
:10160000810E076E81EC2FF0010ED8B0000E006E37
:10161000005205E0090EB55F000EB65B05D0000173
:10162000080EB55F000EB65BB5C0C3F059EC21F0F3
:1016300000C004F001C005F002C006F003C007F0CE
:10164000B1C000F0B2C001F0B3C002F0B4C003F00A
:1016500095EC2CF03FEC2DF000C0B7F001C0B8F0D5
:1016600002C0B9F003C0BAF0B16BB26BB36BB46B2C
:1016700039D00001B1C000F0B2C001F0B3C002F037
:10168000B4C003F03FEC2DF000C0B7F001C0B8F0DB
:1016900002C0B9F003C0BAF0B7C000F0B8C001F0A2
:1016A000B9C002F0BAC003F061EC32F000C004F03F
:1016B00001C005F002C006F003C007F0B1C000F0A1
:1016C000B2C001F0B3C002F0B4C003F005EC33F0D7
:1016D00000C0B1F001C0B2F002C0B3F003C0B4F07A
:1016E000B56BB66B010EAA6FAA510A0A39E0020E59
:1016F000046EAAC000F0000E016E026E036E04506C
:10170000000107E000360090013602360336FF0F75
:10171000F7D70001900E0026660E0122000E02226D
:1017200000C0F6FF01C0F7FF02C0F8FF0900F5CFC7
:10173000BBF00900F5CFBCF00900F5CFBDF0090002
:10174000F5CFBEF0BE51BA5D08E1BD51B95D05E10E
:10175000BC51B85D02E1BB51B75D02E3AA2BC4D70F
:101760000001AA51A825006E000EA921016EB551F5
:101770000026B65101220050AB5F0150AC5BAEB702
:1017800003D0A851A91104E0010EAB5F000EAC5BC1
:10179000030EAD15006EAEC001F0000E0116005034
:1017A000011004E0010EAB5F000EAC5BADA54AD0AA
:1017B000ADA31AD0010EAD15006EAEC001F0000E43
:1017C00001160050011003E02D0E006E02D02B0E0A
:1017D000006E9AC0E1FF9BC0E2FF00C0E6FF9A4B9B
:1017E0009B2BAF4BB02B14D0010EAD15006EAEC0CD
:1017F00001F0000E0116005001100AE09AC0E1FF4E
:101800009BC0E2FF200EE66E9A4B9B2BAF4BB02B9A
:10181000800E006E800EAC19005C02E1AB51000836
:101820000FE29AC0E1FF9BC0E2FF300EE66E9A4BDA
:101830009B2BAF4BB02B010EAB5F000EAC5BE8D720
:1018400000014BD0ADB718D0800E006E800EAC19E1
:10185000005C02E1AB5100080FE29AC0E1FF9BC0BF
:10186000E2FF200EE66E9A4B9B2BAF4BB02B010E86
:10187000AB5F000EAC5BE8D70001ADA31AD0010E40
:10188000AD15006EAEC001F0000E01160050011043
:1018900003E02D0E006E02D02B0E006E9AC0E1FF09
:1018A0009BC0E2FF00C0E6FF9A4B9B2BAF4BB02BD7
:1018B00014D0010EAD15006EAEC001F0000E011681
:1018C000005001100AE09AC0E1FF9BC0E2FF200E29
:1018D000E66E9A4B9B2BAF4BB02B0001AAC000F0D9
:1018E000AA07005252E0020E046EAAC000F0000ED9
:1018F000016E026E036E0450000107E00036009096
:10190000013602360336FF0FF7D70001900E00268E
:10191000660E0122000E022200C0F6FF01C0F7FF92
:1019200002C0F8FF0900F5CF04F00900F5CF05F07B
:101930000900F5CF06F00900F5CF07F0B7C000F0B9
:10194000B8C001F0B9C002F0BAC003F0FDEC27F056
:101950000A0E046E000E056E066E076EFDEC27F093
:1019600008C000F009C001F00AC002F00BC003F08B
:10197000300E00269AC0E1FF9BC0E2FF00C0E6FFE8
:101980009A4B9B2BAF4BB02BA8D7800E006E800ECE
:10199000B619005C02E1B55100080FE29AC0E1FF00
:1019A0009BC0E2FF300EE66E9A4B9B2BAF4BB02BE9
:1019B000010EB55F000EB65BE8D70001800E000A8D
:1019C000006E800EA919005C02E1A851080803E22C
:1019D000080EAA6F03D00001A8C0AAF0AA51A85F00
:1019E000000EA95BAA5302E1AEA70AD09AC0E1FF9C
:1019F0009BC0E2FF2E0EE66E9A4B9B2BAF4BB02B9B
:101A0000AAC0C3F059EC21F0B1C004F0B2C005F097
:101A1000B3C006F0B4C007F076EC2EF0DCEC2DF08D
:101A200000C0B7F001C0B8F002C0B9F003C0BAF00E
:101A3000AA5353E0AA07020E046EAAC000F0000EDB
:101A4000016E026E036E0450000107E00036009044
:101A5000013602360336FF0FF7D70001900E00263D
:101A6000660E0122000E022200C0F6FF01C0F7FF41
:101A700002C0F8FF0900F5CF04F00900F5CF05F02A
:101A80000900F5CF06F00900F5CF07F0B7C000F068
:101A9000B8C001F0B9C002F0BAC003F0FDEC27F005
:101AA0000A0E046E000E056E066E076EFDEC27F042
:101AB00008C000F009C001F00AC002F00BC003F03A
:101AC000300E00269AC0E1FF9BC0E2FF00C0E6FF97
:101AD0009A4B9B2BAF4BB02BABD7A851A9110FE062
:101AE0009AC0E1FF9BC0E2FF300EE66E9A4B9B2B43
:101AF000AF4BB02B010EA85F000EA95BEED7ADA7D0
:101B00001AD0800E006E800EAC19005C02E1AB5161
:101B1000000811E29AC0E1FF9BC0E2FF200EE66ED2
:101B20009A4B9B2BAF4BB02B010EAB5F000EAC5B07
:101B3000AB51AC11EFE1000155EF01F0C00EAD1556
:101B4000BB6FAEC0BCF0000EBC17000EBC1902E1AA
:101B5000000EBB19D8A482D0ADA929D09FC0E9FF3F
:101B6000A0C0EAFFEECF00F0EECF01F000C0E9FF29
:101B700001C0EAFFEECFB7F0EECFB8F0EECFB9F08C
:101B8000EECFBAF09FC0E9FFA0C0EAFFEECF00F0B1
:101B9000EECF01F0040E0026000E01229FC0E1FFEF
:101BA000A0C0E2FF00C0E6FF01C0E6FF2ED09FC04C
:101BB000E9FFA0C0EAFFEECF00F0EECF01F000C0D9
:101BC000E9FF01C0EAFFEECFB7F0EECFB8F0000EAC
:101BD000B8BFFF0EB96FBA6F000EB8BFFF0EB96F76
:101BE000BA6F9FC0E9FFA0C0EAFFEECF00F0EECFD2
:101BF00001F0020E0026000E01229FC0E1FFA0C0EE
:101C0000E2FF00C0E6FF01C0E6FF800EBA19006ED9
:101C1000800E005C08E1000EB95D05E1000EB85DC4
:101C200002E1000EB75D18E2030EAD13000EAE1315
:101C3000006A016A026A036AB751005EB851015A2C
:101C4000B951025ABA51035A00C0B7F001C0B8F0F6
:101C500002C0B9F003C0BAF0000156D00001ADA92E
:101C600029D09FC0E9FFA0C0EAFFEECF00F0EECF81
:101C700001F000C0E9FF01C0EAFFEECFB7F0EECF00
:101C8000B8F0EECFB9F0EECFBAF09FC0E9FFA0C038
:101C9000EAFFEECF00F0EECF01F0040E0026000EBA
:101CA00001229FC0E1FFA0C0E2FF00C0E6FF01C02B
:101CB000E6FF2AD09FC0E9FFA0C0EAFFEECF00F008
:101CC000EECF01F000C0E9FF01C0EAFFEECFB7F0B0
:101CD000EECFB8F0000EB96FBA6F000EB96FBA6FE1
:101CE0009FC0E9FFA0C0EAFFEECF00F0EECF01F009
:101CF000020E0026000E01229FC0E1FFA0C0E2FFFD
:101D000000C0E6FF01C0E6FF0001000EA91902E1D4
:101D1000000EA8190FE1000E006EBA1908E100507C
:101D2000B91905E10050B81902E1B751000A02E102
:101D3000A84BA92B0001C00EAD15006E00C0BFF06E
:101D4000C0D0010EAA6FAA510A0A39E0020E046E31
:101D5000AAC000F0000E016E026E036E0450000176
:101D600007E000360090013602360336FF0FF7D742
:101D70000001900E0026660E0122000E022200C015
:101D8000F6FF01C0F7FF02C0F8FF0900F5CFBBF076
:101D90000900F5CFBCF00900F5CFBDF00900F5CF83
:101DA000BEF0BE51BA5D08E1BD51B95D05E1BC515F
:101DB000B85D02E1BB51B75D02E3AA2BC4D70001B5
:101DC0008FD0010EAA6FAA51080A39E0020E046EE4
:101DD000AAC000F0000E016E026E036E04500001F6
:101DE00007E000360090013602360336FF0FF7D7C2
:101DF0000001B80E0026660E0122000E022200C06D
:101E0000F6FF01C0F7FF02C0F8FF0900F5CFBBF0F5
:101E10000900F5CFBCF00900F5CFBDF00900F5CF02
:101E2000BEF0BE51BA5D08E1BD51B95D05E1BC51DE
:101E3000B85D02E1BB51B75D02E3AA2BC4D7000134
:101E40004FD0010EAA6FAA510C0A39E0020E046E9F
:101E5000AAC000F0000E016E026E036E0450000175
:101E600007E000360090013602360336FF0FF7D741
:101E70000001D80E0026660E0122000E022200C0CC
:101E8000F6FF01C0F7FF02C0F8FF0900F5CFBBF075
:101E90000900F5CFBCF00900F5CFBDF00900F5CF82
:101EA000BEF0BE51BA5D08E1BD51B95D05E1BC515E
:101EB000B85D02E1BB51B75D02E3AA2BC4D70001B4
:101EC0000FD0BF51000AD8B43CD7BF51C00AD8B414
:101ED00038D7BF51800AD8B474D7BF51400AB1E097
:101EE0000001800E006E800EA919005C02E1A8516D
:101EF000AA5D03E2A8C0AAF00ED00001800EA919C5
:101F0000006E800E005C02E1AA51A85D04E2AAC046
:101F1000A8F0000EA96F0001AB51AC110EE0030E4A
:101F2000AD15006EAEC001F0000E0116005001109C
:101F300004E0010EAB5F000EAC5B800EA919006ED1
:101F4000800EAC19005C02E1AB51A85D05E2A8511E
:101F5000AB5FA951AC5B03D00001AB6BAC6BC40EA3
:101F6000AD15BB6FAE51080BBC6FBC51080A02E146
:101F7000400EBB1908E1AB51AC1104E0010EAB5FA0
:101F8000000EAC5B1ED00001C00EAD15BB6FAE5194
:101F9000080BBC6FBC51080A02E1800EBB1911E1AD
:101FA000800E006E800EAC19005C02E1AB5102089D
:101FB00005E2020EAB5F000EAC5B03D00001AB6B21
:101FC000AC6B0001ADA56ED0ADA31AD0010EAD155E
:101FD000006EAEC001F0000E01160050011003E0CB
:101FE0002D0E006E02D02B0E006E9AC0E1FF9BC03A
:101FF000E2FF00C0E6FF9A4B9B2BAF4BB02B3CD0CF
:10200000010EAD15006EAEC001F0000E01160050BD
:1020100001100BE09AC0E1FF9BC0E2FF200EE66ECC
:102020009A4B9B2BAF4BB02B27D0C00EAD15BB6F7F
:10203000AE51080BBC6FBC51080A02E1800EBB19FF
:102040001BE19AC0E1FF9BC0E2FF300EE66E9A4BA7
:102050009B2BAF4BB02BADAB03D0580E006E02D014
:10206000780E006E9AC0E1FF9BC0E2FF00C0E6FF61
:102070009A4B9B2BAF4BB02B0001AB51AC1111E035
:102080009AC0E1FF9BC0E2FF300EE66E9A4B9B2B9D
:10209000AF4BB02B010EAB5F000EAC5BAB51AC1184
:1020A000EFE185D0AB51AC1113E0ADB711D09AC0C0
:1020B000E1FF9BC0E2FF200EE66E9A4B9B2BAF4BDD
:1020C000B02B010EAB5F000EAC5BAB51AC11EFE17E
:1020D000ADA31AD0010EAD15006EAEC001F0000E1A
:1020E00001160050011003E02D0E006E02D02B0EE1
:1020F000006E9AC0E1FF9BC0E2FF00C0E6FF9A4B72
:102100009B2BAF4BB02B14D0010EAD15006EAEC0A3
:1021100001F0000E0116005001100AE09AC0E1FF24
:102120009BC0E2FF200EE66E9A4B9B2BAF4BB02B71
:10213000C00EAD15BB6FAE51080BBC6FBC51080A89
:1021400002E1400EBB190BE19AC0E1FF9BC0E2FF28
:10215000300EE66E9A4B9B2BAF4BB02B28D0000174
:10216000C00EAD15BB6FAE51080BBC6FBC51080A59
:1021700002E1800EBB191BE19AC0E1FF9BC0E2FFA8
:10218000300EE66E9A4B9B2BAF4BB02BADAB03D012
:10219000580E006E02D0780E006E9AC0E1FF9BC010
:1021A000E2FF00C0E6FF9A4B9B2BAF4BB02B000128
:1021B000800E006E800EA919005C02E1A851AA5D94
:1021C0000BE29AC0E1FF9BC0E2FF300EE66E9A4B35
:1021D0009B2BAF4BB02BEBD70001A8C000F0A9C0E0
:1021E00001F0010EA85F000EA95B00500110D8B4E9
:1021F0004AD1C00EAD15006E00C0BBF029D1020E51
:10220000046EA8C000F0A9C001F0000EA9BFFF0E27
:10221000026E036E0450000107E0003600900136A4
:1022200002360336FF0FF7D70001900E0026660E28
:102230000122000E022200C0F6FF01C0F7FF02C01B
:10224000F8FF0900F5CF04F00900F5CF05F009000B
:10225000F5CF06F00900F5CF07F0B7C000F0B8C021
:1022600001F0B9C002F0BAC003F0FDEC27F00A0E8D
:10227000046E000E056E066E076EFDEC27F008C0BA
:1022800000F009C001F00AC002F00BC003F0300EEC
:102290000024AA6FECD0ADAB4ED0020E046EA8C0E5
:1022A00000F0A9C001F0000EA9BFFF0E026E036E80
:1022B0000450000107E00036009001360236033674
:1022C000FF0FF7D70001B80E0026660E0122000EA0
:1022D000022200C0F6FF01C0F7FF02C0F8FF0900AC
:1022E000F5CF04F00900F5CF05F00900F5CF06F0B1
:1022F0000900F5CF07F0B7C000F0B8C001F0B9C0D1
:1023000002F0BAC003F0FDEC27F00F0E0016000E2D
:10231000011602160316080E0026670E0122000E93
:10232000022200C0F6FF01C0F7FF02C0F8FF09005B
:10233000F5CFAAF04DD0020E046EA8C000F0A9C0DF
:1023400001F0000EA9BFFF0E026E036E04500001E3
:1023500007E000360090013602360336FF0FF7D74C
:102360000001B80E0026660E0122000E022200C0F7
:10237000F6FF01C0F7FF02C0F8FF0900F5CF04F037
:102380000900F5CF05F00900F5CF06F00900F5CFFB
:1023900007F0B7C000F0B8C001F0B9C002F0BAC091
:1023A00003F0FDEC27F00F0E0016000E01160216CA
:1023B00003161A0E0026670E0122000E022200C02C
:1023C000F6FF01C0F7FF02C0F8FF0900F5CFAAF041
:1023D00000014DD0020E046EA8C000F0A9C001F0AB
:1023E000000EA9BFFF0E026E036E0450000107E04D
:1023F00000360090013602360336FF0FF7D7000192
:10240000D80E0026660E0122000E022200C0F6FF42
:1024100001C0F7FF02C0F8FF0900F5CF04F0090082
:10242000F5CF05F00900F5CF06F00900F5CF07F06C
:10243000B7C000F0B8C001F0B9C002F0BAC003F0F4
:10244000FDEC27F0070E0014AA6F300EAA270FD05C
:10245000BB51000AD8B4D3D6BB51C00AD8B4CFD62A
:10246000BB51800AD8B417D7BB51400AB3E0000172
:102470009AC0E1FF9BC0E2FFAAC0E6FF9A4B9B2BEC
:10248000AF4BB02BA9D6ADA71AD0800E006E800E30
:10249000AC19005C02E1AB51000811E29AC0E1FF07
:1024A0009BC0E2FF200EE66E9A4B9B2BAF4BB02BEE
:1024B000010EAB5F000EAC5BAB51AC11EFE1000164
:1024C00055EF01F0AFC000F0B0C001F012004EECCB
:1024D00030F000016D6B6E6B6F6B706B1D0ED26E0A
:1024E0000D0E0C6EFF0E0B6EFF0E0A6E0C2E01D041
:1024F00007D00B2E01D003D00A2EFED7FAD7F6D77D
:10250000BF0E0B6EFF0E0A6E0B2E01D003D00A2EEB
:10251000FED7FAD72B0E0A6E0A2EFED70000000057
:1025200000009C8E0E0EC16EBA0EC06EFF0E926E33
:10253000FF0E936E1F0E946E966A976A8490849233
:1025400084845E6A5F6A606BF26A9D6AA06A9E6AB2
:10255000A16ABD6ABA6A170EB76E050EBD6E050E8A
:10256000BA6E310ECD6E830E8D6F0F0E8E6F020E12
:102570008F6F030E906F040E916F050E926F830E96
:10258000936F0F0E946F070E956F010E966F060EE8
:10259000976F87EC29F00C0E0001C36F0AEC2FF047
:1025A000FA0EC86EDFEC32F0D08E9F86A194C00E7A
:1025B000F26E050E9D6E010EA06ED180010E00011F
:1025C000716F010E726F000115A011D073A10ED0B2
:1025D00073915E50000A0AE15F50000A07E1605102
:1025E000000A04E171C072F08492848402D0000178
:1025F000738100013EEF21F0740E8D6F000E8E6F1F
:102600005E0E8F6F670E906F000E916FF8EC31F0D9
:10261000010E00018D6F020E8E6F740E8F6F000E13
:10262000906F0BEC31F0740E8D6F000E8E6F6E0E8E
:102630008F6F670E906F000E916FF8EC31F0020E05
:1026400000018D6F020E8E6F740E8F6F000E906FF3
:102650000BEC31F084921A0E0C6EFF0E0B6EFF0E17
:102660000A6E0C2E01D007D00B2E01D003D00A2EFB
:10267000FED7FAD7F6D77F0E0B6EFF0E0A6E0B2E23
:1026800001D003D00A2EFED7FAD7580E0A6E0A2EB2
:10269000FED7000000008482010EC36F0AEC2FF009
:1026A000020E0001716F346A51EF21F0740E8D6FCC
:1026B000000E8E6F8A0E8F6F670E906F000E916FF7
:1026C000F8EC31F0010E00018D6F040E8E6F740E68
:1026D0008F6F000E906F0BEC31F0740E8D6F000E4B
:1026E0008E6F500E8F6F670E906F000E916FF8EC2B
:1026F00031F0020E00018D6F010E8E6F740E8F6F20
:10270000000E906F0BEC31F0B4EF1BF00001740E73
:102710008D6F000E8E6FD00E8F6F670E906F000E54
:10272000916FF8EC31F0020E00018D6F060E8E6F86
:10273000740E8F6F000E906F0BEC31F00C0E4E6E1E
:10274000000E4F6E506E516E1C0E6D6F070E6E6F49
:10275000000E6F6F706F1C0E426E070E436E000E00
:10276000446E456E000E5A6E000E5B6E000E5C6E7F
:10277000800E5D6E000E616F000E626F400E636F23
:10278000800E646F000E566E000E576E170E586E58
:10279000860E596E8BEF1DF00001740E8D6F000ECA
:1027A0008E6FDA0E8F6F670E906F000E916FF8ECE0
:1027B00031F0020E00018D6F060E8E6F740E8F6F5A
:1027C000000E906F0BEC31F00C0E4E6E000E4F6E43
:1027D000506E516E110E6D6F070E6E6F000E6F6FA3
:1027E000706F110E426E070E436E000E446E456E02
:1027F000000E5A6E000E5B6E000E5C6E800E5D6EFB
:10280000000E616F000E626F400E636F800E646F8A
:10281000000E566E000E576E160E586E860E596ECE
:102820008BEF1DF00001740E8D6F000E8E6FE40EA5
:102830008F6F670E906F000E916FF8EC31F0020E03
:1028400000018D6F060E8E6F740E8F6F000E906FED
:102850000BEC31F00C0E4E6E000E4F6E506E516E42
:10286000110E6D6F070E6E6F000E6F6F706F110E91
:10287000426E070E436E000E446E456E000E5A6E99
:10288000000E5B6E000E5C6E800E5D6E000E616F62
:10289000000E626F400E636F800E646F000E566E06
:1028A000000E576E160E586E860E596E8BEF1DF089
:1028B0000001740E8D6F000E8E6FEE0E8F6F670E1F
:1028C000906F000E916FF8EC31F0020E00018D6FE9
:1028D000060E8E6F740E8F6F000E906F0BEC31F042
:1028E0000C0E4E6E000E4F6E506E516E110E6D6FCF
:1028F000070E6E6F000E6F6F706F110E426E070E37
:10290000436E000E446E456E000E5A6E000E5B6EF6
:10291000000E5C6E800E5D6E000E616F000E626FC9
:10292000400E636F800E646F000E566E000E576E81
:10293000160E586E860E596E8BEF1DF00001740E48
:102940008D6F000E8E6FF80E8F6F670E906F000EFA
:10295000916FF8EC31F0020E00018D6F060E8E6F54
:10296000740E8F6F000E906F0BEC31F00C0E4E6EEC
:10297000000E4F6E506E516E1C0E6D6F070E6E6F17
:10298000000E6F6F706F1C0E426E070E436E000ECE
:10299000446E456E000E5A6E000E5B6E000E5C6E4D
:1029A000800E5D6E000E616F000E626F400E636FF1
:1029B000800E646F000E566E000E576E170E586E26
:1029C000860E596E8BEF1DF00001740E8D6F000E98
:1029D0008E6F020E8F6F680E906F000E916FF8EC85
:1029E00031F0020E00018D6F060E8E6F740E8F6F28
:1029F000000E906F0BEC31F00C0E4E6E000E4F6E11
:102A0000506E516E1C0E6D6F070E6E6F000E6F6F65
:102A1000706F1C0E426E070E436E000E446E456EC4
:102A2000000E5A6E000E5B6E000E5C6E800E5D6EC8
:102A3000000E616F000E626F400E636F800E646F58
:102A4000000E566E000E576E170E586E860E596E9B
:102A50008BEF1DF00001740E8D6F000E8E6F0C0E4B
:102A60008F6F680E906F000E916FF8EC31F0020ED0
:102A700000018D6F060E8E6F740E8F6F000E906FBB
:102A80000BEC31F00C0E4E6E000E4F6E506E516E10
:102A90001C0E6D6F070E6E6F000E6F6F706F1C0E49
:102AA000426E070E436E000E446E456E000E5A6E67
:102AB000000E5B6E000E5C6E800E5D6E000E616F30
:102AC000000E626F400E636F800E646F000E566ED4
:102AD000000E576E170E586E860E596E8BEF1DF056
:102AE0000001740E8D6F000E8E6F160E8F6F680EC4
:102AF000906F000E916FF8EC31F0020E00018D6FB7
:102B0000060E8E6F740E8F6F000E906F0BEC31F00F
:102B10000C0E4E6E000E4F6E506E516E1C0E6D6F91
:102B2000070E6E6F000E6F6F706F1C0E426E070EF9
:102B3000436E000E446E456E000E5A6E000E5B6EC4
:102B4000000E5C6E800E5D6E000E616F000E626F97
:102B5000400E636F800E646F000E566E000E576E4F
:102B6000170E586E860E596E8BEF1DF00001740E15
:102B70008D6F000E8E6F200E8F6F680E906F000E9F
:102B8000916FF8EC31F0020E00018D6F060E8E6F22
:102B9000740E8F6F000E906F0BEC31F00C0E4E6EBA
:102BA000000E4F6E506E516E1C0E6D6F070E6E6FE5
:102BB000000E6F6F706F1C0E426E070E436E000E9C
:102BC000446E456E000E5A6E000E5B6E000E5C6E1B
:102BD000800E5D6E000E616F000E626F400E636FBF
:102BE000800E646F000E566E000E576E170E586EF4
:102BF000860E596E8BEF1DF00001740E8D6F000E66
:102C00008E6F2A0E8F6F680E906F000E916FF8EC2A
:102C100031F0020E00018D6F060E8E6F740E8F6FF5
:102C2000000E906F0BEC31F00C0E4E6E000E4F6EDE
:102C3000506E516E1C0E6D6F070E6E6F000E6F6F33
:102C4000706F1C0E426E070E436E000E446E456E92
:102C5000000E5A6E000E5B6E000E5C6E800E5D6E96
:102C6000000E616F000E626F400E636F800E646F26
:102C7000000E566E000E576E170E586E860E596E69
:102C80008BEF1DF00001740E8D6F000E8E6F340EF1
:102C90008F6F680E906F000E916FF8EC31F0020E9E
:102CA00000018D6F060E8E6F740E8F6F000E906F89
:102CB0000BEC31F00C0E4E6E000E4F6E506E516EDE
:102CC000110E6D6F070E6E6F000E6F6F706F110E2D
:102CD000426E070E436E000E446E456E000E5A6E35
:102CE000000E5B6E000E5C6E800E5D6E000E616FFE
:102CF000000E626F400E636F800E646F000E566EA2
:102D0000000E576E160E586E860E596E8BEF1DF024
:102D10000001740E8D6F000E8E6F3E0E8F6F680E69
:102D2000906F000E916FF8EC31F0020E00018D6F84
:102D3000060E8E6F740E8F6F000E906F0BEC31F0DD
:102D40000C0E4E6E000E4F6E506E516E110E6D6F6A
:102D5000070E6E6F000E6F6F706F110E426E070ED2
:102D6000436E000E446E456E000E5A6E000E5B6E92
:102D7000000E5C6E800E5D6E000E616F000E626F65
:102D8000400E636F800E646F000E566E000E576E1D
:102D9000160E586E860E596E8BEF1DF00001740EE4
:102DA0008D6F000E8E6F480E8F6F680E906F000E45
:102DB000916FF8EC31F0020E00018D6F060E8E6FF0
:102DC000740E8F6F000E906F0BEC31F00C0E4E6E88
:102DD000000E4F6E506E516E4D0E6D6F050E6E6F84
:102DE000000E6F6F706F4D0E426E050E436E000E3B
:102DF000446E456E000E5A6E000E5B6E000E5C6EE9
:102E0000800E5D6E000E616F000E626F000E636FCC
:102E1000810E646F000E566E000E576E620E586E75
:102E2000850E596E8BEF1DF00001740E8D6F000E34
:102E30008E6F520E8F6F680E906F000E916FF8ECD0
:102E400031F0020E00018D6F060E8E6F740E8F6FC3
:102E5000000E906F0BEC31F00D0E4E6E000E4F6EAB
:102E6000506E516EC70E6D6F050E6E6F000E6F6F58
:102E7000706FC70E426E050E436E000E446E456EB7
:102E8000000E5A6E000E5B6E000E5C6E800E5D6E64
:102E9000000E616F000E626F000E636F810E646F33
:102EA000000E566E000E576E620E586E850E596EED
:102EB0008BEF1DF00001740E8D6F000E8E6F5C0E97
:102EC0008F6F680E906F000E916FF8EC31F0020E6C
:102ED00000018D6F060E8E6F740E8F6F000E906F57
:102EE0000BEC31F00C0E4E6E000E4F6E506E516EAC
:102EF0004D0E6D6F050E6E6F000E6F6F706F4D0E85
:102F0000426E050E436E000E446E456E000E5A6E04
:102F1000000E5B6E000E5C6E800E5D6E000E616FCB
:102F2000000E626F000E636F810E646F000E566EAE
:102F3000000E576E620E586E850E596E8BEF1DF0A7
:102F40000001740E8D6F000E8E6F660E8F6F680E0F
:102F5000906F000E916FF8EC31F0020E00018D6F52
:102F6000060E8E6F740E8F6F000E906F0BEC31F0AB
:102F70000F0E4E6E000E4F6E506E516E710E6D6FD5
:102F8000040E6E6F000E6F6F706F710E426E040E46
:102F9000436E000E446E456E000E5A6E000E5B6E60
:102FA000000E5C6E800E5D6E000E616F000E626F33
:102FB000400E636F810E646F000E566E000E576EEA
:102FC000160E586E850E596E8BEF1DF00001740EB3
:102FD0008D6F000E8E6F700E8F6F680E906F000EEB
:102FE000916FF8EC31F0020E00018D6F060E8E6FBE
:102FF000740E8F6F000E906F0BEC31F00C0E4E6E56
:10300000000E4F6E506E516E890E6D6F030E6E6F17
:10301000000E6F6F706F890E426E030E436E000ECE
:10302000446E456E000E5A6E000E5B6E000E5C6EB6
:10303000800E5D6E000E616F000E626F400E636F5A
:10304000810E646F000E566E000E576E160E586E8F
:10305000850E596E8BEF1DF00001740E8D6F000E02
:103060008E6F7A0E8F6F680E906F000E916FF8EC76
:1030700031F0020E00018D6F060E8E6F740E8F6F91
:10308000000E906F0BEC31F00C0E4E6E000E4F6E7A
:10309000506E516E890E6D6F030E6E6F000E6F6F66
:1030A000706F890E426E030E436E000E446E456EC5
:1030B000000E5A6E000E5B6E000E5C6E800E5D6E32
:1030C000000E616F000E626F400E636F810E646FC1
:1030D000000E566E000E576E160E586E850E596E07
:1030E0008BEF1DF00001740E8D6F000E8E6F840E3D
:1030F0008F6F680E906F000E916FF8EC31F0020E3A
:1031000000018D6F060E8E6F740E8F6F000E906F24
:103110000BEC31F00F0E4E6E000E4F6E506E516E76
:10312000710E6D6F040E6E6F000E6F6F706F710E0B
:10313000426E040E436E000E446E456E000E5A6ED3
:10314000000E5B6E000E5C6E800E5D6E000E616F99
:10315000000E626F400E636F810E646F000E566E3C
:10316000000E576E160E586E850E596E8BEF1DF0C1
:103170000001740E8D6F000E8E6F8E0E8F6F680EB5
:10318000906F000E916FF8EC31F0020E00018D6F20
:10319000060E8E6F740E8F6F000E906F0BEC31F079
:1031A0000F0E4E6E000E4F6E506E516E710E6D6FA3
:1031B000040E6E6F000E6F6F706F710E426E040E14
:1031C000436E000E446E456E000E5A6E000E5B6E2E
:1031D000000E5C6E800E5D6E000E616F000E626F01
:1031E000400E636F810E646F000E566E000E576EB8
:1031F000160E586E850E596E8BEF1DF00001740E81
:103200008D6F000E8E6F980E8F6F680E906F000E90
:10321000916FF8EC31F0020E00018D6F060E8E6F8B
:10322000740E8F6F000E906F0BEC31F00F0E4E6E20
:10323000000E4F6E506E516E710E6D6F040E6E6FFC
:10324000000E6F6F706F710E426E040E436E000EB3
:10325000446E456E000E5A6E000E5B6E000E5C6E84
:10326000800E5D6E000E616F000E626F400E636F28
:10327000810E646F000E566E000E576E160E586E5D
:10328000850E596E8BEF1DF00001740E8D6F000ED0
:103290008E6FA20E8F6F680E906F000E916FF8EC1C
:1032A00031F0020E00018D6F060E8E6F740E8F6F5F
:1032B000000E906F0BEC31F00F0E4E6E000E4F6E45
:1032C000506E516E710E6D6F040E6E6F000E6F6F4B
:1032D000706F710E426E040E436E000E446E456EAA
:1032E000000E5A6E000E5B6E000E5C6E800E5D6E00
:1032F000000E616F000E626F400E636F810E646F8F
:10330000000E566E000E576E160E586E850E596ED4
:103310008BEF1DF00001740E8D6F000E8E6FAC0EE2
:103320008F6F680E906F000E916FF8EC31F0020E07
:1033300000018D6F060E8E6F740E8F6F000E906FF2
:103340000BEC31F0080E4E6E000E4F6E506E516E4B
:10335000090E6D6F020E6E6F000E6F6F706F090EAB
:10336000426E020E436E000E446E456E000E5A6EA3
:10337000000E5B6E000E5C6E800E5D6E000E616F67
:10338000000E626F400E636F810E646F000E566E0A
:10339000000E576E020E586E850E596E8BEF1DF0A3
:1033A0000001740E8D6F000E8E6FB60E8F6F680E5B
:1033B000906F000E916FF8EC31F0020E00018D6FEE
:1033C000060E8E6F740E8F6F000E906F0BEC31F047
:1033D0000D0E4E6E000E4F6E506E516EB60E6D6F2E
:1033E000020E6E6F000E6F6F706FB60E426E020EA1
:1033F000436E000E446E456E000E5A6E000E5B6EFC
:10340000000E5C6E800E5D6E000E616F000E626FCE
:10341000000E636F820E646F000E566E000E576EC4
:10342000540E586E840E596E8BEF1DF00001740E11
:103430008D6F000E8E6FC00E8F6F680E906F000E36
:10344000916FF8EC31F0020E00018D6F060E8E6F59
:10345000740E8F6F000E906F0BEC31F00D0E4E6EF0
:10346000000E4F6E506E516E910E6D6F020E6E6FAC
:10347000000E6F6F706F910E426E020E436E000E63
:10348000446E456E000E5A6E000E5B6E000E5C6E52
:10349000800E5D6E000E616F000E626F100E636F26
:1034A000820E646F000E566E000E576E480E586EF8
:1034B000840E596E30D30001740E8D6F000E8E6F26
:1034C000CA0E8F6F680E906F000E916FF8EC31F09E
:1034D000020E00018D6F060E8E6F740E8F6F000E40
:1034E000906F0BEC31F00D0E4E6E000E4F6E506E65
:1034F000516E580E6D6F060E6E6F000E6F6F706F0F
:10350000580E426E060E436E000E446E456E000E5F
:103510005A6E000E5B6E000E5C6E7F0E5D6E000ECE
:10352000616F000E626F400E636F810E646F000E5C
:10353000566E000E576E780E586E850E596EEBD291
:103540000001740E8D6F000E8E6FD40E8F6F680E9B
:10355000906F000E916FF8EC31F0020E00018D6F4C
:10356000060E8E6F740E8F6F000E906F0BEC31F0A5
:103570000D0E4E6E000E4F6E506E516E910E6D6FB1
:10358000020E6E6F000E6F6F706F910E426E020E24
:10359000436E000E446E456E000E5A6E000E5B6E5A
:1035A000000E5C6E800E5D6E000E616F000E626F2D
:1035B000100E636F820E646F000E566E000E576E13
:1035C000480E586E840E596EA6D20001740E8D6F8F
:1035D000000E8E6FDE0E8F6F680E906F000E916F73
:1035E000F8EC31F0020E00018D6F060E8E6F740E36
:1035F0008F6F000E906F0BEC31F00D0E4E6E000EC3
:103600004F6E506E516E910E6D6F020E6E6F000E0A
:103610006F6F706F910E426E020E436E000E446E1D
:10362000456E000E5A6E000E5B6E000E5C6E800ED4
:103630005D6E000E616F000E626F100E636F820E82
:10364000646F000E566E000E576E480E586E840E54
:10365000596E61D20001740E8D6F000E8E6FE80EF0
:103660008F6F680E906F000E916FF8EC31F0020EC4
:1036700000018D6F060E8E6F740E8F6F000E906FAF
:103680000BEC31F00F0E4E6E000E4F6E506E516E01
:10369000710E6D6F040E6E6F000E6F6F706F710E96
:1036A000426E040E436E000E446E456E000E5A6E5E
:1036B000000E5B6E000E5C6E800E5D6E000E616F24
:1036C000000E626F400E636F810E646F000E566EC7
:1036D000000E576E160E586E850E596E1CD20001E4
:1036E000740E8D6F000E8E6FF20E8F6F680E906FDE
:1036F000000E916FF8EC31F0020E00018D6F060E96
:103700008E6F740E8F6F000E906F0BEC31F00D0EFC
:103710004E6E000E4F6E506E516EC70E6D6F050EE1
:103720006E6F000E6F6F706FC70E426E050E436EA8
:10373000000E446E456E000E5A6E000E5B6E000E5B
:103740005C6E800E5D6E000E616F000E626F000E8B
:10375000636F810E646F000E566E000E576E620E20
:10376000586E850E596ED7D1000E006E551808E1BF
:103770000050541805E10050531802E15250010A5C
:103780000001D8B486EF13F0000E006E551808E162
:103790000050541805E10050531802E15250020A3B
:1037A0000001D8B4CCEF13F0000E006E551808E1FC
:1037B0000050541805E10050531802E15250030A1A
:1037C0000001D8B412EF14F0000E006E551808E195
:1037D0000050541805E10050531802E15250040AF9
:1037E0000001D8B458EF14F0000E006E551808E12F
:1037F0000050541805E10050531802E15250050AD8
:103800000001D8B49EEF14F0000E006E551808E1C8
:103810000050541805E10050531802E15250060AB6
:103820000001D8B4E4EF14F0000E006E551808E162
:103830000050541805E10050531802E15250070A95
:103840000001D8B42AEF15F0000E006E551808E1FB
:103850000050541805E10050531802E15250080A74
:103860000001D8B470EF15F0000E006E551808E195
:103870000050541805E10050531802E15250090A53
:103880000001D8B4B6EF15F0000E006E551808E12F
:103890000050541805E10050531802E152500A0A32
:1038A0000001D8B4FCEF15F0000E006E551808E1C9
:1038B0000050541805E10050531802E152500B0A11
:1038C0000001D8B442EF16F0000E006E551808E162
:1038D0000050541805E10050531802E152500C0AF0
:1038E0000001D8B488EF16F0000E006E551808E1FC
:1038F0000050541805E10050531802E152500D0ACF
:103900000001D8B4CEEF16F0000E006E551808E195
:103910000050541805E10050531802E152500E0AAD
:103920000001D8B414EF17F0000E006E551808E12E
:103930000050541805E10050531802E152500F0A8C
:103940000001D8B45AEF17F0000E006E551808E1C8
:103950000050541805E10050531802E15250100A6B
:103960000001D8B4A0EF17F0000E006E551808E162
:103970000050541805E10050531802E15250110A4A
:103980000001D8B4E6EF17F0000E006E551808E1FC
:103990000050541805E10050531802E15250120A29
:1039A0000001D8B42CEF18F0000E006E551808E195
:1039B0000050541805E10050531802E15250130A08
:1039C0000001D8B472EF18F0000E006E551808E12F
:1039D0000050541805E10050531802E15250140AE7
:1039E0000001D8B4B8EF18F0000E006E551808E1C9
:1039F0000050541805E10050531802E15250150AC6
:103A00000001D8B4FEEF18F0000E006E551808E162
:103A10000050541805E10050531802E15250160AA4
:103A20000001D8B431D4000E006E551808E10050E2
:103A3000541805E10050531802E15250170A0001D2
:103A4000D8B468D4000E006E551808E10050541820
:103A500005E10050531802E15250180A0001D8B491
:103A60009FD4000E006E551808E10050541805E16F
:103A70000050531802E15250190A0001D8B4D6D4AC
:103A8000000E006E551808E10050541805E1005072
:103A9000531802E152501A0A0001D8B40CD5000E96
:103AA000006E551808E10050541805E100505318F5
:103AB00002E152501B0A0001D8B442D5000E006E3C
:103AC000551808E10050541805E10050531802E160
:103AD00052501C0A0001D8B478D5000E006E55185B
:103AE00008E10050541805E10050531802E152500B
:103AF0001D0A0001D8B4AED5000E006E551808E1BD
:103B00000050541805E10050531802E152501E0AAB
:103B10000001D8B4E4D5AFEC2BF000018451030AC6
:103B200009E1010E5226000E532254225522346A16
:103B3000020E716F5550000808E15450000805E16D
:103B40005350000802E152501E08000106E2010E27
:103B5000526E000E536E546E556E00018451040A6D
:103B600011E1010E006E000E016E026E036E005038
:103B7000525E0150535A0250545A0350555A346AF7
:103B8000020E716F000E555C08E1000E545C05E1F9
:103B9000000E535C02E1010E525C000106E21E0EB3
:103BA000526E000E536E546E556E00018451050A1C
:103BB0005BE1010EC36F0AEC2FF0740E00018D6FF4
:103BC000000E8E6FAC0E8F6F670E906F000E916FB0
:103BD000F8EC31F0010E00018D6F050E8E6F740E42
:103BE0008F6F000E906F0BEC31F0740E8D6F000E26
:103BF0008E6FB60E8F6F670E906F000E916FF8ECA0
:103C000031F0020E00018D6F060E8E6F740E8F6FF5
:103C1000000E906F0BEC31F01A0E0C6EFF0E0B6E57
:103C2000FF0E0A6E0C2E01D007D00B2E01D003D050
:103C30000A2EFED7FAD7F6D77F0E0B6EFF0E0A6E4E
:103C40000B2E01D003D00A2EFED7FAD7580E0A6EDB
:103C50000A2EFED700000000010EC36F0AEC2FF001
:103C6000030E0001716F346A1CD3740E8D6F000E49
:103C70008E6F960E8F6F670E906F000E916FF8EC3F
:103C800031F0010E00018D6F0E0E8E6F740E8F6F6E
:103C9000000E906F0BEC31F0740E8D6F000E8E6F76
:103CA000A80E8F6F670E906F000E916FF8EC31F0D9
:103CB000020E00018D6F0E0E8E6F740E8F6F000E50
:103CC000906F0BEC31F08451030A56E165C000F0AF
:103CD00066C001F067C002F068C003F0CD0E046E4C
:103CE000CC0E056E4C0E066E7B0E076E58EC24F063
:103CF00000C065F001C066F002C067F003C068F064
:103D000042506D2743506E2344506F23455070231B
:103D1000010E3A26000E3B223C223D22740E8D6F8E
:103D2000000E8E6FBE0E8F6F670E906F000E916F3C
:103D3000F8EC31F0010E00018D6F010E8E6F740EE4
:103D40008F6F000E906F0BEC31F0740E8D6F000EC4
:103D50008E6FBE0E8F6F670E906F000E916FF8EC36
:103D600031F0020E00018D6F010E8E6F740E8F6F99
:103D7000000E906F0BEC31F08451040A5EE1CD0E21
:103D8000046ECC0E056E4C0E066E7B0E076E65C083
:103D900000F066C001F067C002F068C003F005ECF7
:103DA00033F000C065F001C066F002C067F003C0E8
:103DB00068F042506D5F43506E5B44506F5B4550FE
:103DC000705B010E006E000E016E026E036E0050FD
:103DD0003A5E01503B5A02503C5A03503D5A740E11
:103DE0008D6F000E8E6FBE0E8F6F670E906F000E80
:103DF000916FF8EC31F0010E00018D6F010E8E6FA6
:103E0000740E8F6F000E906F0BEC31F0740E8D6F8F
:103E1000000E8E6FBE0E8F6F670E906F000E916F4B
:103E2000F8EC31F0020E00018D6F010E8E6F740EF2
:103E30008F6F000E906F0BEC31F0CD0E046ECC0E38
:103E4000056E4C0E066E7B0E076E65C000F066C0F8
:103E500001F067C002F068C003F081EC2FF0010EA2
:103E6000D8B0000E006E005208E0656B666B676BA1
:103E7000686B6D6B6E6B6F6B706B0001740E8D6F8A
:103E8000000E8E6FFC0E8F6F680E906F000E916F9C
:103E90006DC092F06EC093F06FC094F070C095F05A
:103EA00023EC32F0010E8D6F010E8E6F740E8F6F4A
:103EB000000E906F0BEC31F0746B740E8D6F000E72
:103EC0008E6F000E8F6F690E906F000E916F65C040
:103ED00092F066C093F067C094F068C095F023EC50
:103EE00032F0020E8D6F010E8E6F740E8F6F000E0A
:103EF000906F0BEC31F0746B8451050A07E1040EEE
:103F0000716F346A010EC36F0AEC2FF00001845107
:103F1000010A08E1010EC36F0AEC2FF0020E000146
:103F2000716F346A8451020A08E1010EC36F0AEC12
:103F30002FF0020E0001716F346AB3D1740E8D6FD1
:103F4000000E8E6FA80E8F6F670E906F000E916F30
:103F5000F8EC31F0010E00018D6F0E0E8E6F740EB5
:103F60008F6F000E906F0BEC31F0740E8D6F000EA2
:103F70008E6F960E8F6F670E906F000E916FF8EC3C
:103F800031F0020E00018D6F0E0E8E6F740E8F6F6A
:103F9000000E906F0BEC31F08451050A08E1010E20
:103FA000C36F0AEC2FF0020E0001716F346A4150AA
:103FB000705D08E140506F5D05E13F506E5D02E1CC
:103FC0003E506D5DD8A0E7D0AFEC2BF03450060A20
:103FD00003E1020E0001716F0001010E3E26000E8A
:103FE0003F224022412285903B0E0B6EFF0E0A6E4F
:103FF0000B2E01D003D00A2EFED7FAD7480E0A6E38
:104000000A2EFED7000000008580070E0B6EFF0E03
:104010000A6E0B2E01D003D00A2EFED7FAD7780EE7
:104020000A6E0A2EFED7000000004EC004F04FC0FA
:1040300005F050C006F051C007F03EC000F03FC090
:1040400001F040C002F041C003F0FDEC27F061EC4C
:1040500032F05AC004F05BC005F05CC006F05DC0F1
:1040600007F076EC2EF061C004F062C005F063C08A
:1040700006F064C007F076EC2EF0000E046E400EE1
:10408000056E1C0E066E8C0E076E95EC2CF000C0B3
:1040900089F001C08AF002C08BF003C08CF03AC0F6
:1040A00000F03BC001F03CC002F03DC003F061EC09
:1040B00032F00A0E046ED70E056E230E066E780ED1
:1040C000076E76EC2EF089C004F08AC005F08BC034
:1040D00006F08CC007F058EC24F000C069F001C075
:1040E0006AF002C06BF003C06CF0740E8D6F000EAE
:1040F0008E6F040E8F6F690E906F000E916F00C06F
:1041000092F001C093F002C094F003C095F023EC4C
:1041100032F0010E8D6F010E8E6F740E8F6F000ED8
:10412000906F0BEC31F0746B740E8D6F000E8E6F10
:10413000080E8F6F690E906F000E916F3EC092F067
:104140003FC093F040C094F041C095F023EC32F0B2
:10415000020E8D6F010E8E6F740E8F6F000E906FBA
:104160000BEC31F0746B740E8D6F000E8E6FCA0EF7
:104170008F6F670E906F000E916FF8EC31F0010EAB
:1041800000018D6F080E8E6F740E8F6F000E906F92
:104190000BEC31F00CD700014D50000808E14C50F9
:1041A000000805E14B50000802E14A5002080001F6
:1041B00045E3010E4A26000E4B224C224D228482FA
:1041C000060E0C6EFF0E0B6EFF0E0A6E0C2E01D04B
:1041D00007D00B2E01D003D00A2EFED7FAD7F6D780
:1041E0001A0E0B6EFF0E0A6E0B2E01D003D00A2E94
:1041F000FED7FAD7420E0A6E0A2EFED78492060E1A
:104200000C6EFF0E0B6EFF0E0A6E0C2E01D007D047
:104210000B2E01D003D00A2EFED7FAD7F6D71A0EEE
:104220000B6EFF0E0A6E0B2E01D003D00A2EFED7A6
:10423000FAD7420E0A6E0A2EFED7ADD700016D6B7B
:104240006E6B6F6B706B010E3E6E000E3F6E406EBC
:10425000416E4E6A4F6A506A516A010E526E000EEC
:10426000536E546E556ECD0E656FCC0E666F4C0E50
:10427000676F7B0E686F8580849213D00001715147
:10428000010AD8B4FCEF12F07151020AD8B456EF0B
:1042900013F07151030AD8B4E8D47151040AD8B4A8
:1042A0004DD60001AFEC2BF000C084F0E3EF12F02C
:1042B000FFD7800E0001C319006E800E000A005C5B
:1042C000D8B07ED1C3510008046E04C0C3F0800E84
:1042D0000418006E800E6E0A005CD8A0C6D0640E72
:1042E000046EC3C000F0B0EC30F0120E0026000ED9
:1042F00000BEFF0E016E000E0122020E046E000EC3
:1043000001BEFF0E026E036E0450000107E000368E
:104310000090013602360336FF0FF7D70001280E52
:104320000026660E0122000E022200C0F6FF01C028
:10433000F7FF02C0F8FF0900F5CFC4F00900F5CF80
:10434000C5F00900F5CFC6F00900F5CFC7F0640E3F
:10435000046EC3C000F0B0EC30F008C000F00A0EEC
:10436000046EB0EC30F0090E0026000E00BEFF0E09
:10437000016E000E0122020E046E000E01BEFF0E41
:10438000026E036E0450000107E000360090013613
:1043900002360336FF0FF7D70001280E0026660EFF
:1043A0000122000E022200C0F6FF01C0F7FF02C08A
:1043B000F8FF0900F5CF00F00900F5CF01F0090082
:1043C000F5CF02F00900F5CF03F0C4C004F0C5C07A
:1043D00005F0C6C006F0C7C007F076EC2EF000C0AE
:1043E000C4F001C0C5F002C0C6F003C0C7F00A0E99
:1043F000046EC3C000F0B0EC30F008C000F0020E54
:10440000046E000E00BEFF0E016E026E036E0450BD
:10441000000107E000360090013602360336FF0F38
:10442000F7D70001280E0026660E0122000E022298
:1044300000C0F6FF01C0F7FF02C0F8FF0900F5CF8A
:1044400000F00900F5CF01F00900F5CF02F00900F6
:10445000F5CF03F0C4C004F0C5C005F0C6C006F037
:10446000C7C007F076EC2EF01200800E0A0A006E2C
:10447000800EC319005C76E20A0E046EC3C000F021
:10448000B0EC30F0090E0026000E00BEFF0E016EEB
:10449000000E0122020E046E000E01BEFF0E026E1F
:1044A000036E0450000107E000360090013602362A
:1044B0000336FF0FF7D70001280E0026660E0122F3
:1044C000000E022200C0F6FF01C0F7FF02C0F8FF95
:1044D0000900F5CFC4F00900F5CFC5F00900F5CF0C
:1044E000C6F00900F5CFC7F00A0E046EC3C000F095
:1044F000B0EC30F008C000F0020E046E000E00BEFA
:10450000FF0E016E026E036E0450000107E00036DC
:104510000090013602360336FF0FF7D70001280E50
:104520000026660E0122000E022200C0F6FF01C026
:10453000F7FF02C0F8FF0900F5CF00F00900F5CF42
:1045400001F00900F5CF02F00900F5CF03F0C4C077
:1045500004F0C5C005F0C6C006F0C7C007F076EC91
:104560002EF01200020E046EC3C000F0000EC3BF96
:10457000FF0E016E026E036E0450000107E000366C
:104580000090013602360336FF0FF7D70001280EE0
:104590000026660E0122000E022200C0F6FF01C0B6
:1045A000F7FF02C0F8FF0900F5CF00F00900F5CFD2
:1045B00001F00900F5CF02F00900F5CF03F0120079
:1045C000800EC319006E800E6E0A005CD8A0C6D0A3
:1045D000640E046EC3C000F0B0EC30F0120E002682
:1045E000000E00BEFF0E016E000E0122020E046ED0
:1045F000000E01BEFF0E026E036E0450000107E0C4
:1046000000360090013602360336FF0FF7D700015F
:104610005C0E0026660E0122000E022200C0F6FF8C
:1046200001C0F7FF02C0F8FF0900F5CFC4F0090090
:10463000F5CFC5F00900F5CFC6F00900F5CFC7F0FA
:10464000640E046EC3C000F0B0EC30F008C000F09F
:104650000A0E046EB0EC30F0090E0026000E00BE0B
:10466000FF0E016E000E0122020E046E000E01BE4E
:10467000FF0E026E036E0450000107E0003600904A
:10468000013602360336FF0FF7D700015C0E002615
:10469000660E0122000E022200C0F6FF01C0F7FFE5
:1046A00002C0F8FF0900F5CF00F00900F5CF01F0D6
:1046B0000900F5CF02F00900F5CF03F0C4C004F003
:1046C000C5C005F0C6C006F0C7C007F076EC2EF0F6
:1046D00000C0C4F001C0C5F002C0C6F003C0C7F0FE
:1046E0000A0E046EC3C000F0B0EC30F008C000F059
:1046F000020E046E000E00BEFF0E016E026E036E0F
:104700000450000107E000360090013602360336FF
:10471000FF0FF7D700015C0E0026660E0122000E87
:10472000022200C0F6FF01C0F7FF02C0F8FF090037
:10473000F5CF00F00900F5CF01F00900F5CF02F048
:104740000900F5CF03F0C4C004F0C5C005F0C6C031
:1047500006F0C7C007F076EC2EF01200800E0A0AB1
:10476000006E800EC319005C76E20A0E046EC3C0B0
:1047700000F0B0EC30F0090E0026000E00BEFF0E77
:10478000016E000E0122020E046E000E01BEFF0E2D
:10479000026E036E0450000107E0003600900136FF
:1047A00002360336FF0FF7D700015C0E0026660EB7
:1047B0000122000E022200C0F6FF01C0F7FF02C076
:1047C000F8FF0900F5CFC4F00900F5CFC5F00900E6
:1047D000F5CFC6F00900F5CFC7F00A0E046EC3C0CE
:1047E00000F0B0EC30F008C000F0020E046E000ED5
:1047F00000BEFF0E016E026E036E0450000107E062
:1048000000360090013602360336FF0FF7D700015D
:104810005C0E0026660E0122000E022200C0F6FF8A
:1048200001C0F7FF02C0F8FF0900F5CF00F0090052
:10483000F5CF01F00900F5CF02F00900F5CF03F044
:10484000C4C004F0C5C005F0C6C006F0C7C007F07C
:1048500076EC2EF01200020E046EC3C000F0000EC3
:10486000C3BFFF0E016E026E036E0450000107E02D
:1048700000360090013602360336FF0FF7D75C0E84
:104880000026660E0122000E022200C0F6FF01C0C3
:10489000F7FF02C0F8FF0900F5CF00F00900F5CFDF
:1048A00001F00900F5CF02F00900F5CF03F0120086
:1048B0000001025006180E6E086A096A0B6A03505E
:1048C00007644CEF25F006500A6E068E028E0350E8
:1048D0000B6E0750036E000E0B649CEF24F00B5020
:1048E000075ED8B43DEF25F0070E07640BEF25F007
:1048F000075E00C008F001C000F002C001F0026ACB
:10490000074E3DEF25F00764E0EF24F0075E00C09E
:1049100008F001C000F0016A074E3DEF25F0076482
:10492000BEEF24F0075E00C008F0006A074E3DEFBE
:1049300025F00764A5EF24F00AC002F005C001F0DD
:1049400004C000F0086A69EF26F0030E0764B0EFB8
:1049500024F0075E08380F0B086E074E3DEF25F078
:10496000D8900832074E3DEF25F0D8900832074E18
:104970003DEF25F0D89008323DEF25F0030E076497
:10498000CFEF24F0075E08380F0B086E0038F00BED
:10499000082600380F0B006E074E3DEF25F0D8902B
:1049A00000320832074E3DEF25F0D8900032083231
:1049B000074E3DEF25F0D890003208323DEF25F04C
:1049C000030E0764F7EF24F0075E08380F0B086E3C
:1049D0000038F00B082600380F0B006E0138F00B82
:1049E000002601380F0B016E074E3DEF25F0D890E1
:1049F000013200320832074E3DEF25F0D8900132E7
:104A000000320832074E3DEF25F0D89001320032D7
:104A100008323DEF25F0030E076428EF25F0075E0E
:104A200008380F0B086E0038F00B082600380F0B03
:104A3000006E0138F00B002601380F0B016E0238B2
:104A4000F00B012602380F0B026E074E3DEF25F0EA
:104A5000D8900232013200320832074E3DEF25F085
:104A6000D8900232013200320832074E3DEF25F075
:104A7000D8900232013200320832096A000E0EAEBE
:104A800031EF26F0081E001E011E021E082A002219
:104A90000122022231EF26F00750D8A452EF25F070
:104AA00069EF26F0096A02C00AF0028E068E0750EE
:104AB000035C076ED8B424EF26F0070E0764F2EF0C
:104AC00025F0075E0450096E0550046E0650056E11
:104AD000066A074E24EF26F0070E0764C7EF25F09D
:104AE000075E0450096E0550046E056A074E24EFF8
:104AF00026F0070E0764A5EF25F0075E0450096E47
:104B0000046A074E24EF26F0070E07648CEF25F0A9
:104B10000AC002F069EF26F0030E076497EF25F054
:104B2000075E09380F0B096E074E24EF26F0D89068
:104B30000932074E24EF26F0D8900932074E24EFB1
:104B400026F0D890093224EF26F0030E0764B6EF62
:104B500025F0075E09380F0B096E0438F00B0926A3
:104B600004380F0B046E074E24EF26F0D890043261
:104B70000932074E24EF26F0D89004320932074E4E
:104B800024EF26F0D8900432093224EF26F0030EE9
:104B90000764DEEF25F0075E09380F0B096E043855
:104BA000F00B092604380F0B046E0538F00B0426B1
:104BB00005380F0B056E074E24EF26F0D89005320E
:104BC00004320932074E24EF26F0D8900532043221
:104BD0000932074E24EF26F0D8900532043209320C
:104BE00024EF26F0030E07640FEF26F0075E093866
:104BF0000F0B096E0438F00B092604380F0B046EF6
:104C00000538F00B042605380F0B056E0638F00B3F
:104C1000052606380F0B066E074E24EF26F0D890B7
:104C20000632053204320932074E24EF26F0D890BE
:104C30000632053204320932074E24EF26F0D890AE
:104C40000632053204320932086A000E0EAE31EF28
:104C500026F0091E041E051E061E092A042205222E
:104C60000622095008260450002205500122065051
:104C700002220EBE48EF26F0D8A057EF26F00232EF
:104C8000013200320832033E57EF26F063EF26F080
:104C9000D8B05DEF26F0000E081E001E011E021E99
:104CA000082A0022012202220A7E5DEF26F0010E70
:104CB0000C6EB9EC2AF06BEF26F0020E0C6EB9EC1C
:104CC0002AF06BEF26F0040E0C6EC5EC32F06BEFA1
:104CD00026F0000E0C6E12006E0E0001C35DD8A00F
:104CE000D0D0640E046EC3C000F075EC32F0120E2A
:104CF0000026016A000E0122020E046E000E01BEA3
:104D0000FF0E026E036E0450000107E000360090B3
:104D1000013602360336FF0FF7D70001280E0026B2
:104D2000660E0122000E022200C0F6FF01C0F7FF4E
:104D300002C0F8FF0900F5CF00F00900F5CF01F03F
:104D40000900F5CF02F00900F5CF03F0000E046E64
:104D5000000E056E000E066E7E0E076E76EC2EF0CF
:104D600000C0C4F001C0C5F002C0C6F003C0C7F067
:104D7000640E046EC3C000F075EC32F008C000F0A1
:104D80000A0E046E75EC32F0090E0026016A000E60
:104D90000122020E046E000E01BEFF0E026E036EB3
:104DA0000450000107E00036009001360236033659
:104DB000FF0FF7D70001280E0026660E0122000E15
:104DC000022200C0F6FF01C0F7FF02C0F8FF090091
:104DD000F5CF00F00900F5CF01F00900F5CF02F0A2
:104DE0000900F5CF03F0C4C004F0C5C005F0C6C08B
:104DF00006F0C7C007F076EC2EF000C0C4F001C08A
:104E0000C5F002C0C6F003C0C7F00A0E046EC3C0EE
:104E100000F075EC32F008C000F0020E046E000ED7
:104E2000016E026E036E0450000107E00036009030
:104E3000013602360336FF0FF7D70001280E002691
:104E4000660E0122000E022200C0F6FF01C0F7FF2D
:104E500002C0F8FF0900F5CF00F00900F5CF01F01E
:104E60000900F5CF02F00900F5CF03F0C4C004F04B
:104E7000C5C005F0C6C006F0C7C007F076EC2EF03E
:104E80001200C3510A08D8B083D00A0E046EC3C002
:104E900000F075EC32F0090E0026016A000E0122C6
:104EA000020E046E000E01BEFF0E026E036E045071
:104EB000000107E000360090013602360336FF0F8E
:104EC000F7D70001280E0026660E0122000E0222EE
:104ED00000C0F6FF01C0F7FF02C0F8FF0900F5CFE0
:104EE00000F00900F5CF01F00900F5CF02F009004C
:104EF000F5CF03F0000E046E000E056E000E066E78
:104F00007E0E076E76EC2EF000C0C4F001C0C5F036
:104F100002C0C6F003C0C7F00A0E046EC3C000F0A2
:104F200075EC32F008C000F0020E046E000E016E47
:104F3000026E036E0450000107E000360090013657
:104F400002360336FF0FF7D70001280E0026660E43
:104F50000122000E022200C0F6FF01C0F7FF02C0CE
:104F6000F8FF0900F5CF00F00900F5CF01F00900C6
:104F7000F5CF02F00900F5CF03F0C4C004F0C5C0BE
:104F800005F0C6C006F0C7C007F076EC2EF01200A0
:104F9000020E046EC3C000F0000E016E026E036EBE
:104FA0000450000107E00036009001360236033657
:104FB000FF0FF7D7280E0026660E0122000E0222F0
:104FC00000C0F6FF01C0F7FF02C0F8FF0900F5CFEF
:104FD00000F00900F5CF01F00900F5CF02F009005B
:104FE000F5CF03F0000E046E000E056E000E066E87
:104FF0007E0E076E76EC2EF0120000010B6A0A6A34
:10500000096A086A0E6A033408360450085E0550BF
:10501000D8A0053C095E0650D8A0063C0A5E0750A1
:10502000D8A0073C0B5EE86AD8A0010E0E5E0336DE
:10503000070E0C6E0334083609360A360B360E3668
:10504000045003A037EF28F0085E0550D8A0053CB7
:10505000095E0650D8A0063C0A5E0750D8A0073C5F
:105060000B5EE86AD8A0010E0E5E48EF28F0082615
:105070000550D8B0053C09260650D8B0063C0A2693
:105080000750D8B0073C0B26E86AD8B0010E0E26B0
:1050900003360C2E1AEF28F00234083609360A3689
:1050A0000B360E36045003A069EF28F0085E055059
:1050B000D8A0053C095E0650D8A0063C0A5E075001
:1050C000D8A0073C0B5EE86AD8A0010E0E5E7AEF0E
:1050D00028F008260550D8B0053C09260650D8B05F
:1050E000063C0A260750D8B0073C0B26E86AD8B021
:1050F000010E0E260236070E0C6E023408360936F3
:105100000A360B360E36045002A09AEF28F0085EDD
:105110000550D8A0053C095E0650D8A0063C0A5EA2
:105120000750D8A0073C0B5EE86AD8A0010E0E5EBF
:10513000ABEF28F008260550D8B0053C09260650EC
:10514000D8B0063C0A260750D8B0073C0B26E86AC0
:10515000D8B0010E0E2602360C2E7DEF28F0013459
:10516000083609360A360B360E36045002A0CCEF4C
:1051700028F0085E0550D8A0053C095E0650D8A06E
:10518000063C0A5E0750D8A0073C0B5EE86AD8A030
:10519000010E0E5EDDEF28F008260550D8B0053C64
:1051A00009260650D8B0063C0A260750D8B0073C5E
:1051B0000B26E86AD8B0010E0E260136070E0C6EDB
:1051C0000134083609360A360B360E36045001A073
:1051D000FDEF28F0085E0550D8A0053C095E06509A
:1051E000D8A0063C0A5E0750D8A0073C0B5EE86AD0
:1051F000D8A0010E0E5E0EEF29F008260550D8B09B
:10520000053C09260650D8B0063C0A260750D8B0FF
:10521000073C0B26E86AD8B0010E0E2601360C2E8C
:10522000E0EF28F00034083609360A360B360E3621
:10523000045001A02FEF29F0085E0550D8A0053CCE
:10524000095E0650D8A0063C0A5E0750D8A0073C6D
:105250000B5EE86AD8A0010E0E5E40EF29F008262A
:105260000550D8B0053C09260650D8B0063C0A26A1
:105270000750D8B0073C0B26E86AD8B0010E0E26BE
:105280000036070E0C6E0034083609360A360B3627
:105290000E36045000A060EF29F0085E0550D8A03B
:1052A000053C095E0650D8A0063C0A5E0750D8A00F
:1052B000073C0B5EE86AD8A0010E0E5E71EF29F084
:1052C00008260550D8B0053C09260650D8B0063C43
:1052D0000A260750D8B0073C0B26E86AD8B0010E62
:1052E0000E2600360C2E43EF29F000B086EF29F091
:1052F000045008260550D8B0053C09260650D8B001
:10530000063C0A260750D8B0073C0B26120099EC41
:1053100032F099EC32F099EC32F08FC000F0010ECF
:10532000026E005004E002360290FF0FFBD702C06D
:105330002DF090C000F0010E016E005004E0013627
:105340000190FF0FFBD701C02EF091C000F0010EBD
:10535000076E005004E007360790FF0FFBD707C029
:105360002FF092C000F0010E066E005004E00636E9
:105370000690FF0FFBD706C030F095C000F0010E7D
:10538000056E005004E005360590FF0FFBD705C001
:105390002CF096C000F0010E046E005004E00436BC
:1053A0000490FF0FFBD704C032F097C000F0010E4D
:1053B000036E005004E003360390FF0FFBD703C0D9
:1053C0002BF08DC027F08EC028F093C029F094C038
:1053D0002AF027C0E9FF28C0EAFF29C0E1FF2AC060
:1053E000E2FF01500210006E07500012065000103C
:1053F000026E021C006E0050EF16120E2724016E82
:1054000001C0E9FF02C000F0001E0050EF16120EAE
:10541000015CE96E04500510006E03500012001E7E
:105420000050E716120E2924016E01C0E1FF005062
:10543000E716120E015CE16E06500710006E005078
:10544000EF120350E712FAEC32F02B1C006E005002
:10545000E71699EC32F02B50E712FAEC32F02B1CE5
:10546000006E0050E71699EC32F02B50E712FAEC80
:1054700032F02B1C006E0050E71699EC32F02F50E2
:10548000EF12301C006E0050EF162B50E712FAECB2
:1054900032F02B1C006E0050E71699EC32F02B50C6
:1054A000E712FAEC32F02B1C006E0050E7162F1CAE
:1054B000006E0050EF162D50EF122B50E712FAEC51
:1054C00032F02B1C006E0050E71699EC32F02D1CC8
:1054D000006E0050EF163050EF122B50E712FAEC2E
:1054E00032F02B1C006E0050E716301C006E00508E
:1054F000EF162B50E712FAEC32F02B1C006E005026
:10550000E71699EC32F02B50E712FAEC32F02B1C34
:10551000006E0050E7163050EF122B50E712FAECF5
:1055200032F02B1C006E0050E71699EC32F0301C64
:10553000006E0050EF162B50E712FAEC32F02B1CE5
:10554000006E0050E7162F503010006E2E500012E3
:105550002D5000120050EF122B50E712FAEC32F0EF
:105560002B1C006E0050E71699EC32F0010E316EE4
:10557000120000010CB0FCEF2AF00CA2A4EF2BF0FB
:105580000E6A000E026413EF2BF0F00E0214D8A482
:10559000DEEF2AF0023A01380F0B02260138F00B39
:1055A000016E00380F0B01260038F00B006E083832
:1055B0000F0B00260838F00B086E0E84D89002BE40
:1055C000F7EF2AF008360036013602360E2A02BE00
:1055D000F7EF2AF008360036013602360E2A02BEF0
:1055E000F7EF2AF008360036013602360E2A0E5042
:1055F000036498EF2BF0035E0BBC08AE9EEF2BF01C
:10560000D880800E08640030000E002201220222A1
:10561000D8A09EEF2BF0023201320032034AA4EFF1
:105620002BF09EEF2BF001C002F000C001F008C08B
:1056300000F0086A000E0E8602644AEF2BF0F00EAE
:105640000214D8A432EF2BF0023A01380F0B0226D5
:105650000138F00B016E00380F0B01260038F00BFB
:10566000006E0E84D89002BEF7EF2AF000360136A5
:1056700002360E2A02BEF7EF2AF000360136023655
:105680000E2A02BEF7EF2AF00036013602360E2A45
:10569000F7EF2AF001C002F000C001F0006A000E2E
:1056A0000E960E88026477EF2BF0F00E0214D8A449
:1056B00062EF2BF0023A01380F0B02260138F00B93
:1056C000016E0E84D89002BEF7EF2AF00136023642
:1056D0000E2A02BEF7EF2AF0013602360E2A02BE6B
:1056E000F7EF2AF0013602360E2AF7EF2AF001C052
:1056F00002F0016A000E0E860264AAEF2BF0F00E93
:105700000214D8A486EF2BF0023A0E84D89002BE81
:10571000F7EF2AF002360E2A02BEF7EF2AF0023621
:105720000E2A02BEF7EF2AF002360E2AF7EF2AF011
:10573000010E0C6EB7EC32F0AEEF2BF0020E0C6ED9
:1057400000EC33F0AEEF2BF0040E0C6EC5EC32F033
:10575000AEEF2BF0080E0C6EEAEC32F01200810E68
:1057600000019A6F0F0E9B6F050E9C6F010E9D6FCF
:10577000010E9E6F51EC31F0005202E0010E336ECB
:10578000335211E0810E00019A6F0F0E9B6F050ED0
:105790009C6F010E9D6F9E6B51EC31F0005203E047
:1057A000010E346E336A810E00019A6F0F0E9B6FEB
:1057B000030E9C6F010E9D6F010E9E6F51EC31F038
:1057C000005202E0010E356E355211E0810E0001EB
:1057D0009A6F0F0E9B6F030E9C6F010E9D6F9E6B59
:1057E00051EC31F0005203E0020E346E356A810E46
:1057F00000019A6F0F0E9B6F040E9C6F010E9D6F40
:10580000010E9E6F51EC31F0005202E0010E366E37
:10581000365211E0810E00019A6F0F0E9B6F040E3D
:105820009C6F010E9D6F9E6B51EC31F0005203E0B6
:10583000030E346E366A810E00019A6F0F0E9B6F55
:10584000010E9C6F010E9D6F010E9E6F51EC31F0A9
:10585000005202E0010E376E375211E0810E000156
:105860009A6F0F0E9B6F010E9C6F010E9D6F9E6BCA
:1058700051EC31F0005203E0040E346E376A810EB1
:1058800000019A6F0F0E9B6F020E9C6F010E9D6FB1
:10589000010E9E6F51EC31F0005202E0010E386EA5
:1058A000385211E0810E00019A6F0F0E9B6F020EAD
:1058B0009C6F010E9D6F9E6B51EC31F0005203E026
:1058C000050E346E386A810E00019A6F0F0E9B6FC1
:1058D0009C6B010E9D6F010E9E6F51EC31F00052DA
:1058E00002E0010E396E395210E0810E00019A6F0C
:1058F0000F0E9B6F9C6B010E9D6F9E6B51EC31F0F8
:10590000005203E0060E346E396A33520BE0355212
:1059100009E0365207E0375205E0385203E03952C9
:10592000D8A4346A34C000F012000001086A096A81
:105930000750D8B42CEF2DF00350D8B431EF2DF030
:10594000025006180A6E028E068E0E6A02C008F019
:1059500001C00CF000C00DF004500D5E0550D8A041
:10596000053C0C5E0650D8A0063C085E086A0C6A2E
:105970000D6AD8A0C3EF2CF0D89002320132003269
:105980000832010E0E6E0750035ED8A0D0EF2CF047
:105990007E0E0E240326D8B036EF2DF0D6EF2CF075
:1059A0007E0E0E240326D8A03BEF2DF0180E0B6EB2
:1059B0000D360C3608360036013602360E360450E7
:1059C000005E0550D8A0053C015E0650D8A0063CFC
:1059D000025E06340E120EA0F1EF2CF00D80FCEFEB
:1059E0002CF0045000260550D8B0053C0126065086
:1059F000D8B0062802260D900B2ED8EF2CF022EFFF
:105A00002DF0D8900036013602360E360450005E76
:105A10000550D8A0053C015E0650D8A0063C025EA9
:105A200006340E10010B0D26D8B00C2AD8B4082A63
:105A3000D8A422EF2DF008320C320D32032AD8B44C
:105A400036EF2DF00AAE089E0850026E0C50016E23
:105A50000D50006E3EEF2DF0010E0AEC33F03EEFDC
:105A60002DF0020EEAEC32F03EEF2DF0040EC5EC04
:105A700032F03EEF2DF0080EB7EC32F012000001CC
:105A80000B6A0C6A0A6A086A0350D8B4C8EF2DF092
:105A9000028E9E0E035E03BE53EF2DF0D8B453EF7B
:105AA0002DF0B8EF2DF0036C080E035CD8A085EF45
:105AB0002DF0036E083600C008F001C000F002C0EF
:105AC00001F0026A080E035CD8A085EF2DF0036E8A
:105AD000083600C008F001C000F0016A080E035C3F
