:100000009DEF00F0FFFFFFFF0EC04FF50CC04EF557
:100010000BC04DF50AC04CF508C04BF507C04AF5BA
:1000200006C049F505C048F504C047F503C046F5CC
:1000300002C045F501C044F500C043F5E9CFF0F436
:10004000EACFF1F4E1CFF2F4E2CFF3F4F2A439D045
:10005000154A162A18C000F0016AFF0E0014D76E68
:10006000FF0E1714D66E15C000F016C001F0B9ECE3
:1000700042F000C004F001C005F002C006F003C069
:1000800007F019C000F01AC001F01BC002F01CC03C
:1000900003F07AEC3EF0000ED8B0010E006E005274
:1000A0000BE0010E8E14006E001E000E00B0010E5B
:1000B0008E18010B8E1A02D00001F26A0001F29430
:1000C000040000019EA015D01EC000F0016AFF0EC2
:1000D0000014CF6EFF0E1D14CE6E046A8EB2042A79
:1000E000041C006E000E00B0020E8E18020B8E1A59
:1000F0009E900001F0C4E9FFF1C4EAFFF2C4E1FF01
:10010000F3C4E2FF4FC50EF04EC50CF04DC50BF029
:100110004CC50AF04BC508F04AC507F049C506F0C2
:1001200048C505F047C504F046C503F045C502F0D3
:1001300044C501F043C500F01100C8EC26F02E0EB6
:100140000401F46FF56B2E0EF66FF76B3A0EF86F35
:10015000F96B1D0ED26E0D0E0C6EFF0E0B6EFF0EA8
:100160000A6E0C2E01D007D00B2E01D003D00A2E20
:10017000FED7FAD7F6D7BF0E0B6EFF0E0A6E0B2E08
:1001800001D003D00A2EFED7FAD72B0E0A6E0A2E04
:10019000FED70000000000009C8E110EC16EBA0E4A
:1001A000C06EFF0E926EFF0E936E1A0E946E966ADC
:1001B000FC0E976E849084928494A16ABD6ABA6A98
:1001C000170EB76E050EBD6E050EBA6E840ED56E97
:1001D000AD0ECD6E620ECA6E620EB16E620E766E9E
:1001E000830E0501086F0F0E096F020E0A6F030ED2
:1001F0000B6F040E0C6F050E0D6F830E0E6F0F0E3E
:100200000F6F070E106F010E116F060E126F11ECBB
:1002100038F00C0E05013E6F94EC3DF0FA0EC86EFE
:10022000B7EC43F0D08E9F86A194F26A9D6AA06AD3
:100230009E6AD190010E5E6E010E5F6E0AEF15F0A0
:10024000CD0E0501086F040E096F120E0A6F890E9C
:100250000B6F000E0C6F3FEC42F0010E0501086FB2
:10026000020E096FCD0E0A6F040E0B6F44EC40F0C6
:10027000CD0E086F040E096F220E0A6F890E0B6FE8
:10028000000E0C6F3FEC42F0020E0501086F020EEB
:10029000096FCD0E0A6F040E0B6F44EC40F00D0E8B
:1002A0000C6EFF0E0B6EFF0E0A6E0C2E01D007D0E7
:1002B0000B2E01D003D00A2EFED7FAD7F6D7BF0EE9
:1002C0000B6EFF0E0A6E0B2E01D003D00A2EFED746
:1002D000FAD72B0E0A6E0A2EFED70000000000008F
:1002E0008482060E0C6EFF0E0B6EFF0E0A6E0C2E35
:1002F00001D007D00B2E01D003D00A2EFED7FAD79B
:10030000F6D71A0E0B6EFF0E0A6E0B2E01D003D01D
:100310000A2EFED7FAD7420E0A6E0A2EFED7849214
:10032000010E3E6F94EC3DF0020E5E6E346A7BEF80
:1003300015F02CC008F5DD0E0501096F040E0A6FDB
:10034000A2EC3FF0010E0501086F0C0E096FDFC42F
:100350000AF5AFEC41F0E0C415F5CAEC43F060C01B
:1003600008F5DD0E0501096F040E0A6FA2EC3FF0DF
:100370000401DF51200A02E1300EDF6F010E05019A
:10038000086F0F0E096FDFC40AF5AFEC41F0E0C44F
:1003900015F5CAEC43F0E1C408F5DD0E0501096F5F
:1003A000040E0A6FA2EC3FF0020E0501086F050E65
:1003B000096FDFC40AF5AFEC41F0E0C415F5CAECF3
:1003C00043F0E2C408F5DD0E0501096F040E0A6F63
:1003D000A2EC3FF0020E0501086F070E096FDFC4A3
:1003E0000AF5AFEC41F0E0C415F5CAEC43F0E3C404
:1003F00008F5DD0E0501096F040E0A6FA2EC3FF04F
:10040000020E0501086F090E096FDFC40AF5AFEC93
:1004100041F0E0C415F5CAEC43F0000E0401E51903
:1004200002E1010EE41908E1030E5E6E346A010E6A
:1004300005013E6F94EC3DF0000E0401E51902E168
:10044000020EE41908E1030E5E6E346A010E050126
:100450003E6F94EC3DF0000E0401E51902E1050E3B
:10046000E41908E1170E5E6E346A010E05013E6F55
:1004700094EC3DF07BEF15F0CD0E0501086F040EF6
:10048000096F1A0E0A6F8B0E0B6F000E0C6F3FEC8C
:1004900042F0010E0501086F010E096FCD0E0A6FC3
:1004A000040E0B6F44EC40F0CD0E086F040E096F84
:1004B000220E0A6F8B0E0B6F000E0C6F3FEC42F09A
:1004C000020E0501086F010E096FCD0E0A6F040EB2
:1004D0000B6F44EC40F0000E0401E51902E1010E3F
:1004E000E41908E1020E5E6E346A010E05013E6FEA
:1004F00094EC3DF0000E0401E51902E1020EE4194E
:1005000008E1020E5E6E346A010E05013E6F94EC46
:100510003DF0000E0401E51902E1030EE41908E1C3
:100520000E0E5E6E346A010E05013E6F94EC3DF0D6
:10053000000E0401E51902E1040EE41908E1040EBD
:100540005E6E346A010E05013E6F94EC3DF07BEF68
:1005500015F0CD0E0501086F040E096F320E0A6FFB
:100560008B0E0B6F000E0C6F3FEC42F0010E05017D
:10057000086F030E096FCD0E0A6F040E0B6F44EC6B
:1005800040F0020E086F010E096F3EC000F03FC040
:1005900001F0240E046E000E056E6AEC42F0710E3E
:1005A000002405010A6F000E01200B6F44EC40F09F
:1005B000000E0401E51902E1010EE4190FE13E4AC3
:1005C0003F2A346A800E006E800E3F18005C02E104
:1005D0003E501E08040102E23E6A3F6A0401000E1A
:1005E000E51902E1020EE41913E1010E3E5E000E70
:1005F0003F5A346A800E3F18006E800E005C02E1A4
:10060000000E3E5C040104E21E0E3E6E000E3F6EC4
:100610000401000EE51902E1030EE41908E1050EDC
:100620005E6E346A010E05013E6F94EC3DF0000EE3
:100630000401E51902E1040EE41908E10D0E5E6EF5
:10064000346A010E05013E6F94EC3DF0000E04018A
:10065000E51902E1060EE41908E1030E5E6E346A44
:10066000010E05013E6F94EC3DF0000E0401E5190A
:1006700002E1050EE419D8A4AFD13EC000F03FC09E
:1006800001F0240E046E000E056E6AEC42F0710E4D
:1006900000240401FE6F000E0120FF6F0A0EFE25EC
:1006A000E96E000EFF21EA6EEECF00F0EECF01F012
:1006B000EECF02F0EECF03F000C042F001C043F0F5
:1006C00002C044F003C045F0000E046E000E056E3B
:1006D000000E066E800E076E00EC3DF0000E046EFC
:1006E000000E056E200E066E850E076EE0EC32F0F1
:1006F00000C019F001C01AF002C01BF003C01CF0CA
:100700000E0E0401FE25E96E000EFF21EA6EEECF0B
:1007100004F5EECF05F5EECF06F5EECF07F504C5EF
:1007200061F005C562F006C563F007C564F0120EFE
:10073000FE25E96E000EFF21EA6EEECF46F0EECF09
:1007400047F0EECF48F0EECF49F0160EFE25E96EE9
:10075000000EFF21EA6EEECF00F5EECF01F5EECFF1
:1007600002F5EECF03F500C552F001C553F002C506
:1007700054F003C555F01A0EFE25E96E000EFF2158
:10078000EA6EEECF00F0EECF01F0EECF02F0EECF4A
:1007900003F000C04AF001C04BF002C04CF003C0AF
:1007A0004DF01E0EFE25E96E000EFF21EA6EEECF23
:1007B000FAF4EECFFBF4EECFFCF4EECFFDF4FAC486
:1007C00065F0FBC466F0FCC467F0FDC468F0220E5F
:1007D000FE25E96E000EFF21EA6EEECFFEF4EECFAD
:1007E000FFF4FEC440F0FFC441F0000E046E000EA2
:1007F000056E7A0E066E880E076E00EC3DF0000E58
:10080000046E000E056E610E066E8A0E076E1FECFA
:100810003BF000C504F001C505F002C506F003C5B4
:1008200007F01FEC3BF004C504F005C505F006C554
:1008300006F007C507F000EC3DF000C056F001C01F
:1008400057F002C058F003C059F000C004F001C0D6
:1008500005F002C006F003C007F0000E006E000EA7
:10086000016E000E026E7F0E036E1FEC3BF0800ED9
:10087000046E960E056E180E066E940E076E00EC52
:100880003DF0000E046E000E056E000E066E840E26
:10089000076E1FEC3BF000C004F001C005F002C081
:1008A00006F003C007F0800E006E010E016E000E10
:1008B000026E8F0E036EDDEC43F000C0E6F401C063
:1008C000E7F402C0E8F403C0E9F40BEC3EF000C02A
:1008D00017F001C018F0000E046E000E056E700EC9
:1008E000066E840E076EFAC400F0FBC401F0FCC46F
:1008F00002F0FDC403F01FEC3BF000C0FAF401C0AD
:10090000FBF402C0FCF403C0FDF4FEC400F0FFC41D
:1009100001F0B9EC42F0FAC404F0FBC405F0FCC4E9
:1009200006F0FDC407F000EC3DF000C05AF001C035
:100930005BF002C05CF003C05DF000C004F001C0D9
:1009400005F002C006F003C007F0000E006E000EB6
:10095000016E000E026E7F0E036E1FEC3BF0800EE8
:10096000046E960E056E180E066E940E076E00EC61
:100970003DF0000E046E000E056E000E066E810E38
:10098000076E1FEC3BF000C004F001C005F002C090
:1009900006F003C007F0000E006E070E016E000E99
:1009A000026E8F0E036EDDEC43F000C0EAF401C06E
:1009B000EBF402C0ECF403C0EDF40BEC3EF000C02D
:1009C0001DF001C01EF0E00EF26E010E9D6E010ED4
:1009D00005013E6F94EC3DF07BEF15F0CD0E050167
:1009E000086F040E096F3E0E0A6F8B0E0B6F000E20
:1009F0000C6F3FEC42F0010E0501086F010E096F0C
:100A0000CD0E0A6F040E0B6F44EC40F0000E040193
:100A1000E51902E1030EE41908E10C0E5E6E346A7A
:100A2000010E05013E6F94EC3DF0000E0401E51946
:100A300002E1040EE41908E1040E5E6E346A010E50
:100A400005013E6F94EC3DF0000E0401E51902E152
:100A5000050EE41908E1060E5E6E346A010E05010A
:100A60003E6F94EC3DF0000E0401E51902E1060E24
:100A7000E41908E1030E5E6E346A010E05013E6F53
:100A800094EC3DF07BEF15F0CD0E0501086F040EE0
:100A9000096F4C0E0A6F8B0E0B6F000E0C6F3FEC44
:100AA00042F0010E0501086F010E096FCD0E0A6FAD
:100AB000040E0B6F44EC40F0CD0E086F040E096F6E
:100AC000580E0A6F8B0E0B6F000E0C6F42C00DF5A7
:100AD00043C00EF544C00FF545C010F593EC42F04D
:100AE000020E086F010E096FCD0E0A6F040E0B6F18
:100AF00044EC40F0000E0401E51902E1030EE41994
:100B000008E1070E5E6E346A010E05013E6F94EC3B
:100B10003DF0000E0401E51902E1040EE41908E1BC
:100B20000B0E5E6E346A010E05013E6F94EC3DF0D3
:100B3000000E0401E51902E1060EE41908E1050EB4
:100B40005E6E346A010E05013E6F94EC3DF07BEF62
:100B500015F0CD0E0501086F040E096F5E0E0A6FC9
:100B60008B0E0B6F000E0C6F3FEC42F0010E050177
:100B7000086F010E096FCD0E0A6F040E0B6F44EC67
:100B800040F0CD0E086F040E096F6C0E0A6F8B0ECD
:100B90000B6F000E0C6F61C00DF562C00EF563C0E7
:100BA0000FF564C010F593EC42F0020E086F010ED1
:100BB000096FCD0E0A6F040E0B6F44EC40F0000E6F
:100BC0000401E51902E1030EE41908E1080E5E6E66
:100BD000346A010E05013E6F94EC3DF0000E0401F5
:100BE000E51902E1040EE41908E1060E5E6E346AAE
:100BF000010E05013E6F94EC3DF0000E0401E51975
:100C000002E1060EE41908E1050E5E6E346A010E7B
:100C100005013E6F94EC3DF07BEF15F0CD0E050124
:100C2000086F040E096F720E0A6F8B0E0B6F000EA9
:100C30000C6F3FEC42F0010E0501086F010E096FC9
:100C4000CD0E0A6F040E0B6F44EC40F0CD0E086F12
:100C5000040E096F820E0A6F8B0E0B6F000E0C6F65
:100C600046C00DF547C00EF548C00FF549C010F558
:100C700093EC42F0020E086F010E096FCD0E0A6F61
:100C8000040E0B6F44EC40F0CD0E086F040E096F9C
:100C9000880E0A6F8B0E0B6F000E0C6F3FEC42F04C
:100CA000020E0501086F050E096FCD0E0A6F040EC6
:100CB0000B6F44EC40F0000E0401E51902E1030E55
:100CC000E41908E1090E5E6E346A010E05013E6FFB
:100CD00094EC3DF0000E0401E51902E1040EE41964
:100CE00008E1070E5E6E346A010E05013E6F94EC5A
:100CF0003DF0000E0401E51902E1060EE41908E1D9
:100D0000050E5E6E346A010E05013E6F94EC3DF0F7
:100D10007BEF15F0CD0E0501086F040E096F8A0EEA
:100D20000A6F8B0E0B6F000E0C6F3FEC42F0010E42
:100D30000501086F010E096FCD0E0A6F040E0B6FCF
:100D400044EC40F0CD0E086F040E096F9A0E0A6F46
:100D50008B0E0B6F000E0C6F52C00DF553C00EF5CD
:100D600054C00FF555C010F593EC42F0020E086F19
:100D7000010E096FCD0E0A6F040E0B6F44EC40F0AC
:100D8000CD0E086F040E096FA00E0A6F8B0E0B6F4D
:100D9000000E0C6F3FEC42F0020E0501086F050ECD
:100DA000096FCD0E0A6F040E0B6F44EC40F0000E7D
:100DB0000401E51902E1030EE41908E10A0E5E6E72
:100DC000346A010E05013E6F94EC3DF0000E040103
:100DD000E51902E1040EE41908E1080E5E6E346ABA
:100DE000010E05013E6F94EC3DF0000E0401E51983
:100DF00002E1060EE41908E1050E5E6E346A010E8A
:100E000005013E6F94EC3DF07BEF15F0CD0E050132
:100E1000086F040E096FA20E0A6F8B0E0B6F000E87
:100E20000C6F3FEC42F0010E0501086F010E096FD7
:100E3000CD0E0A6F040E0B6F44EC40F0CD0E086F20
:100E4000040E096FAC0E0A6F8B0E0B6F000E0C6F49
:100E50004AC00DF54BC00EF54CC00FF54DC010F556
:100E600093EC42F0020E086F010E096FCD0E0A6F6F
:100E7000040E0B6F44EC40F0CD0E086F040E096FAA
:100E8000B20E0A6F8B0E0B6F000E0C6F3FEC42F030
:100E9000020E0501086F050E096FCD0E0A6F040ED4
:100EA0000B6F44EC40F0000E0401E51902E1030E63
:100EB000E41908E10B0E5E6E346A010E05013E6F07
:100EC00094EC3DF0000E0401E51902E1040EE41972
:100ED00008E1090E5E6E346A010E05013E6F94EC66
:100EE0003DF0000E0401E51902E1060EE41908E1E7
:100EF000050E5E6E346A010E05013E6F94EC3DF006
:100F00007BEF15F0CD0E0501086F040E096FB80ECA
:100F10000A6F8B0E0B6F000E0C6F3FEC42F0010E50
:100F20000501086F010E096FCD0E0A6F040E0B6FDD
:100F300044EC40F0CD0E086F040E096FC80E0A6F26
:100F40008B0E0B6F000E0C6F65C00DF566C00EF5B5
:100F500067C00FF568C010F593EC42F0020E086F01
:100F6000010E096FCD0E0A6F040E0B6F44EC40F0BA
:100F7000CD0E086F040E096FCE0E0A6F8B0E0B6F2D
:100F8000000E0C6F3FEC42F0020E0501086F0A0ED6
:100F9000096FCD0E0A6F040E0B6F44EC40F0000E8B
:100FA0000401E51902E1030EE41908E1060E5E6E84
:100FB000346A010E05013E6F94EC3DF0000E040111
:100FC000E51902E1040EE41908E10A0E5E6E346AC6
:100FD000010E05013E6F94EC3DF0000E0401E51991
:100FE00002E1060EE41908E1050E5E6E346A010E98
:100FF00005013E6F94EC3DF07BEF15F0CD0E050141
:10100000086F040E096FD60E0A6F8B0E0B6F000E61
:101010000C6F3FEC42F0010E0501086F010E096FE5
:10102000CD0E0A6F040E0B6F44EC40F0CD0E086F2E
:10103000040E096FDA0E0A6F8B0E0B6F000E0C6F29
:101040003FEC42F0010E0501086F050E096FCD0E51
:101050000A6F040E0B6F44EC40F0CD0E086F040EC7
:10106000096FDE0E0A6F8B0E0B6F000E0C6F4AC0FD
:101070000DF54BC00EF54CC00FF54DC010F593ECBF
:1010800042F0010E086F080E096FCD0E0A6F040EB4
:101090000B6F44EC40F0CD0E086F040E096FE40EA8
:1010A0000A6F8B0E0B6F000E0C6F3FEC42F0010EBF
:1010B0000501086F0B0E096FCD0E0A6F040E0B6F42
:1010C00044EC40F0CD0E086F040E096FEA0E0A6F73
:1010D0008B0E0B6F000E0C6F42C00DF543C00EF56A
:1010E00044C00FF545C010F593EC42F0020E086FB6
:1010F000070E096FCD0E0A6F040E0B6F44EC40F023
:10110000CD0E086F040E096FF00E0A6F8B0E0B6F79
:10111000000E0C6F3FEC42F0020E0501086F0C0E42
:10112000096FCD0E0A6F040E0B6F44EC40F0000EF9
:101130000401E51902E1030EE41908E10D0E5E6EEB
:10114000346A010E05013E6F94EC3DF0000E04017F
:10115000E51902E1040EE41908E1050E5E6E346A39
:10116000010E05013E6F94EC3DF0000E0401E519FF
:1011700002E1060EE41908E1030E5E6E346A010E08
:1011800005013E6F94EC3DF07BEF15F0CD0E0501AF
:10119000086F040E096FF40E0A6F8B0E0B6F000EB2
:1011A0000C6F3FEC42F0010E0501086F010E096F54
:1011B000CD0E0A6F040E0B6F44EC40F0CD0E086F9D
:1011C000040E096F040E0A6F8C0E0B6F000E0C6F6D
:1011D00065C00DF566C00EF567C00FF568C010F567
:1011E00093EC42F0020E086F010E096FCD0E0A6FEC
:1011F000040E0B6F44EC40F0CD0E086F040E096F27
:101200000A0E0A6F8C0E0B6F000E0C6F3FEC42F053
:10121000020E0501086F0A0E096FCD0E0A6F040E4B
:101220000B6F44EC40F0000E0401E51902E1030EDF
:10123000E41908E1040E5E6E346A010E05013E6F8A
:1012400094EC3DF0000E0401E51902E1040EE419EE
:1012500008E10C0E5E6E346A010E05013E6F94ECDF
:101260003DF0000E0401E51902E1060EE41908E163
:10127000030E5E6E346A010E05013E6F94EC3DF084
:101280007BEF15F0CD0E0501086F040E096F120EED
:101290000A6F8C0E0B6F000E0C6F69C00DF56AC0E3
:1012A0000EF56BC00FF56CC010F593EC42F0010E1B
:1012B000086F010E096FCD0E0A6F040E0B6F44EC20
:1012C00040F0CD0E086F040E096F180E0A6F8C0ED9
:1012D0000B6F000E0C6F3FEC42F0010E0501086F22
:1012E000050E096FCD0E0A6F040E0B6F44EC40F033
:1012F000CD0E086F040E096F1C0E0A6F8C0E0B6F5B
:10130000000E0C6F4AC00DF54BC00EF54CC00FF52A
:101310004DC010F593EC42F0010E086F070E096FF7
:10132000CD0E0A6F040E0B6F44EC40F0CD0E086F2B
:10133000040E096F220E0A6F8C0E0B6F000E0C6FDD
:101340003FEC42F0010E0501086F0B0E096FCD0E48
:101350000A6F040E0B6F44EC40F0CD0E086F040EC4
:10136000096F280E0A6F8C0E0B6F000E0C6F42C0B7
:101370000DF543C00EF544C00FF545C010F593ECD4
:1013800042F0020E086F010E096FCD0E0A6F040EB7
:101390000B6F44EC40F0CD0E086F040E096F2E0E5B
:1013A0000A6F8C0E0B6F000E0C6F3FEC42F0020EBA
:1013B0000501086F060E096FCD0E0A6F040E0B6F44
:1013C00044EC40F0000E0401E51902E1020EE419BC
:1013D00008E10F0E5E6E346A010E05013E6F94EC5B
:1013E0003DF0000E0401E51902E1030EE41908E1E5
:1013F000160E5E6E346A010E05013E6F94EC3DF0F0
:10140000000E0401E51902E1040EE41908E1160ECC
:101410005E6E346A010E05013E6F94EC3DF0000EE5
:101420000401E51902E1060EE41908E1030E5E6EFF
:10143000346A010E05013E6F94EC3DF0000E04018C
:10144000E51902E1050EE419D8A466D169C000F0DF
:101450006AC001F06BC002F06CC003F0000E046EB5
:10146000400E056E1C0E066E8C0E076E00EC3DF0F5
:1014700061C004F062C005F063C006F064C007F00C
:1014800000EC3DF000C0FAF401C0FBF402C0FCF433
:1014900003C0FDF446C000F047C001F048C002F0B0
:1014A00049C003F052C004F053C005F054C006F028
:1014B00055C007F000EC3DF000C004F001C005F09D
:1014C00002C006F003C007F0FAC400F0FBC401F04C
:1014D000FCC402F0FDC403F01FEC3BF000C042F07E
:1014E00001C043F002C044F003C045F0000E046E9A
:1014F000000E056E000E066E800E076E00EC3DF0CD
:10150000000E046E000E056E200E066E850E076E30
:10151000E0EC32F000C019F001C01AF002C01BF07C
:1015200003C01CF04AC000F04BC001F04CC002F0F8
:101530004DC003F0000E046E000E056E7A0E066EAE
:10154000880E076E00EC3DF0000E046E000E056E76
:10155000610E066E8A0E076E1FEC3BF052C004F05F
:1015600053C005F054C006F055C007F01FEC3BF027
:1015700061C004F062C005F063C006F064C007F00B
:1015800000EC3DF000C056F001C057F002C058F02A
:1015900003C059F000C004F001C005F002C006F01D
:1015A00003C007F0000E006E000E016E000E026E0A
:1015B0007F0E036E1FEC3BF0800E046E960E056EE0
:1015C000180E066E940E076E00EC3DF0000E046ED1
:1015D000000E056E000E066E840E076E1FEC3BF0CB
:1015E00000C004F001C005F002C006F003C007F01F
:1015F000800E006E010E016E000E026E8F0E036EE5
:10160000DDEC43F000C0E6F401C0E7F402C0E8F40A
:1016100003C0E9F40BEC3EF000C017F001C018F075
:10162000000E046E000E056E700E066E840E076EC0
:1016300065C000F066C001F067C002F068C003F04A
:101640001FEC3BF000C0FAF401C0FBF402C0FCF454
:1016500003C0FDF440C000F041C001F0B9EC42F01D
:10166000FAC404F0FBC405F0FCC406F0FDC407F0A6
:1016700000EC3DF000C05AF001C05BF002C05CF02D
:1016800003C05DF000C004F001C005F002C006F028
:1016900003C007F0000E006E000E016E000E026E19
:1016A0007F0E036E1FEC3BF0800E046E960E056EEF
:1016B000180E066E940E076E00EC3DF0000E046EE0
:1016C000000E056E000E066E810E076E1FEC3BF0DD
:1016D00000C004F001C005F002C006F003C007F02E
:1016E000000E006E070E016E000E026E8F0E036E6E
:1016F000DDEC43F000C0EAF401C0EBF402C0ECF40E
:1017000003C0EDF40BEC3EF000C01DF001C01EF074
:10171000E00EF26E010E9D6E00017BEF15F0CD0E16
:101720000501086F040E096F340E0A6F8C0E0B6FE3
:10173000000E0C6F3FEC42F0010E0501086F010E28
:10174000096FCD0E0A6F040E0B6F44EC40F0CD0E06
:10175000086F040E096F440E0A6F8C0E0B6F000E9B
:101760000C6F46C00DF547C00EF548C00FF549C0D7
:1017700010F593EC42F0020E086F010E096FCD0ECA
:101780000A6F040E0B6F44EC40F0CD0E086F040E90
:10179000096F4A0E0A6F8C0E0B6F000E0C6F3FEC38
:1017A00042F0020E0501086F050E096FCD0E0A6F9B
:1017B000040E0B6F44EC40F0000E0401E51902E149
:1017C000010EE41937E146C000F047C001F048C0FF
:1017D00002F049C003F0CD0E046ECC0E056E4C0E27
:1017E000066E7C0E076EE0EC32F000C046F001C0E1
:1017F00047F002C048F003C049F0346A00C004F06A
:1018000001C005F002C006F003C007F0000E006E34
:10181000000E016E200E026E830E036E7AEC3EF017
:10182000010ED8B0000E006E005204E0466A476A0E
:10183000486A496A0001000E0401E51902E1020E3E
:10184000E4192FE1CD0E046ECC0E056E4C0E066E23
:101850007C0E076E46C000F047C001F048C002F0A1
:1018600049C003F0DDEC43F000C046F001C047F092
:1018700002C048F003C049F0346A046A056A066A87
:10188000076A7AEC3EF0010ED8B0000E006E0052EE
:1018900008E0000E466E000E476E200E486E830E66
:1018A000496E0001000E0401E51902E1030EE4197E
:1018B00008E1100E5E6E346A010E05013E6F94EC75
:1018C0003DF0000E0401E51902E1040EE41908E1FF
:1018D000150E5E6E346A010E05013E6F94EC3DF00C
:1018E000000E0401E51902E1060EE41908E10E0EEE
:1018F0005E6E346A010E05013E6F94EC3DF0000E01
:101900000401E51902E1050EE419D8B4346A0401B2
:101910007BEF15F0CD0E0501086F040E096F4C0E1C
:101920000A6F8C0E0B6F000E0C6F3FEC42F0010E35
:101930000501086F010E096FCD0E0A6F040E0B6FC3
:1019400044EC40F0CD0E086F040E096F5A0E0A6F7A
:101950008C0E0B6F000E0C6F61C00DF562C00EF5A2
:1019600063C00FF564C010F593EC42F0020E086FEF
:10197000010E096FCD0E0A6F040E0B6F44EC40F0A0
:10198000000E0401E51902E1010EE41937E161C01E
:1019900000F062C001F063C002F064C003F0000E0A
:1019A000046E000E056E000E066E7F0E076EE0ECF4
:1019B00032F000C061F001C062F002C063F003C009
:1019C00064F0346A00C004F001C005F002C006F003
:1019D00003C007F0000E006E000E016E200E026EB6
:1019E000830E036E7AEC3EF0010ED8B0000E006E4E
:1019F000005204E0616B626B636B646B0001000E6C
:101A00000401E51902E1020EE4192FE1000E046E53
:101A1000000E056E000E066E7F0E076E61C000F0B0
:101A200062C001F063C002F064C003F0DDEC43F07B
:101A300000C061F001C062F002C063F003C064F056
:101A4000346A046A056A066A076A7AEC3EF0010E97
:101A5000D8B0000E006E005208E0000E616F000E5C
:101A6000626F200E636F830E646F0001000E04012D
:101A7000E51902E1030EE41908E1110E5E6E346A05
:101A8000010E05013E6F94EC3DF0000E0401E519D6
:101A900002E1040EE41908E10F0E5E6E346A010ED5
:101AA00005013E6F94EC3DF0000E0401E51902E1E2
:101AB000060EE41908E10E0E5E6E346A010E050191
:101AC0003E6F94EC3DF0000E0401E51902E1050EB5
:101AD000E419D8B4346A04017BEF15F0CD0E05018A
:101AE000086F040E096F600E0A6F8C0E0B6F000EEC
:101AF0000C6F3FEC42F0010E0501086F010E096FFB
:101B0000CD0E0A6F040E0B6F44EC40F0CD0E086F43
:101B1000040E096F700E0A6F8C0E0B6F000E0C6FA7
:101B200052C00DF553C00EF554C00FF555C010F559
:101B300093EC42F0020E086F010E096FCD0E0A6F92
:101B4000040E0B6F44EC40F0CD0E086F040E096FCD
:101B5000760E0A6F8C0E0B6F000E0C6F3FEC42F08E
:101B6000020E0501086F050E096FCD0E0A6F040EF7
:101B70000B6F44EC40F0000E0401E51902E1010E88
:101B8000E41937E152C000F053C001F054C002F034
:101B900055C003F0CD0E046ECC0E056E4C0E066ED5
:101BA0007B0E076EE0EC32F000C052F001C053F043
:101BB00002C054F003C055F0346A00C004F001C004
:101BC00005F002C006F003C007F0000E006E000E24
:101BD000016E600E026E800E036E7AEC3EF0010E16
:101BE000D8B0000E006E005204E0526A536A546A84
:101BF000556A0001000E0401E51902E1020EE41924
:101C00002FE1CD0E046ECC0E056E4C0E066E7B0ED3
:101C1000076E52C000F053C001F054C002F055C02E
:101C200003F0DDEC43F000C052F001C053F002C0FD
:101C300054F003C055F0346A046A056A066A076AFC
:101C40007AEC3EF0010ED8B0000E006E005208E0B3
:101C5000000E526E000E536E600E546E800E556E66
:101C60000001000E0401E51902E1030EE41908E188
:101C7000120E5E6E346A010E05013E6F94EC3DF06B
:101C8000000E0401E51902E1040EE41908E1100E4A
:101C90005E6E346A010E05013E6F94EC3DF0000E5D
:101CA0000401E51902E1060EE41908E10E0E5E6E6C
:101CB000346A010E05013E6F94EC3DF0000E040104
:101CC000E51902E1050EE419D8B4346A04017BEF8A
:101CD00015F0CD0E0501086F040E096F780E0A6F1E
:101CE0008C0E0B6F000E0C6F3FEC42F0010E0501E5
:101CF000086F010E096FCD0E0A6F040E0B6F44ECD6
:101D000040F0CD0E086F040E096F820E0A6F8C0E24
:101D10000B6F000E0C6F4AC00DF54BC00EF54CC09A
:101D20000FF54DC010F593EC42F0020E086F010E56
:101D3000096FCD0E0A6F040E0B6F44EC40F0CD0E10
:101D4000086F040E096F880E0A6F8C0E0B6F000E61
:101D50000C6F3FEC42F0020E0501086F050E096F93
:101D6000CD0E0A6F040E0B6F44EC40F0000E040120
:101D7000E51902E1010EE41937E14AC000F04BC059
:101D800001F04CC002F04DC003F0CD0E046ECC0E3D
:101D9000056E4C0E066E7B0E076EE0EC32F000C056
:101DA0004AF001C04BF002C04CF003C04DF0346A61
:101DB00000C004F001C005F002C006F003C007F047
:101DC000000E006E000E016E480E026E850E036E50
:101DD0007AEC3EF0010ED8B0000E006E005204E026
:101DE0004A6A4B6A4C6A4D6A0001000E0401E5190B
:101DF00002E1020EE4192FE1CD0E046ECC0E056E49
:101E00004C0E066E7B0E076E4AC000F04BC001F010
:101E10004CC002F04DC003F0DDEC43F000C04AF0CE
:101E200001C04BF002C04CF003C04DF0346A046AAC
:101E3000056A066A076A7AEC3EF0010ED8B0000E19
:101E4000006E005208E0000E4A6E000E4B6E480E07
:101E50004C6E850E4D6E0001000E0401E51902E185
:101E6000030EE41908E1130E5E6E346A010E0501DB
:101E70003E6F94EC3DF0000E0401E51902E1040E02
:101E8000E41908E1110E5E6E346A010E05013E6F21
:101E900094EC3DF0000E0401E51902E1060EE41990
:101EA00008E10E0E5E6E346A010E05013E6F94EC81
:101EB0003DF0000E0401E51902E1050EE419D8B465
:101EC000346A04017BEF15F0CD0E0501086F040E96
:101ED000096F8E0E0A6F8C0E0B6F000E0C6F3FECAD
:101EE00042F0010E0501086F010E096FCD0E0A6F59
:101EF000040E0B6F44EC40F0CD0E086F040E096F1A
:101F00009E0E0A6F8C0E0B6F000E0C6F65C00DF5E8
:101F100066C00EF567C00FF568C010F593EC42F08F
:101F2000020E086F010E096FCD0E0A6F040E0B6FC3
:101F300044EC40F0CD0E086F040E096FA40E0A6F3A
:101F40008C0E0B6F000E0C6F3FEC42F0020E050181
:101F5000086F0A0E096FCD0E0A6F040E0B6F44EC6A
:101F600040F0000E0401E51902E1010EE41937E129
:101F700065C000F066C001F067C002F068C003F001
:101F8000000E046E000E056E480E066E850E076E7E
:101F9000E0EC32F000C065F001C066F002C067F00E
:101FA00003C068F0346A00C004F001C005F002C04C
:101FB00006F003C007F0000E006E800E016E3B0EAF
:101FC000026E8B0E036E7AEC3EF0010ED8B0000E5E
:101FD000006E005204E0656B666B676B686B000116
:101FE000000E0401E51902E1020EE4192FE1000ED2
:101FF000046E000E056E480E066E850E076E65C0F7
:1020000000F066C001F067C002F068C003F0DDECCC
:1020100043F000C065F001C066F002C067F003C085
:1020200068F0346A046A056A066A076A7AEC3EF068
:10203000010ED8B0000E006E005208E0000E656F71
:10204000800E666F3B0E676F8B0E686F0001000E8F
:102050000401E51902E1030EE41908E1140E5E6EB5
:10206000346A010E05013E6F94EC3DF0000E040150
:10207000E51902E1040EE41908E1120E5E6E346AFD
:10208000010E05013E6F94EC3DF0000E0401E519D0
:1020900002E1060EE41908E10E0E5E6E346A010ECE
:1020A00005013E6F94EC3DF0000E0401E51902E1DC
:1020B000050EE419D8B4346A04017BEF15F0CD0E97
:1020C0000501086F040E096FAC0E0A6F8C0E0B6FC2
:1020D000000E0C6F3FEC42F0010E0501086F010E7F
:1020E000096FCD0E0A6F040E0B6F44EC40F0CD0E5D
:1020F000086F040E096FBA0E0A6F8C0E0B6F000E7C
:102100000C6F40C00DF541C00EF593EC42F0020E8D
:10211000086F010E096FCD0E0A6F040E0B6F44ECB1
:1021200040F0000E0401E51902E1010EE41917E187
:10213000010E4024046E000E4120056E04C040F0E4
:1021400005C041F0346A800E006E800E0518005CF8
:1021500002E104500A08040102E2406A416A0401F3
:10216000000EE51902E1020EE41919E1010E405CCE
:10217000046E000E4158056E04C040F005C041F0E9
:10218000346A800E0518006E800E005C02E1000EBD
:10219000045C040104E20A0E406E000E416E04016C
:1021A000000EE51902E1030EE41908E1150E5E6E5A
:1021B000346A010E05013E6F94EC3DF0000E0401FF
:1021C000E51902E1040EE41908E1130E5E6E346AAB
:1021D000010E05013E6F94EC3DF0000E0401E5197F
:1021E00002E1060EE41908E10E0E5E6E346A010E7D
:1021F00005013E6F94EC3DF0000E0401E51902E18B
:10220000050EE419D8B4346A04017BEF15F0CD0E45
:102210000501086F040E096FBE0E0A6F8C0E0B6F5E
:10222000000E0C6F3FEC42F0010E0501086F010E2D
:10223000096FCD0E0A6F040E0B6F44EC40F0CD0E0B
:10224000086F040E096FCE0E0A6F8C0E0B6F000E16
:102250000C6F69C00DF56AC00EF56BC00FF56CC050
:1022600010F593EC42F0020E086F010E096FCD0ECF
:102270000A6F040E0B6F44EC40F0CD0E086F040E95
:10228000096FD40E0A6F8C0E0B6F000E0C6F3FECB3
:1022900042F0020E0501086F0A0E096FCD0E0A6F9B
:1022A000040E0B6F44EC40F0000E0401E51902E14E
:1022B000010EE41937E169C000F06AC001F06BC09B
:1022C00002F06CC003F0CD0E046ECC0E056E4C0E09
:1022D000066E7B0E076EE0EC32F000C069F001C0C4
:1022E0006AF002C06BF003C06CF0346A00C004F006
:1022F00001C005F002C006F003C007F0000E006E3A
:10230000000E016E480E026E850E036E7AEC3EF0F2
:10231000010ED8B0000E006E005204E0696B6A6BCB
:102320006B6B6C6B0001000E0401E51902E1020EFB
:10233000E4192FE1CD0E046ECC0E056E4C0E066E28
:102340007B0E076E69C000F06AC001F06BC002F03E
:102350006CC003F0DDEC43F000C069F001C06AF02E
:1023600002C06BF003C06CF0346A046A056A066A46
:10237000076A7AEC3EF0010ED8B0000E006E0052F3
:1023800008E0000E696F000E6A6F480E6B6F850ED5
:102390006C6F0001000E0401E51902E1030EE4195F
:1023A00008E10F0E5E6E346A010E05013E6F94EC7B
:1023B0003DF0000E0401E51902E1040EE41908E104
:1023C000140E5E6E346A010E05013E6F94EC3DF012
:1023D000000E0401E51902E1060EE41908E10E0EF3
:1023E0005E6E346A010E05013E6F94EC3DF0000E06
:1023F0000401E51902E1050EE419D8B4346A0401B8
:102400007BEF15F0CD0E0501086F040E096FD80E95
:102410000A6F8C0E0B6F000E0C6F3FEC42F0010E3A
:102420000501086F010E096FCD0E0A6F040E0B6FC8
:1024300044EC40F0CD0E086F040E096FE80E0A6FF1
:102440008C0E0B6F000E0C6F65C00DF566C00EF59F
:1024500067C00FF568C010F593EC42F0020E086FEC
:10246000010E096FCD0E0A6F040E0B6F44EC40F0A5
:10247000CD0E086F040E096FEE0E0A6F8C0E0B6FF7
:10248000000E0C6F3FEC42F0020E0501086F0A0EC1
:10249000096FCD0E0A6F040E0B6F44EC40F0000E76
:1024A0000401E51902E1030EE41908E10E0E5E6E67
:1024B000346A010E05013E6F94EC3DF0000E0401FC
:1024C000E51902E1040EE41908E10E0E5E6E346AAD
:1024D000010E05013E6F94EC3DF0000E0401E5197C
:1024E00002E1060EE41908E1030E5E6E346A010E85
:1024F00005013E6F94EC3DF0FED2046A0401EEBB90
:10250000042A0450000A4AE1EE8BCD0E0501086F43
:10251000040E096F0A0E0A6F8B0E0B6F000E0C6F04
:102520003FEC42F0020E0501086F010E096FCD0E5F
:102530000A6F040E0B6F44EC40F0020E086F100E91
:10254000096FFC0E0A6FAFEC41F0010E0501086F38
:10255000030E096FF40E0A6F040E0B6F44EC40F08B
:10256000010E086F060E096FF60E0A6F040E0B6F50
:1025700044EC40F0320E156FCAEC43F0300E05010A
:10258000156FCAEC43F0010E0501086F0E0E096FBE
:10259000F80E0A6F040E0B6F44EC40F0010E0401BC
:1025A000EE15046E0450000A1CE1EE8130C008F5FF
:1025B000DD0E0501096F040E0A6FA2EC3FF0010E5B
:1025C0000501086F010E096FDFC40AF5AFEC41F099
:1025D000E0C415F5CAEC43F0100E05013E6F94EC13
:1025E0003DF0046A0401EEB3042A0450000A22E11B
:1025F000EE8331C008F5DD0E0501096F040E0A6F88
:10260000A2EC3FF00401DF51200A02E1300EDF6F3F
:10261000010E0501086F040E096FDFC40AF5AFEC67
:1026200041F0E0C415F5CAEC43F0100E05013E6F11
:1026300094EC3DF0046A0401EEB5042A0450000A4B
:1026400022E1EE8532C008F5DD0E0501096F040EAA
:102650000A6FA2EC3FF00401DF51200A02E1300EC4
:10266000DF6F010E0501086F090E096FDFC40AF55F
:10267000AFEC41F0E0C415F5CAEC43F0100E0501D3
:102680003E6F94EC3DF0046A0401EEB7042A045056
:10269000000A1CE1EE872EC008F5DD0E0501096F6A
:1026A000040E0A6FA2EC3FF0010E0501086F0C0E3C
:1026B000096FDFC40AF5AFEC41F0E0C415F5CAECD0
:1026C00043F0100E05013E6F94EC3DF0046A0401E6
:1026D000EEB9042A0450000A22E1EE892DC008F563
:1026E000DD0E0501096F040E0A6FA2EC3FF0040134
:1026F000DF51200A02E1300EDF6F010E0501086F85
:102700000F0E096FDFC40AF5AFEC41F0E0C415F518
:10271000CAEC43F0100E05013E6F94EC3DF0046AE4
:102720000401EEBD042A0450010A06E1EE9D100EDC
:1027300005013E6F94EC3DF0000E0401E51902E145
:10274000050EE41912E1E1C430F0E2C431F0E3C453
:1027500032F02CC02EF060C02DF0020E5E6E346A96
:10276000010E05013E6F94EC3DF0000E0401E519E9
:1027700002E1030EE4190AE1100EEF5D07E2EF2B10
:10278000140E05013E6F94EC3DF0346A000E040116
:10279000E51902E1040EE4190AE1EF51010807E22C
:1027A000EF07100E05013E6F94EC3DF0346A000E09
:1027B0000401E51902E1010EE419D8A47AD05AD037
:1027C000160E305C05E20A0E3026346AEE91EE8D6C
:1027D00004016FD01F0E305C03E2302A346AEE91A0
:1027E000040167D0030E315C05E20A0E3126346A1B
:1027F000EE93EE8D04015DD00C0E315C03E2312AC4
:10280000346AEE93040155D0590E325C05E20A0E8B
:102810003226346AEE95EE8D04014BD0630E325CA5
:1028200003E2322A346AEE95040143D00E0E2E5C88
:1028300005E20A0E2E26346AEE97EE8D040139D099
:10284000170E2E5C03E22E2A346AEE97040131D073
:10285000310E2D5C05E20A0E2D26346AEE99EE8DBE
:10286000040127D03B0E2D5C03E22D2A346AEE9939
:1028700004011FD00401EF51010AA2E0EF51020A46
:10288000A9E0EF51040AAEE0EF51050AB5E0EF51BF
:10289000090ABAE0EF510A0AC1E0EF510C0AC6E09A
:1028A000EF510D0ACDE0EF510F0AD2E0EF51100ABF
:1028B000D9E00401000EE51902E1020EE419D8A4E2
:1028C0007AD05AD030500A0805E20A0E305E346AD7
:1028D000EE91EE8D04016FD03050010803E2300616
:1028E000346AEE91040167D031500A0805E20A0EFD
:1028F000315E346AEE93EE8D04015DD031500108F3
:1029000003E23106346AEE93040155D032500A08CE
:1029100005E20A0E325E346AEE95EE8D04014BD06C
:102920003250000803E23206346AEE95040143D0C7
:102930002E50090805E20A0E2E5E346AEE97EE8DDF
:10294000040139D02E50000803E22E06346AEE97B7
:10295000040131D02D50090805E20A0E2D5E346ABB
:10296000EE99EE8D040127D02D50000803E22D06CC
:10297000346AEE9904011FD00401EF51010AA2E06C
:10298000EF51020AA9E0EF51040AAEE0EF51050A47
:10299000B5E0EF51090ABAE0EF510A0AC1E0EF5180
:1029A0000C0AC6E0EF510D0ACDE0EF510F0AD2E05C
:1029B000EF51100AD9E00401000EE51902E1060EFC
:1029C000E41927E109EC41F0010E2F6E2B6A030E8A
:1029D0000C6EFF0E0B6EFF0E0A6E0C2E01D007D090
:1029E0000B2E01D003D00A2EFED7FAD7F6D78C0EC5
:1029F0000B6EFF0E0A6E0B2E01D003D00A2EFED7EF
:102A0000FAD7A10E0A6E0A2EFED70000F6EC3FF0B0
:102A1000346A71D05E50010AD8B420EF01F05E50E4
:102A2000020AD8B499EF01F05E50030AD8B43CEF23
:102A300002F05E50040AD8B4A9EF02F05E50050A15
:102A4000D8B4EEEF04F05E50060AD8B444EF05F0B7
:102A50005E50070AD8B4A9EF05F05E50080AD8B452
:102A60000EEF06F05E50090AD8B48AEF06F05E5009
:102A70000A0AD8B406EF07F05E500B0AD8B482EF0A
:102A800007F05E500C0AD8B4FEEF07F05E500D0A56
:102A9000D8B4C6EF08F05E500E0AD8B442EF09F081
:102AA0005E500F0AD8B48FEF0BF05E50100AD8B406
:102AB0008AEF0CF05E50110AD8B46EEF0DF05E5044
:102AC000120AD8B469EF0EF05E50130AD8B464EF5E
:102AD0000FF05E50140AD8B45FEF10F05E50150A84
:102AE000D8B407EF11F05E50160AD8B48BD45E50FC
:102AF000170AD8B402D539EC3AF000C0E4F4000E5D
:102B000000BEFF0E0401E56F1EEF01F0FFD7280E97
:102B100005011C6F6E0E1D6F750E1E6F6C0E1F6F04
:102B20006C0E206F290E216F226B2A6B2B6B286B8A
:102B3000296B050117C500F018C501F019C502F091
:102B4000010E1727000E1823192300C0F6FF01C03D
:102B5000F7FF02C0F8FF0900F5CF00F000C025F52F
:102B60000052D8B4C3EF26F02551250A0BE015C555
:102B7000E1FF16C5E2FF25C5E6FF154B162B2A4BD4
:102B80002B2BD7D7266B276B286B296B050123D0FE
:102B90002887010E1727000E182319235AD02881E1
:102BA000010E1727000E1823192353D02883010E76
:102BB0001727000E182319234CD02987010E172739
:102BC000000E1823192345D02885010E1727000E63
:102BD000182319233ED0050117C5F6FF18C5F7FFC6
:102BE00019C5F8FF0900F5CF36F536512D0AD0E0AA
:102BF00017C5F6FF18C5F7FF19C5F8FF0900F5CF8F
:102C000036F53651200ACBE017C5F6FF18C5F7FF99
:102C100019C5F8FF0900F5CF36F536512B0AC6E085
:102C200017C5F6FF18C5F7FF19C5F8FF0900F5CF5E
:102C300036F53651230AC1E017C5F6FF18C5F7FF70
:102C400019C5F8FF0900F5CF36F53651300ABCE05A
:102C500001D09CD7050128B3289128B7289517C51E
:102C6000F6FF18C5F7FF19C5F8FF0900F5CF00F00A
:102C7000000E016E00C03EF5AAEC43F0005238E0B1
:102C80000501266B276B26C500F027C501F00A0E4B
:102C9000046E000E056E7BEC41F017C5F6FF18C5FB
:102CA000F7FF19C5F8FF0900F5CF36F505013651D4
:102CB0000024266F000E0120276F300E265F000EC5
:102CC000275B010E1727000E1823192317C5F6FFDF
:102CD00018C5F7FF19C5F8FF0900F5CF00F0000E81
:102CE000016E00C03EF5AAEC43F00052CCE136D0B4
:102CF00017C5F6FF18C5F7FF19C5F8FF0900F5CF8E
:102D000036F5050136512A0A29E11AC5E9FF1BC526
:102D1000EAFFEECF00F0EECF01F000C0E9FF01C006
:102D2000EAFFEECF26F5EECF27F51AC5E9FF1BC562
:102D3000EAFFEECF00F0EECF01F0020E0026000E0B
:102D400001221AC5E1FF1BC5E2FF00C0E6FF01C07A
:102D5000E6FF010E1727000E18231923050117C5DA
:102D6000F6FF18C5F7FF19C5F8FF0900F5CF36F5CE
:102D700036512E0A74E1010E1727000E182319236D
:102D800017C5F6FF18C5F7FF19C5F8FF0900F5CFFD
:102D900036F536512A0A2AE11AC5E9FF1BC5EAFFB2
:102DA000EECF00F0EECF01F000C0E9FF01C0EAFF76
:102DB000EECF23F5EECF24F51AC5E9FF1BC5EAFFD8
:102DC000EECF00F0EECF01F0020E0026000E012241
:102DD0001AC5E1FF1BC5E2FF00C0E6FF01C0E6FF28
:102DE000010E1727000E1823192337D0236B246BED
:102DF00017C5F6FF18C5F7FF19C5F8FF0900F5CF8D
:102E000000F0000E016E00C03EF5AAEC43F0005247
:102E100024E023C500F024C501F00A0E046E000E64
:102E2000056E7BEC41F017C5F6FF18C5F7FF19C515
:102E3000F8FF0900F5CF36F5050136510024236F60
:102E4000000E0120246F300E235F000E245B010E64
:102E50001727000E18231923CBD7050104D005012D
:102E6000236B246B2989050117C500F018C501F0F3
:102E700019C502F0010E1727000E1823192300C0F0
:102E8000F6FF01C0F7FF02C0F8FF0900F5CF25F5F6
:102E9000EDD02AC500F02BC501F012002889E3D738
:102EA00029851FD1288B29811CD129831AD1288DEE
:102EB00018D117D1288B288F14D11AC5E9FF1BC54B
:102EC000EAFFEECF00F0EECF01F000C0E9FF01C055
:102ED000EAFFEECF32F5EECF33F51AC5E9FF1BC599
:102EE000EAFFEECF00F0EECF01F0020E0026000E5A
:102EF00001221AC5E1FF1BC5E2FF00C0E6FF01C0C9
:102F0000E6FF000E331902E1000E321904E11C0E37
:102F1000326F050E336F0501346B356B345132253A
:102F2000E96E35513321EA6EEECF00F0005203E036
:102F3000344B352BF3D7235124110AE03551245D4E
:102F400002E13451235D04E223C534F524C535F58F
:102F500005012751355D02E12651345D05E234510A
:102F6000265F3551275B03D00501266B276B28B7F9
:102F700016D026C500F027C501F0010E265F000E11
:102F8000275B005001100BE015C5E1FF16C5E2FFFD
:102F9000200EE66E154B162B2A4B2B2BEAD734C589
:102FA00000F035C501F0010E345F000E355B0050B6
:102FB000011013E032C5E9FF33C5EAFFEECF00F0A0
:102FC00015C5E1FF16C5E2FF00C0E6FF154B162B45
:102FD000324B332B2A4B2B2BE2D728A716D026C5F2
:102FE00000F027C501F0010E265F000E275B0050A0
:102FF00001100BE015C5E1FF16C5E2FF200EE66EDD
:10300000154B162B2A4B2B2BEAD793D51AC5E9FF64
:103010001BC5EAFFEECF00F0EECF01F000C0E9FFE4
:1030200001C0EAFFEECF25F51AC5E9FF1BC5EAFF8F
:10303000EECF00F0EECF01F0020E0026000E0122CE
:103040001AC5E1FF1BC5E2FF00C0E6FF01C0E6FFB5
:10305000250E326F050E336F010E346F000E356F83
:103060006AD7C00E2813000E29133BD02551000A41
:10307000D8B40FD725516C0AD8B410D72551660A99
:10308000D8B40ED72551450AD8B40CD72551650AB6
:10309000D8B409D72551670AD8B407D725516F0A84
:1030A000D8B405D72551640AD8B403D72551690A85
:1030B000D8B4FFD62551700AD8B4FCD62551580A89
:1030C000D8B4F8D62551780AD8B4F5D62551730A64
:1030D000D8B4F3D62551630A99E02551750AC1E0A9
:1030E000B7D70501000E2815006E2951070B016E98
:1030F00000500110D8B4FCEF21F029A904D0060E2D
:10310000236F000E246F1AC5E9FF1BC5EAFFEECF3F
:1031100000F0EECF01F000C0E9FF01C0EAFFEECF02
:103120002CF5EECF2DF5EECF2EF5EECF2FF51AC5FF
:10313000E9FF1BC5EAFFEECF00F0EECF01F0040E71
:103140000026000E01221AC5E1FF1BC5E2FF00C0E8
:10315000E6FF01C0E6FF046A056A066A076A2CC535
:1031600000F02DC501F02EC502F02FC503F07AEC5A
:103170003EF0010ED8B0000E006E005206E00501D0
:103180002E7F030E2813000E29130501306B316BBF
:103190002CC500F02DC501F02EC502F02FC503F09F
:1031A000046A056A066A076AFDEC42F0000ED8A4BC
:1031B000010E006E0052D8B49AD02FC500F0016AFB
:1031C000026A036AFF0E001405013A6F000E3B6F9E
:1031D000000E3B177E0E366F000E376F386F396F5B
:1031E00036513A5D006E37513B59016E00C030F5E3
:1031F00001C031F5010E005C306F000E0158316FD7
:1032000030C500F031C501F0030E046E000E056EEE
:103210007BEC41F000C030F501C031F50A0E046EC0
:10322000000E056EE2EC3EF000C030F501C031F555
:10323000800E01180501366F800E365D02E1000E2A
:10324000005C04E2010E305F000E315B050130517D
:1032500000083E6FDBEC2FF02CC504F02DC505F007
:103260002EC506F02FC507F000EC3DF000C032F58A
:1032700001C033F502C034F503C035F5000E046E0D
:10328000000E056E000E066E7F0E076E32C500F052
:1032900033C501F034C502F035C503F07AEC3EF0D9
:1032A000010ED8B0000E006E005206E0010E0501BE
:1032B000305F000E315B1BD0000E046E000E056EF9
:1032C000200E066E820E076E32C500F033C501F087
:1032D00034C502F035C503F07AEC3EF0000ED8B0EC
:1032E000010E006E005203E00501304B312B050149
:1032F000800E006E800E05013119005C02E1305134
:10330000000803E3010E256F03D0050130C525F544
:1033100029B11AD029A315D0800E3119006E7F0E65
:10332000005C02E1FC0E305D0AE3800E3119006E94
:10333000800E2419005C02E12351305D02E3050197
:1033400003D00501E8EF1DF005012351241106E02B
:1033500029A304D0010E235F000E245B000E006E33
:103360002451005C02E12351080803E2080E256F96
:1033700003D0050123C525F52CC500F02DC501F0AE
:103380002EC502F02FC503F0046A056A066A076AB3
:10339000FDEC42F0000ED8A4010E006E0052D8B42D
:1033A00064D130C53EF5DBEC2FF000C004F001C065
:1033B00005F002C006F003C007F02CC500F02DC5D3
:1033C00001F02EC502F02FC503F01FEC3BF000C04A
:1033D0002CF501C02DF502C02EF503C02FF5050117
:1033E000255100083E6FDBEC2FF000C004F001C057
:1033F00005F002C006F003C007F02CC500F02DC593
:1034000001F02EC502F02FC503F01FEC3BF000C009
:1034100036F501C037F502C038F503C039F536C5B9
:103420002CF537C52DF538C52EF539C52FF536C520
:1034300000F037C501F038C502F039C503F0C9EC1A
:103440003BF015EC43F000C004F001C005F002C0F1
:1034500006F003C007F036C500F037C501F038C5E7
:1034600002F039C503F0DDEC43F0000E046E000EEF
:10347000056E000E066E7E0E076E7AEC3EF0000EB4
:10348000D8B0010E006E00521AE02CC500F02DC518
:1034900001F02EC502F02FC503F0000E046E000EE1
:1034A000056E000E066E7E0E076EE0EC32F000C078
:1034B0002CF501C02DF502C02EF503C02FF52CC54B
:1034C00000F02DC501F02EC502F02FC503F0C9ECA8
:1034D0003BF000C03AF501C03BF502C03CF503C02B
:1034E0003DF505012551010F006E016A000E012214
:1034F000020E046E000E01BEFF0E026E036E04503B
:10350000050107E000360090013602360336FF0F52
:10351000F7D70501440E0026880E0122000E022274
:1035200000C0F6FF01C0F7FF02C0F8FF0900F5CFA9
:1035300036F50900F5CF37F50900F5CF38F5090064
:10354000F5CF39F539513D5D08E138513C5D05E174
:1035500037513B5D02E136513A5D1EE32CC500F068
:103560002DC501F02EC502F02FC503F0CD0E046E5F
:10357000CC0E056E4C0E066E7B0E076E00EC3DF019
:1035800000C02CF501C02DF502C02EF503C02FF5AB
:103590000501304B312B69D005012CC500F02DC53C
:1035A00001F02EC502F02FC503F0C9EC3BF000C0BE
:1035B0003AF501C03BF502C03CF503C03DF5020EF3
:1035C000046E25C500F0000E016E026E036E0450FD
:1035D000000107E000360090013602360336FF0F87
:1035E000F7D7440E0026880E0122000E022200C0EA
:1035F000F6FF01C0F7FF02C0F8FF0900F5CF36F56E
:103600000900F5CF37F50900F5CF38F50900F5CFFA
:1036100039F5050139513D5D08E138513C5D05E161
:1036200037513B5D02E136513A5D1FE22CC500F097
:103630002DC501F02EC502F02FC503F0000E046E5B
:10364000000E056E200E066E820E076E00EC3DF039
:1036500000C02CF501C02DF502C02EF503C02FF5DA
:10366000010E0501305F000E315B050129A398D0E2
:1036700029B796D0800E000A006E800E2419005CD7
:1036800002E123510A0804E20A0E236F000E246FA0
:1036900005012CC500F02DC501F02EC502F02FC587
:1036A00003F0C9EC3BF000C032F501C033F502C0B5
:1036B00034F503C035F5050132513311341135119C
:1036C00044E00A0E046E000E056E066E076E32C5EB
:1036D00000F033C501F034C502F035C503F087ECC6
:1036E00036F008C000F009C001F00AC002F00BC0BB
:1036F00003F0000E0501366F031808E13651021879
:1037000005E13651011802E10050000A1EE1010EE8
:103710000501235F000E245B0A0E046E000E056E89
:10372000066E076E32C500F033C501F034C502F0F5
:1037300035C503F087EC36F000C032F501C033F533
:1037400002C034F503C035F5B6D7800E0501241943
:10375000006E800E005C02E12551235D21E22351C1
:10376000255D3E6FDBEC2FF000C004F001C005F0DA
:1037700002C006F003C007F02CC500F02DC501F013
:103780002EC502F02FC503F01FEC3BF000C02CF556
:1037900001C02DF502C02EF503C02FF523C525F578
:1037A0000001050E05012325006E000E2421016E87
:1037B0000050265F0150275B2351241102E129A705
:1037C00004D0010E265F000E275B030E2815006E45
:1037D00029C501F0000E01160050011004E0010E91
:1037E000265F000E275B28A54AD028A31AD0010E19
:1037F0002815006E29C501F0000E011600500110B9
:1038000003E02D0E006E02D02B0E006E15C5E1FFF9
:1038100016C5E2FF00C0E6FF154B162B2A4B2B2BDB
:1038200014D0010E2815006E29C501F0000E0116F6
:10383000005001100AE015C5E1FF16C5E2FF200E99
:10384000E66E154B162B2A4B2B2B800E006E800E2E
:103850002719005C02E1265100080FE215C5E1FFBF
:1038600016C5E2FF300EE66E154B162B2A4B2B2B9E
:10387000010E265F000E275BE8D705014BD028B765
:1038800018D0800E006E800E2719005C02E12651D0
:1038900000080FE215C5E1FF16C5E2FF200EE66E37
:1038A000154B162B2A4B2B2B010E265F000E275B88
:1038B000E8D7050128A31AD0010E2815006E29C5E6
:1038C00001F0000E01160050011003E02D0E006EF5
:1038D00002D02B0E006E15C5E1FF16C5E2FF00C039
:1038E000E6FF154B162B2A4B2B2B14D0010E281557
:1038F000006E29C501F0000E0116005001100AE00B
:1039000015C5E1FF16C5E2FF200EE66E154B162B1E
:103910002A4B2B2B05012CC500F02DC501F02EC51F
:1039200002F02FC503F0C9EC3BF000C032F501C036
:1039300033F502C034F503C035F5020E046E25C51B
:1039400000F0000E016E026E036E0450000107E0ED
:1039500000360090013602360336FF0FF7D7440ECB
:103960000026880E0122000E022200C0F6FF01C0D0
:10397000F7FF02C0F8FF0900F5CF04F00900F5CF0A
:1039800005F00900F5CF06F00900F5CF07F032C5C4
:1039900000F033C501F034C502F035C503F087EC03
:1039A00036F0300E002615C5E1FF16C5E2FF00C057
:1039B000E6FF0501154B162B2A4B2B2B2351241107
:1039C00002E129A776D015C5E1FF16C5E2FF2E0E4C
:1039D000E66E0501154B162B2A4B2B2B2551235F29
:1039E000000E245B255353E02507020E046E25C507
:1039F00000F0000E016E026E036E0450050107E038
:103A000000360090013602360336FF0FF7D7440E1A
:103A10000026880E0122000E022200C0F6FF01C01F
:103A2000F7FF02C0F8FF0900F5CF04F00900F5CF59
:103A300005F00900F5CF06F00900F5CF07F032C513
:103A400000F033C501F034C502F035C503F087EC52
:103A500036F00A0E046E000E056E066E076E87ECD9
:103A600036F008C000F009C001F00AC002F00BC037
:103A700003F0300E002615C5E1FF16C5E2FF00C0B9
:103A8000E6FF0501154B162B2A4B2B2BABD72351E9
:103A900024110FE015C5E1FF16C5E2FF300EE66EFA
:103AA000154B162B2A4B2B2B010E235F000E245B8C
:103AB000EED728AB0BD015C5E1FF16C5E2FF450ECA
:103AC000E66E154B162B2A4B2B2B0AD015C5E1FFA2
:103AD00016C5E2FF650EE66E154B162B2A4B2B2BF7
:103AE000800E3119006E800E005C02E1000E305D28
:103AF00012E230510008306F31C531F5E86A3157B4
:103B000015C5E1FF16C5E2FF2D0EE66E154B162B0F
:103B10002A4B2B2B0BD0050115C5E1FF16C5E2FF83
:103B20002B0EE66E154B162B2A4B2B2B0A0E046E12
:103B3000000E056E30C500F031C501F0E2EC3EF03C
:103B4000300E002615C5E1FF16C5E2FF00C0E6FFF6
:103B50000501154B162B2A4B2B2B0A0E046E000E5B
:103B6000056E30C500F031C501F0E2EC3EF008C052
:103B700000F009C001F0300E002615C5E1FF16C5A2
:103B8000E2FF00C0E6FF0501154B162B2A4B2B2B3D
:103B900028A71BD0800E006E800E2719005C02E162
:103BA0002651000812E215C5E1FF16C5E2FF200EFE
:103BB000E66E0501154B162B2A4B2B2B010E265FAB
:103BC000000E275B26512711EEE1050199EF15F054
:103BD000050129A3FDD0800E3119006E800E005C16
:103BE00002E1000E305D0AE2010E305D006E000E53
:103BF0003159016E0050235F0150245B2CC500F049
:103C00002DC501F02EC502F02FC503F0C9EC3BF025
:103C100000C032F501C033F502C034F503C035F5FC
:103C2000010E0501256F25510A0A39E0020E046EC6
:103C300025C500F0000E016E026E036E04500501F2
:103C400007E000360090013602360336FF0FF7D743
:103C50000501440E0026880E0122000E022200C03B
:103C6000F6FF01C0F7FF02C0F8FF0900F5CF36F5F7
:103C70000900F5CF37F50900F5CF38F50900F5CF84
:103C800039F53951355D08E13851345D05E1375179
:103C9000335D02E13651325D02E3252BC4D70501C5
:103CA0002551235D3A6F000E24593B6F3AC523F529
:103CB0003BC524F532C500F033C501F034C502F030
:103CC00035C503F015EC43F000C004F001C005F069
:103CD00002C006F003C007F02CC500F02DC501F0AE
:103CE0002EC502F02FC503F0DDEC43F000C036F521
:103CF00001C037F502C038F503C039F53AC53EF5C5
:103D0000DBEC2FF036C504F037C505F038C506F0FA
:103D100039C507F000EC3DF0000E046E000E056E94
:103D2000000E066E7E0E076EE0EC32F0C9EC3BF042
:103D300000C032F501C033F502C034F503C035F5DB
:103D400005012351241144E00A0E046E000E056E95
:103D5000066E076E32C500F033C501F034C502F0BF
:103D600035C503F087EC36F008C000F009C001F05B
:103D70000AC002F00BC003F0000E0501366F0318F5
:103D800008E13651021805E13651011802E10050F0
:103D9000000A1EE10A0E046E000E056E066E076E26
:103DA00032C500F033C501F034C502F035C503F06B
:103DB00087EC36F000C032F501C033F502C034F5AF
:103DC00003C035F5010E0501235F000E245BB8D753
:103DD0000501800E006E800E05012419005C02E1D1
:103DE00023510C0816E323C53EF5F4EC34F02CC542
:103DF00004F02DC505F02EC506F02FC507F0E0EC48
:103E000032F000C02CF501C02DF502C02EF503C024
:103E10002FF52CC500F02DC501F02EC502F02FC5E1
:103E200003F0046A056A066A076AFDEC42F0000EB8
:103E3000D8A4010E006E0052D8B478D02CC500F082
:103E40002DC501F02EC502F02FC503F0C9EC3BF0E3
:103E5000000E0501366F031808E13651021805E11E
:103E60003651011802E10050000A60E1800E006E38
:103E7000800E3119005C02E13051010857E230C573
:103E80003EF5DBEC2FF000C004F001C005F002C0ED
:103E900006F003C007F02CC500F02DC501F02EC5BB
:103EA00002F02FC503F01FEC3BF05F0E046E700EA6
:103EB000056E090E066E810E076E7AEC3EF0010E5D
:103EC000D8B0000E006E005206E0090E0501305F0A
:103ED000000E315B05D0080E0501305F000E315B2E
:103EE00030C53EF5DBEC2FF000C004F001C005F05A
:103EF00002C006F003C007F02CC500F02DC501F08C
:103F00002EC502F02FC503F01FEC3BF0C9EC3BF0CF
:103F100000C032F501C033F502C034F503C035F5F9
:103F200005012C6B2D6B2E6B2F6B39D02CC500F03F
:103F30002DC501F02EC502F02FC503F0C9EC3BF0F2
:103F400000C032F501C033F502C034F503C035F5C9
:103F500032C500F033C501F034C502F035C503F0B9
:103F600015EC43F000C004F001C005F002C006F0FB
:103F700003C007F02CC500F02DC501F02EC502F0DE
:103F80002FC503F0DDEC43F000C02CF501C02DF58A
:103F900002C02EF503C02FF50501306B316B010E09
:103FA000256F25510A0A39E0020E046E25C500F07E
:103FB000000E016E026E036E0450050107E000362C
:103FC0000090013602360336FF0FF7D70501440E85
:103FD0000026880E0122000E022200C0F6FF01C05A
:103FE000F7FF02C0F8FF0900F5CF36F50900F5CF5D
:103FF00037F50900F5CF38F50900F5CF39F5395116
:10400000355D08E13851345D05E13751335D02E13A
:104010003651325D02E3252BC4D7050125512325F6
:10402000006E000E2421016E305100263151012214
:104030000050265F0150275B29B703D0235124117C
:1040400004E0010E265F000E275B030E2815006EAC
:1040500029C501F0000E01160050011004E0010E08
:10406000265F000E275B28A54AD028A31AD0010E90
:104070002815006E29C501F0000E01160050011030
:1040800003E02D0E006E02D02B0E006E15C5E1FF71
:1040900016C5E2FF00C0E6FF154B162B2A4B2B2B53
:1040A00014D0010E2815006E29C501F0000E01166E
:1040B000005001100AE015C5E1FF16C5E2FF200E11
:1040C000E66E154B162B2A4B2B2B800E006E800EA6
:1040D0002719005C02E1265100080FE215C5E1FF37
:1040E00016C5E2FF300EE66E154B162B2A4B2B2B16
:1040F000010E265F000E275BE8D705014BD028B7DD
:1041000018D0800E006E800E2719005C02E1265147
:1041100000080FE215C5E1FF16C5E2FF200EE66EAE
:10412000154B162B2A4B2B2B010E265F000E275BFF
:10413000E8D7050128A31AD0010E2815006E29C55D
:1041400001F0000E01160050011003E02D0E006E6C
:1041500002D02B0E006E15C5E1FF16C5E2FF00C0B0
:10416000E6FF154B162B2A4B2B2B14D0010E2815CE
:10417000006E29C501F0000E0116005001100AE082
:1041800015C5E1FF16C5E2FF200EE66E154B162B96
:104190002A4B2B2B050125C500F02507005252E0C4
:1041A000020E046E25C500F0000E016E026E036E55
:1041B0000450050107E00036009001360236033650
:1041C000FF0FF7D7440E0026880E0122000E0222B0
:1041D00000C0F6FF01C0F7FF02C0F8FF0900F5CFED
:1041E00004F00900F5CF05F00900F5CF06F009004D
:1041F000F5CF07F032C500F033C501F034C502F049
:1042000035C503F087EC36F00A0E046E000E056E1D
:10421000066E076E87EC36F008C000F009C001F0AA
:104220000AC002F00BC003F0300E002615C5E1FFF6
:1042300016C5E2FF00C0E6FF0501154B162B2A4B01
:104240002B2BA8D7800E006E800E3119005C02E186
:10425000305100080FE215C5E1FF16C5E2FF300E30
:10426000E66E154B162B2A4B2B2B010E305F000EE2
:10427000315BE8D70501800E000A006E800E24191C
:10428000005C02E12351080803E2080E256F03D009
:10429000050123C525F52551235F000E245B255319
:1042A00002E129A70AD015C5E1FF16C5E2FF2E0ECF
:1042B000E66E154B162B2A4B2B2B25C53EF5DBEC5A
:1042C0002FF02CC504F02DC505F02EC506F02FC526
:1042D00007F000EC3DF066EC3CF000C032F501C0A8
:1042E00033F502C034F503C035F50501255353E01D
:1042F0002507020E046E25C500F0000E016E026E49
:10430000036E0450050107E00036009001360236C6
:104310000336FF0FF7D7440E0026880E0122000E49
:10432000022200C0F6FF01C0F7FF02C0F8FF09003B
:10433000F5CF04F00900F5CF05F00900F5CF06F040
:104340000900F5CF07F032C500F033C501F034C5E0
:1043500002F035C503F087EC36F00A0E046E000E4D
:10436000056E066E076E87EC36F008C000F009C0D7
:1043700001F00AC002F00BC003F0300E002615C594
:10438000E1FF16C5E2FF00C0E6FF0501154B162B45
:104390002A4B2B2BAAD7235124110FE015C5E1FF7F
:1043A00016C5E2FF300EE66E154B162B2A4B2B2B53
:1043B000010E235F000E245BEED728A71AD0800ED3
:1043C000006E800E2719005C02E12651000811E200
:1043D00015C5E1FF16C5E2FF200EE66E154B162B44
:1043E0002A4B2B2B010E265F000E275B265127112F
:1043F000EFE1050199EF15F0C00E2815366F29C5BC
:1044000037F5000E3717000E371902E1000E361986
:10441000D8A482D028A929D01AC5E9FF1BC5EAFF74
:10442000EECF00F0EECF01F000C0E9FF01C0EAFFDF
:10443000EECF32F5EECF33F5EECF34F5EECF35F5E6
:104440001AC5E9FF1BC5EAFFEECF00F0EECF01F081
:10445000040E0026000E01221AC5E1FF1BC5E2FF73
:1044600000C0E6FF01C0E6FF2ED01AC5E9FF1BC55C
:10447000EAFFEECF00F0EECF01F000C0E9FF01C08F
:10448000EAFFEECF32F5EECF33F5000E33BFFF0E6D
:10449000346F356F000E33BFFF0E346F356F1AC5A2
:1044A000E9FF1BC5EAFFEECF00F0EECF01F0020EF0
:1044B0000026000E01221AC5E1FF1BC5E2FF00C065
:1044C000E6FF01C0E6FF800E3519006E800E005C2D
:1044D00008E1000E345D05E1000E335D02E1000EDF
:1044E000325D18E2030E2813000E2913006A016AD8
:1044F000026A036A3251005E3351015A3451025A42
:104500003551035A00C032F501C033F502C034F50D
:1045100003C035F5050156D0050128A929D01AC5D3
:10452000E9FF1BC5EAFFEECF00F0EECF01F000C0BF
:10453000E9FF01C0EAFFEECF32F5EECF33F5EECF63
:1045400034F5EECF35F51AC5E9FF1BC5EAFFEECF0E
:1045500000F0EECF01F0040E0026000E01221AC575
:10456000E1FF1BC5E2FF00C0E6FF01C0E6FF2AD065
:104570001AC5E9FF1BC5EAFFEECF00F0EECF01F050
:1045800000C0E9FF01C0EAFFEECF32F5EECF33F510
:10459000000E346F356F000E346F356F1AC5E9FFAA
:1045A0001BC5EAFFEECF00F0EECF01F0020E0026B1
:1045B000000E01221AC5E1FF1BC5E2FF00C0E6FFA5
:1045C00001C0E6FF0501000E241902E1000E2319C7
:1045D0000FE1000E006E351908E10050341905E1B5
:1045E0000050331902E13251000A02E1234B242B1F
:1045F0000501C00E2815006E00C03AF5C0D0010EAE
:10460000256F25510A0A39E0020E046E25C500F017
:10461000000E016E026E036E0450050107E00036C5
:104620000090013602360336FF0FF7D70501440E1E
:104630000026880E0122000E022200C0F6FF01C0F3
:10464000F7FF02C0F8FF0900F5CF36F50900F5CFF6
:1046500037F50900F5CF38F50900F5CF39F53951AF
:10466000355D08E13851345D05E13751335D02E1D4
:104670003651325D02E3252BC4D705018FD0010EE0
:10468000256F2551080A39E0020E046E25C500F099
:10469000000E016E026E036E0450050107E0003645
:1046A0000090013602360336FF0FF7D705016C0E76
:1046B0000026880E0122000E022200C0F6FF01C073
:1046C000F7FF02C0F8FF0900F5CF36F50900F5CF76
:1046D00037F50900F5CF38F50900F5CF39F539512F
:1046E000355D08E13851345D05E13751335D02E154
:1046F0003651325D02E3252BC4D705014FD0010EA0
:10470000256F25510C0A39E0020E046E25C500F014
:10471000000E016E026E036E0450050107E00036C4
:104720000090013602360336FF0FF7D705018C0ED5
:104730000026880E0122000E022200C0F6FF01C0F2
:10474000F7FF02C0F8FF0900F5CF36F50900F5CFF5
:1047500037F50900F5CF38F50900F5CF39F53951AE
:10476000355D08E13851345D05E13751335D02E1D3
:104770003651325D02E3252BC4D705010FD03A51E3
:10478000000AD8B43CD73A51C00AD8B438D73A5105
:10479000800AD8B474D73A51400AB1E00501800EBE
:1047A000006E800E2419005C02E12351255D03E2B6
:1047B00023C525F50ED00501800E2419006E800E4C
:1047C000005C02E12551235D04E225C523F5000EBE
:1047D000246F0501265127110EE0030E2815006EE7
:1047E00029C501F0000E01160050011004E0010E71
:1047F000265F000E275B800E2419006E800E27199D
:10480000005C02E12651235D05E22351265F24511D
:10481000275B03D00501266B276BC40E2815366F66
:104820002951080B376F3751080A02E1400E36193B
:1048300008E12651271104E0010E265F000E275BD8
:104840001ED00501C00E2815366F2951080B376F91
:104850003751080A02E1800E361911E1800E006E10
:10486000800E2719005C02E12651020805E2020EC3
:10487000265F000E275B03D00501266B276B050121
:1048800028A56ED028A31AD0010E2815006E29C5C0
:1048900001F0000E01160050011003E02D0E006E15
:1048A00002D02B0E006E15C5E1FF16C5E2FF00C059
:1048B000E6FF154B162B2A4B2B2B3CD0010E28154F
:1048C000006E29C501F0000E0116005001100BE02A
:1048D00015C5E1FF16C5E2FF200EE66E154B162B3F
:1048E0002A4B2B2B27D0C00E2815366F2951080BC9
:1048F000376F3751080A02E1800E36191BE115C5E2
:10490000E1FF16C5E2FF300EE66E154B162B2A4B63
:104910002B2B28AB03D0580E006E02D0780E006E01
:1049200015C5E1FF16C5E2FF00C0E6FF154B162BCB
:104930002A4B2B2B05012651271111E015C5E1FF4C
:1049400016C5E2FF300EE66E154B162B2A4B2B2BAD
:10495000010E265F000E275B26512711EFE185D05F
:104960002651271113E028B711D015C5E1FF16C550
:10497000E2FF200EE66E154B162B2A4B2B2B010E59
:10498000265F000E275B26512711EFE128A31AD0DE
:10499000010E2815006E29C501F0000E0116005009
:1049A000011003E02D0E006E02D02B0E006E15C517
:1049B000E1FF16C5E2FF00C0E6FF154B162B2A4BA0
:1049C0002B2B14D0010E2815006E29C501F0000E06
:1049D0000116005001100AE015C5E1FF16C5E2FFFF
:1049E000200EE66E154B162B2A4B2B2BC00E2815CE
:1049F000366F2951080B376F3751080A02E1400E14
:104A000036190BE115C5E1FF16C5E2FF300EE66E63
:104A1000154B162B2A4B2B2B28D00501C00E281521
:104A2000366F2951080B376F3751080A02E1800EA3
:104A300036191BE115C5E1FF16C5E2FF300EE66E23
:104A4000154B162B2A4B2B2B28AB03D0580E006E80
:104A500002D0780E006E15C5E1FF16C5E2FF00C05A
:104A6000E6FF154B162B2A4B2B2B0501800E006EF3
:104A7000800E2419005C02E12351255D0BE215C56F
:104A8000E1FF16C5E2FF300EE66E154B162B2A4BE2
:104A90002B2BEBD7050123C500F024C501F0010E37
:104AA000235F000E245B00500110D8B44DD1C00E1E
:104AB0002815006E00C036F52BD1020E046E23C5FA
:104AC00000F024C501F0000E24BFFF0E026E036E3D
:104AD0000450050107E00036009001360236033627
:104AE000FF0FF7D7440E0026880E0122000E022287
:104AF00000C0F6FF01C0F7FF02C0F8FF0900F5CFC4
:104B000004F00900F5CF05F00900F5CF06F0090023
:104B1000F5CF07F032C500F033C501F034C502F01F
:104B200035C503F087EC36F00A0E046E000E056EF4
:104B3000066E076E87EC36F008C000F009C001F081
:104B40000AC002F00BC003F0300E00240501256FEF
:104B5000EFD028AB4ED0020E046E23C500F024C562
:104B600001F0000E24BFFF0E026E036E045005011B
:104B700007E000360090013602360336FF0FF7D704
:104B800005016C0E0026880E0122000E022200C0D4
:104B9000F6FF01C0F7FF02C0F8FF0900F5CF04F0EF
:104BA0000900F5CF05F00900F5CF06F00900F5CFB3
:104BB00007F032C500F033C501F034C502F035C549
:104BC00003F087EC36F00F0E0016000E01160216E9
:104BD0000316BC0E0026880E0122000E022200C021
:104BE000F6FF01C0F7FF02C0F8FF0900F5CF25F579
:104BF0004ED0020E046E23C500F024C501F0000E55
:104C0000050124BFFF0E026E036E0450050107E08C
:104C100000360090013602360336FF0FF7D7050144
:104C20006C0E0026880E0122000E022200C0F6FF44
:104C300001C0F7FF02C0F8FF0900F5CF04F009003A
:104C4000F5CF05F00900F5CF06F00900F5CF07F024
:104C500032C500F033C501F034C502F035C503F0AC
:104C600087EC36F00F0E0016000E01160216031622
:104C7000CE0E0026880E0122000E022200C0F6FF92
:104C800001C0F7FF02C0F8FF0900F5CF25F50001CC
:104C90004FD0020E046E23C500F024C501F0000EB3
:104CA000050124BFFF0E026E036E0450050107E0EC
:104CB00000360090013602360336FF0FF7D78C0E10
:104CC0000026880E0122000E022200C0F6FF01C05D
:104CD000F7FF02C0F8FF0900F5CF04F00900F5CF97
:104CE00005F00900F5CF06F00900F5CF07F032C551
:104CF00000F033C501F034C502F035C503F087EC90
:104D000036F0070E00140501256F300E252710D050
:104D100005013651000AD8B4D0D63651C00AD8B4ED
:104D2000CCD63651800AD8B414D73651400AB1E0F7
:104D3000050115C5E1FF16C5E2FF25C5E6FF154BC8
:104D4000162B2A4B2B2BA6D628A71AD0800E006E26
:104D5000800E2719005C02E12651000811E215C5FA
:104D6000E1FF16C5E2FF200EE66E154B162B2A4B0F
:104D70002B2B010E265F000E275B26512711EFE13A
:104D8000050199EF15F02AC500F02BC501F01200BE
:104D9000000E3A6E000E3B6E000E3C6E000E3D6E35
:104DA000000E3E6E000E3F6E000E406E000E416E15
:104DB000000E426E000E436E000E446E000E456EF5
:104DC000000E196E000E1A6E000E1B6E000E1C6E89
:104DD000000E466E000E476E000E486E000E496EC5
:104DE000000E4A6E000E4B6E000E4C6E000E4D6EA5
:104DF000000E4E6E000E4F6E000E506E000E516E85
:104E0000000E526E000E536E000E546E000E556E64
:104E1000000E566E000E576E000E586E000E596E44
:104E2000000E5A6E000E5B6E000E5C6E000E5D6E24
:104E3000000E0001616F000E626F000E636F000EC6
:104E4000646F000E656F000E666F000E676F000ED8
:104E5000686F000E696F000E6A6F000E6B6F000EB8
:104E60006C6FCD0E6D6FCC0E6E6F4C0E6F6F7B0E38
:104E7000706F000E156E000E166E410E716FA80E4B
:104E8000726FA80E736F2D0E746F330E756F410E17
:104E9000766F2D0E776F300E786F300E796F7A6BDC
:104EA000000E7B6F800E7C6F630E7D6F890E7E6FB0
:104EB000000E7F6F000E806F400E816F820E826F3A
:104EC000000E836F000E846F400E856F800E866F1C
:104ED000080E876FAC0E886F0C0E896F800E8A6F7C
:104EE000000E8B6F000E8C6F700E8D6F830E8E6FA9
:104EF000000E8F6FC00E906F5A0E916F8A0E926FD8
:104F0000020E936F000E946F410E956FA80E966F70
:104F1000A80E976F2D0E986F330E996F410E9A6FF2
:104F20002D0E9B6F300E9C6F310E9D6F9E6B000E91
:104F30009F6F200EA06F620EA16F890EA26F000EF0
:104F4000A36F000EA46F400EA56F820EA66F000E19
:104F5000A76F000EA86F400EA96F800EAA6FD10E2A
:104F6000AB6F790EAC6F0D0EAD6F800EAE6F000E95
:104F7000AF6F000EB06F700EB16F830EB26F000E88
:104F8000B36FC00EB46F5A0EB56F8A0EB66F020EB5
:104F9000B76F000EB86F410EB96FA80EBA6FA80EAA
:104FA000BB6F2D0EBC6F330EBD6F410EBE6F2D0E4D
:104FB000BF6F300EC06F320EC16FC26B000EC36F79
:104FC000200EC46F620EC56F890EC66F000EC76FCC
:104FD000000EC86F400EC96F820ECA6F000ECB6FF5
:104FE000000ECC6F400ECD6F800ECE6FD10ECF6F06
:104FF000790ED06F0D0ED16F800ED26F000ED36F71
:10500000000ED46F700ED56F830ED66F000ED76F63
:10501000C00ED86F5A0ED96F8A0EDA6F020EDB6F90
:10502000000EDC6F410EDD6FA80EDE6FA80EDF6F85
:105030002D0EE06F330EE16F410EE26F2D0EE36F28
:10504000300EE46F330EE56FE66B000EE76F200E57
:10505000E86F620EE96F890EEA6F000EEB6F000ECB
:10506000EC6F400EED6F820EEE6F000EEF6F000ED4
:10507000F06F400EF16F800EF26FD10EF36F790E6C
:10508000F46F0D0EF56F800EF66F000EF76F000EC9
:10509000F86F700EF96F830EFA6F000EFB6FC00E83
:1050A000FC6F5A0EFD6F8A0EFE6F020EFF6F000E30
:1050B0000101006F410E016FA80E026FA80E036F71
:1050C0002D0E046F330E056F410E066F2D0E076F08
:1050D000300E086F340E096F0A6B000E0B6F800ED6
:1050E0000C6F630E0D6F890E0E6F000E0F6F000EAA
:1050F000106F400E116F820E126F000E136F000EB4
:10510000146F400E156F800E166F080E176FAC0EE1
:10511000186F0C0E196F800E1A6F000E1B6F000EA9
:105120001C6F700E1D6F830E1E6F000E1F6FC00E62
:10513000206F5A0E216F8A0E226F020E236F000E0F
:10514000246F410E256FA80E266FA80E276F2D0E17
:10515000286F330E296F410E2A6F2D0E2B6F300EE4
:105160002C6F350E2D6F2E6B000E2F6F800E306F53
:10517000630E316F890E326F000E336F000E346F85
:10518000400E356F820E366F000E376F000E386F8F
:10519000400E396F800E3A6F080E3B6FAC0E3C6FBD
:1051A0000C0E3D6F800E3E6F000E3F6F000E406F85
:1051B000700E416F830E426F000E436FC00E446F3E
:1051C0005A0E456F8A0E466F020E476F000E486FEB
:1051D000430E496FA80E4A6FA90E4B6F330E4C6FEA
:1051E0002D0E4D6F410E4E6FE00E4F6F200E506F23
:1051F000200E516F526B000E536F800E546F630E72
:10520000556F890E566F000E576F000E586F400E87
:10521000596F820E5A6F000E5B6F000E5C6F400E6E
:105220005D6F800E5E6F080E5F6FAC0E606F0C0ED0
:10523000616F800E626F000E636F000E646F700E00
:10524000656F830E666F000E676FC00E686F5A0E33
:10525000696F8A0E6A6F020E6B6F000E6C6F430EE1
:105260006D6FA80E6E6FA90E6F6F2D0E706F330EDF
:10527000716F410E726F2D0E736F410E746F360E8B
:10528000756F766B000E776F800E786F630E796F97
:10529000890E7A6F000E7B6F000E7C6F400E7D6F63
:1052A000820E7E6F000E7F6F000E806F400E816F4A
:1052B000800E826F080E836FAC0E846F0C0E856FAC
:1052C000800E866F000E876F000E886F700E896FDC
:1052D000830E8A6F000E8B6FC00E8C6F5A0E8D6F0F
:1052E0008A0E8E6F020E8F6F000E906F430E916FBD
:1052F000A80E926FA90E936F2D0E946F330E956FBB
:10530000410E966F2D0E976F410E986FA70E996FF5
:105310009A6B000E9B6F800E9C6F630E9D6F890EC3
:105320009E6F000E9F6F000EA06F400EA16F820E49
:10533000A26F000EA36F000EA46F400EA56F800E2B
:10534000A66F080EA76FAC0EA86F0C0EA96F800E8B
:10535000AA6F000EAB6F000EAC6F700EAD6F830EB8
:10536000AE6F000EAF6FC00EB06F5A0EB16F8A0EE7
:10537000B26F020EB36F000EB46F430EB56FA80E7E
:10538000B66FA90EB76F2D0EB86F330EB96F410E01
:10539000BA6F2D0EBB6FE00EBC6F4B0EBD6FBE6BB8
:1053A000000EBF6F200EC06F620EC16F890EC26FFC
:1053B000000EC36F000EC46F400EC56F820EC66F25
:1053C000000EC76F000EC86F400EC96F800ECA6F07
:1053D000D10ECB6F790ECC6F0D0ECD6F800ECE6FD0
:1053E000000ECF6F000ED06F700ED16F830ED26F94
:1053F000000ED36FC00ED46F5A0ED56F8A0ED66FC3
:10540000020ED76F000ED86F430ED96FA80EDA6F59
:10541000A90EDB6F330EDC6F410EDD6F2D0EDE6FDC
:10542000E00EDF6F390EE06F4B0EE16FE26B000EA6
:10543000E36F200EE46F620EE56F890EE66F000EDB
:10544000E76F000EE86F400EE96F820EEA6F000E04
:10545000EB6F000EEC6F400EED6F800EEE6FD10E15
:10546000EF6F790EF06F0D0EF16F800EF26F000E80
:10547000F36F000EF46F700EF56F830EF66F000E73
:10548000F76FC00EF86F5A0EF96F8A0EFA6F020EA0
:10549000FB6F000EFC6F430EFD6FA80EFE6FA90E92
:1054A000FF6F330E0201006F410E016F2D0E026F70
:1054B000410E036F390E046F4B0E056F066B000E25
:1054C000076F200E086F620E096F890E0A6F000EBB
:1054D0000B6F000E0C6F400E0D6F820E0E6F000EE4
:1054E0000F6F000E106F400E116F800E126FD10EF5
:1054F000136F790E146F0D0E156F800E166F000E60
:10550000176F000E186F700E196F830E1A6F000E52
:105510001B6FC00E1C6F5A0E1D6F8A0E1E6F020E7F
:105520001F6F000E206F410E216FA80E226FA80E74
:10553000236F2D0E246F340E256F200E266F200E44
:10554000276F200E286F200E296F2A6B000E2B6FFD
:10555000A00E2C6F290E2D6F890E2E6F000E2F6F4F
:10556000000E306F400E316F820E326F000E336FBF
:10557000000E346F000E356F810E366FD10E376F0F
:10558000790E386F0D0E396F800E3A6F000E3B6F3B
:10559000000E3C6F700E3D6F830E3E6F000E3F6F2E
:1055A000C00E406F5A0E416F8A0E426F020E436F5B
:1055B000000E446F410E456FA80E466FA80E476F50
:1055C0004D0E486F2D0E496F340E4A6F200E4B6FF3
:1055D000200E4C6F200E4D6F4E6B000E4F6FE00E85
:1055E000506F380E516F890E526F000E536F000EC0
:1055F000546F500E556F820E566F000E576F000E8F
:10560000586F000E596F810E5A6F080E5B6FAC0E0B
:105610005C6F0C0E5D6F800E5E6F000E5F6F000E94
:10562000606F700E616F830E626F000E636FC00E4D
:10563000646F5A0E656F8A0E666F020E676F000EFA
:10564000686F430E696FA80E6A6FA90E6B6F2D0EFF
:105650006C6F340E6D6F4D0E6E6FE00E6F6F200E1F
:10566000706F200E716F726B000E736FA00E746FEF
:10567000290E756F890E766F000E776F000E786FAA
:10568000400E796F820E7A6F000E7B6F000E7C6F7A
:10569000000E7D6F810E7E6FD10E7F6F790E806F51
:1056A0000D0E816F800E826F000E836F000E846F6F
:1056B000700E856F830E866F000E876FC00E886F29
:1056C0005A0E896F8A0E8A6F020E8B6F000E8C6FD6
:1056D000410E8D6FA80E8E6FA80E8F6F4D0E906FBE
:1056E0002D0E916F360E926F200E936F200E946FD9
:1056F000200E956F966B000E976F200E986F0E0E12
:10570000996F890E9A6F000E9B6F000E9C6F700E42
:105710009D6F820E9E6F000E9F6F000EA06F400E59
:10572000A16F810EA26F080EA36FAC0EA46F0C0EBA
:10573000A56F800EA66F000EA76F000EA86F700EEB
:10574000A96F830EAA6F000EAB6FC00EAC6F5A0E1E
:10575000AD6F8A0EAE6F020EAF6F000EB06F410ECE
:10576000B16FA80EB26FA80EB36F360EB46F2D0EC8
:10577000B56F410EB66FA00EB76F200EB86F200E3A
:10578000B96FBA6B000EBB6F400EBC6F620EBD6F7F
:10579000880EBE6F000EBF6F000EC06F400EC16F4F
:1057A000820EC26F000EC36F000EC46F400EC56F35
:1057B000810EC66FD10EC76F790EC86F0D0EC96FFF
:1057C000800ECA6F000ECB6F000ECC6F700ECD6FC7
:1057D000830ECE6F000ECF6FC00ED06F5A0ED16FFA
:1057E0008A0ED26F020ED36F000ED46F430ED56FA8
:1057F000A80ED66FA90ED76F2D0ED86F360ED96FA3
:10580000200EDA6F200EDB6F200EDC6F200EDD6FB6
:10581000DE6B000EDF6F400EE06F620EE16F880EF0
:10582000E26F000EE36F000EE46F400EE56F820E34
:10583000E66F000EE76F000EE86F400EE96F810E15
:10584000EA6FD10EEB6F790EEC6F0D0EED6F800EDF
:10585000EE6F000EEF6F000EF06F700EF16F830EA3
:10586000F26F000EF36FC00EF46F5A0EF56F8A0ED2
:10587000F66F020EF76F000EF86F430EF96FA80E69
:10588000FA6F4D0EFB6F2D0EFC6F360EFD6F2D0E59
:10589000FE6F300EFF6F360E0301006F200E016F9A
:1058A000026B000E036F200E046F0E0E056F890E43
:1058B000066F000E076F000E086F700E096F820EE4
:1058C0000A6F000E0B6F000E0C6F400E0D6F810EF5
:1058D0000E6F080E0F6FAC0E106F0C0E116F800E56
:1058E000126F000E136F000E146F700E156F830E83
:1058F000166F000E176FC00E186F5A0E196F8A0EB2
:105900001A6F020E1B6F000E1C6F430E1D6FA80E48
:105910001E6F4D0E1F6F2D0E206F360E216F2D0E38
:10592000226F300E236F370E246F200E256F266BEB
:10593000000E276F200E286F0E0E296F890E2A6F1A
:10594000000E2B6F000E2C6F700E2D6F820E2E6FBF
:10595000000E2F6F000E306F400E316F810E326FD0
:10596000080E336FAC0E346F0C0E356F800E366F31
:10597000000E376F000E386F700E396F830E3A6F5E
:10598000000E3B6FC00E3C6F5A0E3D6F8A0E3E6F8D
:10599000020E3F6F000E406F430E416FA80E426F24
:1059A0004D0E436F2D0E446F360E456F2D0E466F14
:1059B000310E476F320E486F200E496F4A6B000E52
:1059C0004B6F200E4C6F0E0E4D6F890E4E6F000EFA
:1059D0004F6F000E506F700E516F820E526F000E9F
:1059E000536F000E546F400E556F810E566F080EA8
:1059F000576FAC0E586F0C0E596F800E5A6F000E19
:105A00005B6F000E5C6F700E5D6F830E5E6F000E3D
:105A10005F6FC00E606F5A0E616F8A0E626F020E6A
:105A2000636F000E646F430E656FA80E666F4D0EB8
:105A3000676F2D0E686F360E696F2D0E6A6F310E0F
:105A40006B6F360E6C6F200E6D6F6E6B000E6F6F8E
:105A5000200E706F0E0E716F890E726F000E736FD5
:105A6000000E746F700E756F820E766F000E776F7A
:105A7000000E786F400E796F810E7A6F080E7B6F83
:105A8000AC0E7C6F0C0E7D6F800E7E6F000E7F6FF4
:105A9000000E806F700E816F830E826F000E836F19
:105AA000C00E846F5A0E856F8A0E866F020E876F46
:105AB000000E886F430E896F2D0E8A6F360E8B6F26
:105AC000540E8C6F200E8D6F200E8E6F200E8F6FF8
:105AD000200E906F200E916F926B000E936F400E10
