:1000000043EF01F0FFFFFFFF04C0E3F003C0E2F0A5
:1000100002C0E1F001C0E0F000C0DFF0E9CF8CF0F9
:10002000EACF8DF0E1CF8EF0E2CF8FF09EA01BD013
:100030009E90152A162A172A030E165C08E3A00EB6
:10004000186E860E196E010E1A6E000E1B6E040ECF
:10005000175C08E3E00E1C6E930E1D6E040E1E6E00
:10006000000E1F6E04009EA466D09E9416C020F061
:10007000166ABFCF21F0000E226E21C001F0006A87
:1000800000C021F001C022F0BE500024216E000EFD
:100090000120226E2050000A09E12350215C186ED5
:1000A00024502258196E000E1A6E1B6E2050010A41
:1000B00011E12350FF08186E24C019F0FF0E1956E5
:1000C000000E1A6E1B6E2150182622501922000EA7
:1000D0001A221B222050020A2AE12350FF08186E20
:1000E00024C019F0FF0E1956000E1A6E1B6EFF0E7B
:1000F0001824006EFF0E1920016E000E1A20026EE9
:10010000000E1B20036E00C018F001C019F002C0E1
:100110001AF003C01BF021500024186E2250012059
:10012000196E000E02201A6E000E03201B6E21C0F5
:1001300023F022C024F0A1A093D0A19017C020F0FA
:10014000176ABCCF21F0000E226E21C001F0006AB8
:1001500000C021F001C022F0BB500024216E000E2F
:100160000120226E2050000A09E12550215C1C6EFE
:10017000265022581D6E000E1E6E1F6E2050010A62
:1001800011E12550FF081C6E26C01DF0FF0E1D5604
:10019000000E1E6E1F6E21501C2622501D22000EC6
:1001A0001E221F222050020A2AE12550FF081C6E41
:1001B00026C01DF0FF0E1D56000E1E6E1F6EFF0E98
:1001C0001C24006EFF0E1D20016E000E1E20026E0C
:1001D000000E1F20036E00C01CF001C01DF002C005
:1001E0001EF003C01FF0215000241C6E225001207D
:1001F0001D6E000E02201E6E000E03201F6E20508A
:10020000030A2AE12550FF081C6E26C01DF0FF0ED0
:100210001D56000E1E6E1F6EFE0E1C24006EFF0E7D
:100220001D20016E010E1E20026E000E1F20036EA7
:1002300000C01CF001C01DF002C01EF003C01FF082
:10024000215000241C6E225001201D6E000E022041
:100250001E6E000E03201F6E21C025F022C026F066
:100260008CC0E9FF8DC0EAFF8EC0E1FF8FC0E2FFC6
:10027000E3C004F0E2C003F0E1C002F0E0C001F02E
:10028000DFC000F01100F9EC3AF000016D6B6E6B0D
:100290006F6B706B1D0ED26E0D0E0C6EFF0E0B6E23
:1002A000FF0E0A6E0C2E01D007D00B2E01D003D00A
:1002B0000A2EFED7FAD7F6D7BF0E0B6EFF0E0A6EC8
:1002C0000B2E01D003D00A2EFED7FAD72B0E0A6EC2
:1002D0000A2EFED70000000000009C8E0E0EC16E9C
:1002E000BA0EC06EFF0E926EFF0E936E1F0E946ECE
:1002F000966A976A8490849284845E6A5F6A606B6F
:10030000F26A9D6AA06A9E6AA16ABD6ABA6A170EFD
:10031000B76E050EBD6E050EBA6E310ECD6E830E34
:10032000986F0F0E996F020E9A6F030E9B6F040E5B
:100330009C6F050E9D6F830E9E6F0F0E9F6F070EB5
:10034000A06F010EA16F060EA26F47EC2EF00C0EEF
:100350000001CE6FE2EC38F0FA0EC86E44EC3EF0CD
:10036000D08E9F86A194C00EF26E9D6AA06AD19035
:10037000010E0001716F010E726F000188EF13F022
:10038000730E986F000E996F740E9A6F7E0E9B6FAE
:10039000000E9C6F0BEC3DF0010E0001986F020EF9
:1003A000996F730E9A6F000E9B6FB6EC3BF0730E55
:1003B000986F000E996F840E9A6F7E0E9B6F000EE1
:1003C0009C6F0BEC3DF0020E0001986F020E996FCE
:1003D000730E9A6F000E9B6FB6EC3BF00D0E0C6E19
:1003E000FF0E0B6EFF0E0A6E0C2E01D007D00B2EE7
:1003F00001D003D00A2EFED7FAD7F6D7BF0E0B6E68
:10040000FF0E0A6E0B2E01D003D00A2EFED7FAD7AC
:100410002B0E0A6E0A2EFED7000000000000848218
:10042000060E0C6EFF0E0B6EFF0E0A6E0C2E01D028
:1004300007D00B2E01D003D00A2EFED7FAD7F6D75D
:100440001A0E0B6EFF0E0A6E0B2E01D003D00A2E71
:10045000FED7FAD7420E0A6E0A2EFED78492010EFC
:10046000CE6FE2EC38F0020E0001716F346AADEF2E
:1004700013F0730E986F000E996FA20E9A6F7E0E96
:100480009B6F000E9C6F0BEC3DF0010E0001986F0E
:10049000040E996F730E9A6F000E9B6FB6EC3BF0D3
:1004A000730E986F000E996F660E9A6F7E0E9B6F9B
:1004B000000E9C6F0BEC3DF0020E0001986F010ED8
:1004C000996F730E9A6F000E9B6FB6EC3BF0B5EF11
:1004D0000AF00001730E986F000E996F0C0E9A6F60
:1004E0007F0E9B6F000E9C6F0BEC3DF0020E000127
:1004F000986F060E996F730E9A6F000E9B6FB6EC95
:100500003BF00C0E4E6E000E4F6E506E516E1C0E78
:100510006D6F070E6E6F000E6F6F706F1C0E426E68
:10052000070E436E000E446E456E000E5A6E000EAE
:100530005B6E000E5C6E800E5D6E000E616F000ED5
:10054000626F400E636F800E646F000E566E000E79
:10055000576E170E586E860E596E9BEF0CF0000109
:10056000730E986F000E996F160E9A6F7F0E9B6F29
:10057000000E9C6F0BEC3DF0020E0001986F060E12
:10058000996F730E9A6F000E9B6FB6EC3BF00C0EDA
:100590004E6E000E4F6E506E516E110E6D6F070E47
:1005A0006E6F000E6F6F706F110E426E070E436E0E
:1005B000000E446E456E000E5A6E000E5B6E000E0D
:1005C0005C6E800E5D6E000E616F000E626F400EFD
:1005D000636F800E646F000E566E000E576E160E1F
:1005E000586E860E596E9BEF0CF00001730E986FDB
:1005F000000E996F200E9A6F7F0E9B6F000E9C6FFE
:100600000BEC3DF0020E0001986F060E996F730E11
:100610009A6F000E9B6FB6EC3BF00C0E4E6E000E08
:100620004F6E506E516E110E6D6F070E6E6F000E95
:100630006F6F706F110E426E070E436E000E446EA8
:10064000456E000E5A6E000E5B6E000E5C6E800EE4
:100650005D6E000E616F000E626F400E636F800E64
:10066000646F000E566E000E576E160E586E860E94
:10067000596E9BEF0CF00001730E986F000E996F8E
:100680002A0E9A6F7F0E9B6F000E9C6F0BEC3DF055
:10069000020E0001986F060E996F730E9A6F000E8E
:1006A0009B6FB6EC3BF00C0E4E6E000E4F6E506E14
:1006B000516E110E6D6F070E6E6F000E6F6F706FC3
:1006C000110E426E070E436E000E446E456E000E14
:1006D0005A6E000E5B6E000E5C6E800E5D6E000E3C
:1006E000616F000E626F400E636F800E646F000ECC
:1006F000566E000E576E160E586E860E596E9BEF94
:100700000CF00001730E986F000E996F340E9A6F03
:100710007F0E9B6F000E9C6F0BEC3DF0020E0001F4
:10072000986F060E996F730E9A6F000E9B6FB6EC62
:100730003BF00C0E4E6E000E4F6E506E516E1C0E46
:100740006D6F070E6E6F000E6F6F706F1C0E426E36
:10075000070E436E000E446E456E000E5A6E000E7C
:100760005B6E000E5C6E800E5D6E000E616F000EA3
:10077000626F400E636F800E646F000E566E000E47
:10078000576E170E586E860E596E9BEF0CF00001D7
:10079000730E986F000E996F3E0E9A6F7F0E9B6FCF
:1007A000000E9C6F0BEC3DF0020E0001986F060EE0
:1007B000996F730E9A6F000E9B6FB6EC3BF00C0EA8
:1007C0004E6E000E4F6E506E516E1C0E6D6F070E0A
:1007D0006E6F000E6F6F706F1C0E426E070E436ED1
:1007E000000E446E456E000E5A6E000E5B6E000EDB
:1007F0005C6E800E5D6E000E616F000E626F400ECB
:10080000636F800E646F000E566E000E576E170EEB
:10081000586E860E596E9BEF0CF00001730E986FA8
:10082000000E996F480E9A6F7F0E9B6F000E9C6FA3
:100830000BEC3DF0020E0001986F060E996F730EDF
:100840009A6F000E9B6FB6EC3BF00C0E4E6E000ED6
:100850004F6E506E516E1C0E6D6F070E6E6F000E58
:100860006F6F706F1C0E426E070E436E000E446E6B
:10087000456E000E5A6E000E5B6E000E5C6E800EB2
:100880005D6E000E616F000E626F400E636F800E32
:10089000646F000E566E000E576E170E586E860E61
:1008A000596E9BEF0CF00001730E986F000E996F5C
:1008B000520E9A6F7F0E9B6F000E9C6F0BEC3DF0FB
:1008C000020E0001986F060E996F730E9A6F000E5C
:1008D0009B6FB6EC3BF00C0E4E6E000E4F6E506EE2
:1008E000516E1C0E6D6F070E6E6F000E6F6F706F86
:1008F0001C0E426E070E436E000E446E456E000ED7
:100900005A6E000E5B6E000E5C6E800E5D6E000E09
:10091000616F000E626F400E636F800E646F000E99
:10092000566E000E576E170E586E860E596E9BEF60
:100930000CF00001730E986F000E996F5C0E9A6FA9
:100940007F0E9B6F000E9C6F0BEC3DF0020E0001C2
:10095000986F060E996F730E9A6F000E9B6FB6EC30
:100960003BF00C0E4E6E000E4F6E506E516E1C0E14
:100970006D6F070E6E6F000E6F6F706F1C0E426E04
:10098000070E436E000E446E456E000E5A6E000E4A
:100990005B6E000E5C6E800E5D6E000E616F000E71
:1009A000626F400E636F800E646F000E566E000E15
:1009B000576E170E586E860E596E9BEF0CF00001A5
:1009C000730E986F000E996F660E9A6F7F0E9B6F75
:1009D000000E9C6F0BEC3DF0020E0001986F060EAE
:1009E000996F730E9A6F000E9B6FB6EC3BF00C0E76
:1009F0004E6E000E4F6E506E516E1C0E6D6F070ED8
:100A00006E6F000E6F6F706F1C0E426E070E436E9E
:100A1000000E446E456E000E5A6E000E5B6E000EA8
:100A20005C6E800E5D6E000E616F000E626F400E98
:100A3000636F800E646F000E566E000E576E170EB9
:100A4000586E860E596E9BEF0CF00001730E986F76
:100A5000000E996F700E9A6F7F0E9B6F000E9C6F49
:100A60000BEC3DF0020E0001986F060E996F730EAD
:100A70009A6F000E9B6FB6EC3BF00C0E4E6E000EA4
:100A80004F6E506E516E110E6D6F070E6E6F000E31
:100A90006F6F706F110E426E070E436E000E446E44
:100AA000456E000E5A6E000E5B6E000E5C6E800E80
:100AB0005D6E000E616F000E626F400E636F800E00
:100AC000646F000E566E000E576E160E586E860E30
:100AD000596E9BEF0CF00001730E986F000E996F2A
:100AE0007A0E9A6F7F0E9B6F000E9C6F0BEC3DF0A1
:100AF000020E0001986F060E996F730E9A6F000E2A
:100B00009B6FB6EC3BF00C0E4E6E000E4F6E506EAF
:100B1000516E110E6D6F070E6E6F000E6F6F706F5E
:100B2000110E426E070E436E000E446E456E000EAF
:100B30005A6E000E5B6E000E5C6E800E5D6E000ED7
:100B4000616F000E626F400E636F800E646F000E67
:100B5000566E000E576E160E586E860E596E9BEF2F
:100B60000CF00001730E986F000E996F840E9A6F4F
:100B70007F0E9B6F000E9C6F0BEC3DF0020E000190
:100B8000986F060E996F730E9A6F000E9B6FB6ECFE
:100B90003BF00C0E4E6E000E4F6E506E516E4D0EB1
:100BA0006D6F050E6E6F000E6F6F706F4D0E426EA3
:100BB000050E436E000E446E456E000E5A6E000E1A
:100BC0005B6E000E5C6E800E5D6E000E616F000E3F
:100BD000626F000E636F810E646F000E566E000E22
:100BE000576E620E586E850E596E9BEF0CF0000129
:100BF000730E986F000E996F8E0E9A6F7F0E9B6F1B
:100C0000000E9C6F0BEC3DF0020E0001986F060E7B
:100C1000996F730E9A6F000E9B6FB6EC3BF00D0E42
:100C20004E6E000E4F6E506E516EC70E6D6F050EFC
:100C30006E6F000E6F6F706FC70E426E050E436EC3
:100C4000000E446E456E000E5A6E000E5B6E000E76
:100C50005C6E800E5D6E000E616F000E626F000EA6
:100C6000636F810E646F000E566E000E576E620E3B
:100C7000586E850E596E9BEF0CF00001730E986F45
:100C8000000E996F980E9A6F7F0E9B6F000E9C6FEF
:100C90000BEC3DF0020E0001986F060E996F730E7B
:100CA0009A6F000E9B6FB6EC3BF00C0E4E6E000E72
:100CB0004F6E506E516E4D0E6D6F050E6E6F000EC5
:100CC0006F6F706F4D0E426E050E436E000E446ED8
:100CD000456E000E5A6E000E5B6E000E5C6E800E4E
:100CE0005D6E000E616F000E626F000E636F810E0D
:100CF000646F000E566E000E576E620E586E850EB3
:100D0000596E9BEF0CF00001730E986F000E996FF7
:100D1000A20E9A6F7F0E9B6F000E9C6F0BEC3DF046
:100D2000020E0001986F060E996F730E9A6F000EF7
:100D30009B6FB6EC3BF00F0E4E6E000E4F6E506E7A
:100D4000516E710E6D6F040E6E6F000E6F6F706FCF
:100D5000710E426E040E436E000E446E456E000E20
:100D60005A6E000E5B6E000E5C6E800E5D6E000EA5
:100D7000616F000E626F400E636F810E646F000E34
:100D8000566E000E576E160E586E850E596E9BEFFE
:100D90000CF00001730E986F000E996FAC0E9A6FF5
:100DA0007F0E9B6F000E9C6F0BEC3DF0020E00015E
:100DB000986F060E996F730E9A6F000E9B6FB6ECCC
:100DC0003BF00C0E4E6E000E4F6E506E516E890E43
:100DD0006D6F030E6E6F000E6F6F706F890E426E37
:100DE000030E436E000E446E456E000E5A6E000EEA
:100DF0005B6E000E5C6E800E5D6E000E616F000E0D
:100E0000626F400E636F810E646F000E566E000EAF
:100E1000576E160E586E850E596E9BEF0CF0000142
:100E2000730E986F000E996FB60E9A6F7F0E9B6FC0
:100E3000000E9C6F0BEC3DF0020E0001986F060E49
:100E4000996F730E9A6F000E9B6FB6EC3BF00C0E11
:100E50004E6E000E4F6E506E516E890E6D6F030E0A
:100E60006E6F000E6F6F706F890E426E030E436ED1
:100E7000000E446E456E000E5A6E000E5B6E000E44
:100E80005C6E800E5D6E000E616F000E626F400E34
:100E9000636F810E646F000E566E000E576E160E55
:100EA000586E850E596E9BEF0CF00001730E986F13
:100EB000000E996FC00E9A6F7F0E9B6F000E9C6F95
:100EC0000BEC3DF0020E0001986F060E996F730E49
:100ED0009A6F000E9B6FB6EC3BF00F0E4E6E000E3D
:100EE0004F6E506E516E710E6D6F040E6E6F000E70
:100EF0006F6F706F710E426E040E436E000E446E83
:100F0000456E000E5A6E000E5B6E000E5C6E800E1B
:100F10005D6E000E616F000E626F400E636F810E9A
:100F2000646F000E566E000E576E160E586E850ECC
:100F3000596E9BEF0CF00001730E986F000E996FC5
:100F4000CA0E9A6F7F0E9B6F000E9C6F0BEC3DF0EC
:100F5000020E0001986F060E996F730E9A6F000EC5
:100F60009B6FB6EC3BF00F0E4E6E000E4F6E506E48
:100F7000516E710E6D6F040E6E6F000E6F6F706F9D
:100F8000710E426E040E436E000E446E456E000EEE
:100F90005A6E000E5B6E000E5C6E800E5D6E000E73
:100FA000616F000E626F400E636F810E646F000E02
:100FB000566E000E576E160E586E850E596E9BEFCC
:100FC0000CF00001730E986F000E996FD40E9A6F9B
:100FD0007F0E9B6F000E9C6F0BEC3DF0020E00012C
:100FE000986F060E996F730E9A6F000E9B6FB6EC9A
:100FF0003BF00F0E4E6E000E4F6E506E516E710E26
:101000006D6F040E6E6F000E6F6F706F710E426E1B
:10101000040E436E000E446E456E000E5A6E000EB6
:101020005B6E000E5C6E800E5D6E000E616F000EDA
:10103000626F400E636F810E646F000E566E000E7D
:10104000576E160E586E850E596E9BEF0CF0000110
:10105000730E986F000E996FDE0E9A6F7F0E9B6F66
:10106000000E9C6F0BEC3DF0020E0001986F060E17
:10107000996F730E9A6F000E9B6FB6EC3BF00F0EDC
:101080004E6E000E4F6E506E516E710E6D6F040EEF
:101090006E6F000E6F6F706F710E426E040E436EB6
:1010A000000E446E456E000E5A6E000E5B6E000E12
:1010B0005C6E800E5D6E000E616F000E626F400E02
:1010C000636F810E646F000E566E000E576E160E23
:1010D000586E850E596E9BEF0CF00001730E986FE1
:1010E000000E996FE80E9A6F7F0E9B6F000E9C6F3B
:1010F0000BEC3DF0020E0001986F060E996F730E17
:101100009A6F000E9B6FB6EC3BF0080E4E6E000E11
:101110004F6E506E516E090E6D6F020E6E6F000EA7
:101120006F6F706F090E426E020E436E000E446EBA
:10113000456E000E5A6E000E5B6E000E5C6E800EE9
:101140005D6E000E616F000E626F400E636F810E68
:10115000646F000E566E000E576E020E586E850EAE
:10116000596E9BEF0CF00001730E986F000E996F93
:10117000F20E9A6F7F0E9B6F000E9C6F0BEC3DF092
:10118000020E0001986F060E996F730E9A6F000E93
:101190009B6FB6EC3BF00D0E4E6E000E4F6E506E18
:1011A000516EB60E6D6F020E6E6F000E6F6F706F28
:1011B000B60E426E020E436E000E446E456E000E79
:1011C0005A6E000E5B6E000E5C6E800E5D6E000E41
:1011D000616F000E626F000E636F820E646F000E0F
:1011E000566E000E576E540E586E840E596E9BEF5D
:1011F0000CF00001730E986F000E996FFC0E9A6F41
:101200007F0E9B6F000E9C6F0BEC3DF0020E0001F9
:10121000986F060E996F730E9A6F000E9B6FB6EC67
:101220003BF00D0E4E6E000E4F6E506E516E910ED5
:101230006D6F020E6E6F000E6F6F706F910E426ECB
:10124000020E436E000E446E456E000E5A6E000E86
:101250005B6E000E5C6E800E5D6E000E616F000EA8
:10126000626F100E636F820E646F000E566E000E7A
:10127000576E480E586E840E596E9BEF0CF00001AD
:10128000730E986F000E996F060E9A6F800E9B6F0B
:10129000000E9C6F0BEC3DF0020E0001986F060EE5
:1012A000996F730E9A6F000E9B6FB6EC3BF00D0EAC
:1012B0004E6E000E4F6E506E516E580E6D6F060ED4
:1012C0006E6F000E6F6F706F580E426E060E436E9B
:1012D000000E446E456E000E5A6E000E5B6E000EE0
:1012E0005C6E7F0E5D6E000E616F000E626F400ED1
:1012F000636F810E646F000E566E000E576E780E8F
:10130000586E850E596E17D30001730E986F000E3C
:10131000996F100E9A6F800E9B6F000E9C6F0BECF6
:101320003DF0020E0001986F060E996F730E9A6FD2
:10133000000E9B6FB6EC3BF00D0E4E6E000E4F6E26
:10134000506E516E910E6D6F020E6E6F000E6F6FCC
:10135000706F910E426E020E436E000E446E456E2B
:10136000000E5A6E000E5B6E000E5C6E800E5D6E9F
:10137000000E616F000E626F100E636F820E646F5D
:10138000000E566E000E576E480E586E840E596E43
:10139000D2D20001730E986F000E996F1A0E9A6FD9
:1013A000800E9B6F000E9C6F0BEC3DF0020E000157
:1013B000986F060E996F730E9A6F000E9B6FB6ECC6
:1013C0003BF00D0E4E6E000E4F6E506E516E910E34
:1013D0006D6F020E6E6F000E6F6F706F910E426E2A
:1013E000020E436E000E446E456E000E5A6E000EE5
:1013F0005B6E000E5C6E800E5D6E000E616F000E07
:10140000626F100E636F820E646F000E566E000ED8
:10141000576E480E586E840E596E8DD20001730EB1
:10142000986F000E996F240E9A6F800E9B6F000EBE
:101430009C6F0BEC3DF0020E0001986F060E996F49
:10144000730E9A6F000E9B6FB6EC3BF00F0E4E6E54
:10145000000E4F6E506E516E710E6D6F040E6E6FFA
:10146000000E6F6F706F710E426E040E436E000EB1
:10147000446E456E000E5A6E000E5B6E000E5C6E82
:10148000800E5D6E000E616F000E626F400E636F26
:10149000810E646F000E566E000E576E160E586E5B
:1014A000850E596E48D20001730E986F000E996F29
:1014B0002E0E9A6F800E9B6F000E9C6F0BEC3DF012
:1014C000020E0001986F060E996F730E9A6F000E50
:1014D0009B6FB6EC3BF00D0E4E6E000E4F6E506ED5
:1014E000516EC70E6D6F050E6E6F000E6F6F706FD1
:1014F000C70E426E050E436E000E446E456E000E22
:101500005A6E000E5B6E000E5C6E800E5D6E000EFD
:10151000616F000E626F000E636F810E646F000ECC
:10152000566E000E576E620E586E850E596E03D2BF
:101530000001730E986F000E996F380E9A6F800E2F
:101540009B6F000E9C6F0BEC3DF0020E0001986F3C
:10155000060E996F730E9A6F000E9B6FB6EC3BF000
:101560006D6B6E6B6F6B706BE6D1000E006E551875
:1015700008E10050541805E10050531802E15250A0
:10158000010A0001D8B469EF02F0000E006E551890
:1015900008E10050541805E10050531802E1525080
:1015A000020A0001D8B4AFEF02F0000E006E551829
:1015B00008E10050541805E10050531802E1525060
:1015C000030A0001D8B4F5EF02F0000E006E5518C2
:1015D00008E10050541805E10050531802E1525040
:1015E000040A0001D8B43BEF03F0000E006E55185A
:1015F00008E10050541805E10050531802E1525020
:10160000050A0001D8B481EF03F0000E006E5518F2
:1016100008E10050541805E10050531802E15250FF
:10162000060A0001D8B4C7EF03F0000E006E55188B
:1016300008E10050541805E10050531802E15250DF
:10164000070A0001D8B40DEF04F0000E006E551823
:1016500008E10050541805E10050531802E15250BF
:10166000080A0001D8B453EF04F0000E006E5518BC
:1016700008E10050541805E10050531802E152509F
:10168000090A0001D8B499EF04F0000E006E551855
:1016900008E10050541805E10050531802E152507F
:1016A0000A0A0001D8B4DFEF04F0000E006E5518EE
:1016B00008E10050541805E10050531802E152505F
:1016C0000B0A0001D8B425EF05F0000E006E551886
:1016D00008E10050541805E10050531802E152503F
:1016E0000C0A0001D8B46BEF05F0000E006E55181F
:1016F00008E10050541805E10050531802E152501F
:101700000D0A0001D8B4B1EF05F0000E006E5518B7
:1017100008E10050541805E10050531802E15250FE
:101720000E0A0001D8B4F7EF05F0000E006E551850
:1017300008E10050541805E10050531802E15250DE
:101740000F0A0001D8B43DEF06F0000E006E5518E8
:1017500008E10050541805E10050531802E15250BE
:10176000100A0001D8B483EF06F0000E006E551881
:1017700008E10050541805E10050531802E152509E
:10178000110A0001D8B4C9EF06F0000E006E55181A
:1017900008E10050541805E10050531802E152507E
:1017A000120A0001D8B40FEF07F0000E006E5518B2
:1017B00008E10050541805E10050531802E152505E
:1017C000130A0001D8B455EF07F0000E006E55184B
:1017D00008E10050541805E10050531802E152503E
:1017E000140A0001D8B49BEF07F0000E006E5518E4
:1017F00008E10050541805E10050531802E152501E
:10180000150A0001D8B4E1EF07F0000E006E55187C
:1018100008E10050541805E10050531802E15250FD
:10182000160A0001D8B413D4000E006E551808E152
:101830000050541805E10050531802E15250170AA5
:101840000001D8B44AD4000E006E551808E10050CB
:10185000541805E10050531802E15250180A0001D3
:10186000D8B481D4000E006E551808E10050541809
:1018700005E10050531802E15250190A0001D8B492
:10188000B8D4000E006E551808E10050541805E158
:101890000050531802E152501A0A0001D8B4EFD494
:1018A000000E006E551808E10050541805E1005074
:1018B000531802E152501B0A0001D8B425D5000E7E
:1018C000006E551808E10050541805E100505318F7
:1018D00002E152501C0A0001D8B45BD5000E006E24
:1018E000551808E10050541805E10050531802E162
:1018F00052501D0A0001D8B491D5000E006E551843
:1019000008E10050541805E10050531802E152500C
:101910001E0A0001D8B4C7D5000E006E551808E1A4
:101920000050541805E10050531802E152501F0AAC
:101930000001D8B4FDD591EC31F000018351030AC8
:1019400009E1010E5226000E532254225522346A18
:10195000020E716F5550000808E15450000805E16F
:101960005350000802E152501F08000106E2010E28
:10197000526E000E536E546E556E00018351040A70
:1019800011E1010E006E000E016E026E036E00503A
:10199000525E0150535A0250545A0350555A346AF9
:1019A000020E716F000E555C08E1000E545C05E1FB
:1019B000000E535C02E1010E525C000106E21F0EB4
:1019C000526E000E536E546E556E00018351050A1F
:1019D000D8A4C6D0000E006E551808E10050541867
:1019E00005E10050531802E152501F0A5DE1010E5B
:1019F000CE6FE2EC38F0730E0001986F000E996F15
:101A0000C40E9A6F7E0E9B6F000E9C6F0BEC3DF028
:101A1000010E0001986F050E996F730E9A6F000EFC
:101A20009B6FB6EC3BF0730E986F000E996FCE0E65
:101A30009A6F7E0E9B6F000E9C6F0BEC3DF0020EBA
:101A40000001986F060E996F730E9A6F000E9B6FD0
:101A5000B6EC3BF01A0E0C6EFF0E0B6EFF0E0A6E0C
:101A60000C2E01D007D00B2E01D003D00A2EFED7AA
:101A7000FAD7F6D77F0E0B6EFF0E0A6E0B2E01D033
:101A800003D00A2EFED7FAD7580E0A6E0A2EFED7BA
:101A900000000000010ECE6FE2EC38F0050E0001F0
:101AA000716F346AADEF13F00001010ECE6FE2ECFE
:101AB00038F0730E0001986F000E996FC40E9A6F84
:101AC0007E0E9B6F000E9C6F0BEC3DF0010E000133
:101AD000986F050E996F730E9A6F000E9B6FB6ECA0
:101AE0003BF0730E986F000E996FCE0E9A6F7E0EBC
:101AF0009B6F000E9C6F0BEC3DF0020E0001986F87
:101B0000060E996F730E9A6F000E9B6FB6EC3BF04A
:101B10001A0E0C6EFF0E0B6EFF0E0A6E0C2E01D00D
:101B200007D00B2E01D003D00A2EFED7FAD7F6D756
:101B30007F0E0B6EFF0E0A6E0B2E01D003D00A2E05
:101B4000FED7FAD7580E0A6E0A2EFED70000000004
:101B5000010ECE6FE2EC38F0030E0001716F346AB3
:101B6000ADEF13F0730E986F000E996FAE0E9A6F73
:101B70007E0E9B6F000E9C6F0BEC3DF0010E000182
:101B8000986F0E0E996F730E9A6F000E9B6FB6ECE6
:101B90003BF0730E986F000E996FC00E9A6F7E0E19
:101BA0009B6F000E9C6F0BEC3DF0020E0001986FD6
:101BB0000E0E996F730E9A6F000E9B6FB6EC3BF092
:101BC0008351030A57E165C000F066C001F067C0A9
:101BD00002F068C003F0CD0E046ECC0E056E4C0E04
:101BE000066E7B0E076ED8EC27F000C065F001C0D2
:101BF00066F002C067F003C068F0346A42506D2797
:101C000043506E2344506F2345507023010E3A26F3
:101C1000000E3B223C223D22730E986F000E996FFE
:101C2000D60E9A6F7E0E9B6F000E9C6F0BEC3DF0F4
:101C3000010E0001986F010E996F730E9A6F000EDE
:101C40009B6FB6EC3BF0730E986F000E996FD60E3B
:101C50009A6F7E0E9B6F000E9C6F0BEC3DF0020E98
:101C60000001986F010E996F730E9A6F000E9B6FB3
:101C7000B6EC3BF08351040A5FE1CD0E046ECC0E4E
:101C8000056E4C0E066E7B0E076E65C000F066C0DA
:101C900001F067C002F068C003F074EC3EF000C0D1
:101CA00065F001C066F002C067F003C068F0346AF6
:101CB00042506D5F43506E5B44506F5B4550705BAC
:101CC000010E006E000E016E026E036E00503A5E51
:101CD00001503B5A02503C5A03503D5A730E986FC4
:101CE000000E996FD60E9A6F7E0E9B6F000E9C6F42
:101CF0000BEC3DF0010E0001986F010E996F730E11
:101D00009A6F000E9B6FB6EC3BF0730E986F000E4F
:101D1000996FD60E9A6F7E0E9B6F000E9C6F0BEC28
:101D20003DF0020E0001986F010E996F730E9A6FCD
:101D3000000E9B6FB6EC3BF0CD0E046ECC0E056E24
:101D40004C0E066E7B0E076E65C000F066C001F09B
:101D500067C002F068C003F02CEC3AF0010ED8B076
:101D6000000E006E005208E0656B666B676B686B77
:101D70006D6B6E6B6F6B706B00016DC098F06EC019
:101D800099F06FC09AF070C09BF0730E9C6F000EBC
:101D90009D6F41EC33F0010E0001986F010E996FB9
:101DA000730E9A6F000E9B6FB6EC3BF0736B730E65
:101DB000986F000E996F420E9A6F800E9B6F000E07
:101DC0009C6F65C09DF066C09EF067C09FF068C0C4
:101DD000A0F036EC3DF0020E986F010E996F730E75
:101DE0009A6F000E9B6FB6EC3BF0730E986F000E6F
:101DF000996FE20E9A6F7E0E9B6F000E9C6F0BEC3C
:101E00003DF0020E0001986F050E996F730E9A6FE8
:101E1000000E9B6FB6EC3BF0736B8351050A07E134
:101E2000040E716F346A010ECE6FE2EC38F00001DF
:101E30008351010A08E1010ECE6FE2EC38F0020E88
:101E40000001716F346A8351020A08E1010ECE6FFE
:101E5000E2EC38F0020E0001716F346AADEF13F05E
:101E6000730E986F000E996FC00E9A6F7E0E9B6F67
:101E7000000E9C6F0BEC3DF0010E0001986F0E0EF2
:101E8000996F730E9A6F000E9B6FB6EC3BF0730E5A
:101E9000986F000E996FAE0E9A6F7E0E9B6F000EBC
:101EA0009C6F0BEC3DF0020E0001986F0E0E996FC7
:101EB000730E9A6F000E9B6FB6EC3BF08351050AD0
:101EC00008E1010ECE6FE2EC38F0020E0001716FF6
:101ED000346A7051415C08E16F51405C05E16E511C
:101EE0003F5C02E16D513E5CD8B013D191EC31F012
:101EF00000C083F00050050A29E10001836B820EC7
:101F00000B6EFF0E0A6E0B2E01D003D00A2EFED7E9
:101F1000FAD7870E0A6E0A2EFED700000001835101
:101F2000050A14E091EC31F000C083F0410E0B6E15
:101F3000FF0E0A6E0B2E01D003D00A2EFED7FAD761
:101F4000C30E0A6E0A2EFED70000E8D700018351A7
:101F5000060AD8B4DED0010E3E26000E3F224022F3
:101F6000412285903B0E0B6EFF0E0A6E0B2E01D0A8
:101F700003D00A2EFED7FAD7480E0A6E0A2EFED7D5
:101F8000000000008580070E0B6EFF0E0A6E0B2E00
:101F900001D003D00A2EFED7FAD7780E0A6E0A2E89
:101FA000FED7000000004EC004F04FC005F050C046
:101FB00006F051C007F03EC000F03FC001F040C045
:101FC00002F041C003F07DEC2BF0B9EC3DF05AC0BB
:101FD00004F05BC005F05CC006F05DC007F0C7EC24
:101FE00037F061C004F062C005F063C006F064C061
:101FF00007F0C7EC37F0000E046E400E056E1C0EA5
:10200000066E8C0E076EAEEC34F000C090F001C08E
:1020100091F002C092F003C093F03AC000F03BC0D0
:1020200001F03CC002F03DC003F0B9EC3DF00A0EF7
:10203000046ED70E056E230E066E780E076EC7EC83
:1020400037F090C004F091C005F092C006F093C044
:1020500007F0D8EC27F000C069F001C06AF002C0B8
:102060006BF003C06CF0730E986F000E996F460E04
:102070009A6F800E9B6F000E9C6F00C09DF001C098
:102080009EF002C09FF003C0A0F036EC3DF0010EC0
:10209000986F010E996F730E9A6F000E9B6FB6ECDE
:1020A0003BF0736B730E986F000E996F4A0E9A6F28
:1020B000800E9B6F000E9C6F3EC09DF03FC09EF057
:1020C00040C09FF041C0A0F036EC3DF0020E986F8A
:1020D000010E996F730E9A6F000E9B6FB6EC3BF07A
:1020E000736B730E986F000E996FE20E9A6F7E0EEF
:1020F0009B6F000E9C6F0BEC3DF0010E0001986F82
:10210000080E996F730E9A6F000E9B6FB6EC3BF042
:10211000E0D600014D50000808E14C50000805E1F0
:102120004B50000802E14A500208000145E3010E4D
:102130004A26000E4B224C224D228482060E0C6E43
:10214000FF0E0B6EFF0E0A6E0C2E01D007D00B2E69
:1021500001D003D00A2EFED7FAD7F6D71A0E0B6E8F
:10216000FF0E0A6E0B2E01D003D00A2EFED7FAD72F
:10217000420E0A6E0A2EFED78492060E0C6EFF0ED9
:102180000B6EFF0E0A6E0C2E01D007D00B2E01D065
:1021900003D00A2EFED7FAD7F6D71A0E0B6EFF0E13
:1021A0000A6E0B2E01D003D00A2EFED7FAD7420EAC
:1021B0000A6E0A2EFED7ADD700016D6B6E6B6F6B8A
:1021C000706B010E3E6E000E3F6E406E416E4E6AA9
:1021D0004F6A506A516A010E526E000E536E546E71
:1021E000556ECD0E656FCC0E666F4C0E676F7B0E15
:1021F000686F85808492B1D2010E846F000E856F66
:102200006DC086F06EC087F06FC088F070C089F036
:10221000730E986F000E996FAE0E9A6F7E0E9B6FC5
:10222000000E9C6F0BEC3DF0010E0001986F010E4B
:10223000996F730E9A6F000E9B6FB6EC3BF091ECAA
:1022400031F00001736B8351030A16E1010E8A25F8
:10225000046E000E8B21056E04C08AF005C08BF061
:10226000346A800E006E800E0518005C02E1045096
:10227000090802E28A6B8B6B00018351040A18E1A2
:10228000010E8A5D046E000E8B59056E04C08AF043
:1022900005C08BF0346A800E0518006E800E005C5D
:1022A00002E1000E045C04E2090E8A6F000E8B6FDF
:1022B0000001730E986F000E996F4E0E9A6F800E8C
:1022C0009B6F000E9C6F8AC09DF08BC09EF036EC19
:1022D0003DF0020E986F84510608996F730E9A6F45
:1022E000000E9B6FB6EC3BF0736B8351010A07E164
:1022F000844B852B010ECE6FE2EC38F0346A00017E
:102300008351020A07E1020E716F346A010ECE6F2B
:10231000E2EC38F000018351060A07E1060E716F06
:10232000346A010ECE6FE2EC38F000018351050AE9
:10233000D8A48CD086516D25946F87516E21956FEE
:1023400088516F21966F89517021976F000E986F99
:10235000000E996F200E9A6F820E9B6F84C000F062
:1023600085C001F07FEC3DF000C09CF001C09DF005
:1023700002C09EF003C09FF077EC32F000C090F0F6
:1023800001C091F002C092F003C093F08AC000F047
:102390008BC001F07FEC3DF090C004F091C005F0DF
:1023A00092C006F093C007F0C7EC37F0000E046E41
:1023B000000E056E200E066E820E076EAEEC34F037
:1023C000000E046E000E056E000E066E7F0E076E88
:1023D000D8EC27F000C090F001C091F002C092F05C
:1023E00003C093F094C000F095C001F096C002F0D5
:1023F00097C003F0B9EC3DF090C004F091C005F037
:1024000092C006F093C007F0D8EC27F0F6EC35F058
:1024100000C06DF001C06EF002C06FF003C070F03C
:10242000010ECE6FE2EC38F00001844B852B800E5C
:10243000006E800E8519005C02E18451050804E2FB
:10244000010E846F000E856F0001F9D686D1730EE0
:10245000986F000E996FE80E9A6F7E0E9B6F000EBC
:102460009C6F0BEC3DF0010E0001986F010E996F0F
:10247000730E9A6F000E9B6FB6EC3BF091EC31F04F
:1024800000018351030A07E1010E4E26000E4F2280
:1024900050225122346A8351040A0FE1010E006E6A
:1024A000000E016E026E036E00504E5E01504F5AD8
:1024B0000250505A0350515A346A730E986F000EEE
:1024C000996F520E9A6F800E9B6F000E9C6F4EC0DC
:1024D0009DF04FC09EF050C09FF051C0A0F036EC70
:1024E0003DF0020E986F010E996F730E9A6F000EF9
:1024F0009B6FB6EC3BF0736B8351050A07E1070E47
:10250000716F346A010ECE6FE2EC38F026D1730E93
:102510000001986F000E996FF40E9A6F7E0E9B6FFC
:10252000000E9C6F0BEC3DF0010E0001986F010E48
:10253000996F730E9A6F000E9B6FB6EC3BF091ECA7
:1025400031F000018351030A1BE161C000F062C059
:1025500001F063C002F064C003F0000E046E000ED0
:10256000056E000E066E7E0E076ED8EC27F000C0DA
:1025700061F001C062F002C063F003C064F0346A2D
:102580008351040A1BE1000E046E000E056E000E5E
:10259000066E7E0E076E61C000F062C001F063C07F
:1025A00002F064C003F074EC3EF000C061F001C0C2
:1025B00062F002C063F003C064F0346A730E986F77
:1025C000000E996F560E9A6F800E9B6F000E9C6FD7
:1025D00061C09DF062C09EF063C09FF064C0A0F037
:1025E00036EC3DF0020E986F010E996F730E9A6FE4
:1025F000000E9B6FB6EC3BF0736B8351050A07E14D
:10260000080E716F346A010ECE6FE2EC38F0A5D07F
:10261000730E0001986F000E996F000E9A6F7F0E77
:102620009B6F000E9C6F0BEC3DF0010E0001986F4C
:10263000010E996F730E9A6F000E9B6FB6EC3BF014
:1026400091EC31F000018351030A1BE15AC000F004
:102650005BC001F05CC002F05DC003F0CD0E046E03
:10266000CC0E056E4C0E066E7B0E076ED8EC27F076
:1026700000C05AF001C05BF002C05CF003C05DF026
:10268000346A8351040A1BE1CD0E046ECC0E056E34
:102690004C0E066E7B0E076E5AC000F05BC001F058
:1026A0005CC002F05DC003F074EC3EF000C05AF074
:1026B00001C05BF002C05CF003C05DF0346A730ED1
:1026C000986F000E996F5A0E9A6F800E9B6F000ED6
:1026D0009C6F5AC09DF05BC09EF05CC09FF05DC0D7
:1026E000A0F036EC3DF0020E986F010E996F730E5C
:1026F0009A6F000E9B6FB6EC3BF08351050A07E121
:10270000040E716F346A010ECE6FE2EC38F025D002
:1027100000017151010AD8B4C0EF01F07151020AF1
:10272000D8B439EF02F07151030AD8B4B2EF0DF00A
:102730007151040AD8B430EF0FF07151050AD8B4C2
:102740005BD57151060AD8B482D67151070AD8B444
:10275000DED67151080AD8B45BD7000191EC31F094
:1027600000C083F0BDEF01F0FFD7280E0001AC6F71
:102770006E0EAD6F750EAE6F6C0EAF6F6C0EB06FF0
:10278000290EB16FB26BBA6BBB6BB86BB96B000142
:10279000A7C000F0A8C001F0A9C002F0010EA72751
:1027A000000EA823A92300C0F6FF01C0F7FF02C056
:1027B000F8FF0900F5CF00F000C0B5F00052D8B422
:1027C000D4EF24F0B551250A0BE0A5C0E1FFA6C067
:1027D000E2FFB5C0E6FFA54BA62BBA4BBB2BD7D764
:1027E000B66BB76BB86BB96B000123D0B887010E1D
:1027F000A727000EA823A9235AD0B881010EA72726
:10280000000EA823A92353D0B883010EA727000EDA
:10281000A823A9234CD0B987010EA727000EA8230F
:10282000A92345D0B885010EA727000EA823A92308
:102830003ED00001A7C0F6FFA8C0F7FFA9C0F8FF6F
:102840000900F5CFC6F0C6512D0AD0E0A7C0F6FFAB
:10285000A8C0F7FFA9C0F8FF0900F5CFC6F0C65120
:10286000200ACBE0A7C0F6FFA8C0F7FFA9C0F8FF79
:102870000900F5CFC6F0C6512B0AC6E0A7C0F6FF87
:10288000A8C0F7FFA9C0F8FF0900F5CFC6F0C651F0
:10289000230AC1E0A7C0F6FFA8C0F7FFA9C0F8FF50
:1028A0000900F5CFC6F0C651300ABCE001D09CD774
:1028B0000001B8B3B891B8B7B895A7C0F6FFA8C0E3
:1028C000F7FFA9C0F8FF0900F5CF00F0000E016E78
:1028D00000C0CEF01DEC3EF0005238E00001B66BB7
:1028E000B76B0001B6C000F0B7C001F00A0E046E6D
:1028F000000E056E7BEC3CF0A7C0F6FFA8C0F7FF0A
:10290000A9C0F8FF0900F5CFC6F0C6510024B66F84
:10291000000E0120B76F300EB65F000EB75B010EE0
:10292000A727000EA823A923A7C0F6FFA8C0F7FF7A
:10293000A9C0F8FF0900F5CF00F0000E016E00C03D
:10294000CEF01DEC3EF00052CCE136D0A7C0F6FF31
:10295000A8C0F7FFA9C0F8FF0900F5CFC6F0000135
:10296000C6512A0A29E1AAC0E9FFABC0EAFFEECFAF
:1029700000F0EECF01F000C0E9FF01C0EAFFEECFAA
:10298000B6F0EECFB7F0AAC0E9FFABC0EAFFEECFDA
:1029900000F0EECF01F0020E0026000E0122AAC0C8
:1029A000E1FFABC0E2FF00C0E6FF01C0E6FF010EA1
:1029B000A727000EA823A9230001A7C0F6FFA8C0DF
:1029C000F7FFA9C0F8FF0900F5CFC6F0C6512E0ADF
:1029D00073E1010EA727000EA823A923A7C0F6FFC5
:1029E000A8C0F7FFA9C0F8FF0900F5CFC6F0C6518F
:1029F0002A0A2AE1AAC0E9FFABC0EAFFEECF00F045
:102A0000EECF01F000C0E9FF01C0EAFFEECFB3F066
:102A1000EECFB4F0AAC0E9FFABC0EAFFEECF00F002
:102A2000EECF01F0020E0026000E0122AAC0E1FF47
:102A3000ABC0E2FF00C0E6FF01C0E6FF010EA72722
:102A4000000EA823A92336D0B36BB46BA7C0F6FF42
:102A5000A8C0F7FFA9C0F8FF0900F5CF00F0000EED
:102A6000016E00C0CEF01DEC3EF0005223E0B3C07A
:102A700000F0B4C001F00A0E046E000E056E7BEC8F
:102A80003CF0A7C0F6FFA8C0F7FFA9C0F8FF0900F7
:102A9000F5CFC6F0C6510024B36F000E0120B46F0D
:102AA000300EB35F000EB45B010EA727000EA82303
:102AB000A923CCD7000104D00001B36BB46BB98952
:102AC0000001A7C000F0A8C001F0A9C002F0010EEB
:102AD000A727000EA823A92300C0F6FF01C0F7FF17
:102AE00002C0F8FF0900F5CFB5F0EDD0BAC000F094
:102AF000BBC001F01200B889E3D7B9851FD1B88BEC
:102B0000B9811CD1B9831AD1B88D18D117D1B88B1E
:102B1000B88F14D1AAC0E9FFABC0EAFFEECF00F036
:102B2000EECF01F000C0E9FF01C0EAFFEECFC2F036
:102B3000EECFC3F0AAC0E9FFABC0EAFFEECF00F0D2
:102B4000EECF01F0020E0026000E0122AAC0E1FF26
:102B5000ABC0E2FF00C0E6FF01C0E6FF000EC319F4
:102B600002E1000EC21904E1AC0EC26F000EC36F89
:102B70000001C46BC56BC451C225E96EC551C321A8
:102B8000EA6EEECF00F0005203E0C44BC52BF3D742
:102B9000B351B4110AE0C551B45D02E1C451B35D53
:102BA00004E2B3C0C4F0B4C0C5F00001B751C55DC4
:102BB00002E1B651C45D05E2C451B65FC551B75BD1
:102BC00003D00001B66BB76BB8B716D0B6C000F033
:102BD000B7C001F0010EB65F000EB75B00500110E8
:102BE0000BE0A5C0E1FFA6C0E2FF200EE66EA54BFC
:102BF000A62BBA4BBB2BEAD7C4C000F0C5C001F06E
:102C0000010EC45F000EC55B0050011013E0C2C08E
:102C1000E9FFC3C0EAFFEECF00F0A5C0E1FFA6C008
:102C2000E2FF00C0E6FFA54BA62BC24BC32BBA4B5D
:102C3000BB2BE2D7B8A716D0B6C000F0B7C001F0E2
:102C4000010EB65F000EB75B005001100BE0A5C08F
:102C5000E1FFA6C0E2FF200EE66EA54BA62BBA4B05
:102C6000BB2BEAD794D5AAC0E9FFABC0EAFFEECFF1
:102C700000F0EECF01F000C0E9FF01C0EAFFEECFA7
:102C8000B5F0AAC0E9FFABC0EAFFEECF00F0EECF8F
:102C900001F0020E0026000E0122AAC0E1FFABC027
:102CA000E2FF00C0E6FF01C0E6FFB50EC26F000EF6
:102CB000C36F010EC46F000EC56F6AD7C00EB81384
:102CC000000EB9133BD0B551000AD8B40FD7B55197
:102CD0006C0AD8B410D7B551660AD8B40ED7B5511E
:102CE000450AD8B40CD7B551650AD8B409D7B5513F
:102CF000670AD8B407D7B5516F0AD8B405D7B5510C
:102D0000640AD8B403D7B551690AD8B4FFD6B5510F
:102D1000700AD8B4FCD6B551580AD8B4F8D6B55113
:102D2000780AD8B4F5D6B551730AD8B4F3D6B551EC
:102D3000630A99E0B551750AC1E0B7D70001000EEA
:102D4000B815006EB951070B016E00500110D8B4D0
:102D500010EF20F0B9A904D0060EB36F000EB46FC7
:102D6000AAC0E9FFABC0EAFFEECF00F0EECF01F062
:102D700000C0E9FF01C0EAFFEECFBCF0EECFBDF02E
:102D8000EECFBEF0EECFBFF0AAC0E9FFABC0EAFFC6
:102D9000EECF00F0EECF01F0040E0026000E01226F
:102DA000AAC0E1FFABC0E2FF00C0E6FF01C0E6FF42
:102DB000046A056A066A076ABCC000F0BDC001F07B
:102DC000BEC002F0BFC003F02CEC3AF0010ED8B048
:102DD000000E006E005205E0BE7F030EB813000E19
:102DE000B9130001C06BC16BBCC000F0BDC001F0E5
:102DF000BEC002F0BFC003F0046A056A066A076A33
:102E0000A1EC3DF0000ED8A4010E006E0052D8B423
:102E100096D0BFC000F0016A026A036AFF0E001478
:102E2000CA6F000ECB6F000ECB177E0EC66F000E62
:102E3000C76FC86FC96FC651CA5D006EC751CB5905
:102E4000016E00C0C0F001C0C1F0010E005CC06F97
:102E5000000E0158C16FC0C000F0C1C001F0030EE8
:102E6000046E000E056E7BEC3CF000C0C0F001C0AB
:102E7000C1F00A0E046E000E056E94EC3AF000C02C
:102E8000C0F001C0C1F0800E0118C66F800EC65D93
:102E900002E1000E005C04E2010EC05F000EC15BA7
:102EA0000001C0510008CE6FD9EC24F0BCC004F082
:102EB000BDC005F0BEC006F0BFC007F0C7EC37F0DC
:102EC00000C0C2F001C0C3F002C0C4F003C0C5F02E
:102ED000000E046E000E056E000E066E7F0E076E6D
:102EE000C2C000F0C3C001F0C4C002F0C5C003F00E
:102EF0002CEC3AF0010ED8B0000E006E005205E046
:102F0000010EC05F000EC15B1AD0000E046E000EF1
:102F1000056E200E066E820E076EC2C000F0C3C0A2
:102F200001F0C4C002F0C5C003F02CEC3AF0000E72
:102F3000D8B0010E006E005202E0C04BC12B000160
:102F4000800E006E800EC119005C02E1C0510008C5
:102F500003E3010EB56F03D00001C0C0B5F0B9B1F5
:102F60001AD0B9A315D0800EC119006E7F0E005C77
:102F700002E1FC0EC05D0AE3800EC119006E800EF6
:102F8000B419005C02E1B351C05D02E3000103D05B
:102F9000000103EF1CF00001B351B41106E0B9A326
:102FA00004D0010EB35F000EB45B000E006EB4518E
:102FB000005C02E1B351080803E2080EB56F03D0CC
:102FC0000001B3C0B5F0BCC000F0BDC001F0BEC090
:102FD00002F0BFC003F0046A056A066A076AA1EC42
:102FE0003DF0000ED8A4010E006E0052D8B460D19E
:102FF000C0C0CEF0D9EC24F000C004F001C005F050
:1030000002C006F003C007F0BCC000F0BDC001F074
:10301000BEC002F0BFC003F0AEEC34F000C0BCF0A4
:1030200001C0BDF002C0BEF003C0BFF0B551000842
:10303000CE6FD9EC24F000C004F001C005F002C04E
:1030400006F003C007F0BCC000F0BDC001F0BEC078
:1030500002F0BFC003F0AEEC34F000C0C6F001C017
:10306000C7F002C0C8F003C0C9F0C6C0BCF0C7C0FA
:10307000BDF0C8C0BEF0C9C0BFF0C6C000F0C7C038
:1030800001F0C8C002F0C9C003F0F6EC35F0B9ECAD
:103090003DF000C004F001C005F002C006F003C01E
:1030A00007F0C6C000F0C7C001F0C8C002F0C9C038
:1030B00003F074EC3EF0000E046E000E056E000E80
:1030C000066E7E0E076E2CEC3AF0000ED8B0010EA4
:1030D000006E00521AE0BCC000F0BDC001F0BEC0DE
:1030E00002F0BFC003F0000E046E000E056E000E6D
:1030F000066E7E0E076ED8EC27F000C0BCF001C053
:10310000BDF002C0BEF003C0BFF0BCC000F0BDC047
:1031100001F0BEC002F0BFC003F0F6EC35F000C015
:10312000CAF001C0CBF002C0CCF003C0CDF0B55165
:10313000010F006E016A000E0122020E046E000EE5
:1031400001BEFF0E026E036E0450000107E0003660
:103150000090013602360336FF0FF7D700015A0EF2
:1031600000267D0E0122000E022200C0F6FF01C0E3
:10317000F7FF02C0F8FF0900F5CFC6F00900F5CF50
:10318000C7F00900F5CFC8F00900F5CFC9F0C95163
:10319000CD5D08E1C851CC5D05E1C751CB5D02E1D1
:1031A000C651CA5D1DE3BCC000F0BDC001F0BEC089
:1031B00002F0BFC003F0CD0E046ECC0E056E4C0EB7
:1031C000066E7B0E076EC7EC37F000C0BCF001C086
:1031D000BDF002C0BEF003C0BFF0C04BC12B68D031
:1031E0000001BCC000F0BDC001F0BEC002F0BFC015
:1031F00003F0F6EC35F000C0CAF001C0CBF002C01D
:10320000CCF003C0CDF0020E046EB5C000F0000E8D
:10321000016E026E036E0450000107E0003600905C
:10322000013602360336FF0FF7D700015A0E00268B
:103230007D0E0122000E022200C0F6FF01C0F7FF42
:1032400002C0F8FF0900F5CFC6F00900F5CFC7F0BE
:103250000900F5CFC8F00900F5CFC9F0C951CD5D1F
:1032600008E1C851CC5D05E1C751CB5D02E1C65113
:10327000CA5D1EE2BCC000F0BDC001F0BEC002F0DD
:10328000BFC003F0000E046E000E056E200E066E29
:10329000820E076EC7EC37F000C0BCF001C0BDF075
:1032A00002C0BEF003C0BFF0010EC05F000EC15BE4
:1032B0000001B9A395D0B9B793D0800E000A006E73
:1032C000800EB419005C02E1B3510A0804E20A0E50
:1032D000B36F000EB46F0001BCC000F0BDC001F0C0
:1032E000BEC002F0BFC003F0F6EC35F000C0C2F083
:1032F00001C0C3F002C0C4F003C0C5F0C251C31185
:10330000C411C51142E00A0E046E000E056E066E71
:10331000076EC2C000F0C3C001F0C4C002F0C5C057
:1033200003F07DEC2BF008C000F009C001F00AC0EA
:1033300002F00BC003F0000EC66F031808E1C6517F
:10334000021805E1C651011802E10050000A1DE112
:10335000010EB35F000EB45B0A0E046E000E056E24
:10336000066E076EC2C000F0C3C001F0C4C002F018
:10337000C5C003F07DEC2BF000C0C2F001C0C3F06B
:1033800002C0C4F003C0C5F0B9D70001800EB41963
:10339000006E800E005C02E1B551B35D21E2B351D5
:1033A000B55DCE6FD9EC24F000C004F001C005F08B
:1033B00002C006F003C007F0BCC000F0BDC001F0C1
:1033C000BEC002F0BFC003F0AEEC34F000C0BCF0F1
:1033D00001C0BDF002C0BEF003C0BFF0B3C0B5F085
:1033E0000001050EB325006E000EB421016E0050E1
:1033F000B65F0150B75BB351B41102E1B9A704D075
:10340000010EB65F000EB75B030EB815006EB9C0B3
:1034100001F0000E01160050011004E0010EB65F2D
:10342000000EB75BB8A54AD0B8A31AD0010EB815E4
:10343000006EB9C001F0000E01160050011003E04B
:103440002D0E006E02D02B0E006EA5C0E1FFA6C0AF
:10345000E2FF00C0E6FFA54BA62BBA4BBB2B14D056
:10346000010EB815006EB9C001F0000E0116005033
:1034700001100AE0A5C0E1FFA6C0E2FF200EE66E43
:10348000A54BA62BBA4BBB2B800E006E800EB71936
:10349000005C02E1B65100080FE2A5C0E1FFA6C042
:1034A000E2FF300EE66EA54BA62BBA4BBB2B010EEE
:1034B000B65F000EB75BE8D700014BD0B8B718D0A5
:1034C000800E006E800EB719005C02E1B651000854
:1034D0000FE2A5C0E1FFA6C0E2FF200EE66EA54BFD
:1034E000A62BBA4BBB2B010EB65F000EB75BE8D71D
:1034F0000001B8A31AD0010EB815006EB9C001F0D2
:10350000000E01160050011003E02D0E006E02D0D7
:103510002B0E006EA5C0E1FFA6C0E2FF00C0E6FFD3
:10352000A54BA62BBA4BBB2B14D0010EB815006EC1
:10353000B9C001F0000E0116005001100AE0A5C04C
:10354000E1FFA6C0E2FF200EE66EA54BA62BBA4B0C
:10355000BB2B0001BCC000F0BDC001F0BEC002F03A
:10356000BFC003F0F6EC35F000C0C2F001C0C3F0FC
:1035700002C0C4F003C0C5F0020E046EB5C000F076
:10358000000E016E026E036E0450000107E000366B
:103590000090013602360336FF0FF7D700015A0EAE
:1035A00000267D0E0122000E022200C0F6FF01C09F
:1035B000F7FF02C0F8FF0900F5CF04F00900F5CFCE
:1035C00005F00900F5CF06F00900F5CF07F0C2C0FD
:1035D00000F0C3C001F0C4C002F0C5C003F07DEC30
:1035E0002BF0300E0026A5C0E1FFA6C0E2FF00C010
:1035F000E6FFA54BA62BBA4BBB2BB351B41102E18E
:10360000B9A775D0A5C0E1FFA6C0E2FF2E0EE66EF9
:10361000A54BA62BBA4BBB2BB551B35F000EB45BC9
:10362000B55353E0B507020E046EB5C000F0000EAE
:10363000016E026E036E0450000107E00036009038
:10364000013602360336FF0FF7D700015A0E002667
:103650007D0E0122000E022200C0F6FF01C0F7FF1E
:1036600002C0F8FF0900F5CF04F00900F5CF05F01E
:103670000900F5CF06F00900F5CF07F0C2C000F051
:10368000C3C001F0C4C002F0C5C003F07DEC2BF054
:103690000A0E046E000E056E066E076E7DEC2BF0B2
:1036A00008C000F009C001F00AC002F00BC003F02E
:1036B000300E0026A5C0E1FFA6C0E2FF00C0E6FF75
:1036C000A54BA62BBA4BBB2BABD7B351B4110FE014
:1036D000A5C0E1FFA6C0E2FF300EE66EA54BA62B0B
:1036E000BA4BBB2B010EB35F000EB45BEED7B8AB89
:1036F0000BD0A5C0E1FFA6C0E2FF450EE66EA54BCC
:10370000A62BBA4BBB2B0AD0A5C0E1FFA6C0E2FF97
:10371000650EE66EA54BA62BBA4BBB2B800EC119CE
:10372000006E800E005C02E1000EC05D12E2C0512E
:103730000008C06FC1C0C1F0E86AC157A5C0E1FF71
:10374000A6C0E2FF2D0EE66EA54BA62BBA4BBB2BF7
:103750000BD00001A5C0E1FFA6C0E2FF2B0EE66E74
:10376000A54BA62BBA4BBB2B0A0E046E000E056EA2
:10377000C0C000F0C1C001F094EC3AF0300E002659
:10378000A5C0E1FFA6C0E2FF00C0E6FFA54BA62B47
:10379000BA4BBB2B0A0E046E000E056EC0C000F0C3
:1037A000C1C001F094EC3AF008C000F009C001F08B
:1037B000300E0026A5C0E1FFA6C0E2FF00C0E6FF74
:1037C000A54BA62BBA4BBB2BB8A71AD0800E006E08
:1037D000800EB719005C02E1B651000811E2A5C0E5
:1037E000E1FFA6C0E2FF200EE66EA54BA62BBA4B6A
:1037F000BB2B010EB65F000EB75BB651B711EFE100
:103800000001C7EF13F00001B9A3FAD0800EC1196F
:10381000006E800E005C02E1000EC05D0AE2010E47
:10382000C05D006E000EC159016E0050B35F0150C3
:10383000B45B0001BCC000F0BDC001F0BEC002F02E
:10384000BFC003F0F6EC35F000C0C2F001C0C3F019
:1038500002C0C4F003C0C5F0010EB56FB5510A0A2D
:1038600039E0020E046EB5C000F0000E016E026E6B
:10387000036E0450000107E0003600900136023666
:103880000336FF0FF7D700015A0E00267D0E0122E6
:10389000000E022200C0F6FF01C0F7FF02C0F8FFD1
:1038A0000900F5CFC6F00900F5CFC7F00900F5CF44
:1038B000C8F00900F5CFC9F0C951C55D08E1C8518C
:1038C000C45D05E1C751C35D02E1C651C25D02E3BB
:1038D000B52BC4D70001B551B35DCA6F000EB45902
:1038E000CB6FCAC0B3F0CBC0B4F0C2C000F0C3C04D
:1038F00001F0C4C002F0C5C003F0B9EC3DF000C057
:1039000004F001C005F002C006F003C007F0BCC01F
:1039100000F0BDC001F0BEC002F0BFC003F074EC07
:103920003EF000C0C6F001C0C7F002C0C8F003C03E
:10393000C9F0CAC0CEF0D9EC24F0C6C004F0C7C0AC
:1039400005F0C8C006F0C9C007F0C7EC37F0000E9C
:10395000046E000E056E000E066E7E0E076ED8EC2D
:1039600027F0F6EC35F000C0C2F001C0C3F002C091
:10397000C4F003C0C5F0B351B41142E00A0E046EA6
:10398000000E056E066E076EC2C000F0C3C001F0E7
:10399000C4C002F0C5C003F07DEC2BF008C000F0FD
:1039A00009C001F00AC002F00BC003F0000EC66FA0
:1039B000031808E1C651021805E1C651011802E1D9
:1039C0000050000A1DE10A0E046E000E056E066E20
:1039D000076EC2C000F0C3C001F0C4C002F0C5C091
:1039E00003F07DEC2BF000C0C2F001C0C3F002C0B8
:1039F000C4F003C0C5F0010EB35F000EB45BBBD7CB
:103A00000001800E006E800EB419005C02E1B3511B
:103A10000C0816E3B3C0CEF0ECEC29F0BCC004F007
:103A2000BDC005F0BEC006F0BFC007F0D8EC27F05F
:103A300000C0BCF001C0BDF002C0BEF003C0BFF0CA
:103A40000001BCC000F0BDC001F0BEC002F0BFC0AC
:103A500003F0046A056A066A076AA1EC3DF0000EED
:103A6000D8A4010E006E0052D8B475D0BCC000F0CE
:103A7000BDC001F0BEC002F0BFC003F0F6EC35F0EF
:103A8000000EC66F031808E1C651021805E1C651C1
:103A9000011802E10050000A5EE1800E006E800E07
:103AA000C119005C02E1C051010855E2C0C0CEF06E
:103AB000D9EC24F000C004F001C005F002C006F00B
:103AC00003C007F0BCC000F0BDC001F0BEC002F0F2
:103AD000BFC003F0AEEC34F05F0E046E700E056EE6
:103AE000090E066E810E076E2CEC3AF0010ED8B06E
:103AF000000E006E005205E0090EC05F000EC15BB3
:103B000005D00001080EC05F000EC15BC0C0CEF042
:103B1000D9EC24F000C004F001C005F002C006F0AA
:103B200003C007F0BCC000F0BDC001F0BEC002F091
:103B3000BFC003F0AEEC34F0F6EC35F000C0C2F0DC
:103B400001C0C3F002C0C4F003C0C5F0BC6BBD6BC4
:103B5000BE6BBF6B39D00001BCC000F0BDC001F02E
:103B6000BEC002F0BFC003F0F6EC35F000C0C2F0FA
:103B700001C0C3F002C0C4F003C0C5F0C2C000F071
:103B8000C3C001F0C4C002F0C5C003F0B9EC3DF001
:103B900000C004F001C005F002C006F003C007F049
:103BA000BCC000F0BDC001F0BEC002F0BFC003F059
:103BB00074EC3EF000C0BCF001C0BDF002C0BEF02D
:103BC00003C0BFF0C06BC16B010EB56FB5510A0ADF
:103BD00039E0020E046EB5C000F0000E016E026EF8
:103BE000036E0450000107E00036009001360236F3
:103BF0000336FF0FF7D700015A0E00267D0E012273
:103C0000000E022200C0F6FF01C0F7FF02C0F8FF5D
:103C10000900F5CFC6F00900F5CFC7F00900F5CFD0
:103C2000C8F00900F5CFC9F0C951C55D08E1C85118
:103C3000C45D05E1C751C35D02E1C651C25D02E347
:103C4000B52BC4D70001B551B325006E000EB421C9
:103C5000016EC0510026C15101220050B65F0150D3
:103C6000B75BB9B703D0B351B41104E0010EB65F2E
:103C7000000EB75B030EB815006EB9C001F0000E60
:103C800001160050011004E0010EB65F000EB75B94
:103C9000B8A54AD0B8A31AD0010EB815006EB9C0A5
:103CA00001F0000E01160050011003E02D0E006E11
:103CB00002D02B0E006EA5C0E1FFA6C0E2FF00C03F
:103CC000E6FFA54BA62BBA4BBB2B14D0010EB815A3
:103CD000006EB9C001F0000E0116005001100AE09C
:103CE000A5C0E1FFA6C0E2FF200EE66EA54BA62B05
:103CF000BA4BBB2B800E006E800EB719005C02E140
:103D0000B65100080FE2A5C0E1FFA6C0E2FF300EE9
:103D1000E66EA54BA62BBA4BBB2B010EB65F000E71
:103D2000B75BE8D700014BD0B8B718D0800E006E53
:103D3000800EB719005C02E1B65100080FE2A5C081
:103D4000E1FFA6C0E2FF200EE66EA54BA62BBA4B04
:103D5000BB2B010EB65F000EB75BE8D70001B8A31E
:103D60001AD0010EB815006EB9C001F0000E011690
:103D70000050011003E02D0E006E02D02B0E006EDD
:103D8000A5C0E1FFA6C0E2FF00C0E6FFA54BA62B41
:103D9000BA4BBB2B14D0010EB815006EB9C001F0A0
:103DA000000E0116005001100AE0A5C0E1FFA6C0F8
:103DB000E2FF200EE66EA54BA62BBA4BBB2B0001F3
:103DC000B5C000F0B507005252E0020E046EB5C057
:103DD00000F0000E016E026E036E0450000107E059
:103DE00000360090013602360336FF0FF7D7000188
:103DF0005A0E00267D0E0122000E022200C0F6FFA0
:103E000001C0F7FF02C0F8FF0900F5CF04F0090078
:103E1000F5CF05F00900F5CF06F00900F5CF07F062
:103E2000C2C000F0C3C001F0C4C002F0C5C003F0BE
:103E30007DEC2BF00A0E046E000E056E066E076E0A
:103E40007DEC2BF008C000F009C001F00AC002F0C0
:103E50000BC003F0300E0026A5C0E1FFA6C0E2FFB4
:103E600000C0E6FFA54BA62BBA4BBB2BA8D7800EF4
:103E7000006E800EC119005C02E1C05100080FE223
:103E8000A5C0E1FFA6C0E2FF300EE66EA54BA62B53
:103E9000BA4BBB2B010EC05F000EC15BE8D700011F
:103EA000800E000A006E800EB419005C02E1B3516E
:103EB000080803E2080EB56F03D00001B3C0B5F0E7
:103EC000B551B35F000EB45BB55302E1B9A70AD098
:103ED000A5C0E1FFA6C0E2FF2E0EE66EA54BA62B05
:103EE000BA4BBB2BB5C0CEF0D9EC24F0BCC004F06B
:103EF000BDC005F0BEC006F0BFC007F0C7EC37F08C
:103F00002DEC37F000C0C2F001C0C3F002C0C4F015
:103F100003C0C5F0B55353E0B507020E046EB5C03B
:103F200000F0000E016E026E036E0450000107E007
:103F300000360090013602360336FF0FF7D7000136
:103F40005A0E00267D0E0122000E022200C0F6FF4E
:103F500001C0F7FF02C0F8FF0900F5CF04F0090027
:103F6000F5CF05F00900F5CF06F00900F5CF07F011
:103F7000C2C000F0C3C001F0C4C002F0C5C003F06D
:103F80007DEC2BF00A0E046E000E056E066E076EB9
:103F90007DEC2BF008C000F009C001F00AC002F06F
:103FA0000BC003F0300E0026A5C0E1FFA6C0E2FF63
:103FB00000C0E6FFA54BA62BBA4BBB2BABD7B3512A
:103FC000B4110FE0A5C0E1FFA6C0E2FF300EE66E1F
:103FD000A54BA62BBA4BBB2B010EB35F000EB45BF7
:103FE000EED7B8A71AD0800E006E800EB719005C0D
:103FF00002E1B651000811E2A5C0E1FFA6C0E2FF50
:10400000200EE66EA54BA62BBA4BBB2B010EB65F5E
:10401000000EB75BB651B711EFE10001C7EF13F027
:10402000C00EB815C66FB9C0C7F0000EC717000E96
:10403000C71902E1000EC619D8A482D0B8A929D0A8
:10404000AAC0E9FFABC0EAFFEECF00F0EECF01F06F
:1040500000C0E9FF01C0EAFFEECFC2F0EECFC3F02F
:10406000EECFC4F0EECFC5F0AAC0E9FFABC0EAFFC7
:10407000EECF00F0EECF01F0040E0026000E01227C
:10408000AAC0E1FFABC0E2FF00C0E6FF01C0E6FF4F
:104090002ED0AAC0E9FFABC0EAFFEECF00F0EECF12
:1040A00001F000C0E9FF01C0EAFFEECFC2F0EECFA1
:1040B000C3F0000EC3BFFF0EC46FC56F000EC3BFB9
:1040C000FF0EC46FC56FAAC0E9FFABC0EAFFEECF19
:1040D00000F0EECF01F0020E0026000E0122AAC071
:1040E000E1FFABC0E2FF00C0E6FF01C0E6FF800ECB
:1040F000C519006E800E005C08E1000EC45D05E18C
:10410000000EC35D02E1000EC25D18E2030EB8139B
:10411000000EB913006A016A026A036AC251005EA6
:10412000C351015AC451025AC551035A00C0C2F0CA
:1041300001C0C3F002C0C4F003C0C5F0000156D0F6
:104140000001B8A929D0AAC0E9FFABC0EAFFEECFB1
:1041500000F0EECF01F000C0E9FF01C0EAFFEECFB2
:10416000C2F0EECFC3F0EECFC4F0EECFC5F0AAC0E0
:10417000E9FFABC0EAFFEECF00F0EECF01F0040E96
:104180000026000E0122AAC0E1FFABC0E2FF00C082
:10419000E6FF01C0E6FF2AD0AAC0E9FFABC0EAFFF4
:1041A000EECF00F0EECF01F000C0E9FF01C0EAFF62
:1041B000EECFC2F0EECFC3F0000EC46FC56F000E9D
:1041C000C46FC56FAAC0E9FFABC0EAFFEECF00F035
:1041D000EECF01F0020E0026000E0122AAC0E1FF80
:1041E000ABC0E2FF00C0E6FF01C0E6FF0001000E29
:1041F000B41902E1000EB3190FE1000E006EC519EB
:1042000008E10050C41905E10050C31902E1C25190
:10421000000A02E1B34BB42B0001C00EB815006ECA
:1042200000C0CAF0C0D0010EB56FB5510A0A39E01E
:10423000020E046EB5C000F0000E016E026E036E39
:104240000450000107E000360090013602360336C4
:10425000FF0FF7D700015A0E00267D0E0122000E37
:10426000022200C0F6FF01C0F7FF02C0F8FF0900FC
:10427000F5CFC6F00900F5CFC7F00900F5CFC8F0BB
:104280000900F5CFC9F0C951C55D08E1C851C45D49
:1042900005E1C751C35D02E1C651C25D02E3B52B22
:1042A000C4D700018FD0010EB56FB551080A39E0AF
:1042B000020E046EB5C000F0000E016E026E036EB9
:1042C0000450000107E00036009001360236033644
:1042D000FF0FF7D70001820E00267D0E0122000E8F
:1042E000022200C0F6FF01C0F7FF02C0F8FF09007C
:1042F000F5CFC6F00900F5CFC7F00900F5CFC8F03B
:104300000900F5CFC9F0C951C55D08E1C851C45DC8
:1043100005E1C751C35D02E1C651C25D02E3B52BA1
:10432000C4D700014FD0010EB56FB5510C0A39E06A
:10433000020E046EB5C000F0000E016E026E036E38
:104340000450000107E000360090013602360336C3
:10435000FF0FF7D70001A20E00267D0E0122000EEE
:10436000022200C0F6FF01C0F7FF02C0F8FF0900FB
:10437000F5CFC6F00900F5CFC7F00900F5CFC8F0BA
:104380000900F5CFC9F0C951C55D08E1C851C45D48
:1043900005E1C751C35D02E1C651C25D02E3B52B21
:1043A000C4D700010FD0CA51000AD8B43CD7CA51B3
:1043B000C00AD8B438D7CA51800AD8B474D7CA5101
:1043C000400AB1E00001800E006E800EB419005C5E
:1043D00002E1B351B55D03E2B3C0B5F00ED0000108
:1043E000800EB419006E800E005C02E1B551B35D21
:1043F00004E2B5C0B3F0000EB46F0001B651B711BE
:104400000EE0030EB815006EB9C001F0000E0116E3
:104410000050011004E0010EB65F000EB75B800E85
:10442000B419006E800EB719005C02E1B651B35D9D
:1044300005E2B351B65FB451B75B03D00001B66B70
:10444000B76BC40EB815C66FB951080BC76FC7510B
:10445000080A02E1400EC61908E1B651B71104E09E
:10446000010EB65F000EB75B1ED00001C00EB8157E
:10447000C66FB951080BC76FC751080A02E1800E19
:10448000C61911E1800E006E800EB719005C02E1C2
:10449000B651020805E2020EB65F000EB75B03D00C
:1044A0000001B66BB76B0001B8A56ED0B8A31AD0E7
:1044B000010EB815006EB9C001F0000E01160050D3
:1044C000011003E02D0E006E02D02B0E006EA5C071
:1044D000E1FFA6C0E2FF00C0E6FFA54BA62BBA4B4A
:1044E000BB2B3CD0010EB815006EB9C001F0000E18
:1044F0000116005001100BE0A5C0E1FFA6C0E2FFCD
:10450000200EE66EA54BA62BBA4BBB2B27D0C00EB8
:10451000B815C66FB951080BC76FC751080A02E139
:10452000800EC6191BE1A5C0E1FFA6C0E2FF300E58
:10453000E66EA54BA62BBA4BBB2BB8AB03D0580EDF
:10454000006E02D0780E006EA5C0E1FFA6C0E2FFAB
:1045500000C0E6FFA54BA62BBA4BBB2B0001B65102
:10456000B71111E0A5C0E1FFA6C0E2FF300EE66E74
:10457000A54BA62BBA4BBB2B010EB65F000EB75B4B
:10458000B651B711EFE185D0B651B71113E0B8B706
:1045900011D0A5C0E1FFA6C0E2FF200EE66EA54B3C
:1045A000A62BBA4BBB2B010EB65F000EB75BB65104
:1045B000B711EFE1B8A31AD0010EB815006EB9C05B
:1045C00001F0000E01160050011003E02D0E006EE8
:1045D00002D02B0E006EA5C0E1FFA6C0E2FF00C016
:1045E000E6FFA54BA62BBA4BBB2B14D0010EB8157A
:1045F000006EB9C001F0000E0116005001100AE073
:10460000A5C0E1FFA6C0E2FF200EE66EA54BA62BDB
:10461000BA4BBB2BC00EB815C66FB951080BC76F8C
:10462000C751080A02E1400EC6190BE1A5C0E1FF1F
:10463000A6C0E2FF300EE66EA54BA62BBA4BBB2BF5
:1046400028D00001C00EB815C66FB951080BC76F4E
:10465000C751080A02E1800EC6191BE1A5C0E1FF9F
:10466000A6C0E2FF300EE66EA54BA62BBA4BBB2BC5
:10467000B8AB03D0580E006E02D0780E006EA5C005
:10468000E1FFA6C0E2FF00C0E6FFA54BA62BBA4B98
:10469000BB2B0001800E006E800EB419005C02E19D
:1046A000B351B55D0BE2A5C0E1FFA6C0E2FF300E3D
:1046B000E66EA54BA62BBA4BBB2BEBD70001B3C0C4
:1046C00000F0B4C001F0010EB35F000EB45B005007
:1046D0000110D8B44AD1C00EB815006E00C0C6F0A3
:1046E00029D1020E046EB3C000F0B4C001F0000E78
:1046F000B4BFFF0E026E036E0450000107E00036E7
:104700000090013602360336FF0FF7D700015A0E2C
:1047100000267D0E0122000E022200C0F6FF01C01D
:10472000F7FF02C0F8FF0900F5CF04F00900F5CF4C
:1047300005F00900F5CF06F00900F5CF07F0C2C07B
:1047400000F0C3C001F0C4C002F0C5C003F07DECAE
:104750002BF00A0E046E000E056E066E076E7DECE1
:104760002BF008C000F009C001F00AC002F00BC035
:1047700003F0300E0024B56FECD0B8AB4ED0020E73
:10478000046EB3C000F0B4C001F0000EB4BFFF0E61
:10479000026E036E0450000107E0003600900136FF
:1047A00002360336FF0FF7D70001820E00267D0E7A
:1047B0000122000E022200C0F6FF01C0F7FF02C076
:1047C000F8FF0900F5CF04F00900F5CF05F0090066
:1047D000F5CF06F00900F5CF07F0C2C000F0C3C066
:1047E00001F0C4C002F0C5C003F07DEC2BF00F0E49
:1047F0000016000E011602160316D20E00267D0EBC
:104800000122000E022200C0F6FF01C0F7FF02C025
:10481000F8FF0900F5CFB5F04DD0020E046EB3C01D
:1048200000F0B4C001F0000EB4BFFF0E026E036EC4
:104830000450000107E000360090013602360336CE
:10484000FF0FF7D70001820E00267D0E0122000E19
:10485000022200C0F6FF01C0F7FF02C0F8FF090006
:10486000F5CF04F00900F5CF05F00900F5CF06F00B
:104870000900F5CF07F0C2C000F0C3C001F0C4C00A
:1048800002F0C5C003F07DEC2BF00F0E0016000EF9
:10489000011602160316E40E00267D0E0122000EFC
:1048A000022200C0F6FF01C0F7FF02C0F8FF0900B6
:1048B000F5CFB5F000014DD0020E046EB3C000F08C
:1048C000B4C001F0000EB4BFFF0E026E036E0450C0
:1048D000000107E000360090013602360336FF0F74
:1048E000F7D70001A20E00267D0E0122000E022243
:1048F00000C0F6FF01C0F7FF02C0F8FF0900F5CFC6
:1049000004F00900F5CF05F00900F5CF06F0090025
:10491000F5CF07F0C2C000F0C3C001F0C4C002F080
:10492000C5C003F07DEC2BF0070E0014B56F300E00
:10493000B5270FD0C651000AD8B4D3D6C651C00A85
:10494000D8B4CFD6C651800AD8B417D7C651400ABA
:10495000B3E00001A5C0E1FFA6C0E2FFB5C0E6FFDD
:10496000A54BA62BBA4BBB2BA9D6B8A71AD0800E45
:10497000006E800EB719005C02E1B651000811E22A
:10498000A5C0E1FFA6C0E2FF200EE66EA54BA62B58
:10499000BA4BBB2B010EB65F000EB75BB651B71119
:1049A000EFE10001C7EF13F0BAC000F0BBC001F0A7
:1049B0001200800E0001CE19006E800E000A005C0D
:1049C000D8B07ED1CE510008046E04C0CEF0800E67
:1049D0000418006E800E6E0A005CD8A0C6D0640E6B
:1049E000046ECEC000F05BEC3BF0120E0026000E11
:1049F00000BEFF0E016E000E0122020E046E000EBC
:104A000001BEFF0E026E036E0450000107E0003687
:104A10000090013602360336FF0FF7D70001F20E81
:104A200000267C0E0122000E022200C0F6FF01C00B
:104A3000F7FF02C0F8FF0900F5CFCFF00900F5CF6E
:104A4000D0F00900F5CFD1F00900F5CFD2F0640E17
:104A5000046ECEC000F05BEC3BF008C000F00A0E24
:104A6000046E5BEC3BF0090E0026000E00BEFF0E4C
:104A7000016E000E0122020E046E000E01BEFF0E3A
:104A8000026E036E0450000107E00036009001360C
:104A900002360336FF0FF7D70001F20E00267C0E18
:104AA0000122000E022200C0F6FF01C0F7FF02C083
:104AB000F8FF0900F5CF00F00900F5CF01F009007B
:104AC000F5CF02F00900F5CF03F0CFC004F0D0C05D
:104AD00005F0D1C006F0D2C007F0C7EC37F000C037
:104AE000CFF001C0D0F002C0D1F003C0D2F00A0E66
:104AF000046ECEC000F05BEC3BF008C000F0020E8C
:104B0000046E000E00BEFF0E016E026E036E0450B6
:104B1000000107E000360090013602360336FF0F31
:104B2000F7D70001F20E00267C0E0122000E0222B1
:104B300000C0F6FF01C0F7FF02C0F8FF0900F5CF83
:104B400000F00900F5CF01F00900F5CF02F00900EF
:104B5000F5CF03F0CFC004F0D0C005F0D1C006F00F
:104B6000D2C007F0C7EC37F01200800E0A0A006EC0
:104B7000800ECE19005C76E20A0E046ECEC000F004
:104B80005BEC3BF0090E0026000E00BEFF0E016E2E
:104B9000000E0122020E046E000E01BEFF0E026E18
:104BA000036E0450000107E0003600900136023623
:104BB0000336FF0FF7D70001F20E00267C0E01220C
:104BC000000E022200C0F6FF01C0F7FF02C0F8FF8E
:104BD0000900F5CFCFF00900F5CFD0F00900F5CFEF
:104BE000D1F00900F5CFD2F00A0E046ECEC000F06D
:104BF0005BEC3BF008C000F0020E046E000E00BE3D
:104C0000FF0E016E026E036E0450000107E00036D5
:104C10000090013602360336FF0FF7D70001F20E7F
:104C200000267C0E0122000E022200C0F6FF01C009
:104C3000F7FF02C0F8FF0900F5CF00F00900F5CF3B
:104C400001F00900F5CF02F00900F5CF03F0CFC065
:104C500004F0D0C005F0D1C006F0D2C007F0C7EC18
:104C600037F01200020E046ECEC000F0000ECEBF70
:104C7000FF0E016E026E036E0450000107E0003665
:104C80000090013602360336FF0FF7D70001F20E0F
:104C900000267C0E0122000E022200C0F6FF01C099
:104CA000F7FF02C0F8FF0900F5CF00F00900F5CFCB
:104CB00001F00900F5CF02F00900F5CF03F0120072
:104CC000800ECE19006E800E6E0A005CD8A0C6D091
:104CD000640E046ECEC000F05BEC3BF0120E0026BA
:104CE000000E00BEFF0E016E000E0122020E046EC9
:104CF000000E01BEFF0E026E036E0450000107E0BD
:104D000000360090013602360336FF0FF7D7000158
:104D1000260E00267D0E0122000E022200C0F6FFA4
:104D200001C0F7FF02C0F8FF0900F5CFCFF009007E
:104D3000F5CFD0F00900F5CFD1F00900F5CFD2F0D2
:104D4000640E046ECEC000F05BEC3BF008C000F0D7
:104D50000A0E046E5BEC3BF0090E0026000E00BE4E
:104D6000FF0E016E000E0122020E046E000E01BE47
:104D7000FF0E026E036E0450000107E00036009043
:104D8000013602360336FF0FF7D70001260E002644
:104D90007D0E0122000E022200C0F6FF01C0F7FFC7
:104DA00002C0F8FF0900F5CF00F00900F5CF01F0CF
:104DB0000900F5CF02F00900F5CF03F0CFC004F0F1
:104DC000D0C005F0D1C006F0D2C007F0C7EC37F074
:104DD00000C0CFF001C0D0F002C0D1F003C0D2F0CB
:104DE0000A0E046ECEC000F05BEC3BF008C000F091
:104DF000020E046E000E00BEFF0E016E026E036E08
:104E00000450000107E000360090013602360336F8
:104E1000FF0FF7D70001260E00267D0E0122000E9F
:104E2000022200C0F6FF01C0F7FF02C0F8FF090030
:104E3000F5CF00F00900F5CF01F00900F5CF02F041
:104E40000900F5CF03F0CFC004F0D0C005F0D1C009
:104E500006F0D2C007F0C7EC37F01200800E0A0A45
:104E6000006E800ECE19005C76E20A0E046ECEC093
:104E700000F05BEC3BF0090E0026000E00BEFF0EBA
:104E8000016E000E0122020E046E000E01BEFF0E26
:104E9000026E036E0450000107E0003600900136F8
:104EA00002360336FF0FF7D70001260E00267D0ECF
:104EB0000122000E022200C0F6FF01C0F7FF02C06F
:104EC000F8FF0900F5CFCFF00900F5CFD0F00900C9
:104ED000F5CFD1F00900F5CFD2F00A0E046ECEC0A6
:104EE00000F05BEC3BF008C000F0020E046E000E18
:104EF00000BEFF0E016E026E036E0450000107E05B
:104F000000360090013602360336FF0FF7D7000156
:104F1000260E00267D0E0122000E022200C0F6FFA2
:104F200001C0F7FF02C0F8FF0900F5CF00F009004B
:104F3000F5CF01F00900F5CF02F00900F5CF03F03D
:104F4000CFC004F0D0C005F0D1C006F0D2C007F049
:104F5000C7EC37F01200020E046ECEC000F0000E57
:104F6000CEBFFF0E016E026E036E0450000107E01B
:104F700000360090013602360336FF0FF7D7260EB3
:104F800000267D0E0122000E022200C0F6FF01C0A5
:104F9000F7FF02C0F8FF0900F5CF00F00900F5CFD8
:104FA00001F00900F5CF02F00900F5CF03F012007F
:104FB0000001025006180E6E086A096A0B6A035057
:104FC0000764CCEF28F006500A6E068E028E03505E
:104FD0000B6E0750036E000E0B641CEF28F00B5095
:104FE000075ED8B4BDEF28F0070E07648BEF28F0FA
:104FF000075E00C008F001C000F002C001F0026AC4
:10500000074EBDEF28F0076460EF28F0075E00C090
:1050100008F001C000F0016A074EBDEF28F00764F8
:105020003EEF28F0075E00C008F0006A074EBDEFB3
:1050300028F0076425EF28F00AC002F005C001F04F
:1050400004C000F0086AE9EF29F0030E076430EFAE
:1050500028F0075E08380F0B086E074EBDEF28F0EA
:10506000D8900832074EBDEF28F0D8900832074E8E
:10507000BDEF28F0D8900832BDEF28F0030E07648A
:105080004FEF28F0075E08380F0B086E0038F00B62
:10509000082600380F0B006E074EBDEF28F0D890A1
:1050A00000320832074EBDEF28F0D89000320832A7
:1050B000074EBDEF28F0D89000320832BDEF28F03F
:1050C000030E076477EF28F0075E08380F0B086EB1
:1050D0000038F00B082600380F0B006E0138F00B7B
:1050E000002601380F0B016E074EBDEF28F0D89057
:1050F000013200320832074EBDEF28F0D89001325D
:1051000000320832074EBDEF28F0D890013200324D
:105110000832BDEF28F0030E0764A8EF28F0075E01
:1051200008380F0B086E0038F00B082600380F0BFC
:10513000006E0138F00B002601380F0B016E0238AB
:10514000F00B012602380F0B026E074EBDEF28F060
:10515000D8900232013200320832074EBDEF28F0FB
:10516000D8900232013200320832074EBDEF28F0EB
:10517000D8900232013200320832096A000E0EAEB7
:10518000B1EF29F0081E001E011E021E082A00228F
:1051900001220222B1EF29F00750D8A4D2EF28F063
:1051A000E9EF29F0096A02C00AF0028E068E075064
:1051B000035C076ED8B4A4EF29F0070E076472EF02
:1051C00029F0075E0450096E0550046E0650056E06
:1051D000066A074EA4EF29F0070E076447EF29F08F
:1051E000075E0450096E0550046E056A074EA4EF71
:1051F00029F0070E076425EF29F0075E0450096EB9
:10520000046A074EA4EF29F0070E07640CEF29F09B
:105210000AC002F0E9EF29F0030E076417EF29F046
:10522000075E09380F0B096E074EA4EF29F0D890DE
:105230000932074EA4EF29F0D8900932074EA4EFA7
:1052400029F0D8900932A4EF29F0030E076436EF55
:1052500029F0075E09380F0B096E0438F00B092698
:1052600004380F0B046E074EA4EF29F0D8900432D7
:105270000932074EA4EF29F0D89004320932074EC4
:10528000A4EF29F0D89004320932A4EF29F0030EDC
:1052900007645EEF29F0075E09380F0B096E0438CA
:1052A000F00B092604380F0B046E0538F00B0426AA
:1052B00005380F0B056E074EA4EF29F0D890053284
:1052C00004320932074EA4EF29F0D8900532043297
:1052D0000932074EA4EF29F0D89005320432093282
:1052E000A4EF29F0030E07648FEF29F0075E093859
:1052F0000F0B096E0438F00B092604380F0B046EEF
:105300000538F00B042605380F0B056E0638F00B38
:10531000052606380F0B066E074EA4EF29F0D8902D
:105320000632053204320932074EA4EF29F0D89034
:105330000632053204320932074EA4EF29F0D89024
:105340000632053204320932086A000E0EAEB1EFA1
:1053500029F0091E041E051E061E092A0422052224
:10536000062209500826045000220550012206504A
:1053700002220EBEC8EF29F0D8A0D7EF29F00232E2
:10538000013200320832033ED7EF29F0E3EF29F073
:10539000D8B0DDEF29F0000E081E001E011E021E0F
:1053A000082A0022012202220A7EDDEF29F0010EE6
:1053B0000C6E9BEC30F0EBEF29F0020E0C6E9BECC8
:1053C00030F0EBEF29F0040E0C6E2AEC3EF0EBEF20
:1053D00029F0000E0C6E12006E0E0001CE5DD8A0FA
:1053E000D0D0640E046ECEC000F0CDEC3DF0120EB5
:1053F0000026016A000E0122020E046E000E01BE9C
:10540000FF0E026E036E0450000107E000360090AC
:10541000013602360336FF0FF7D70001F20E0026E1
:105420007C0E0122000E022200C0F6FF01C0F7FF31
:1054300002C0F8FF0900F5CF00F00900F5CF01F038
:105440000900F5CF02F00900F5CF03F0000E046E5D
:10545000000E056E000E066E7E0E076EC7EC37F06E
:1054600000C0CFF001C0D0F002C0D1F003C0D2F034
:10547000640E046ECEC000F0CDEC3DF008C000F02C
:105480000A0E046ECDEC3DF0090E0026016A000EF6
:105490000122020E046E000E01BEFF0E026E036EAC
:1054A0000450000107E00036009001360236033652
:1054B000FF0FF7D70001F20E00267C0E0122000E2E
:1054C000022200C0F6FF01C0F7FF02C0F8FF09008A
:1054D000F5CF00F00900F5CF01F00900F5CF02F09B
:1054E0000900F5CF03F0CFC004F0D0C005F0D1C063
:1054F00006F0D2C007F0C7EC37F000C0CFF001C013
:10550000D0F002C0D1F003C0D2F00A0E046ECEC0BB
:1055100000F0CDEC3DF008C000F0020E046E000E6D
:10552000016E026E036E0450000107E00036009029
:10553000013602360336FF0FF7D70001F20E0026C0
:105540007C0E0122000E022200C0F6FF01C0F7FF10
:1055500002C0F8FF0900F5CF00F00900F5CF01F017
:105560000900F5CF02F00900F5CF03F0CFC004F039
:10557000D0C005F0D1C006F0D2C007F0C7EC37F0BC
:105580001200CE510A08D8B083D00A0E046ECEC0E5
:1055900000F0CDEC3DF0090E0026016A000E01225C
:1055A000020E046E000E01BEFF0E026E036E04506A
:1055B000000107E000360090013602360336FF0F87
:1055C000F7D70001F20E00267C0E0122000E022207
:1055D00000C0F6FF01C0F7FF02C0F8FF0900F5CFD9
:1055E00000F00900F5CF01F00900F5CF02F0090045
:1055F000F5CF03F0000E046E000E056E000E066E71
:105600007E0E076EC7EC37F000C0CFF001C0D0F0BF
:1056100002C0D1F003C0D2F00A0E046ECEC000F07A
:10562000CDEC3DF008C000F0020E046E000E016EDD
:10563000026E036E0450000107E000360090013650
:1056400002360336FF0FF7D70001F20E00267C0E5C
:105650000122000E022200C0F6FF01C0F7FF02C0C7
:10566000F8FF0900F5CF00F00900F5CF01F00900BF
:10567000F5CF02F00900F5CF03F0CFC004F0D0C0A1
:1056800005F0D1C006F0D2C007F0C7EC37F0120029
:10569000020E046ECEC000F0000E016E026E036EAC
:1056A0000450000107E00036009001360236033650
:1056B000FF0FF7D7F20E00267C0E0122000E022209
:1056C00000C0F6FF01C0F7FF02C0F8FF0900F5CFE8
:1056D00000F00900F5CF01F00900F5CF02F0090054
:1056E000F5CF03F0000E046E000E056E000E066E80
:1056F0007E0E076EC7EC37F0120000010B6A0A6AD3
:10570000096A086A0E6A033408360450085E0550B8
:10571000D8A0053C095E0650D8A0063C0A5E07509A
:10572000D8A0073C0B5EE86AD8A0010E0E5E0336D7
:10573000070E0C6E0334083609360A360B360E3661
:10574000045003A0B7EF2BF0085E0550D8A0053C2D
:10575000095E0650D8A0063C0A5E0750D8A0073C58
:105760000B5EE86AD8A0010E0E5EC8EF2BF008268B
:105770000550D8B0053C09260650D8B0063C0A268C
:105780000750D8B0073C0B26E86AD8B0010E0E26A9
:1057900003360C2E9AEF2BF00234083609360A36FF
:1057A0000B360E36045003A0E9EF2BF0085E0550CF
:1057B000D8A0053C095E0650D8A0063C0A5E0750FA
:1057C000D8A0073C0B5EE86AD8A0010E0E5EFAEF87
:1057D0002BF008260550D8B0053C09260650D8B055
:1057E000063C0A260750D8B0073C0B26E86AD8B01A
:1057F000010E0E260236070E0C6E023408360936EC
:105800000A360B360E36045002A01AEF2CF0085E52
:105810000550D8A0053C095E0650D8A0063C0A5E9B
:105820000750D8A0073C0B5EE86AD8A0010E0E5EB8
:105830002BEF2CF008260550D8B0053C0926065061
:10584000D8B0063C0A260750D8B0073C0B26E86AB9
:10585000D8B0010E0E2602360C2EFDEF2BF00134CF
:10586000083609360A360B360E36045002A04CEFC5
:105870002CF0085E0550D8A0053C095E0650D8A063
:10588000063C0A5E0750D8A0073C0B5EE86AD8A029
:10589000010E0E5E5DEF2CF008260550D8B0053CD9
:1058A00009260650D8B0063C0A260750D8B0073C57
:1058B0000B26E86AD8B0010E0E260136070E0C6ED4
:1058C0000134083609360A360B360E36045001A06C
:1058D0007DEF2CF0085E0550D8A0053C095E06500F
:1058E000D8A0063C0A5E0750D8A0073C0B5EE86AC9
:1058F000D8A0010E0E5E8EEF2CF008260550D8B011
:10590000053C09260650D8B0063C0A260750D8B0F8
:10591000073C0B26E86AD8B0010E0E2601360C2E85
:1059200060EF2CF00034083609360A360B360E3696
:10593000045001A0AFEF2CF0085E0550D8A0053C44
:10594000095E0650D8A0063C0A5E0750D8A0073C66
:105950000B5EE86AD8A0010E0E5EC0EF2CF00826A0
:105960000550D8B0053C09260650D8B0063C0A269A
:105970000750D8B0073C0B26E86AD8B0010E0E26B7
:105980000036070E0C6E0034083609360A360B3620
:105990000E36045000A0E0EF2CF0085E0550D8A0B1
:1059A000053C095E0650D8A0063C0A5E0750D8A008
:1059B000073C0B5EE86AD8A0010E0E5EF1EF2CF0FA
:1059C00008260550D8B0053C09260650D8B0063C3C
:1059D0000A260750D8B0073C0B26E86AD8B0010E5B
:1059E0000E2600360C2EC3EF2CF000B006EF2DF083
:1059F000045008260550D8B0053C09260650D8B0FA
:105A0000063C0A260750D8B0073C0B2612000001BE
:105A10000450085E0550D8A0053C095E0650D8A089
:105A2000063C0A5E0750D8A0073C0B5E0336070E03
:105A30000C6E0334083609360A360B36045003A0C0
:105A400031EF2DF0085E0550D8A0053C095E0650E8
:105A5000D8A0063C0A5E0750D8A0073C0B5E3EEF7C
:105A60002DF008260550D8B0053C09260650D8B0C0
:105A7000063C0A260750D8B0073C0B2603360C2EEE
:105A800019EF2DF00234083609360A360B36045069
:105A900003A05AEF2DF0085E0550D8A0053C095E22
:105AA0000650D8A0063C0A5E0750D8A0073C0B5E03
:105AB00067EF2DF008260550D8B0053C09260650A2
:105AC000D8B0063C0A260750D8B0073C0B26023651
:105AD000070E0C6E0234083609360A360B360450AF
